{
  "_format": "hh-sol-artifact-1",
  "contractName": "BurntPixArchives",
  "sourceName": "contracts/BurntPixArchives.sol",
  "abi": [
    {
      "inputs": [
        {
          "internalType": "address",
          "name": "_codehub",
          "type": "address"
        },
        {
          "internalType": "address",
          "name": "_registry",
          "type": "address"
        },
        {
          "internalType": "address",
          "name": "_archiveHelpers",
          "type": "address"
        },
        {
          "internalType": "address",
          "name": "_creator",
          "type": "address"
        },
        {
          "internalType": "bytes32",
          "name": "_burntPicId",
          "type": "bytes32"
        },
        {
          "internalType": "uint256",
          "name": "_maxSupply",
          "type": "uint256"
        },
        {
          "internalType": "uint256",
          "name": "_winnerIters",
          "type": "uint256"
        }
      ],
      "stateMutability": "nonpayable",
      "type": "constructor"
    },
    {
      "inputs": [],
      "name": "ERC725Y_DataKeysValuesEmptyArray",
      "type": "error"
    },
    {
      "inputs": [],
      "name": "ERC725Y_DataKeysValuesLengthMismatch",
      "type": "error"
    },
    {
      "inputs": [],
      "name": "ERC725Y_MsgValueDisallowed",
      "type": "error"
    },
    {
      "inputs": [
        {
          "internalType": "bytes",
          "name": "storedData",
          "type": "bytes"
        }
      ],
      "name": "InvalidExtensionAddress",
      "type": "error"
    },
    {
      "inputs": [
        {
          "internalType": "bytes",
          "name": "data",
          "type": "bytes"
        }
      ],
      "name": "InvalidFunctionSelector",
      "type": "error"
    },
    {
      "inputs": [],
      "name": "LSP4TokenNameNotEditable",
      "type": "error"
    },
    {
      "inputs": [],
      "name": "LSP4TokenSymbolNotEditable",
      "type": "error"
    },
    {
      "inputs": [],
      "name": "LSP4TokenTypeNotEditable",
      "type": "error"
    },
    {
      "inputs": [
        {
          "internalType": "uint256",
          "name": "callIndex",
          "type": "uint256"
        }
      ],
      "name": "LSP8BatchCallFailed",
      "type": "error"
    },
    {
      "inputs": [],
      "name": "LSP8CannotSendToAddressZero",
      "type": "error"
    },
    {
      "inputs": [],
      "name": "LSP8CannotUseAddressZeroAsOperator",
      "type": "error"
    },
    {
      "inputs": [],
      "name": "LSP8CappedSupplyCannotMintOverCap",
      "type": "error"
    },
    {
      "inputs": [],
      "name": "LSP8CappedSupplyRequired",
      "type": "error"
    },
    {
      "inputs": [],
      "name": "LSP8InvalidTransferBatch",
      "type": "error"
    },
    {
      "inputs": [
        {
          "internalType": "bytes32",
          "name": "tokenId",
          "type": "bytes32"
        }
      ],
      "name": "LSP8NonExistentTokenId",
      "type": "error"
    },
    {
      "inputs": [
        {
          "internalType": "address",
          "name": "operator",
          "type": "address"
        },
        {
          "internalType": "bytes32",
          "name": "tokenId",
          "type": "bytes32"
        }
      ],
      "name": "LSP8NonExistingOperator",
      "type": "error"
    },
    {
      "inputs": [
        {
          "internalType": "bytes32",
          "name": "tokenId",
          "type": "bytes32"
        },
        {
          "internalType": "address",
          "name": "caller",
          "type": "address"
        }
      ],
      "name": "LSP8NotTokenOperator",
      "type": "error"
    },
    {
      "inputs": [
        {
          "internalType": "address",
          "name": "tokenOwner",
          "type": "address"
        },
        {
          "internalType": "bytes32",
          "name": "tokenId",
          "type": "bytes32"
        },
        {
          "internalType": "address",
          "name": "caller",
          "type": "address"
        }
      ],
      "name": "LSP8NotTokenOwner",
      "type": "error"
    },
    {
      "inputs": [
        {
          "internalType": "address",
          "name": "tokenReceiver",
          "type": "address"
        }
      ],
      "name": "LSP8NotifyTokenReceiverContractMissingLSP1Interface",
      "type": "error"
    },
    {
      "inputs": [
        {
          "internalType": "address",
          "name": "tokenReceiver",
          "type": "address"
        }
      ],
      "name": "LSP8NotifyTokenReceiverIsEOA",
      "type": "error"
    },
    {
      "inputs": [
        {
          "internalType": "address",
          "name": "operator",
          "type": "address"
        },
        {
          "internalType": "bytes32",
          "name": "tokenId",
          "type": "bytes32"
        }
      ],
      "name": "LSP8OperatorAlreadyAuthorized",
      "type": "error"
    },
    {
      "inputs": [
        {
          "internalType": "address",
          "name": "caller",
          "type": "address"
        },
        {
          "internalType": "address",
          "name": "tokenOwner",
          "type": "address"
        },
        {
          "internalType": "bytes32",
          "name": "tokenId",
          "type": "bytes32"
        }
      ],
      "name": "LSP8RevokeOperatorNotAuthorized",
      "type": "error"
    },
    {
      "inputs": [],
      "name": "LSP8TokenContractCannotHoldValue",
      "type": "error"
    },
    {
      "inputs": [
        {
          "internalType": "bytes32",
          "name": "tokenId",
          "type": "bytes32"
        }
      ],
      "name": "LSP8TokenIdAlreadyMinted",
      "type": "error"
    },
    {
      "inputs": [],
      "name": "LSP8TokenIdFormatNotEditable",
      "type": "error"
    },
    {
      "inputs": [],
      "name": "LSP8TokenIdsDataEmptyArray",
      "type": "error"
    },
    {
      "inputs": [],
      "name": "LSP8TokenIdsDataLengthMismatch",
      "type": "error"
    },
    {
      "inputs": [],
      "name": "LSP8TokenOwnerCannotBeOperator",
      "type": "error"
    },
    {
      "inputs": [
        {
          "internalType": "bytes32",
          "name": "tokenId",
          "type": "bytes32"
        },
        {
          "internalType": "address",
          "name": "oldOwner",
          "type": "address"
        },
        {
          "internalType": "address",
          "name": "newOwner",
          "type": "address"
        }
      ],
      "name": "LSP8TokenOwnerChanged",
      "type": "error"
    },
    {
      "inputs": [
        {
          "internalType": "bytes4",
          "name": "functionSelector",
          "type": "bytes4"
        }
      ],
      "name": "NoExtensionFoundForFunctionSelector",
      "type": "error"
    },
    {
      "inputs": [
        {
          "internalType": "address",
          "name": "callerAddress",
          "type": "address"
        }
      ],
      "name": "OwnableCallerNotTheOwner",
      "type": "error"
    },
    {
      "inputs": [],
      "name": "OwnableCannotSetZeroAddressAsOwner",
      "type": "error"
    },
    {
      "anonymous": false,
      "inputs": [
        {
          "indexed": true,
          "internalType": "bytes32",
          "name": "dataKey",
          "type": "bytes32"
        },
        {
          "indexed": false,
          "internalType": "bytes",
          "name": "dataValue",
          "type": "bytes"
        }
      ],
      "name": "DataChanged",
      "type": "event"
    },
    {
      "anonymous": false,
      "inputs": [
        {
          "indexed": true,
          "internalType": "address",
          "name": "operator",
          "type": "address"
        },
        {
          "indexed": true,
          "internalType": "address",
          "name": "tokenOwner",
          "type": "address"
        },
        {
          "indexed": true,
          "internalType": "bytes32",
          "name": "tokenId",
          "type": "bytes32"
        },
        {
          "indexed": false,
          "internalType": "bytes",
          "name": "operatorNotificationData",
          "type": "bytes"
        }
      ],
      "name": "OperatorAuthorizationChanged",
      "type": "event"
    },
    {
      "anonymous": false,
      "inputs": [
        {
          "indexed": true,
          "internalType": "address",
          "name": "operator",
          "type": "address"
        },
        {
          "indexed": true,
          "internalType": "address",
          "name": "tokenOwner",
          "type": "address"
        },
        {
          "indexed": true,
          "internalType": "bytes32",
          "name": "tokenId",
          "type": "bytes32"
        },
        {
          "indexed": false,
          "internalType": "bool",
          "name": "notified",
          "type": "bool"
        },
        {
          "indexed": false,
          "internalType": "bytes",
          "name": "operatorNotificationData",
          "type": "bytes"
        }
      ],
      "name": "OperatorRevoked",
      "type": "event"
    },
    {
      "anonymous": false,
      "inputs": [
        {
          "indexed": true,
          "internalType": "address",
          "name": "previousOwner",
          "type": "address"
        },
        {
          "indexed": true,
          "internalType": "address",
          "name": "newOwner",
          "type": "address"
        }
      ],
      "name": "OwnershipTransferred",
      "type": "event"
    },
    {
      "anonymous": false,
      "inputs": [
        {
          "indexed": true,
          "internalType": "bytes32",
          "name": "tokenId",
          "type": "bytes32"
        },
        {
          "indexed": true,
          "internalType": "bytes32",
          "name": "dataKey",
          "type": "bytes32"
        },
        {
          "indexed": false,
          "internalType": "bytes",
          "name": "dataValue",
          "type": "bytes"
        }
      ],
      "name": "TokenIdDataChanged",
      "type": "event"
    },
    {
      "anonymous": false,
      "inputs": [
        {
          "indexed": false,
          "internalType": "address",
          "name": "operator",
          "type": "address"
        },
        {
          "indexed": true,
          "internalType": "address",
          "name": "from",
          "type": "address"
        },
        {
          "indexed": true,
          "internalType": "address",
          "name": "to",
          "type": "address"
        },
        {
          "indexed": true,
          "internalType": "bytes32",
          "name": "tokenId",
          "type": "bytes32"
        },
        {
          "indexed": false,
          "internalType": "bool",
          "name": "force",
          "type": "bool"
        },
        {
          "indexed": false,
          "internalType": "bytes",
          "name": "data",
          "type": "bytes"
        }
      ],
      "name": "Transfer",
      "type": "event"
    },
    {
      "stateMutability": "payable",
      "type": "fallback"
    },
    {
      "inputs": [],
      "name": "archiveCount",
      "outputs": [
        {
          "internalType": "uint256",
          "name": "",
          "type": "uint256"
        }
      ],
      "stateMutability": "view",
      "type": "function"
    },
    {
      "inputs": [],
      "name": "archiveHelpers",
      "outputs": [
        {
          "internalType": "address",
          "name": "",
          "type": "address"
        }
      ],
      "stateMutability": "view",
      "type": "function"
    },
    {
      "inputs": [
        {
          "internalType": "address",
          "name": "operator",
          "type": "address"
        },
        {
          "internalType": "bytes32",
          "name": "tokenId",
          "type": "bytes32"
        },
        {
          "internalType": "bytes",
          "name": "operatorNotificationData",
          "type": "bytes"
        }
      ],
      "name": "authorizeOperator",
      "outputs": [],
      "stateMutability": "nonpayable",
      "type": "function"
    },
    {
      "inputs": [
        {
          "internalType": "address",
          "name": "tokenOwner",
          "type": "address"
        }
      ],
      "name": "balanceOf",
      "outputs": [
        {
          "internalType": "uint256",
          "name": "",
          "type": "uint256"
        }
      ],
      "stateMutability": "view",
      "type": "function"
    },
    {
      "inputs": [
        {
          "internalType": "bytes[]",
          "name": "data",
          "type": "bytes[]"
        }
      ],
      "name": "batchCalls",
      "outputs": [
        {
          "internalType": "bytes[]",
          "name": "results",
          "type": "bytes[]"
        }
      ],
      "stateMutability": "nonpayable",
      "type": "function"
    },
    {
      "inputs": [
        {
          "internalType": "bytes32",
          "name": "",
          "type": "bytes32"
        }
      ],
      "name": "burntArchives",
      "outputs": [
        {
          "internalType": "bytes",
          "name": "image",
          "type": "bytes"
        },
        {
          "internalType": "uint256",
          "name": "iterations",
          "type": "uint256"
        },
        {
          "internalType": "uint256",
          "name": "level",
          "type": "uint256"
        },
        {
          "internalType": "uint256",
          "name": "blockNumber",
          "type": "uint256"
        },
        {
          "internalType": "address",
          "name": "creator",
          "type": "address"
        }
      ],
      "stateMutability": "view",
      "type": "function"
    },
    {
      "inputs": [],
      "name": "burntPicId",
      "outputs": [
        {
          "internalType": "bytes32",
          "name": "",
          "type": "bytes32"
        }
      ],
      "stateMutability": "view",
      "type": "function"
    },
    {
      "inputs": [
        {
          "internalType": "address",
          "name": "",
          "type": "address"
        }
      ],
      "name": "contributions",
      "outputs": [
        {
          "internalType": "uint256",
          "name": "iterations",
          "type": "uint256"
        }
      ],
      "stateMutability": "view",
      "type": "function"
    },
    {
      "inputs": [
        {
          "internalType": "uint256",
          "name": "",
          "type": "uint256"
        }
      ],
      "name": "contributors",
      "outputs": [
        {
          "internalType": "address",
          "name": "",
          "type": "address"
        }
      ],
      "stateMutability": "view",
      "type": "function"
    },
    {
      "inputs": [],
      "name": "currentHighestLevel",
      "outputs": [
        {
          "internalType": "uint256",
          "name": "",
          "type": "uint256"
        }
      ],
      "stateMutability": "view",
      "type": "function"
    },
    {
      "inputs": [],
      "name": "fractalClone",
      "outputs": [
        {
          "internalType": "address",
          "name": "",
          "type": "address"
        }
      ],
      "stateMutability": "view",
      "type": "function"
    },
    {
      "inputs": [
        {
          "internalType": "address",
          "name": "contributor",
          "type": "address"
        }
      ],
      "name": "getArchives",
      "outputs": [
        {
          "internalType": "bytes32[]",
          "name": "",
          "type": "bytes32[]"
        }
      ],
      "stateMutability": "view",
      "type": "function"
    },
    {
      "inputs": [
        {
          "internalType": "address[]",
          "name": "targetContributors",
          "type": "address[]"
        }
      ],
      "name": "getContributions",
      "outputs": [
        {
          "internalType": "uint256[]",
          "name": "",
          "type": "uint256[]"
        }
      ],
      "stateMutability": "view",
      "type": "function"
    },
    {
      "inputs": [
        {
          "internalType": "bytes32",
          "name": "dataKey",
          "type": "bytes32"
        }
      ],
      "name": "getData",
      "outputs": [
        {
          "internalType": "bytes",
          "name": "dataValue",
          "type": "bytes"
        }
      ],
      "stateMutability": "view",
      "type": "function"
    },
    {
      "inputs": [
        {
          "internalType": "bytes32[]",
          "name": "dataKeys",
          "type": "bytes32[]"
        }
      ],
      "name": "getDataBatch",
      "outputs": [
        {
          "internalType": "bytes[]",
          "name": "dataValues",
          "type": "bytes[]"
        }
      ],
      "stateMutability": "view",
      "type": "function"
    },
    {
      "inputs": [
        {
          "internalType": "bytes32[]",
          "name": "tokenIds",
          "type": "bytes32[]"
        },
        {
          "internalType": "bytes32[]",
          "name": "dataKeys",
          "type": "bytes32[]"
        }
      ],
      "name": "getDataBatchForTokenIds",
      "outputs": [
        {
          "internalType": "bytes[]",
          "name": "dataValues",
          "type": "bytes[]"
        }
      ],
      "stateMutability": "view",
      "type": "function"
    },
    {
      "inputs": [
        {
          "internalType": "bytes32",
          "name": "tokenId",
          "type": "bytes32"
        },
        {
          "internalType": "bytes32",
          "name": "dataKey",
          "type": "bytes32"
        }
      ],
      "name": "getDataForTokenId",
      "outputs": [
        {
          "internalType": "bytes",
          "name": "dataValue",
          "type": "bytes"
        }
      ],
      "stateMutability": "view",
      "type": "function"
    },
    {
      "inputs": [
        {
          "internalType": "bytes32",
          "name": "tokenId",
          "type": "bytes32"
        }
      ],
      "name": "getOperatorsOf",
      "outputs": [
        {
          "internalType": "address[]",
          "name": "",
          "type": "address[]"
        }
      ],
      "stateMutability": "view",
      "type": "function"
    },
    {
      "inputs": [],
      "name": "getTotalContributors",
      "outputs": [
        {
          "internalType": "uint256",
          "name": "",
          "type": "uint256"
        }
      ],
      "stateMutability": "view",
      "type": "function"
    },
    {
      "inputs": [
        {
          "internalType": "address",
          "name": "operator",
          "type": "address"
        },
        {
          "internalType": "bytes32",
          "name": "tokenId",
          "type": "bytes32"
        }
      ],
      "name": "isOperatorFor",
      "outputs": [
        {
          "internalType": "bool",
          "name": "",
          "type": "bool"
        }
      ],
      "stateMutability": "view",
      "type": "function"
    },
    {
      "inputs": [],
      "name": "isOriginalLocked",
      "outputs": [
        {
          "internalType": "bool",
          "name": "",
          "type": "bool"
        }
      ],
      "stateMutability": "view",
      "type": "function"
    },
    {
      "inputs": [
        {
          "internalType": "bytes32",
          "name": "archiveId",
          "type": "bytes32"
        },
        {
          "internalType": "address",
          "name": "to",
          "type": "address"
        }
      ],
      "name": "mintArchive",
      "outputs": [],
      "stateMutability": "nonpayable",
      "type": "function"
    },
    {
      "inputs": [],
      "name": "owner",
      "outputs": [
        {
          "internalType": "address",
          "name": "",
          "type": "address"
        }
      ],
      "stateMutability": "view",
      "type": "function"
    },
    {
      "inputs": [
        {
          "internalType": "uint256",
          "name": "iters",
          "type": "uint256"
        }
      ],
      "name": "refineToArchive",
      "outputs": [],
      "stateMutability": "nonpayable",
      "type": "function"
    },
    {
      "inputs": [],
      "name": "registry",
      "outputs": [
        {
          "internalType": "address",
          "name": "",
          "type": "address"
        }
      ],
      "stateMutability": "view",
      "type": "function"
    },
    {
      "inputs": [],
      "name": "renounceOwnership",
      "outputs": [],
      "stateMutability": "nonpayable",
      "type": "function"
    },
    {
      "inputs": [
        {
          "internalType": "address",
          "name": "operator",
          "type": "address"
        },
        {
          "internalType": "bytes32",
          "name": "tokenId",
          "type": "bytes32"
        },
        {
          "internalType": "bool",
          "name": "notify",
          "type": "bool"
        },
        {
          "internalType": "bytes",
          "name": "operatorNotificationData",
          "type": "bytes"
        }
      ],
      "name": "revokeOperator",
      "outputs": [],
      "stateMutability": "nonpayable",
      "type": "function"
    },
    {
      "inputs": [
        {
          "internalType": "bytes32",
          "name": "dataKey",
          "type": "bytes32"
        },
        {
          "internalType": "bytes",
          "name": "dataValue",
          "type": "bytes"
        }
      ],
      "name": "setData",
      "outputs": [],
      "stateMutability": "payable",
      "type": "function"
    },
    {
      "inputs": [
        {
          "internalType": "bytes32[]",
          "name": "dataKeys",
          "type": "bytes32[]"
        },
        {
          "internalType": "bytes[]",
          "name": "dataValues",
          "type": "bytes[]"
        }
      ],
      "name": "setDataBatch",
      "outputs": [],
      "stateMutability": "payable",
      "type": "function"
    },
    {
      "inputs": [
        {
          "internalType": "bytes32[]",
          "name": "tokenIds",
          "type": "bytes32[]"
        },
        {
          "internalType": "bytes32[]",
          "name": "dataKeys",
          "type": "bytes32[]"
        },
        {
          "internalType": "bytes[]",
          "name": "dataValues",
          "type": "bytes[]"
        }
      ],
      "name": "setDataBatchForTokenIds",
      "outputs": [],
      "stateMutability": "nonpayable",
      "type": "function"
    },
    {
      "inputs": [
        {
          "internalType": "bytes32",
          "name": "tokenId",
          "type": "bytes32"
        },
        {
          "internalType": "bytes32",
          "name": "dataKey",
          "type": "bytes32"
        },
        {
          "internalType": "bytes",
          "name": "dataValue",
          "type": "bytes"
        }
      ],
      "name": "setDataForTokenId",
      "outputs": [],
      "stateMutability": "nonpayable",
      "type": "function"
    },
    {
      "inputs": [
        {
          "internalType": "bytes4",
          "name": "interfaceId",
          "type": "bytes4"
        }
      ],
      "name": "supportsInterface",
      "outputs": [
        {
          "internalType": "bool",
          "name": "",
          "type": "bool"
        }
      ],
      "stateMutability": "view",
      "type": "function"
    },
    {
      "inputs": [
        {
          "internalType": "address",
          "name": "tokenOwner",
          "type": "address"
        }
      ],
      "name": "tokenIdsOf",
      "outputs": [
        {
          "internalType": "bytes32[]",
          "name": "",
          "type": "bytes32[]"
        }
      ],
      "stateMutability": "view",
      "type": "function"
    },
    {
      "inputs": [
        {
          "internalType": "bytes32",
          "name": "tokenId",
          "type": "bytes32"
        }
      ],
      "name": "tokenOwnerOf",
      "outputs": [
        {
          "internalType": "address",
          "name": "",
          "type": "address"
        }
      ],
      "stateMutability": "view",
      "type": "function"
    },
    {
      "inputs": [],
      "name": "tokenSupplyCap",
      "outputs": [
        {
          "internalType": "uint256",
          "name": "",
          "type": "uint256"
        }
      ],
      "stateMutability": "view",
      "type": "function"
    },
    {
      "inputs": [],
      "name": "totalSupply",
      "outputs": [
        {
          "internalType": "uint256",
          "name": "",
          "type": "uint256"
        }
      ],
      "stateMutability": "view",
      "type": "function"
    },
    {
      "inputs": [
        {
          "internalType": "address",
          "name": "from",
          "type": "address"
        },
        {
          "internalType": "address",
          "name": "to",
          "type": "address"
        },
        {
          "internalType": "bytes32",
          "name": "tokenId",
          "type": "bytes32"
        },
        {
          "internalType": "bool",
          "name": "force",
          "type": "bool"
        },
        {
          "internalType": "bytes",
          "name": "data",
          "type": "bytes"
        }
      ],
      "name": "transfer",
      "outputs": [],
      "stateMutability": "nonpayable",
      "type": "function"
    },
    {
      "inputs": [
        {
          "internalType": "address[]",
          "name": "from",
          "type": "address[]"
        },
        {
          "internalType": "address[]",
          "name": "to",
          "type": "address[]"
        },
        {
          "internalType": "bytes32[]",
          "name": "tokenId",
          "type": "bytes32[]"
        },
        {
          "internalType": "bool[]",
          "name": "force",
          "type": "bool[]"
        },
        {
          "internalType": "bytes[]",
          "name": "data",
          "type": "bytes[]"
        }
      ],
      "name": "transferBatch",
      "outputs": [],
      "stateMutability": "nonpayable",
      "type": "function"
    },
    {
      "inputs": [
        {
          "internalType": "address",
          "name": "newOwner",
          "type": "address"
        }
      ],
      "name": "transferOwnership",
      "outputs": [],
      "stateMutability": "nonpayable",
      "type": "function"
    },
    {
      "inputs": [],
      "name": "winnerIters",
      "outputs": [
        {
          "internalType": "uint256",
          "name": "",
          "type": "uint256"
        }
      ],
      "stateMutability": "view",
      "type": "function"
    },
    {
      "stateMutability": "payable",
      "type": "receive"
    }
  ],
  "bytecode": "0x6101408060405234620010f35760e081620054338038038091620000248285620015cb565b833981010312620010f3576200003a81620015ef565b6200004860208301620015ef565b906200005760408401620015ef565b6200006560608501620015ef565b93608081015160c060a08301519201516040516200008381620015af565b601c81527f4275726e74205069782041726368697665733a20536561736f6e203100000000602082015260405190620000bc82620015af565b60068252654255524e543160d01b602083015233156200159d576000546001600160a01b038116338190036200155f575b5050604051620000fd81620015af565b60048152632936598960e21b602080830191909152600080516020620053938339815191526000526001905280517f072b2e8bf50bc459a586397c8474185d5dad5ea3d82533658159d53147c7bb39906001600160401b03811162000d6e578154600181811c9116801562001554575b602082101462000d4d57601f81116200150b575b506020601f8211600114620014945792600080516020620054138339815191529282620001e393600080516020620053938339815191529660009162000c74575b508160011b916000199060031b1c19161790555b6040519182918262001604565b0390a260008051602062005353833981519152600052600160205280517f2a367ae1ac46d529739aa27ac74856f860e70af05d3642d18ba60fd5d32a069a906001600160401b03811162000d6e578154600181811c9116801562001489575b602082101462000d4d57601f811162001440575b506020601f8211600114620013c95792600080516020620054138339815191529282620002b693600080516020620053538339815191529660009162000c7457508160011b916000199060031b1c19161790556040519182918262001604565b0390a2600080516020620053d3833981519152600052600160205280517f83b322886c7b7e25779e5d38e06e005c9e7aba1e1267ce9210cf24e31833535a906001600160401b03811162000d6e578154600181811c91168015620013be575b602082101462000d4d57601f811162001375575b506020601f8211600114620012fe57926000805160206200541383398151915292826200038993600080516020620053d38339815191529660009162000c7457508160011b916000199060031b1c19161790556040519182918262001604565b0390a26040516002602082015260208152620003a581620015af565b60008051602062005373833981519152600052600160205280517ff73b01b344a9bb3b96525b0cb731f6b14cde20ce6cecea8459266944490b411f906001600160401b03811162000d6e578154600181811c91168015620012f3575b602082101462000d4d57601f8111620012aa575b506020601f82116001146200123357926000805160206200541383398151915292826200047593600080516020620053738339815191529660009162000c7457508160011b916000199060031b1c19161790556040519182918262001604565b0390a260405160006020820152602081526200049181620015af565b600080516020620053b3833981519152600052600160205280517f01f5eb934e794ddcc86b89a579078013860f8fe92140885511742594f219ad0b906001600160401b03811162000d6e578154600181811c9116801562001228575b602082101462000d4d57601f8111620011df575b506020601f82116001146200116857926000805160206200541383398151915292826200056193600080516020620053b38339815191529660009162000c7457508160011b916000199060031b1c19161790556040519182918262001604565b0390a28215620011565760209260805260016008558360e05281610100528560a05261012052602460405180968193632468294560e11b835260018060a01b0316600483015260018060a01b03165afa92831562001101576000936200110d575b5060405163319c665560e01b81523060048201526001600160a01b03928316602482015263ffffffff909316604484015260209183916064918391600091165af19081156200110157600091620010ba575b5060c052604051906200062782620015af565b60108252600160801b602080840191909152600080516020620053f3833981519152600052600190528151917fde5f0adbf2cf136848982dd95860bdc3e6d8709a8a51ce1295c645c6da617db76001600160401b03841162000d6e578054600181811c91168015620010af575b602082101462000d4d57601f811162001066575b50602093601f811160011462000fef57916200070a91836000805160206200541383398151915294600080516020620053f3833981519152969760009162000c7457508160011b916000199060031b1c19161790556040519182918262001604565b0390a2604051606082901b6001600160601b031916602082015260148152906200073482620015af565b6f0452f40ece91b521d65a03607aecad0560821b60005260016020528151917fadf994b8d5b80a46660e628eabff2156c328d301fe5ea8e44cf09dee1b43e5126001600160401b03841162000d6e578054600181811c9116801562000fe4575b602082101462000d4d57601f811162000f9b575b50602093601f811160011462000f2f57809192939460009162000f23575b508160011b916000199060031b1c19161790555b60008051602062005413833981519152604051806200080e6f0452f40ece91b521d65a03607aecad0560821b948262001604565b0390a260405169036f42f57aecc15a72ed60b51b60208083019182526000602a840152606084901b6001600160601b031916602c8401528252906200085381620015af565b519051906020811062000f10575b5090604051916200087283620015af565b601483526324871b3d60e01b6020840181905292600080516020620053b3833981519152821462000efe57600080516020620053538339815191528203620008c6576040516385c169bd60e01b8152600490fd5b600080516020620053d38339815191528203620008ef57604051630eceab6760e31b8152600490fd5b6000805160206200537383398151915282036200091857604051634ef6d7fb60e01b8152600490fd5b600082815260016020526040902081516001600160401b03811162000d6e578154600181811c9116801562000ef3575b602082101462000d4d57601f811162000ea6575b506020601f821160011462000e41579181600080516020620054138339815191529492620009ac9460009162000c7457508160011b916000199060031b1c19161790556040519182918262001604565b0390a26040516020810192909252606090811b6001600160601b0319166024830152611388603880840191909152825281016001600160401b0381118282101762000d6e576040527fc0569ca6c9180acc2c3590f36330a36ae19015a19f4e85c28a7631e3317e6b9d600081905260016020528151917f715c60721fcb432a46c53ac3ceeefe86aa51a6c564859a02664da1de59a8cd606001600160401b03841162000d6e578054600181811c9116801562000e36575b602082101462000d4d57601f811162000de9575b50602093601f811160011462000d8457908162000ac9939260008051602062005413833981519152959660009162000c7457508160011b916000199060031b1c19161790556040519182918262001604565b0390a260405162000ada81620015af565b6001808252600160f81b6020808401919091527f580d62ad353782eca17b89e5900e7df3b13b6f4ca9bbc2f8af8bceb0c3d1ecc660008190529190528151917f5e76a7f64a9621e22ad92c14e6ce74c38bd120088a539660dc579eab8430b2f46001600160401b03841162000d6e578054600181811c9116801562000d63575b602082101462000d4d57601f811162000d00575b50602093601f811160011462000c8057908162000bc0939260008051602062005413833981519152959660009162000c7457508160011b916000199060031b1c19161790556040519182918262001604565b0390a2604051613d0390816200165082396080518181816113a40152612ed2015260a05181818161094d01528181610c6901528181610d5b0152818161151401526125f8015260c0518181816108af0152818161116101526131cb015260e051818181610a870152818161192e01528181612e75015261322a01526101005181818161083601528181611dbc0152818161261b01528181612e4801526131f20152610120518181816109d101526118c40152f35b905083015138620001c2565b601f1981168260005260206000209060005b81811062000ce75750916001916000805160206200541383398151915296978262000bc09796951062000ccd575b5050811b019055620001d6565b85015160001960f88460031b161c19169055388062000cc0565b8588015183556020978801976001909301920162000c92565b816000526020600020601f860160051c8101916020871062000d42575b601f0160051c01905b81811062000d35575062000b6e565b6000815560010162000d26565b909150819062000d1d565b634e487b7160e01b600052602260045260246000fd5b90607f169062000b5a565b634e487b7160e01b600052604160045260246000fd5b601f1981168260005260206000209060005b81811062000dd05750916001916000805160206200541383398151915296978262000ac99796951062000ccd575050811b019055620001d6565b8588015183556020978801976001909301920162000d96565b816000526020600020601f860160051c8101916020871062000e2b575b601f0160051c01905b81811062000e1e575062000a77565b6000815560010162000e0f565b909150819062000e06565b90607f169062000a63565b601f198216908360005260206000209160005b81811062000e8d575092620009ac9492600192826000805160206200541383398151915298961062000ccd575050811b019055620001d6565b9192602060018192868a01518155019401920162000e54565b826000526020600020601f830160051c8101916020841062000ee8575b601f0160051c01905b81811062000edb57506200095c565b6000815560010162000ecc565b909150819062000ec3565b90607f169062000948565b604051631b32400560e11b8152600490fd5b6000199060200360031b1b163862000861565b905083015138620007c6565b81600052602060002060005b601f198316811062000f82575060019293949582601f1981161062000f68575b5050811b019055620007da565b85015160001960f88460031b161c19169055388062000f5b565b8487015182556020968701966001909201910162000f3b565b816000526020600020601f860160051c81016020871062000fdc575b601f830160051c8201811062000fcf575050620007a8565b6000815560010162000fb7565b508062000fb7565b90607f169062000794565b81600052602060002060005b601f19831681106200104d5750916001826200070a94600080516020620053f38339815191529798600080516020620054138339815191529795601f1981161062000ccd575050811b019055620001d6565b8487015182556020968701966001909201910162000ffb565b816000526020600020601f860160051c810160208710620010a7575b601f830160051c820181106200109a575050620006a8565b6000815560010162001082565b508062001082565b90607f169062000694565b90506020813d602011620010f8575b81620010d860209383620015cb565b81010312620010f357620010ec90620015ef565b3862000614565b600080fd5b3d9150620010c9565b6040513d6000823e3d90fd5b9092506020813d6020116200114d575b816200112c60209383620015cb565b81010312620010f357519163ffffffff83168303620010f3576064620005c2565b3d91506200111d565b60405163038d9fc360e41b8152600490fd5b8260005260206000209060005b601f1984168110620011c6575092600183600080516020620053b3833981519152969360008051602062005413833981519152966200056196601f1981161062000ccd575050811b019055620001d6565b9091602060018192858901518155019301910162001175565b826000526020600020601f830160051c81016020841062001220575b601f830160051c820181106200121357505062000501565b60008155600101620011fb565b5080620011fb565b90607f1690620004ed565b8260005260206000209060005b601f19841681106200129157509260018360008051602062005373833981519152969360008051602062005413833981519152966200047596601f1981161062000ccd575050811b019055620001d6565b9091602060018192858901518155019301910162001240565b826000526020600020601f830160051c810160208410620012eb575b601f830160051c82018110620012de57505062000415565b60008155600101620012c6565b5080620012c6565b90607f169062000401565b8260005260206000209060005b601f19841681106200135c575092600183600080516020620053d3833981519152969360008051602062005413833981519152966200038996601f1981161062000ccd575050811b019055620001d6565b909160206001819285890151815501930191016200130b565b826000526020600020601f830160051c810160208410620013b6575b601f830160051c82018110620013a957505062000329565b6000815560010162001391565b508062001391565b90607f169062000315565b8260005260206000209060005b601f1984168110620014275750926001836000805160206200535383398151915296936000805160206200541383398151915296620002b696601f1981161062000ccd575050811b019055620001d6565b90916020600181928589015181550193019101620013d6565b826000526020600020601f830160051c81016020841062001481575b601f830160051c820181106200147457505062000256565b600081556001016200145c565b50806200145c565b90607f169062000242565b8260005260206000209060005b601f1984168110620014f25750926001836000805160206200539383398151915296936000805160206200541383398151915296620001e396601f1981161062000ccd575050811b019055620001d6565b90916020600181928589015181550193019101620014a1565b826000526020600020601f830160051c8101602084106200154c575b601f830160051c820181106200153f57505062000181565b6000815560010162001527565b508062001527565b90607f16906200016d565b33907f8be0079c531659141344cd1fd0a4f28419497f9722a3daafe3b4186f6b6457e0600080a36001600160a01b03191633176000553880620000ed565b6040516306b620db60e21b8152600490fd5b604081019081106001600160401b0382111762000d6e57604052565b601f909101601f19168101906001600160401b0382119082101762000d6e57604052565b51906001600160a01b0382168203620010f357565b6020808252825181830181905290939260005b8281106200163a57505060409293506000838284010152601f8019910116010190565b8181018601518482016040015285016200161756fe6080604052600436101561002a575b36156100255761001d36612c3e565b602081519101f35b612be8565b60003560e01c806301ffc9a7146102aa57806316e023b3146102a557806318160ddd146102a05780631ba1e3ea1461029b5780631d26fce6146102965780631d2aeefc146102915780631ff5db4a1461028c578063217b2270146102875780632a3654a4146102825780633aee53021461027d5780633cb5d100146102785780633cf77e721461027357806342e94c901461026e5780634488623e1461026957806349a6078d146102645780634df8e7f61461025f578063511b69521461025a57806352058d8a1461025557806354f6127f146102505780636963d4381461024b57806370a0823114610246578063715018a6146102415780637b1039991461023c5780637e87632c146102375780637f23690c1461023257806386a10ddd1461022d5780638d24306e146102285780638da5cb5b1461022357806390eb6bf01461021e5780639790242114610219578063a3b261f214610214578063ac7009381461020f578063be9f0e6f1461020a578063d09f347314610205578063d6c1407c14610200578063da16e454146101fb578063db8c9663146101f6578063dc58a56c146101f1578063dedff9c6146101ec5763f2fde38b0361000e57611f99565b611f11565b611ef3565b611ddf565b611da4565b611d5d565b611cda565b611ae6565b611ac8565b611a49565b611952565b61190e565b6118e7565b6118ac565b611711565b6116bb565b611621565b6114f4565b61148a565b61144c565b6113e6565b6113c7565b61138c565b611329565b611299565b6111ca565b611141565b611100565b6110e5565b611091565b610fa9565b610f0a565b610edb565b610e39565b6107c7565b6106ec565b6104b5565b61044a565b610409565b346103a85760203660031901126103a8576004356001600160e01b031981168082036103a85761031a917f3a27170600000000000000000000000000000000000000000000000000000000821491821561032e575b50811561031e575b5060405190151581529081906020820190565b0390f35b6103289150612c8a565b38610307565b9091507fa918fa6b000000000000000000000000000000000000000000000000000000008114908115610364575b5090386102ff565b7f629aa69400000000000000000000000000000000000000000000000000000000811491508115610397575b503861035c565b6301ffc9a760e01b91501438610390565b600080fd5b60005b8381106103c05750506000910152565b81810151838201526020016103b0565b906020916103e9815180928185528580860191016103ad565b601f01601f1916010190565b9060206104069281815201906103d0565b90565b346103a85760403660031901126103a85761031a61042b602435600435612d4f565b6040519182916020835260208301906103d0565b60009103126103a857565b346103a85760003660031901126103a8576020600254604051908152f35b6001600160a01b038116036103a857565b602090602060408183019282815285518094520193019160005b8281106104a1575050505090565b835185529381019392810192600101610493565b346103a8576020806003193601126103a8576001600160a01b036004356104db81610468565b16600052600a6020526040600020906040519081602084549182815201936000526020600020916000905b8282106105295761031a8561051d818903826105df565b60405191829182610479565b835486529485019460019384019390910190610506565b634e487b7160e01b600052604160045260246000fd5b67ffffffffffffffff811161056a57604052565b610540565b60a0810190811067ffffffffffffffff82111761056a57604052565b6020810190811067ffffffffffffffff82111761056a57604052565b6040810190811067ffffffffffffffff82111761056a57604052565b6060810190811067ffffffffffffffff82111761056a57604052565b90601f8019910116810190811067ffffffffffffffff82111761056a57604052565b6040519061060e8261056f565b565b67ffffffffffffffff811161056a5760051b60200190565b9080601f830112156103a857602090823561064281610610565b9361065060405195866105df565b81855260208086019260051b8201019283116103a857602001905b828210610679575050505090565b8135815290830190830161066b565b6020808201906020835283518092526040830192602060408460051b8301019501936000915b8483106106be5750505050505090565b90919293949584806106dc600193603f198682030187528a516103d0565b98019301930191949392906106ae565b346103a85760403660031901126103a85767ffffffffffffffff6004358181116103a85761071e903690600401610628565b906024359081116103a857610737903690600401610628565b9080518251036107a45761074b8151612047565b9160005b8251811015610796578061077a61076860019386612091565b516107738386612091565b5190612d4f565b6107848287612091565b5261078f8186612091565b500161074f565b6040518061031a8682610688565b60046040516317d38eff60e11b8152fd5b60209060031901126103a85760043590565b346103a8576107d5366107b5565b6107e08115156120a5565b60016107ff336001600160a01b0316600052600a602052604060002090565b015415610e2b575b6001610826336001600160a01b0316600052600a602052604060002090565b0161083282825461213b565b90557f0000000000000000000000000000000000000000000000000000000000000000906001600160a01b036040928351917f4358d2be0000000000000000000000000000000000000000000000000000000091828452602091600495838688818587165afa958615610c1957600096610e0c575b5087518581527f000000000000000000000000000000000000000000000000000000000000000083169685828a818b5afa908115610c19576108f192600092610ded575b50612163565b863b156103a85788517f4594229c00000000000000000000000000000000000000000000000000000000815260008180610932868d83019190602083019252565b0381838c5af18015610c1957610dda575b5080610d455750817f000000000000000000000000000000000000000000000000000000000000000016803b156103a857885163ea25558360e01b8152808901858152602081019390935291600091839182908490829060400103925af18015610c1957610d32575b505b60016109cd336001600160a01b0316600052600a602052604060002090565b01547f0000000000000000000000000000000000000000000000000000000000000000111580610d24575b610c66575b610a839150826001610a22336001600160a01b0316600052600a602052604060002090565b015491610a4b610a45336001600160a01b0316600052600a602052604060002090565b54612128565b90895180809681947fcd7782690000000000000000000000000000000000000000000000000000000083528c83019190602083019252565b03917f0000000000000000000000000000000000000000000000000000000000000000165afa918215610c1957600092610c47575b501015610ac157005b610acc600754612170565b91610ad683600755565b610afc83610af7336001600160a01b0316600052600a602052604060002090565b61219d565b8551947f54f6127f00000000000000000000000000000000000000000000000000000000865260008680610b56848201907f2abb082c1b23ea79fce2a9e934ecb19ce15738b1483c365d0125f47e8ccc7dfc602083019252565b0381885afa958615610c1957600096610c1e575b5090829187518096819382525afa948515610c1957610be195610bdc94600091610bec575b50336000908152600a602052604090205492610ba9610601565b9687528601528401908152436060850152336080850152516008548111610be3575b506000526009602052604060002090565b612362565b005b60085538610bcb565b610c0c9150833d8511610c12575b610c0481836105df565b810190612148565b38610b8f565b503d610bfa565b612157565b8392919650610c3f903d806000833e610c3781836105df565b8101906121db565b959091610b6a565b610c5f919250833d8511610c1257610c0481836105df565b9038610ab8565b807f000000000000000000000000000000000000000000000000000000000000000016803b156103a85787517f511b69520000000000000000000000000000000000000000000000000000000081523088820190815233602082015260408101949094526001606085015260a060808501819052600090850181905290939091849182908490829060c00103925af1918215610c1957610a8392610d0b575b506109fd565b80610d18610d1e92610556565b8061043f565b38610d05565b50610d2d6125ed565b6109f8565b80610d18610d3f92610556565b386109ac565b808211610d54575b50506109ae565b610d8190837f00000000000000000000000000000000000000000000000000000000000000001692612163565b90803b156103a857885163ea25558360e01b8152808901858152602081019390935291600091839182908490829060400103925af18015610c1957610dc7575b80610d4d565b80610d18610dd492610556565b38610dc1565b80610d18610de792610556565b38610943565b610e05919250873d8911610c1257610c0481836105df565b90386108eb565b610e24919650843d8611610c1257610c0481836105df565b94386108a7565b610e34336120ac565b610807565b346103a85760403660031901126103a857610be1602435600435610e5c82610468565b806000526009602052610ecd608060406000206001600160a01b03600460405192610e868461056f565b604051610e9e81610e978185611c29565b03826105df565b845260018101546020850152600281015460408501526003810154606085015201541691829101523314612493565b610ed561251e565b91612ebe565b346103a85760203660031901126103a8576020610ef9600435612531565b6001600160a01b0360405191168152f35b346103a85760403660031901126103a8576020610f35600435610f2c81610468565b6024359061304e565b6040519015158152f35b9080601f830112156103a8576020908235610f5981610610565b93610f6760405195866105df565b81855260208086019260051b8201019283116103a857602001905b828210610f90575050505090565b8380918335610f9e81610468565b815201910190610f82565b346103a8576020806003193601126103a85760043567ffffffffffffffff81116103a857610fdb903690600401610f3f565b8051610fe681610610565b92604091610ff760405195866105df565b808552611006601f1991610610565b0136602086013760009060005b845181101561105057806001600160a01b0361103160019388612091565b51168452600a83528185852001546110498289612091565b5201611013565b6040518061031a8882610479565b634e487b7160e01b600052603260045260246000fd5b805482101561108c5760005260206000200190600090565b61105e565b346103a85761109f366107b5565b6006548110156103a8576001600160a01b0360209160066000527ff652222313e28459528d920b65115c16c04f3efc82aaedc97be59f3f377c0d3f015416604051908152f35b346103a85760003660031901126103a8576020610f356125ed565b346103a85760203660031901126103a8576001600160a01b0360043561112581610468565b16600052600a6020526020600160406000200154604051908152f35b346103a85760003660031901126103a85760206040516001600160a01b037f0000000000000000000000000000000000000000000000000000000000000000168152f35b602090602060408183019282815285518094520193019160005b8281106111ad575050505090565b83516001600160a01b03168552938101939281019260010161119f565b346103a8576020806003193601126103a8576004356111ff8160005260036020526001600160a01b0360406000205416151590565b156112685760005260056020526040600020906040519081602084549182815201936000526020600020916000905b8282106112515761031a85611245818903826105df565b60405191829182611185565b83548652948501946001938401939091019061122e565b602490604051907fae8f9a360000000000000000000000000000000000000000000000000000000082526004820152fd5b346103a85760003660031901126103a8576020600754604051908152f35b6044359081151582036103a857565b67ffffffffffffffff811161056a57601f01601f191660200190565b81601f820112156103a8578035906112f9826112c6565b9261130760405194856105df565b828452602083830101116103a857816000926020809301838601378301015290565b346103a85760a03660031901126103a85760043561134681610468565b60243561135281610468565b60643580151581036103a8576084359267ffffffffffffffff84116103a857611382610be19436906004016112e2565b9260443591612755565b346103a85760003660031901126103a85760206040517f00000000000000000000000000000000000000000000000000000000000000008152f35b346103a85760203660031901126103a85761031a61042b600435613154565b346103a85760203660031901126103a85767ffffffffffffffff6004358181116103a857366023820112156103a85780600401359182116103a8573660248360051b830101116103a85761031a91602461144092016129f1565b60405191829182610688565b346103a85760203660031901126103a8576001600160a01b0360043561147181610468565b1660005260046020526020604060002054604051908152f35b346103a8576000806003193601126114f1576114a461325e565b80546001600160a01b0381169082826114ba5780f35b6001600160a01b0319927f8be0079c531659141344cd1fd0a4f28419497f9722a3daafe3b4186f6b6457e08280a316815538808280f35b80fd5b346103a85760003660031901126103a85760206040516001600160a01b037f0000000000000000000000000000000000000000000000000000000000000000168152f35b9080601f830112156103a857602090823561155281610610565b9361156060405195866105df565b81855260208086019260051b8201019283116103a857602001905b828210611589575050505090565b813580151581036103a857815290830190830161157b565b81601f820112156103a8578035916020916115bb84610610565b936115c960405195866105df565b808552838086019160051b830101928084116103a857848301915b8483106115f45750505050505090565b823567ffffffffffffffff81116103a8578691611616848480948901016112e2565b8152019201916115e4565b346103a85760a03660031901126103a857600467ffffffffffffffff81358181116103a8576116539036908401610f3f565b906024358181116103a85761166b9036908501610f3f565b6044358281116103a8576116829036908601610628565b906064358381116103a85761169a9036908701611538565b926084359081116103a857610be1956116b5913691016115a1565b93612aa8565b60403660031901126103a85760243567ffffffffffffffff81116103a8576116e79036906004016112e2565b6116ef61325e565b3461170057610be1906004356132a2565b600460405163f36ba73760e01b8152fd5b346103a85760603660031901126103a857600480359061173082610468565b60243560443567ffffffffffffffff81116103a85761175290369084016112e2565b9161175c82612531565b906001600160a01b03808316923384036118755750851690811561186657818314611857576117a56117a18761179c876000526005602052604060002090565b61343a565b1590565b61180d5750918061180892610be196947f1b1b58aa2ec0cec2228b2d37124556d41f5a1f7b12f089171f896cc236671215604051806117e48a826103f5565b0390a46117fa6040519485923360208501612b90565b03601f1981018452836105df565b613adf565b604080517fa7626b680000000000000000000000000000000000000000000000000000000081526001600160a01b03881692810192835260208301869052918291010390fd5b0390fd5b6040516344fed6b160e11b8152fd5b604051639577b8b360e01b8152fd5b60408051632d938f5160e11b81526001600160a01b0390921682850190815260208101879052339181019190915281906060010390fd5b346103a85760003660031901126103a85760206040517f00000000000000000000000000000000000000000000000000000000000000008152f35b346103a85760003660031901126103a85760206001600160a01b0360005416604051908152f35b346103a85760003660031901126103a85760206040516001600160a01b037f0000000000000000000000000000000000000000000000000000000000000000168152f35b60403660031901126103a857600467ffffffffffffffff81358181116103a85761197f9036908401610628565b906024359081116103a85761199790369084016115a1565b916119a061325e565b34611a3a578151835103611a12578151156119ea575060005b8151811015610be157806119e46119d260019385612091565b516119dd8387612091565b51906132a2565b016119b9565b6040517f97da5f95000000000000000000000000000000000000000000000000000000008152fd5b6040517f3bcc8979000000000000000000000000000000000000000000000000000000008152fd5b60405163f36ba73760e01b8152fd5b346103a8576020806003193601126103a8576001600160a01b03600435611a6f81610468565b1660005260046020526040600020906040519081602084549182815201936000526020600020916000905b828210611ab15761031a8561051d818903826105df565b835486529485019460019384019390910190611a9a565b346103a85760003660031901126103a8576020600854604051908152f35b346103a85760603660031901126103a857600467ffffffffffffffff81358181116103a857611b189036908401610628565b6024358281116103a857611b2f9036908501610628565b916044359081116103a857611b4790369085016115a1565b92611b5061325e565b8151835180911490811591611be3575b50611bd457815115611bac575060005b8151811015610be15780611ba6611b8960019385612091565b51611b948387612091565b51611b9f8489612091565b519161344d565b01611b70565b6040517f80c98305000000000000000000000000000000000000000000000000000000008152fd5b6040516317d38eff60e11b8152fd5b90508451141538611b60565b90600182811c92168015611c1f575b6020831014611c0957565b634e487b7160e01b600052602260045260246000fd5b91607f1691611bfe565b805460009392611c3882611bef565b91828252602093600191600181169081600014611ca05750600114611c5f575b5050505050565b90939495506000929192528360002092846000945b838610611c8c57505050500101903880808080611c58565b805485870183015294019385908201611c74565b60ff19168685015250505090151560051b010191503880808080611c58565b9061060e611cd39260405193848092611c29565b03836105df565b346103a85760203660031901126103a8576004356000526009602052611d44604060002060405190611d1082611cd38184611c29565b6001810154906002810154906001600160a01b0360046003830154920154169160405195869560a0875260a08701906103d0565b9360208601526040850152606084015260808301520390f35b346103a85760603660031901126103a85760443567ffffffffffffffff81116103a857611d91610be19136906004016112e2565b611d9961325e565b60243560043561344d565b346103a85760003660031901126103a85760206040517f00000000000000000000000000000000000000000000000000000000000000008152f35b346103a85760803660031901126103a857600435611dfc81610468565b602435611e076112b7565b9160643567ffffffffffffffff81116103a857611e289036906004016112e2565b611e3183612531565b936001600160a01b0380861690813303611ea3575b8416908115611e925714611e8157611e6182828688876135b3565b611e6757005b610be1936117fa6118089260405195869360208501612bbc565b60046040516344fed6b160e11b8152fd5b6004604051639577b8b360e01b8152fd5b8481163314611e46576040517f760b5acd0000000000000000000000000000000000000000000000000000000081523360048201526001600160a01b038816602482015260448101879052606490fd5b346103a85760003660031901126103a8576020600654604051908152f35b346103a85760203660031901126103a85760043567ffffffffffffffff81116103a857611f42903690600401610628565b611f4c8151612047565b9060005b8151811015611f8b5780611f6f611f6960019385612091565b51613154565b611f798286612091565b52611f848185612091565b5001611f50565b6040518061031a8582610688565b346103a85760203660031901126103a857600435611fb681610468565b611fbe61325e565b6001600160a01b03809116801561201d57600091825490811690818303611fe3578380f35b826001600160a01b0319927f8be0079c531659141344cd1fd0a4f28419497f9722a3daafe3b4186f6b6457e08680a3161781553880808380f35b60046040517f1ad8836c000000000000000000000000000000000000000000000000000000008152fd5b9061205182610610565b61205e60405191826105df565b828152809261206f601f1991610610565b019060005b82811061208057505050565b806060602080938501015201612074565b805182101561108c5760209160051b010190565b156103a857565b6006546801000000000000000081101561056a57600181018060065581101561108c576001600160a01b039060066000527ff652222313e28459528d920b65115c16c04f3efc82aaedc97be59f3f377c0d3f0191166001600160a01b0319825416179055565b634e487b7160e01b600052601160045260246000fd5b906001820180921161213657565b612112565b9190820180921161213657565b908160209103126103a8575190565b6040513d6000823e3d90fd5b9190820391821161213657565b60001981146121365760010190565b916121999183549060031b91821b91600019901b19161790565b9055565b8054906801000000000000000082101561056a57816121c491600161219994018155611074565b819391549060031b91821b91600019901b19161790565b6020818303126103a85780519067ffffffffffffffff82116103a8570181601f820112156103a857805161220e816112c6565b9261221c60405194856105df565b818452602082840101116103a85761040691602080850191016103ad565b90601f811161224857505050565b6000916000526020600020906020601f850160051c83019410612286575b601f0160051c01915b82811061227b57505050565b81815560010161226f565b9092508290612266565b919091825167ffffffffffffffff811161056a576122b8816122b28454611bef565b8461223a565b602080601f83116001146122f7575081906121999394956000926122ec575b50508160011b916000199060031b1c19161790565b0151905038806122d7565b90601f1983169561230d85600052602060002090565b926000905b88821061234a57505083600195969710612331575b505050811b019055565b015160001960f88460031b161c19169055388080612327565b80600185968294968601518155019501930190612312565b919091825192835167ffffffffffffffff811161056a5761238d816123878554611bef565b8561223a565b602080601f831160011461241757506004926123cb836123fa9460809461060e999a6000926122ec5750508160011b916000199060031b1c19161790565b85555b60208101516001860155604081015160028601556060810151600386015501516001600160a01b031690565b9101906001600160a01b03166001600160a01b0319825416179055565b90601f1983169661242d86600052602060002090565b926000905b89821061247b57505083608093600496936001936123fa9761060e9b9c10612462575b505050811b0185556123ce565b015160001960f88460031b161c19169055388080612455565b80600185968294968601518155019501930190612432565b1561249a57565b60846040517f08c379a000000000000000000000000000000000000000000000000000000000815260206004820152603f60248201527f4275726e7450697841726368697665733a204f6e6c792074686520617263686960448201527f76652063726561746f722063616e206d696e74207468652061726368697665006064820152fd5b6040519061252b8261058b565b60008252565b8060005260036020526001600160a01b0360406000205416908115611268575090565b60209081818403126103a85780519067ffffffffffffffff82116103a857019180601f840112156103a857825161258a81610610565b9361259860405195866105df565b818552838086019260051b8201019283116103a8578301905b8282106125bf575050505090565b83809183516125cd81610468565b8152019101906125b1565b908160209103126103a8575161040681610468565b6001600160a01b03807f000000000000000000000000000000000000000000000000000000000000000016907f00000000000000000000000000000000000000000000000000000000000000006040517f49a6078d0000000000000000000000000000000000000000000000000000000081526000818061267685600483019190602083019252565b0381875afa908115610c1957600091612732575b50511592836126a9575b50508161269f575090565b9050600054161590565b6040517f217b2270000000000000000000000000000000000000000000000000000000008152600481019290925291925090602090829060249082905afa908115610c1957600091612703575b5081163014903880612694565b612725915060203d60201161272b575b61271d81836105df565b8101906125d8565b386126f6565b503d612713565b61274f91503d806000833e61274781836105df565b810190612554565b3861268a565b90929391612763813361304e565b1561293a5761277181612531565b6001600160a01b03818116918482169182840361290a578088169384156128e05761279b86612531565b918216036128975750509261288d838061060e9997946117fa99976127c36128929887613861565b6127e9836127e4886001600160a01b03166000526004602052604060002090565b613c18565b506128108361280b8b6001600160a01b03166000526004602052604060002090565b613aa8565b5061284489612829856000526003602052604060002090565b906001600160a01b03166001600160a01b0319825416179055565b6040517fb333c813a7426a7a11e2b190cad52c44119421594b47f6f32ace6d8c7207b2bf90806128768a8e33846130c0565b0390a460405197889485928886336020870161311d565b613b4a565b6139e2565b6040517f5a9c31d3000000000000000000000000000000000000000000000000000000008152600481018690526001600160a01b03928316602482015291166044820152606490fd5b60046040517f24ecef4d000000000000000000000000000000000000000000000000000000008152fd5b604051632d938f5160e11b81526001600160a01b0383811660048301526024820187905287166044820152606490fd5b604490604051907f1294d2a90000000000000000000000000000000000000000000000000000000082526004820152336024820152fd5b919081101561108c5760051b81013590601e19813603018212156103a857019081359167ffffffffffffffff83116103a85760200182360381136103a8579190565b908092918237016000815290565b3d156129ec573d906129d2826112c6565b916129e060405193846105df565b82523d6000602084013e565b606090565b91906129fc81612047565b9260009160005b818110612a105750505050565b8380612a1d838587612971565b60409391612a2f8551809381936129b3565b0390305af490612a3d6129c1565b9115612a64575090600191612a528289612091565b52612a5d8188612091565b5001612a03565b815191929115612a7657825160208401fd5b517f234eb819000000000000000000000000000000000000000000000000000000008152600481019190915260249150fd5b949390919285519383518514801590612b85575b8015612b7a575b8015612b6f575b612b455760005b858110612ae2575050505050509050565b80612b3f612b02612af56001948c612091565b516001600160a01b031690565b612b0f612af5848a612091565b612b198487612091565b51612b2d612b27868a612091565b51151590565b91612b38868b612091565b5193612755565b01612ad1565b60046040517f93a83119000000000000000000000000000000000000000000000000000000008152fd5b508251851415612aca565b508151851415612ac3565b508051851415612abc565b61040693926001600160a01b0360809316825260208201526001604082015281606082015201906103d0565b61040693926001600160a01b0360809316825260208201526000604082015281606082015201906103d0565b3415612c185760046040517f61f49442000000000000000000000000000000000000000000000000000000008152fd5b606460405163e5099ee360e01b8152602060048201526004602482015260006044820152fd5b60043610612c4f576104069061367e565b6044604051809263e5099ee360e01b825260206004830152806024830152806000848401376000828201840152601f01601f19168101030190fd5b612cd1612ccc604051696773c5a04a6d4300884b60b11b60208201526000602a8201526301ffc9a760e01b602c82015260208152612cc7816105a7565b613bb5565b613842565b805160148114159081612d45575b50612d0757612ced9061377b565b60601c908115612d00576104069161380f565b5050600090565b611853906040519182917f42bfe79f0000000000000000000000000000000000000000000000000000000083526020600484015260248301906103d0565b9050151538612cdf565b612d6f8160005260036020526001600160a01b0360406000205416151590565b156103a8577f9afb95cacc9f95858ec44aa8c3b685511002e30ae54415823f406128b85b238e8214612db85750612db3610406916000526001602052604060002090565b611cbf565b60009081526009602052604081206001600160a01b039250916008549060405180809581947ffdaab8990000000000000000000000000000000000000000000000000000000083526060600484015260a06064840152846004612e1f610104860185611c29565b9360018101546084870152600281015460a4870152600381015460c487015201541660e48401527f00000000000000000000000000000000000000000000000000000000000000006024840152604483015203917f0000000000000000000000000000000000000000000000000000000000000000165afa908115610c1957600091612ea9575090565b61040691503d806000833e610c3781836105df565b9291909260025460018101808211612136577f000000000000000000000000000000000000000000000000000000000000000010613024576001600160a01b0382169081156128e057612f278660005260036020526001600160a01b0360406000205416151590565b612ff257612f4b8660005260036020526001600160a01b0360406000205416151590565b612ff2579480612fed92612f6a612f6561060e9899612170565b600255565b612f8b8261280b876001600160a01b03166000526004602052604060002090565b50612fa485612829846000526003602052604060002090565b60007fb333c813a7426a7a11e2b190cad52c44119421594b47f6f32ace6d8c7207b2bf60405180612fd68a3383613099565b0390a46117fa6040519485928533602086016130e7565b61397b565b6040517f34c7b51100000000000000000000000000000000000000000000000000000000815260048101879052602490fd5b60046040517fe8ba2291000000000000000000000000000000000000000000000000000000008152fd5b6001600160a01b038061306084612531565b16911690811491821561307257505090565b61040692506000526005602052604060002060019160005201602052604060002054151590565b6060906001600160a01b0361040694931681526001602082015281604082015201906103d0565b61040693926001600160a01b036060931682521515602082015281604082015201906103d0565b9092610406949360a0936001600160a01b03809216845260006020850152166040830152606082015281608082015201906103d0565b9160a0936104069695926001600160a01b0392838092168652166020850152166040830152606082015281608082015201906103d0565b7f9afb95cacc9f95858ec44aa8c3b685511002e30ae54415823f406128b85b238e811461319a576000526001602052610e97610406604060002060405192838092611c29565b506040517ffa883c730000000000000000000000000000000000000000000000000000000081526001600160a01b037f00000000000000000000000000000000000000000000000000000000000000001660048201527f00000000000000000000000000000000000000000000000000000000000000006024820152600081806044810103816001600160a01b037f0000000000000000000000000000000000000000000000000000000000000000165afa908115610c1957600091612ea9575090565b6001600160a01b0360005416330361327257565b60246040517fbf1169c5000000000000000000000000000000000000000000000000000000008152336004820152fd5b907ff675e9361af1c1664c1868cfa3eb97672d6b1a513aa5b81dec34c9ee330e818d8214613410577fdeba1e292f8ba88238e10ab3c7f88bd4be4fac56cad5194b6ecceaf653468af1820361331b5760046040517f85c169bd000000000000000000000000000000000000000000000000000000008152fd5b7f2f0a68ab07768e01943a599e73362a0e17a63a72e94dd2e384d2c1d4db932756820361336c5760046040517f76755b38000000000000000000000000000000000000000000000000000000008152fd5b7fe0261fa95db2eb3b5439bd033cda66d56b96f92f243a8228fd87550ed7bdfdb382036133bd5760046040517f4ef6d7fb000000000000000000000000000000000000000000000000000000008152fd5b61340b816133ff7fece574603820d07bc9b91f2a932baadf4628aabcb8afba49776529c14a6104b2936133fa866000526001602052604060002090565b612290565b604051918291826103f5565b0390a2565b60046040517f3664800a000000000000000000000000000000000000000000000000000000008152fd5b6001600160a01b03610406921690613aa8565b9091604051602090602081019084825285604082015260408152613470816105c3565b51902060005260018060205260406000209183519167ffffffffffffffff831161056a576134a8836134a28654611bef565b8661223a565b602091601f841160011461351e57505091613500827fa6e4251f855f750545fe414f120db91c76b88def14d120969e5bb2d3f05debbb959361350e95600091613513575b508160011b916000199060031b1c19161790565b9055604051918291826103f5565b0390a3565b9050840151386134ec565b9190601f1984169061353586600052602060002090565b936000915b83831061359c575050509261350e9492600192827fa6e4251f855f750545fe414f120db91c76b88def14d120969e5bb2d3f05debbb989610613583575b5050811b0190556133ff565b85015160001960f88460031b161c191690553880613577565b88850151865594850194938101939181019161353a565b9193928460005260056020526040600020926001600160a01b03906135db8282168096613c18565b1561362a5750906136257fc78cd419d6136f9f1c1c6aec1d3fae098cffaf8bc86314a8f2685e32fe574e3c93926040519384931515845260406020850152169560408301906103d0565b0390a4565b6040516312a8c6a360e21b81526001600160a01b0391909116600482015260248101879052604490fd5b9060349391816000823701916bffffffffffffffffffffffff199060601b16825260148201520190565b6001600160e01b031960003516906136c2612ccc604051696773c5a04a6d4300884b60b11b60208201526000602a82015284602c82015260208152612cc7816105a7565b805160148114159081613771575b50612d07576136de9061377b565b60601c918215613734575060009182916040516137158161370760208201943490339087613654565b03601f1981018352826105df565b519134905af16137236129c1565b901561372c5790565b602081519101fd5b6040517fbb370b2b0000000000000000000000000000000000000000000000000000000081526001600160e01b0319919091166004820152602490fd5b90501515386136d0565b90602082519201516bffffffffffffffffffffffff199081811693601481106137a357505050565b60140360031b82901b16169150565b6000602091604051838101906301ffc9a760e01b8252631aed5a8560e21b6024820152602481526137e2816105c3565b5191617530fa6000513d82613803575b50816137fc575090565b9050151590565b602011159150386137f2565b6000906020926040516001600160e01b0319858201926301ffc9a760e01b8452166024820152602481526137e2816105c3565b6000526001602052610e97610406604060002060405192838092611c29565b90600090808252600591602093600560205260409182812094855495825b87811061389157505050505050505050565b81541561108c578184526001600160a01b03808a86205416908751906138b68261058b565b868252898752858c526138cb838a8920613c18565b1561391d57600193927fc78cd419d6136f9f1c1c6aec1d3fae098cffaf8bc86314a8f2685e32fe574e3c8d896139148e968e968e888051968796875286015216968301906103d0565b0390a40161387f565b88516312a8c6a360e21b81526001600160a01b0384166004820152602481018b9052604490fd5b906040610406927f0b084a55ebf70fd3c06fd755269dac2212c4d3f0f4d09079780bfa50c1b2984d815281602082015201906103d0565b613984816137b2565b156139de576139b56000916001600160a01b039383604051958680958194631aed5a8560e21b835260048301613944565b0393165af18015610c19576139c75750565b6139db903d806000833e610c3781836105df565b50565b5050565b91906139ed836137b2565b15613a1f57506139b56001600160a01b039260009283604051958680958194631aed5a8560e21b835260048301613944565b905015613a295750565b803b15613a6c576040517f4349776d0000000000000000000000000000000000000000000000000000000081526001600160a01b03919091166004820152602490fd5b6040517f031731370000000000000000000000000000000000000000000000000000000081526001600160a01b03919091166004820152602490fd5b6000828152600182016020526040902054612d005780613aca8360019361219d565b80549260005201602052604060002055600190565b613ae8816137b2565b613af0575050565b6139b56000916001600160a01b039383604051958680958194631aed5a8560e21b83527f8a1c15a8799f71b547e08e2bcb2e85257e81b0a07eee2ce6712549eef1f0097060048401526040602484015260448301906103d0565b613b53816137b2565b613b5b575050565b6139b56000916001600160a01b039383604051958680958194631aed5a8560e21b83527fb23eae7e6d1564b295b4c3e3be402d9a2f0776c57bdf365903496f6fa481ab0060048401526040602484015260448301906103d0565b602081519101519060208110613bc9575090565b6000199060200360031b1b1690565b8054908115613c025760001991820191613bf28383611074565b909182549160031b1b1916905555565b634e487b7160e01b600052603160045260246000fd5b6001810191806000528260205260406000205492831515600014613cc4576000199284840190858211612136578054948501948511612136576000958583613c6c94613c7b9803613c81575b505050613bd8565b90600052602052604060002090565b55600190565b613cab613ca591613c95613cbb9487611074565b90549060031b1c92839187611074565b9061217f565b8590600052602052604060002090565b55388080613c64565b5050505060009056fea2646970667358221220fb355d1e3d421260a61f6e39a97128f3cdcc3fae4b6b3639434075e1e54d03b464736f6c63430008180033deba1e292f8ba88238e10ab3c7f88bd4be4fac56cad5194b6ecceaf653468af1e0261fa95db2eb3b5439bd033cda66d56b96f92f243a8228fd87550ed7bdfdb3eafec4d89fa9619884b60000a4d96624a38f7ac2d8d9a604ecf07c12c77e480cf675e9361af1c1664c1868cfa3eb97672d6b1a513aa5b81dec34c9ee330e818d2f0a68ab07768e01943a599e73362a0e17a63a72e94dd2e384d2c1d4db932756114bd03b3a46d48759680d81ebb2b414fda7d030a7105a851867accf1c2352e7ece574603820d07bc9b91f2a932baadf4628aabcb8afba49776529c14a6104b2",
  "linkReferences": {},
  "deployedLinkReferences": {}
}