{
  "_format": "hh-sol-artifact-1",
  "contractName": "BurntPixArchives",
  "sourceName": "contracts/BurntPixArchives.sol",
  "abi": [
    {
      "inputs": [
        {
          "internalType": "address",
          "name": "_codehub",
          "type": "address"
        },
        {
          "internalType": "address",
          "name": "_archiveHelpers",
          "type": "address"
        },
        {
          "internalType": "address",
          "name": "_creator",
          "type": "address"
        },
        {
          "internalType": "bytes32",
          "name": "_burntPicId",
          "type": "bytes32"
        },
        {
          "internalType": "uint256",
          "name": "_maxSupply",
          "type": "uint256"
        },
        {
          "internalType": "uint256",
          "name": "_winnerIters",
          "type": "uint256"
        }
      ],
      "stateMutability": "nonpayable",
      "type": "constructor"
    },
    {
      "inputs": [],
      "name": "ERC725Y_DataKeysValuesEmptyArray",
      "type": "error"
    },
    {
      "inputs": [],
      "name": "ERC725Y_DataKeysValuesLengthMismatch",
      "type": "error"
    },
    {
      "inputs": [],
      "name": "ERC725Y_MsgValueDisallowed",
      "type": "error"
    },
    {
      "inputs": [
        {
          "internalType": "bytes",
          "name": "storedData",
          "type": "bytes"
        }
      ],
      "name": "InvalidExtensionAddress",
      "type": "error"
    },
    {
      "inputs": [
        {
          "internalType": "bytes",
          "name": "data",
          "type": "bytes"
        }
      ],
      "name": "InvalidFunctionSelector",
      "type": "error"
    },
    {
      "inputs": [],
      "name": "LSP4TokenNameNotEditable",
      "type": "error"
    },
    {
      "inputs": [],
      "name": "LSP4TokenSymbolNotEditable",
      "type": "error"
    },
    {
      "inputs": [],
      "name": "LSP4TokenTypeNotEditable",
      "type": "error"
    },
    {
      "inputs": [
        {
          "internalType": "uint256",
          "name": "callIndex",
          "type": "uint256"
        }
      ],
      "name": "LSP8BatchCallFailed",
      "type": "error"
    },
    {
      "inputs": [],
      "name": "LSP8CannotSendToAddressZero",
      "type": "error"
    },
    {
      "inputs": [],
      "name": "LSP8CannotUseAddressZeroAsOperator",
      "type": "error"
    },
    {
      "inputs": [],
      "name": "LSP8CappedSupplyCannotMintOverCap",
      "type": "error"
    },
    {
      "inputs": [],
      "name": "LSP8CappedSupplyRequired",
      "type": "error"
    },
    {
      "inputs": [],
      "name": "LSP8InvalidTransferBatch",
      "type": "error"
    },
    {
      "inputs": [
        {
          "internalType": "bytes32",
          "name": "tokenId",
          "type": "bytes32"
        }
      ],
      "name": "LSP8NonExistentTokenId",
      "type": "error"
    },
    {
      "inputs": [
        {
          "internalType": "address",
          "name": "operator",
          "type": "address"
        },
        {
          "internalType": "bytes32",
          "name": "tokenId",
          "type": "bytes32"
        }
      ],
      "name": "LSP8NonExistingOperator",
      "type": "error"
    },
    {
      "inputs": [
        {
          "internalType": "bytes32",
          "name": "tokenId",
          "type": "bytes32"
        },
        {
          "internalType": "address",
          "name": "caller",
          "type": "address"
        }
      ],
      "name": "LSP8NotTokenOperator",
      "type": "error"
    },
    {
      "inputs": [
        {
          "internalType": "address",
          "name": "tokenOwner",
          "type": "address"
        },
        {
          "internalType": "bytes32",
          "name": "tokenId",
          "type": "bytes32"
        },
        {
          "internalType": "address",
          "name": "caller",
          "type": "address"
        }
      ],
      "name": "LSP8NotTokenOwner",
      "type": "error"
    },
    {
      "inputs": [
        {
          "internalType": "address",
          "name": "tokenReceiver",
          "type": "address"
        }
      ],
      "name": "LSP8NotifyTokenReceiverContractMissingLSP1Interface",
      "type": "error"
    },
    {
      "inputs": [
        {
          "internalType": "address",
          "name": "tokenReceiver",
          "type": "address"
        }
      ],
      "name": "LSP8NotifyTokenReceiverIsEOA",
      "type": "error"
    },
    {
      "inputs": [
        {
          "internalType": "address",
          "name": "operator",
          "type": "address"
        },
        {
          "internalType": "bytes32",
          "name": "tokenId",
          "type": "bytes32"
        }
      ],
      "name": "LSP8OperatorAlreadyAuthorized",
      "type": "error"
    },
    {
      "inputs": [
        {
          "internalType": "address",
          "name": "caller",
          "type": "address"
        },
        {
          "internalType": "address",
          "name": "tokenOwner",
          "type": "address"
        },
        {
          "internalType": "bytes32",
          "name": "tokenId",
          "type": "bytes32"
        }
      ],
      "name": "LSP8RevokeOperatorNotAuthorized",
      "type": "error"
    },
    {
      "inputs": [],
      "name": "LSP8TokenContractCannotHoldValue",
      "type": "error"
    },
    {
      "inputs": [
        {
          "internalType": "bytes32",
          "name": "tokenId",
          "type": "bytes32"
        }
      ],
      "name": "LSP8TokenIdAlreadyMinted",
      "type": "error"
    },
    {
      "inputs": [],
      "name": "LSP8TokenIdFormatNotEditable",
      "type": "error"
    },
    {
      "inputs": [],
      "name": "LSP8TokenIdsDataEmptyArray",
      "type": "error"
    },
    {
      "inputs": [],
      "name": "LSP8TokenIdsDataLengthMismatch",
      "type": "error"
    },
    {
      "inputs": [],
      "name": "LSP8TokenOwnerCannotBeOperator",
      "type": "error"
    },
    {
      "inputs": [
        {
          "internalType": "bytes32",
          "name": "tokenId",
          "type": "bytes32"
        },
        {
          "internalType": "address",
          "name": "oldOwner",
          "type": "address"
        },
        {
          "internalType": "address",
          "name": "newOwner",
          "type": "address"
        }
      ],
      "name": "LSP8TokenOwnerChanged",
      "type": "error"
    },
    {
      "inputs": [
        {
          "internalType": "bytes4",
          "name": "functionSelector",
          "type": "bytes4"
        }
      ],
      "name": "NoExtensionFoundForFunctionSelector",
      "type": "error"
    },
    {
      "inputs": [
        {
          "internalType": "address",
          "name": "callerAddress",
          "type": "address"
        }
      ],
      "name": "OwnableCallerNotTheOwner",
      "type": "error"
    },
    {
      "inputs": [],
      "name": "OwnableCannotSetZeroAddressAsOwner",
      "type": "error"
    },
    {
      "anonymous": false,
      "inputs": [
        {
          "indexed": true,
          "internalType": "bytes32",
          "name": "dataKey",
          "type": "bytes32"
        },
        {
          "indexed": false,
          "internalType": "bytes",
          "name": "dataValue",
          "type": "bytes"
        }
      ],
      "name": "DataChanged",
      "type": "event"
    },
    {
      "anonymous": false,
      "inputs": [
        {
          "indexed": true,
          "internalType": "address",
          "name": "operator",
          "type": "address"
        },
        {
          "indexed": true,
          "internalType": "address",
          "name": "tokenOwner",
          "type": "address"
        },
        {
          "indexed": true,
          "internalType": "bytes32",
          "name": "tokenId",
          "type": "bytes32"
        },
        {
          "indexed": false,
          "internalType": "bytes",
          "name": "operatorNotificationData",
          "type": "bytes"
        }
      ],
      "name": "OperatorAuthorizationChanged",
      "type": "event"
    },
    {
      "anonymous": false,
      "inputs": [
        {
          "indexed": true,
          "internalType": "address",
          "name": "operator",
          "type": "address"
        },
        {
          "indexed": true,
          "internalType": "address",
          "name": "tokenOwner",
          "type": "address"
        },
        {
          "indexed": true,
          "internalType": "bytes32",
          "name": "tokenId",
          "type": "bytes32"
        },
        {
          "indexed": false,
          "internalType": "bool",
          "name": "notified",
          "type": "bool"
        },
        {
          "indexed": false,
          "internalType": "bytes",
          "name": "operatorNotificationData",
          "type": "bytes"
        }
      ],
      "name": "OperatorRevoked",
      "type": "event"
    },
    {
      "anonymous": false,
      "inputs": [
        {
          "indexed": true,
          "internalType": "address",
          "name": "previousOwner",
          "type": "address"
        },
        {
          "indexed": true,
          "internalType": "address",
          "name": "newOwner",
          "type": "address"
        }
      ],
      "name": "OwnershipTransferred",
      "type": "event"
    },
    {
      "anonymous": false,
      "inputs": [
        {
          "indexed": true,
          "internalType": "address",
          "name": "contributor",
          "type": "address"
        },
        {
          "indexed": false,
          "internalType": "uint256",
          "name": "iters",
          "type": "uint256"
        }
      ],
      "name": "RefineToArchive",
      "type": "event"
    },
    {
      "anonymous": false,
      "inputs": [
        {
          "indexed": true,
          "internalType": "bytes32",
          "name": "tokenId",
          "type": "bytes32"
        },
        {
          "indexed": true,
          "internalType": "bytes32",
          "name": "dataKey",
          "type": "bytes32"
        },
        {
          "indexed": false,
          "internalType": "bytes",
          "name": "dataValue",
          "type": "bytes"
        }
      ],
      "name": "TokenIdDataChanged",
      "type": "event"
    },
    {
      "anonymous": false,
      "inputs": [
        {
          "indexed": false,
          "internalType": "address",
          "name": "operator",
          "type": "address"
        },
        {
          "indexed": true,
          "internalType": "address",
          "name": "from",
          "type": "address"
        },
        {
          "indexed": true,
          "internalType": "address",
          "name": "to",
          "type": "address"
        },
        {
          "indexed": true,
          "internalType": "bytes32",
          "name": "tokenId",
          "type": "bytes32"
        },
        {
          "indexed": false,
          "internalType": "bool",
          "name": "force",
          "type": "bool"
        },
        {
          "indexed": false,
          "internalType": "bytes",
          "name": "data",
          "type": "bytes"
        }
      ],
      "name": "Transfer",
      "type": "event"
    },
    {
      "stateMutability": "payable",
      "type": "fallback"
    },
    {
      "inputs": [],
      "name": "archiveCount",
      "outputs": [
        {
          "internalType": "uint256",
          "name": "",
          "type": "uint256"
        }
      ],
      "stateMutability": "view",
      "type": "function"
    },
    {
      "inputs": [],
      "name": "archiveHelpers",
      "outputs": [
        {
          "internalType": "address",
          "name": "",
          "type": "address"
        }
      ],
      "stateMutability": "view",
      "type": "function"
    },
    {
      "inputs": [
        {
          "internalType": "address",
          "name": "operator",
          "type": "address"
        },
        {
          "internalType": "bytes32",
          "name": "tokenId",
          "type": "bytes32"
        },
        {
          "internalType": "bytes",
          "name": "operatorNotificationData",
          "type": "bytes"
        }
      ],
      "name": "authorizeOperator",
      "outputs": [],
      "stateMutability": "nonpayable",
      "type": "function"
    },
    {
      "inputs": [
        {
          "internalType": "address",
          "name": "tokenOwner",
          "type": "address"
        }
      ],
      "name": "balanceOf",
      "outputs": [
        {
          "internalType": "uint256",
          "name": "",
          "type": "uint256"
        }
      ],
      "stateMutability": "view",
      "type": "function"
    },
    {
      "inputs": [
        {
          "internalType": "bytes[]",
          "name": "data",
          "type": "bytes[]"
        }
      ],
      "name": "batchCalls",
      "outputs": [
        {
          "internalType": "bytes[]",
          "name": "results",
          "type": "bytes[]"
        }
      ],
      "stateMutability": "nonpayable",
      "type": "function"
    },
    {
      "inputs": [
        {
          "internalType": "bytes32",
          "name": "",
          "type": "bytes32"
        }
      ],
      "name": "burntArchives",
      "outputs": [
        {
          "internalType": "bytes",
          "name": "image",
          "type": "bytes"
        },
        {
          "internalType": "uint256",
          "name": "iterations",
          "type": "uint256"
        },
        {
          "internalType": "uint256",
          "name": "level",
          "type": "uint256"
        },
        {
          "internalType": "uint256",
          "name": "blockNumber",
          "type": "uint256"
        },
        {
          "internalType": "address",
          "name": "creator",
          "type": "address"
        }
      ],
      "stateMutability": "view",
      "type": "function"
    },
    {
      "inputs": [],
      "name": "burntPicId",
      "outputs": [
        {
          "internalType": "bytes32",
          "name": "",
          "type": "bytes32"
        }
      ],
      "stateMutability": "view",
      "type": "function"
    },
    {
      "inputs": [
        {
          "internalType": "address",
          "name": "",
          "type": "address"
        }
      ],
      "name": "contributions",
      "outputs": [
        {
          "internalType": "uint256",
          "name": "iterations",
          "type": "uint256"
        }
      ],
      "stateMutability": "view",
      "type": "function"
    },
    {
      "inputs": [
        {
          "internalType": "uint256",
          "name": "",
          "type": "uint256"
        }
      ],
      "name": "contributors",
      "outputs": [
        {
          "internalType": "address",
          "name": "",
          "type": "address"
        }
      ],
      "stateMutability": "view",
      "type": "function"
    },
    {
      "inputs": [],
      "name": "currentHighestLevel",
      "outputs": [
        {
          "internalType": "uint256",
          "name": "",
          "type": "uint256"
        }
      ],
      "stateMutability": "view",
      "type": "function"
    },
    {
      "inputs": [],
      "name": "fractalClone",
      "outputs": [
        {
          "internalType": "address",
          "name": "",
          "type": "address"
        }
      ],
      "stateMutability": "view",
      "type": "function"
    },
    {
      "inputs": [
        {
          "internalType": "address",
          "name": "contributor",
          "type": "address"
        }
      ],
      "name": "getArchives",
      "outputs": [
        {
          "internalType": "bytes32[]",
          "name": "",
          "type": "bytes32[]"
        }
      ],
      "stateMutability": "view",
      "type": "function"
    },
    {
      "inputs": [
        {
          "internalType": "address[]",
          "name": "targetContributors",
          "type": "address[]"
        }
      ],
      "name": "getContributions",
      "outputs": [
        {
          "internalType": "uint256[]",
          "name": "",
          "type": "uint256[]"
        }
      ],
      "stateMutability": "view",
      "type": "function"
    },
    {
      "inputs": [],
      "name": "getContributors",
      "outputs": [
        {
          "internalType": "address[]",
          "name": "",
          "type": "address[]"
        }
      ],
      "stateMutability": "view",
      "type": "function"
    },
    {
      "inputs": [
        {
          "internalType": "bytes32",
          "name": "dataKey",
          "type": "bytes32"
        }
      ],
      "name": "getData",
      "outputs": [
        {
          "internalType": "bytes",
          "name": "dataValue",
          "type": "bytes"
        }
      ],
      "stateMutability": "view",
      "type": "function"
    },
    {
      "inputs": [
        {
          "internalType": "bytes32[]",
          "name": "dataKeys",
          "type": "bytes32[]"
        }
      ],
      "name": "getDataBatch",
      "outputs": [
        {
          "internalType": "bytes[]",
          "name": "dataValues",
          "type": "bytes[]"
        }
      ],
      "stateMutability": "view",
      "type": "function"
    },
    {
      "inputs": [
        {
          "internalType": "bytes32[]",
          "name": "tokenIds",
          "type": "bytes32[]"
        },
        {
          "internalType": "bytes32[]",
          "name": "dataKeys",
          "type": "bytes32[]"
        }
      ],
      "name": "getDataBatchForTokenIds",
      "outputs": [
        {
          "internalType": "bytes[]",
          "name": "dataValues",
          "type": "bytes[]"
        }
      ],
      "stateMutability": "view",
      "type": "function"
    },
    {
      "inputs": [
        {
          "internalType": "bytes32",
          "name": "tokenId",
          "type": "bytes32"
        },
        {
          "internalType": "bytes32",
          "name": "dataKey",
          "type": "bytes32"
        }
      ],
      "name": "getDataForTokenId",
      "outputs": [
        {
          "internalType": "bytes",
          "name": "dataValue",
          "type": "bytes"
        }
      ],
      "stateMutability": "view",
      "type": "function"
    },
    {
      "inputs": [
        {
          "internalType": "bytes32",
          "name": "tokenId",
          "type": "bytes32"
        }
      ],
      "name": "getOperatorsOf",
      "outputs": [
        {
          "internalType": "address[]",
          "name": "",
          "type": "address[]"
        }
      ],
      "stateMutability": "view",
      "type": "function"
    },
    {
      "inputs": [],
      "name": "getTotalContributors",
      "outputs": [
        {
          "internalType": "uint256",
          "name": "",
          "type": "uint256"
        }
      ],
      "stateMutability": "view",
      "type": "function"
    },
    {
      "inputs": [],
      "name": "getTotalFeesBurnt",
      "outputs": [
        {
          "internalType": "uint256",
          "name": "",
          "type": "uint256"
        }
      ],
      "stateMutability": "view",
      "type": "function"
    },
    {
      "inputs": [],
      "name": "getTotalIterations",
      "outputs": [
        {
          "internalType": "uint256",
          "name": "",
          "type": "uint256"
        }
      ],
      "stateMutability": "view",
      "type": "function"
    },
    {
      "inputs": [
        {
          "internalType": "address",
          "name": "operator",
          "type": "address"
        },
        {
          "internalType": "bytes32",
          "name": "tokenId",
          "type": "bytes32"
        }
      ],
      "name": "isOperatorFor",
      "outputs": [
        {
          "internalType": "bool",
          "name": "",
          "type": "bool"
        }
      ],
      "stateMutability": "view",
      "type": "function"
    },
    {
      "inputs": [],
      "name": "isOriginalUnclaimed",
      "outputs": [
        {
          "internalType": "bool",
          "name": "",
          "type": "bool"
        }
      ],
      "stateMutability": "view",
      "type": "function"
    },
    {
      "inputs": [
        {
          "internalType": "bytes32",
          "name": "archiveId",
          "type": "bytes32"
        },
        {
          "internalType": "address",
          "name": "to",
          "type": "address"
        }
      ],
      "name": "mintArchive",
      "outputs": [],
      "stateMutability": "nonpayable",
      "type": "function"
    },
    {
      "inputs": [
        {
          "internalType": "bytes32",
          "name": "archiveId",
          "type": "bytes32"
        }
      ],
      "name": "mintArchive",
      "outputs": [],
      "stateMutability": "nonpayable",
      "type": "function"
    },
    {
      "inputs": [],
      "name": "owner",
      "outputs": [
        {
          "internalType": "address",
          "name": "",
          "type": "address"
        }
      ],
      "stateMutability": "view",
      "type": "function"
    },
    {
      "inputs": [
        {
          "internalType": "uint256",
          "name": "iters",
          "type": "uint256"
        }
      ],
      "name": "refineToArchive",
      "outputs": [],
      "stateMutability": "nonpayable",
      "type": "function"
    },
    {
      "inputs": [
        {
          "internalType": "uint256",
          "name": "iters",
          "type": "uint256"
        },
        {
          "internalType": "address",
          "name": "contributor",
          "type": "address"
        }
      ],
      "name": "refineToArchive",
      "outputs": [],
      "stateMutability": "nonpayable",
      "type": "function"
    },
    {
      "inputs": [],
      "name": "renounceOwnership",
      "outputs": [],
      "stateMutability": "nonpayable",
      "type": "function"
    },
    {
      "inputs": [
        {
          "internalType": "address",
          "name": "operator",
          "type": "address"
        },
        {
          "internalType": "bytes32",
          "name": "tokenId",
          "type": "bytes32"
        },
        {
          "internalType": "bool",
          "name": "notify",
          "type": "bool"
        },
        {
          "internalType": "bytes",
          "name": "operatorNotificationData",
          "type": "bytes"
        }
      ],
      "name": "revokeOperator",
      "outputs": [],
      "stateMutability": "nonpayable",
      "type": "function"
    },
    {
      "inputs": [
        {
          "internalType": "bytes32",
          "name": "dataKey",
          "type": "bytes32"
        },
        {
          "internalType": "bytes",
          "name": "dataValue",
          "type": "bytes"
        }
      ],
      "name": "setData",
      "outputs": [],
      "stateMutability": "payable",
      "type": "function"
    },
    {
      "inputs": [
        {
          "internalType": "bytes32[]",
          "name": "dataKeys",
          "type": "bytes32[]"
        },
        {
          "internalType": "bytes[]",
          "name": "dataValues",
          "type": "bytes[]"
        }
      ],
      "name": "setDataBatch",
      "outputs": [],
      "stateMutability": "payable",
      "type": "function"
    },
    {
      "inputs": [
        {
          "internalType": "bytes32[]",
          "name": "tokenIds",
          "type": "bytes32[]"
        },
        {
          "internalType": "bytes32[]",
          "name": "dataKeys",
          "type": "bytes32[]"
        },
        {
          "internalType": "bytes[]",
          "name": "dataValues",
          "type": "bytes[]"
        }
      ],
      "name": "setDataBatchForTokenIds",
      "outputs": [],
      "stateMutability": "nonpayable",
      "type": "function"
    },
    {
      "inputs": [
        {
          "internalType": "bytes32",
          "name": "tokenId",
          "type": "bytes32"
        },
        {
          "internalType": "bytes32",
          "name": "dataKey",
          "type": "bytes32"
        },
        {
          "internalType": "bytes",
          "name": "dataValue",
          "type": "bytes"
        }
      ],
      "name": "setDataForTokenId",
      "outputs": [],
      "stateMutability": "nonpayable",
      "type": "function"
    },
    {
      "inputs": [
        {
          "internalType": "bytes4",
          "name": "interfaceId",
          "type": "bytes4"
        }
      ],
      "name": "supportsInterface",
      "outputs": [
        {
          "internalType": "bool",
          "name": "",
          "type": "bool"
        }
      ],
      "stateMutability": "view",
      "type": "function"
    },
    {
      "inputs": [
        {
          "internalType": "address",
          "name": "tokenOwner",
          "type": "address"
        }
      ],
      "name": "tokenIdsOf",
      "outputs": [
        {
          "internalType": "bytes32[]",
          "name": "",
          "type": "bytes32[]"
        }
      ],
      "stateMutability": "view",
      "type": "function"
    },
    {
      "inputs": [
        {
          "internalType": "bytes32",
          "name": "tokenId",
          "type": "bytes32"
        }
      ],
      "name": "tokenOwnerOf",
      "outputs": [
        {
          "internalType": "address",
          "name": "",
          "type": "address"
        }
      ],
      "stateMutability": "view",
      "type": "function"
    },
    {
      "inputs": [],
      "name": "tokenSupplyCap",
      "outputs": [
        {
          "internalType": "uint256",
          "name": "",
          "type": "uint256"
        }
      ],
      "stateMutability": "view",
      "type": "function"
    },
    {
      "inputs": [],
      "name": "totalSupply",
      "outputs": [
        {
          "internalType": "uint256",
          "name": "",
          "type": "uint256"
        }
      ],
      "stateMutability": "view",
      "type": "function"
    },
    {
      "inputs": [
        {
          "internalType": "address",
          "name": "from",
          "type": "address"
        },
        {
          "internalType": "address",
          "name": "to",
          "type": "address"
        },
        {
          "internalType": "bytes32",
          "name": "tokenId",
          "type": "bytes32"
        },
        {
          "internalType": "bool",
          "name": "force",
          "type": "bool"
        },
        {
          "internalType": "bytes",
          "name": "data",
          "type": "bytes"
        }
      ],
      "name": "transfer",
      "outputs": [],
      "stateMutability": "nonpayable",
      "type": "function"
    },
    {
      "inputs": [
        {
          "internalType": "address[]",
          "name": "from",
          "type": "address[]"
        },
        {
          "internalType": "address[]",
          "name": "to",
          "type": "address[]"
        },
        {
          "internalType": "bytes32[]",
          "name": "tokenId",
          "type": "bytes32[]"
        },
        {
          "internalType": "bool[]",
          "name": "force",
          "type": "bool[]"
        },
        {
          "internalType": "bytes[]",
          "name": "data",
          "type": "bytes[]"
        }
      ],
      "name": "transferBatch",
      "outputs": [],
      "stateMutability": "nonpayable",
      "type": "function"
    },
    {
      "inputs": [
        {
          "internalType": "address",
          "name": "newOwner",
          "type": "address"
        }
      ],
      "name": "transferOwnership",
      "outputs": [],
      "stateMutability": "nonpayable",
      "type": "function"
    },
    {
      "inputs": [],
      "name": "winnerIters",
      "outputs": [
        {
          "internalType": "uint256",
          "name": "",
          "type": "uint256"
        }
      ],
      "stateMutability": "view",
      "type": "function"
    },
    {
      "stateMutability": "payable",
      "type": "receive"
    }
  ],
  "bytecode": "0x6101208060405234620011065760c0816200588a803803809162000024828562001626565b83398101031262001106576200003a816200164a565b9062000049602082016200164a565b9162000058604083016200164a565b92606083015160a060808501519401519360405162000077816200160a565b601c81527f4275726e74205069782041726368697665733a20536561736f6e203100000000602082015260405190620000b0826200160a565b60068252654255524e543160d01b60208301523315620015f8576000546001600160a01b03811633819003620015ba575b5050604051620000f1816200160a565b60048152632936598960e21b602080830191909152600080516020620057ea8339815191526000526001905280517f072b2e8bf50bc459a586397c8474185d5dad5ea3d82533658159d53147c7bb39906001600160401b03811162000d81578154600181811c91168015620015af575b602082101462000d6057601f811162001566575b506020601f8211600114620014ef57926000805160206200586a8339815191529282620001d793600080516020620057ea8339815191529660009162000c87575b508160011b916000199060031b1c19161790555b604051918291826200165f565b0390a2600080516020620057aa833981519152600052600160205280517f2a367ae1ac46d529739aa27ac74856f860e70af05d3642d18ba60fd5d32a069a906001600160401b03811162000d81578154600181811c91168015620014e4575b602082101462000d6057601f81116200149b575b506020601f82116001146200142457926000805160206200586a8339815191529282620002aa93600080516020620057aa8339815191529660009162000c8757508160011b916000199060031b1c1916179055604051918291826200165f565b0390a26000805160206200582a833981519152600052600160205280517f83b322886c7b7e25779e5d38e06e005c9e7aba1e1267ce9210cf24e31833535a906001600160401b03811162000d81578154600181811c9116801562001419575b602082101462000d6057601f8111620013d0575b506020601f82116001146200135957926000805160206200586a83398151915292826200037d936000805160206200582a8339815191529660009162000c8757508160011b916000199060031b1c1916179055604051918291826200165f565b0390a2604051600260208201526020815262000399816200160a565b600080516020620057ca833981519152600052600160205280517ff73b01b344a9bb3b96525b0cb731f6b14cde20ce6cecea8459266944490b411f906001600160401b03811162000d81578154600181811c911680156200134e575b602082101462000d6057601f811162001305575b506020601f82116001146200128e57926000805160206200586a83398151915292826200046993600080516020620057ca8339815191529660009162000c8757508160011b916000199060031b1c1916179055604051918291826200165f565b0390a2604051600060208201526020815262000485816200160a565b6000805160206200580a833981519152600052600160205280517f01f5eb934e794ddcc86b89a579078013860f8fe92140885511742594f219ad0b906001600160401b03811162000d81578154600181811c9116801562001283575b602082101462000d6057601f81116200123a575b506020601f8211600114620011c357926000805160206200586a833981519152928262000555936000805160206200580a8339815191529660009162000c8757508160011b916000199060031b1c1916179055604051918291826200165f565b0390a28015620011b1576080526001600855604051637b10399960e01b8152936020856004816001600160a01b0386165afa948515620011145760009562001169575b5060c083905260e082905261010052604051632468294560e11b81526001600160a01b0391821660048201529360209185916024918391165afa928315620011145760009362001120575b5060405163319c665560e01b81523060048201526001600160a01b03928316602482015263ffffffff909316604484015260209183916064918391600091165af19081156200111457600091620010cd575b5060a0526040519062000648826200160a565b60108252600160801b6020808401919091526000805160206200584a833981519152600052600190528151917fde5f0adbf2cf136848982dd95860bdc3e6d8709a8a51ce1295c645c6da617db76001600160401b03841162000d81578054600181811c91168015620010c2575b602082101462000d6057601f811162001079575b50602093601f81116001146200100257916200072b91836000805160206200586a833981519152946000805160206200584a833981519152969760009162000c8757508160011b916000199060031b1c1916179055604051918291826200165f565b0390a2604051606082901b6001600160601b0319166020820152601481529062000755826200160a565b6f0452f40ece91b521d65a03607aecad0560821b60005260016020528151917fadf994b8d5b80a46660e628eabff2156c328d301fe5ea8e44cf09dee1b43e5126001600160401b03841162000d81578054600181811c9116801562000ff7575b602082101462000d6057601f811162000fae575b50602093601f811160011462000f4257809192939460009162000f36575b508160011b916000199060031b1c19161790555b6000805160206200586a833981519152604051806200082f6f0452f40ece91b521d65a03607aecad0560821b94826200165f565b0390a260405169036f42f57aecc15a72ed60b51b60208083019182526000602a840152606084901b6001600160601b031916602c84015282529062000874816200160a565b519051906020811062000f23575b50906040519162000893836200160a565b601483526324871b3d60e01b60208401819052926000805160206200580a833981519152821462000f1157600080516020620057aa8339815191528203620008e7576040516385c169bd60e01b8152600490fd5b6000805160206200582a83398151915282036200091057604051630eceab6760e31b8152600490fd5b600080516020620057ca83398151915282036200093957604051634ef6d7fb60e01b8152600490fd5b600082815260016020526040902081516001600160401b03811162000d81578154600181811c9116801562000f06575b602082101462000d6057601f811162000eb9575b506020601f821160011462000e545791816000805160206200586a8339815191529492620009cd9460009162000c8757508160011b916000199060031b1c1916179055604051918291826200165f565b0390a2604051600760f21b6020820152602281019290925260601b6001600160601b031916602682015261027160e31b603a820152601e815262000a11816200160a565b7fc0569ca6c9180acc2c3590f36330a36ae19015a19f4e85c28a7631e3317e6b9d600081905260016020528151917f715c60721fcb432a46c53ac3ceeefe86aa51a6c564859a02664da1de59a8cd606001600160401b03841162000d81578054600181811c9116801562000e49575b602082101462000d6057601f811162000dfc575b50602093601f811160011462000d9757908162000ae693926000805160206200586a833981519152959660009162000c8757508160011b916000199060031b1c1916179055604051918291826200165f565b0390a260405162000af7816200160a565b6001808252600160f81b6020808401919091527f580d62ad353782eca17b89e5900e7df3b13b6f4ca9bbc2f8af8bceb0c3d1ecc660008190529190528151917f5e76a7f64a9621e22ad92c14e6ce74c38bd120088a539660dc579eab8430b2f46001600160401b03841162000d81578054600181811c9116801562000d76575b602082101462000d6057601f811162000d13575b50602093601f811160011462000c9357908162000bdd93926000805160206200586a833981519152959660009162000c8757508160011b916000199060031b1c1916179055604051918291826200165f565b0390a26040516140ff9081620016ab8239608051818181610dbd0152818161294301526132cc015260a0518181816104d601528181610b7a01528181610f58015281816129f901526135dc015260c05181818161143801528181612bd00152818161326f015261362b015260e051818181610f9901528181611974015281816121fa015281816129750152818161324101526136040152610100518181816113ce0152612b1b0152f35b905083015138620001b6565b601f1981168260005260206000209060005b81811062000cfa5750916001916000805160206200586a83398151915296978262000bdd9796951062000ce0575b5050811b019055620001ca565b85015160001960f88460031b161c19169055388062000cd3565b8588015183556020978801976001909301920162000ca5565b816000526020600020601f860160051c8101916020871062000d55575b601f0160051c01905b81811062000d48575062000b8b565b6000815560010162000d39565b909150819062000d30565b634e487b7160e01b600052602260045260246000fd5b90607f169062000b77565b634e487b7160e01b600052604160045260246000fd5b601f1981168260005260206000209060005b81811062000de35750916001916000805160206200586a83398151915296978262000ae69796951062000ce0575050811b019055620001ca565b8588015183556020978801976001909301920162000da9565b816000526020600020601f860160051c8101916020871062000e3e575b601f0160051c01905b81811062000e31575062000a94565b6000815560010162000e22565b909150819062000e19565b90607f169062000a80565b601f198216908360005260206000209160005b81811062000ea0575092620009cd9492600192826000805160206200586a83398151915298961062000ce0575050811b019055620001ca565b9192602060018192868a01518155019401920162000e67565b826000526020600020601f830160051c8101916020841062000efb575b601f0160051c01905b81811062000eee57506200097d565b6000815560010162000edf565b909150819062000ed6565b90607f169062000969565b604051631b32400560e11b8152600490fd5b6000199060200360031b1b163862000882565b905083015138620007e7565b81600052602060002060005b601f198316811062000f95575060019293949582601f1981161062000f7b575b5050811b019055620007fb565b85015160001960f88460031b161c19169055388062000f6e565b8487015182556020968701966001909201910162000f4e565b816000526020600020601f860160051c81016020871062000fef575b601f830160051c8201811062000fe2575050620007c9565b6000815560010162000fca565b508062000fca565b90607f1690620007b5565b81600052602060002060005b601f1983168110620010605750916001826200072b946000805160206200584a83398151915297986000805160206200586a8339815191529795601f1981161062000ce0575050811b019055620001ca565b848701518255602096870196600190920191016200100e565b816000526020600020601f860160051c810160208710620010ba575b601f830160051c82018110620010ad575050620006c9565b6000815560010162001095565b508062001095565b90607f1690620006b5565b90506020813d6020116200110b575b81620010eb6020938362001626565b810103126200110657620010ff906200164a565b3862000635565b600080fd5b3d9150620010dc565b6040513d6000823e3d90fd5b9092506020813d60201162001160575b816200113f6020938362001626565b810103126200110657519163ffffffff8316830362001106576064620005e3565b3d915062001130565b919094506020823d602011620011a8575b81620011896020938362001626565b8101031262001106576200119f6020926200164a565b94909162000598565b3d91506200117a565b60405163038d9fc360e41b8152600490fd5b8260005260206000209060005b601f1984168110620012215750926001836000805160206200580a83398151915296936000805160206200586a833981519152966200055596601f1981161062000ce0575050811b019055620001ca565b90916020600181928589015181550193019101620011d0565b826000526020600020601f830160051c8101602084106200127b575b601f830160051c820181106200126e575050620004f5565b6000815560010162001256565b508062001256565b90607f1690620004e1565b8260005260206000209060005b601f1984168110620012ec575092600183600080516020620057ca83398151915296936000805160206200586a833981519152966200046996601f1981161062000ce0575050811b019055620001ca565b909160206001819285890151815501930191016200129b565b826000526020600020601f830160051c81016020841062001346575b601f830160051c820181106200133957505062000409565b6000815560010162001321565b508062001321565b90607f1690620003f5565b8260005260206000209060005b601f1984168110620013b75750926001836000805160206200582a83398151915296936000805160206200586a833981519152966200037d96601f1981161062000ce0575050811b019055620001ca565b9091602060018192858901518155019301910162001366565b826000526020600020601f830160051c81016020841062001411575b601f830160051c82018110620014045750506200031d565b60008155600101620013ec565b5080620013ec565b90607f169062000309565b8260005260206000209060005b601f198416811062001482575092600183600080516020620057aa83398151915296936000805160206200586a83398151915296620002aa96601f1981161062000ce0575050811b019055620001ca565b9091602060018192858901518155019301910162001431565b826000526020600020601f830160051c810160208410620014dc575b601f830160051c82018110620014cf5750506200024a565b60008155600101620014b7565b5080620014b7565b90607f169062000236565b8260005260206000209060005b601f19841681106200154d575092600183600080516020620057ea83398151915296936000805160206200586a83398151915296620001d796601f1981161062000ce0575050811b019055620001ca565b90916020600181928589015181550193019101620014fc565b826000526020600020601f830160051c810160208410620015a7575b601f830160051c820181106200159a57505062000175565b6000815560010162001582565b508062001582565b90607f169062000161565b33907f8be0079c531659141344cd1fd0a4f28419497f9722a3daafe3b4186f6b6457e0600080a36001600160a01b03191633176000553880620000e1565b6040516306b620db60e21b8152600490fd5b604081019081106001600160401b0382111762000d8157604052565b601f909101601f19168101906001600160401b0382119082101762000d8157604052565b51906001600160a01b03821682036200110657565b6020808252825181830181905290939260005b8281106200169557505060409293506000838284010152601f8019910116010190565b8181018601518482016040015285016200167256fe6080604052600436101561002a575b36156100255761001d36613036565b602081519101f35b612fe0565b60003560e01c806301ffc9a7146102ea57806316e023b3146102e557806318160ddd146102e05780631971f4be146102db5780631ba1e3ea146102d65780631d26fce6146102d15780631d2aeefc146102cc5780631ff5db4a146102c7578063217b2270146102c25780632a3654a4146102bd5780633aee5302146102b85780633cb5d100146102b357806342e94c90146102ae5780634488623e146102a957806349a6078d146102a45780634df8e7f61461029f578063511b69521461029a57806352058d8a1461029557806354f6127f146102905780636963d4381461028b57806370a0823114610286578063715018a61461028157806376d70ca71461027c5780637e0ab786146102775780637e87632c146102725780637f23690c1461026d57806386a10ddd146102685780638d24306e146102635780638da5cb5b1461025e57806390eb6bf0146102595780639790242114610254578063a3b261f21461024f578063a47aa2d41461024a578063ac70093814610245578063af157c1914610240578063be9f0e6f1461023b578063d09f347314610236578063d6c1407c14610231578063da16e4541461022c578063db8c966314610227578063dc58a56c14610222578063dedff9c61461021d578063f2fde38b146102185763f925c7be0361000e57611bff565b611b51565b611ac9565b611aab565b611997565b61195c565b611915565b611892565b61169c565b611618565b6115fa565b6115d2565b611553565b61145c565b611418565b6113f1565b6113b6565b61121b565b6111c5565b61112b565b611027565b610f0d565b610ea3565b610e65565b610dff565b610de0565b610da5565b610d42565b610cb2565b610be3565b610b5a565b610b19565b610abf565b6109d7565b6108fc565b6108cd565b6108a5565b610886565b6107bd565b610591565b6104a8565b61048a565b610449565b346103e85760203660031901126103e8576004356001600160e01b031981168082036103e85761035a917f3a27170600000000000000000000000000000000000000000000000000000000821491821561036e575b50811561035e575b5060405190151581529081906020820190565b0390f35b6103689150613082565b38610347565b9091507fa918fa6b0000000000000000000000000000000000000000000000000000000081149081156103a4575b50903861033f565b7f629aa694000000000000000000000000000000000000000000000000000000008114915081156103d7575b503861039c565b6301ffc9a760e01b915014386103d0565b600080fd5b60005b8381106104005750506000910152565b81810151838201526020016103f0565b90602091610429815180928185528580860191016103ed565b601f01601f1916010190565b906020610446928181520190610410565b90565b346103e85760403660031901126103e85761035a61046b602435600435613147565b604051918291602083526020830190610410565b60009103126103e857565b346103e85760003660031901126103e8576020600254604051908152f35b346103e85760003660031901126103e8576040516321ac695f60e11b81526020816004816001600160a01b037f0000000000000000000000000000000000000000000000000000000000000000165afa801561053f57602091600091610512575b50604051908152f35b6105329150823d8411610538575b61052a818361069f565b810190611c1c565b38610509565b503d610520565b611c2b565b6001600160a01b038116036103e857565b602090602060408183019282815285518094520193019160005b82811061057d575050505090565b83518552938101939281019260010161056f565b346103e8576020806003193601126103e8576001600160a01b036004356105b781610544565b16600052600a6020526040600020906040519081602084549182815201936000526020600020916000905b8282106106055761035a856105f98189038261069f565b60405191829182610555565b8354865294850194600193840193909101906105e2565b634e487b7160e01b600052604160045260246000fd5b67ffffffffffffffff811161064657604052565b61061c565b6020810190811067ffffffffffffffff82111761064657604052565b6040810190811067ffffffffffffffff82111761064657604052565b6060810190811067ffffffffffffffff82111761064657604052565b90601f8019910116810190811067ffffffffffffffff82111761064657604052565b6040519060a0820182811067ffffffffffffffff82111761064657604052565b67ffffffffffffffff81116106465760051b60200190565b9080601f830112156103e8576020908235610713816106e1565b93610721604051958661069f565b81855260208086019260051b8201019283116103e857602001905b82821061074a575050505090565b8135815290830190830161073c565b6020808201906020835283518092526040830192602060408460051b8301019501936000915b84831061078f5750505050505090565b90919293949584806107ad600193603f198682030187528a51610410565b980193019301919493929061077f565b346103e85760403660031901126103e85767ffffffffffffffff6004358181116103e8576107ef9036906004016106f9565b906024359081116103e8576108089036906004016106f9565b9080518251036108755761081c8151611c37565b9160005b8251811015610867578061084b61083960019386611c81565b516108448386611c81565b5190613147565b6108558287611c81565b526108608186611c81565b5001610820565b6040518061035a8682610759565b60046040516317d38eff60e11b8152fd5b346103e85760203660031901126103e8576108a333600435612932565b005b346103e85760403660031901126103e8576108a36024356108c581610544565b600435611d19565b346103e85760203660031901126103e85760206108eb600435611db3565b6001600160a01b0360405191168152f35b346103e85760403660031901126103e857602061092760043561091e81610544565b60243590613448565b6040519015158152f35b9080601f830112156103e857602090823561094b816106e1565b93610959604051958661069f565b81855260208086019260051b8201019283116103e857602001905b828210610982575050505090565b838091833561099081610544565b815201910190610974565b602090602060408183019282815285518094520193019160005b8281106109c3575050505090565b8351855293810193928101926001016109b5565b346103e8576020806003193601126103e85760043567ffffffffffffffff81116103e857610a09903690600401610931565b8051610a14816106e1565b92604091610a25604051958661069f565b808552610a34601f19916106e1565b0136602086013760009060005b8451811015610a7e57806001600160a01b03610a5f60019388611c81565b51168452600a8352818585200154610a778289611c81565b5201610a41565b6040518061035a888261099b565b634e487b7160e01b600052603260045260246000fd5b8054821015610aba5760005260206000200190600090565b610a8c565b346103e85760203660031901126103e8576004356006548110156103e8576001600160a01b0360209160066000527ff652222313e28459528d920b65115c16c04f3efc82aaedc97be59f3f377c0d3f015416604051908152f35b346103e85760203660031901126103e8576001600160a01b03600435610b3e81610544565b16600052600a6020526020600160406000200154604051908152f35b346103e85760003660031901126103e85760206040516001600160a01b037f0000000000000000000000000000000000000000000000000000000000000000168152f35b602090602060408183019282815285518094520193019160005b828110610bc6575050505090565b83516001600160a01b031685529381019392810192600101610bb8565b346103e8576020806003193601126103e857600435610c188160005260036020526001600160a01b0360406000205416151590565b15610c815760005260056020526040600020906040519081602084549182815201936000526020600020916000905b828210610c6a5761035a85610c5e8189038261069f565b60405191829182610b9e565b835486529485019460019384019390910190610c47565b602490604051907fae8f9a360000000000000000000000000000000000000000000000000000000082526004820152fd5b346103e85760003660031901126103e8576020600754604051908152f35b6044359081151582036103e857565b67ffffffffffffffff811161064657601f01601f191660200190565b81601f820112156103e857803590610d1282610cdf565b92610d20604051948561069f565b828452602083830101116103e857816000926020809301838601378301015290565b346103e85760a03660031901126103e857600435610d5f81610544565b602435610d6b81610544565b60643580151581036103e8576084359267ffffffffffffffff84116103e857610d9b6108a3943690600401610cfb565b9260443591611dd6565b346103e85760003660031901126103e85760206040517f00000000000000000000000000000000000000000000000000000000000000008152f35b346103e85760203660031901126103e85761035a61046b60043561354e565b346103e85760203660031901126103e85767ffffffffffffffff6004358181116103e857366023820112156103e85780600401359182116103e8573660248360051b830101116103e85761035a916024610e599201612072565b60405191829182610759565b346103e85760203660031901126103e8576001600160a01b03600435610e8a81610544565b1660005260046020526020604060002054604051908152f35b346103e857600080600319360112610f0a57610ebd61365f565b80546001600160a01b038116908282610ed35780f35b6001600160a01b0319927f8be0079c531659141344cd1fd0a4f28419497f9722a3daafe3b4186f6b6457e08280a316815538808280f35b80fd5b346103e85760003660031901126103e8576001600160a01b036040517fe710563c000000000000000000000000000000000000000000000000000000008082526020918281600481877f0000000000000000000000000000000000000000000000000000000000000000165afa91821561053f578391600093611008575b5060046040518096819382527f0000000000000000000000000000000000000000000000000000000000000000165afa90811561053f5761035a93610fd993600093610fe9575b5050612152565b6040519081529081906020820190565b611000929350803d106105385761052a818361069f565b903880610fd2565b611020919350823d84116105385761052a818361069f565b9138610f8b565b346103e85760003660031901126103e85760206109276121f8565b9080601f830112156103e857602090823561105c816106e1565b9361106a604051958661069f565b81855260208086019260051b8201019283116103e857602001905b828210611093575050505090565b813580151581036103e8578152908301908301611085565b81601f820112156103e8578035916020916110c5846106e1565b936110d3604051958661069f565b808552838086019160051b830101928084116103e857848301915b8483106110fe5750505050505090565b823567ffffffffffffffff81116103e857869161112084848094890101610cfb565b8152019201916110ee565b346103e85760a03660031901126103e857600467ffffffffffffffff81358181116103e85761115d9036908401610931565b906024358181116103e8576111759036908501610931565b6044358281116103e85761118c90369086016106f9565b906064358381116103e8576111a49036908701611042565b926084359081116103e8576108a3956111bf913691016110ab565b9361237a565b60403660031901126103e85760243567ffffffffffffffff81116103e8576111f1903690600401610cfb565b6111f961365f565b3461120a576108a3906004356136a3565b600460405163f36ba73760e01b8152fd5b346103e85760603660031901126103e857600480359061123a82610544565b60243560443567ffffffffffffffff81116103e85761125c9036908401610cfb565b9161126682611db3565b906001600160a01b038083169233840361137f5750851690811561137057818314611361576112af6112ab876112a6876000526005602052604060002090565b613836565b1590565b61131757509180611312926108a396947f1b1b58aa2ec0cec2228b2d37124556d41f5a1f7b12f089171f896cc236671215604051806112ee8a82610435565b0390a46113046040519485923360208501612462565b03601f19810184528361069f565b613edb565b604080517fa7626b680000000000000000000000000000000000000000000000000000000081526001600160a01b03881692810192835260208301869052918291010390fd5b0390fd5b6040516344fed6b160e11b8152fd5b604051639577b8b360e01b8152fd5b60408051632d938f5160e11b81526001600160a01b0390921682850190815260208101879052339181019190915281906060010390fd5b346103e85760003660031901126103e85760206040517f00000000000000000000000000000000000000000000000000000000000000008152f35b346103e85760003660031901126103e85760206001600160a01b0360005416604051908152f35b346103e85760003660031901126103e85760206040516001600160a01b037f0000000000000000000000000000000000000000000000000000000000000000168152f35b60403660031901126103e857600467ffffffffffffffff81358181116103e85761148990369084016106f9565b906024359081116103e8576114a190369084016110ab565b916114aa61365f565b3461154457815183510361151c578151156114f4575060005b81518110156108a357806114ee6114dc60019385611c81565b516114e78387611c81565b51906136a3565b016114c3565b6040517f97da5f95000000000000000000000000000000000000000000000000000000008152fd5b6040517f3bcc8979000000000000000000000000000000000000000000000000000000008152fd5b60405163f36ba73760e01b8152fd5b346103e8576020806003193601126103e8576001600160a01b0360043561157981610544565b1660005260046020526040600020906040519081602084549182815201936000526020600020916000905b8282106115bb5761035a856105f98189038261069f565b8354865294850194600193840193909101906115a4565b346103e85760403660031901126103e8576108a36024356115f281610544565b600435612932565b346103e85760003660031901126103e8576020600854604051908152f35b346103e85760003660031901126103e857604051806006549182815260208091019260066000527ff652222313e28459528d920b65115c16c04f3efc82aaedc97be59f3f377c0d3f916000905b82821061167c5761035a85610c5e8189038261069f565b83546001600160a01b031686529485019460019384019390910190611665565b346103e85760603660031901126103e857600467ffffffffffffffff81358181116103e8576116ce90369084016106f9565b6024358281116103e8576116e590369085016106f9565b916044359081116103e8576116fd90369085016110ab565b9261170661365f565b8151835180911490811591611799575b5061178a57815115611762575060005b81518110156108a3578061175c61173f60019385611c81565b5161174a8387611c81565b516117558489611c81565b5191613849565b01611726565b6040517f80c98305000000000000000000000000000000000000000000000000000000008152fd5b6040516317d38eff60e11b8152fd5b90508451141538611716565b90600182811c921680156117d5575b60208310146117bf57565b634e487b7160e01b600052602260045260246000fd5b91607f16916117b4565b8054600093926117ee826117a5565b918282526020936001916001811690816000146118565750600114611815575b5050505050565b90939495506000929192528360002092846000945b8386106118425750505050010190388080808061180e565b80548587018301529401938590820161182a565b60ff19168685015250505090151560051b01019150388080808061180e565b9061189061188992604051938480926117df565b038361069f565b565b346103e85760203660031901126103e85760043560005260096020526118fc6040600020604051906118c88261188981846117df565b6001810154906002810154906001600160a01b0360046003830154920154169160405195869560a0875260a0870190610410565b9360208601526040850152606084015260808301520390f35b346103e85760603660031901126103e85760443567ffffffffffffffff81116103e8576119496108a3913690600401610cfb565b61195161365f565b602435600435613849565b346103e85760003660031901126103e85760206040517f00000000000000000000000000000000000000000000000000000000000000008152f35b346103e85760803660031901126103e8576004356119b481610544565b6024356119bf610cd0565b9160643567ffffffffffffffff81116103e8576119e0903690600401610cfb565b6119e983611db3565b936001600160a01b0380861690813303611a5b575b8416908115611a4a5714611a3957611a1982828688876139af565b611a1f57005b6108a393611304611312926040519586936020850161248e565b60046040516344fed6b160e11b8152fd5b6004604051639577b8b360e01b8152fd5b84811633146119fe576040517f760b5acd0000000000000000000000000000000000000000000000000000000081523360048201526001600160a01b038816602482015260448101879052606490fd5b346103e85760003660031901126103e8576020600654604051908152f35b346103e85760203660031901126103e85760043567ffffffffffffffff81116103e857611afa9036906004016106f9565b611b048151611c37565b9060005b8151811015611b435780611b27611b2160019385611c81565b5161354e565b611b318286611c81565b52611b3c8185611c81565b5001611b08565b6040518061035a8582610759565b346103e85760203660031901126103e857600435611b6e81610544565b611b7661365f565b6001600160a01b038091168015611bd557600091825490811690818303611b9b578380f35b826001600160a01b0319927f8be0079c531659141344cd1fd0a4f28419497f9722a3daafe3b4186f6b6457e08680a3161781553880808380f35b60046040517f1ad8836c000000000000000000000000000000000000000000000000000000008152fd5b346103e85760203660031901126103e8576108a333600435611d19565b908160209103126103e8575190565b6040513d6000823e3d90fd5b90611c41826106e1565b611c4e604051918261069f565b8281528092611c5f601f19916106e1565b019060005b828110611c7057505050565b806060602080938501015201611c64565b8051821015610aba5760209160051b010190565b15611c9c57565b608460405162461bcd60e51b815260206004820152603f60248201527f4275726e7450697841726368697665733a204f6e6c792074686520617263686960448201527f76652063726561746f722063616e206d696e74207468652061726368697665006064820152fd5b60405190611d138261064b565b60008252565b908160005260096020526040600020916040519260a0840184811067ffffffffffffffff82111761064657611890946001600160a01b036004611da59484608095604052611d76609f1986611d6e84866117df565b03018261069f565b845260018101546020850152600281015460408501526003810154606085015201541691829101523314611c95565b611dad611d06565b916132b8565b8060005260036020526001600160a01b0360406000205416908115610c81575090565b90929391611de48133613448565b15611fbb57611df281611db3565b6001600160a01b038181169184821691828403611f8b57808816938415611f6157611e1c86611db3565b91821603611f1857505092611f0e83806118909997946113049997611e44611f139887613c5d565b611e6a83611e65886001600160a01b03166000526004602052604060002090565b614014565b50611e9183611e8c8b6001600160a01b03166000526004602052604060002090565b613ea4565b50611ec589611eaa856000526003602052604060002090565b906001600160a01b03166001600160a01b0319825416179055565b6040517fb333c813a7426a7a11e2b190cad52c44119421594b47f6f32ace6d8c7207b2bf9080611ef78a8e33846134ba565b0390a4604051978894859288863360208701613517565b613f46565b613dde565b6040517f5a9c31d3000000000000000000000000000000000000000000000000000000008152600481018690526001600160a01b03928316602482015291166044820152606490fd5b60046040517f24ecef4d000000000000000000000000000000000000000000000000000000008152fd5b604051632d938f5160e11b81526001600160a01b0383811660048301526024820187905287166044820152606490fd5b604490604051907f1294d2a90000000000000000000000000000000000000000000000000000000082526004820152336024820152fd5b9190811015610aba5760051b81013590601e19813603018212156103e857019081359167ffffffffffffffff83116103e85760200182360381136103e8579190565b908092918237016000815290565b3d1561206d573d9061205382610cdf565b91612061604051938461069f565b82523d6000602084013e565b606090565b919061207d81611c37565b9260009160005b8181106120915750505050565b838061209e838587611ff2565b604093916120b0855180938193612034565b0390305af4906120be612042565b91156120e55750906001916120d38289611c81565b526120de8188611c81565b5001612084565b8151919291156120f757825160208401fd5b517f234eb819000000000000000000000000000000000000000000000000000000008152600481019190915260249150fd5b634e487b7160e01b600052601160045260246000fd5b906001820180921161214d57565b612129565b9190820180921161214d57565b908160209103126103e8575161044681610544565b60209081818403126103e85780519067ffffffffffffffff82116103e857019180601f840112156103e85782516121aa816106e1565b936121b8604051958661069f565b818552838086019260051b8201019283116103e8578301905b8282106121df575050505090565b83809183516121ed81610544565b8152019101906121d1565b7f00000000000000000000000000000000000000000000000000000000000000006001600160a01b0360405190637b10399960e01b825260209182816004818588165afa801561053f57829160009161235d575b5016926040517f49a6078d0000000000000000000000000000000000000000000000000000000081526000818061228b85600483019190602083019252565b0381885afa90811561053f5760009161233a575b50511593846122b0575b5050505090565b6040517f217b2270000000000000000000000000000000000000000000000000000000008152600481019290925292935090918390829060249082905afa92831561053f5760009361230b575b5050163014388080806122a9565b61232b929350803d10612333575b612323818361069f565b81019061215f565b9038806122fd565b503d612319565b61235791503d806000833e61234f818361069f565b810190612174565b3861229f565b6123749150843d861161233357612323818361069f565b3861224c565b949390919285519383518514801590612457575b801561244c575b8015612441575b6124175760005b8581106123b4575050505050509050565b806124116123d46123c76001948c611c81565b516001600160a01b031690565b6123e16123c7848a611c81565b6123eb8487611c81565b516123ff6123f9868a611c81565b51151590565b9161240a868b611c81565b5193611dd6565b016123a3565b60046040517f93a83119000000000000000000000000000000000000000000000000000000008152fd5b50825185141561239c565b508151851415612395565b50805185141561238e565b61044693926001600160a01b036080931682526020820152600160408201528160608201520190610410565b61044693926001600160a01b036080931682526020820152600060408201528160608201520190610410565b156124c157565b608460405162461bcd60e51b815260206004820152603360248201527f4275726e7450697841726368697665733a20497465726174696f6e73206d757360448201527f742062652067726561746572207468616e2030000000000000000000000000006064820152fd5b1561253257565b608460405162461bcd60e51b815260206004820152602d60248201527f67673a204275726e742050697820417263686976657320536561736f6e20312060448201527f68617320636f6e636c75646564000000000000000000000000000000000000006064820152fd5b9190820391821161214d57565b60065468010000000000000000811015610646576001810180600655811015610aba576001600160a01b039060066000527ff652222313e28459528d920b65115c16c04f3efc82aaedc97be59f3f377c0d3f0191166001600160a01b0319825416179055565b600019811461214d5760010190565b916126389183549060031b91821b91600019901b19161790565b9055565b80549068010000000000000000821015610646578161266391600161263894018155610aa2565b819391549060031b91821b91600019901b19161790565b6020818303126103e85780519067ffffffffffffffff82116103e8570181601f820112156103e85780516126ad81610cdf565b926126bb604051948561069f565b818452602082840101116103e85761044691602080850191016103ed565b90601f81116126e757505050565b6000916000526020600020906020601f850160051c83019410612725575b601f0160051c01915b82811061271a57505050565b81815560010161270e565b9092508290612705565b919091825167ffffffffffffffff8111610646576127578161275184546117a5565b846126d9565b602080601f83116001146127965750819061263893949560009261278b575b50508160011b916000199060031b1c19161790565b015190503880612776565b90601f198316956127ac85600052602060002090565b926000905b8882106127e9575050836001959697106127d0575b505050811b019055565b015160001960f88460031b161c191690553880806127c6565b806001859682949686015181550195019301906127b1565b919091825192835167ffffffffffffffff81116106465761282c8161282685546117a5565b856126d9565b602080601f83116001146128b6575060049261286a8361289994608094611890999a60009261278b5750508160011b916000199060031b1c19161790565b85555b60208101516001860155604081015160028601556060810151600386015501516001600160a01b031690565b9101906001600160a01b03166001600160a01b0319825416179055565b90601f198316966128cc86600052602060002090565b926000905b89821061291a5750508360809360049693600193612899976118909b9c10612901575b505050811b01855561286d565b015160001960f88460031b161c191690553880806128f4565b806001859682949686015181550195019301906128d1565b9061293e8215156124ba565b6002547f0000000000000000000000000000000000000000000000000000000000000000118015612fcd575b6129739061252b565b7f0000000000000000000000000000000000000000000000000000000000000000906001600160a01b03908183166040938451637b10399960e01b815260209160049083838381885afa92831561053f57600093612fae575b50875192848484816321ac695f60e11b998a82525afa93841561053f57600094612f8f575b5088518681527f000000000000000000000000000000000000000000000000000000000000000089169486828681895afa90811561053f57612a3b92600092612f70575b5061259c565b90843b156103e857612a809160008c8c51809581927f4594229c0000000000000000000000000000000000000000000000000000000083528983019190602083019252565b0381838a5af192831561053f578a93612f5d575b5080158015612f54575b612ed7575b506001612ac3896001600160a01b0316600052600a602052604060002090565b015415612ec9575b6001612aea896001600160a01b0316600052600a602052604060002090565b01612af68c8254612152565b90556001612b17896001600160a01b0316600052600a602052604060002090565b01547f0000000000000000000000000000000000000000000000000000000000000000111580612ebb575b612e14575b505050612bcb6001612b6c876001600160a01b0316600052600a602052604060002090565b015484612b95612b8f896001600160a01b0316600052600a602052604060002090565b5461213f565b8a51809481927fcd7782690000000000000000000000000000000000000000000000000000000083528783019190602083019252565b03818b7f0000000000000000000000000000000000000000000000000000000000000000165afa91821561053f57600092612df5575b501015612c41575b505093519485525016917f114ec287c9923ae9467a3045ca9dca773ee5b7d0e311a972027132f0f80f9aed915080602081015b0390a2565b612c506007979394975461260f565b96612c5a88600755565b612c8088612c7b886001600160a01b0316600052600a602052604060002090565b61263c565b8351907f54f6127f00000000000000000000000000000000000000000000000000000000825260008280612cda868201907f2abb082c1b23ea79fce2a9e934ecb19ce15738b1483c365d0125f47e8ccc7dfc602083019252565b0381875afa92831561053f578692600094612dd0575b5085518095819382525afa91821561053f577f114ec287c9923ae9467a3045ca9dca773ee5b7d0e311a972027132f0f80f9aed97612c3c95612da294612d9d93600091612db3575b50612d56896001600160a01b0316600052600a602052604060002090565b5491612d606106c1565b9586528501528584019081524360608501526001600160a01b0388166080850152516008548111612daa575b506000526009602052604060002090565b612801565b933880612c09565b60085538612d8c565b612dca9150823d84116105385761052a818361069f565b38612d38565b612dee9194503d806000833e612de6818361069f565b81019061267a565b9238612cf0565b612e0d919250853d87116105385761052a818361069f565b9038612c01565b16803b156103e857612e8c6000929183928b519485809481937f511b69520000000000000000000000000000000000000000000000000000000083528d308b8501919060c093916001600160a01b03809216845216602083015260408201526001606082015260a06080820152600060a08201520190565b03925af1801561053f57612ea2575b8681612b47565b80612eaf612eb592610632565b8061047f565b38612e9b565b50612ec46121f8565b612b42565b612ed2886125a9565b612acb565b91612ee5908216928c61259c565b91803b156103e8578a517fea255583000000000000000000000000000000000000000000000000000000008152858101858152602081019490945292600091849182908490829060400103925af191821561053f57899215612aa35780612eaf612f4e92610632565b38612aa3565b50808c11612a9e565b80612eaf612f6a92610632565b38612a94565b612f88919250883d8a116105385761052a818361069f565b9038612a35565b612fa7919450853d87116105385761052a818361069f565b92386129f1565b612fc6919350843d861161233357612323818361069f565b91386129cc565b50612973612fd96121f8565b905061296a565b34156130105760046040517f61f49442000000000000000000000000000000000000000000000000000000008152fd5b606460405163e5099ee360e01b8152602060048201526004602482015260006044820152fd5b600436106130475761044690613a7a565b6044604051809263e5099ee360e01b825260206004830152806024830152806000848401376000828201840152601f01601f19168101030190fd5b6130c96130c4604051696773c5a04a6d4300884b60b11b60208201526000602a8201526301ffc9a760e01b602c820152602081526130bf81610667565b613fb1565b613c3e565b80516014811415908161313d575b506130ff576130e590613b77565b60601c9081156130f85761044691613c0b565b5050600090565b61135d906040519182917f42bfe79f000000000000000000000000000000000000000000000000000000008352602060048401526024830190610410565b90501515386130d7565b6131678160005260036020526001600160a01b0360406000205416151590565b156103e8577f9afb95cacc9f95858ec44aa8c3b685511002e30ae54415823f406128b85b238e82146131b057506131ab610446916000526001602052604060002090565b611875565b60009081526009602052604081206001600160a01b039250916008549060405180809581947fb4a9d9af0000000000000000000000000000000000000000000000000000000083526060600484015260a060648401528460046132176101048601856117df565b9360018101546084870152600281015460a4870152600381015460c487015201541660e4840152847f0000000000000000000000000000000000000000000000000000000000000000166024840152604483015203917f0000000000000000000000000000000000000000000000000000000000000000165afa90811561053f576000916132a3575090565b61044691503d806000833e612de6818361069f565b929190926002546001810180821161214d577f00000000000000000000000000000000000000000000000000000000000000001061341e576001600160a01b038216908115611f61576133218660005260036020526001600160a01b0360406000205416151590565b6133ec576133458660005260036020526001600160a01b0360406000205416151590565b6133ec5794806133e79261336461335f611890989961260f565b600255565b61338582611e8c876001600160a01b03166000526004602052604060002090565b5061339e85611eaa846000526003602052604060002090565b60007fb333c813a7426a7a11e2b190cad52c44119421594b47f6f32ace6d8c7207b2bf604051806133d08a3383613493565b0390a46113046040519485928533602086016134e1565b613d77565b6040517f34c7b51100000000000000000000000000000000000000000000000000000000815260048101879052602490fd5b60046040517fe8ba2291000000000000000000000000000000000000000000000000000000008152fd5b6001600160a01b038061345a84611db3565b16911690811491821561346c57505090565b61044692506000526005602052604060002060019160005201602052604060002054151590565b6060906001600160a01b036104469493168152600160208201528160408201520190610410565b61044693926001600160a01b03606093168252151560208201528160408201520190610410565b9092610446949360a0936001600160a01b0380921684526000602085015216604083015260608201528160808201520190610410565b9160a0936104469695926001600160a01b039283809216865216602085015216604083015260608201528160808201520190610410565b7f9afb95cacc9f95858ec44aa8c3b685511002e30ae54415823f406128b85b238e81146135a25761044661358f61359b926000526001602052604060002090565b604051928380926117df565b038261069f565b50604460006001600160a01b03604051928380927f292f01f0000000000000000000000000000000000000000000000000000000008252807f0000000000000000000000000000000000000000000000000000000000000000166004830152807f00000000000000000000000000000000000000000000000000000000000000001660248301527f0000000000000000000000000000000000000000000000000000000000000000165afa90811561053f576000916132a3575090565b6001600160a01b0360005416330361367357565b60246040517fbf1169c5000000000000000000000000000000000000000000000000000000008152336004820152fd5b907ff675e9361af1c1664c1868cfa3eb97672d6b1a513aa5b81dec34c9ee330e818d821461380c577fdeba1e292f8ba88238e10ab3c7f88bd4be4fac56cad5194b6ecceaf653468af1820361371c5760046040517f85c169bd000000000000000000000000000000000000000000000000000000008152fd5b7f2f0a68ab07768e01943a599e73362a0e17a63a72e94dd2e384d2c1d4db932756820361376d5760046040517f76755b38000000000000000000000000000000000000000000000000000000008152fd5b7fe0261fa95db2eb3b5439bd033cda66d56b96f92f243a8228fd87550ed7bdfdb382036137be5760046040517f4ef6d7fb000000000000000000000000000000000000000000000000000000008152fd5b612c3c816138007fece574603820d07bc9b91f2a932baadf4628aabcb8afba49776529c14a6104b2936137fb866000526001602052604060002090565b61272f565b60405191829182610435565b60046040517f3664800a000000000000000000000000000000000000000000000000000000008152fd5b6001600160a01b03610446921690613ea4565b909160405160209060208101908482528560408201526040815261386c81610683565b51902060005260018060205260406000209183519167ffffffffffffffff8311610646576138a48361389e86546117a5565b866126d9565b602091601f841160011461391a575050916138fc827fa6e4251f855f750545fe414f120db91c76b88def14d120969e5bb2d3f05debbb959361390a9560009161390f575b508160011b916000199060031b1c19161790565b905560405191829182610435565b0390a3565b9050840151386138e8565b9190601f1984169061393186600052602060002090565b936000915b838310613998575050509261390a9492600192827fa6e4251f855f750545fe414f120db91c76b88def14d120969e5bb2d3f05debbb98961061397f575b5050811b019055613800565b85015160001960f88460031b161c191690553880613973565b888501518655948501949381019391810191613936565b9193928460005260056020526040600020926001600160a01b03906139d78282168096614014565b15613a26575090613a217fc78cd419d6136f9f1c1c6aec1d3fae098cffaf8bc86314a8f2685e32fe574e3c9392604051938493151584526040602085015216956040830190610410565b0390a4565b6040516312a8c6a360e21b81526001600160a01b0391909116600482015260248101879052604490fd5b9060349391816000823701916bffffffffffffffffffffffff199060601b16825260148201520190565b6001600160e01b03196000351690613abe6130c4604051696773c5a04a6d4300884b60b11b60208201526000602a82015284602c820152602081526130bf81610667565b805160148114159081613b6d575b506130ff57613ada90613b77565b60601c918215613b3057506000918291604051613b1181613b0360208201943490339087613a50565b03601f19810183528261069f565b519134905af1613b1f612042565b9015613b285790565b602081519101fd5b6040517fbb370b2b0000000000000000000000000000000000000000000000000000000081526001600160e01b0319919091166004820152602490fd5b9050151538613acc565b90602082519201516bffffffffffffffffffffffff19908181169360148110613b9f57505050565b60140360031b82901b16169150565b6000602091604051838101906301ffc9a760e01b8252631aed5a8560e21b602482015260248152613bde81610683565b5191617530fa6000513d82613bff575b5081613bf8575090565b9050151590565b60201115915038613bee565b6000906020926040516001600160e01b0319858201926301ffc9a760e01b845216602482015260248152613bde81610683565b600052600160205261359b6104466040600020604051928380926117df565b90600090808252600591602093600560205260409182812094855495825b878110613c8d57505050505050505050565b815415610aba578184526001600160a01b03808a8620541690875190613cb28261064b565b868252898752858c52613cc7838a8920614014565b15613d1957600193927fc78cd419d6136f9f1c1c6aec1d3fae098cffaf8bc86314a8f2685e32fe574e3c8d89613d108e968e968e88805196879687528601521696830190610410565b0390a401613c7b565b88516312a8c6a360e21b81526001600160a01b0384166004820152602481018b9052604490fd5b906040610446927f0b084a55ebf70fd3c06fd755269dac2212c4d3f0f4d09079780bfa50c1b2984d81528160208201520190610410565b613d8081613bae565b15613dda57613db16000916001600160a01b039383604051958680958194631aed5a8560e21b835260048301613d40565b0393165af1801561053f57613dc35750565b613dd7903d806000833e612de6818361069f565b50565b5050565b9190613de983613bae565b15613e1b5750613db16001600160a01b039260009283604051958680958194631aed5a8560e21b835260048301613d40565b905015613e255750565b803b15613e68576040517f4349776d0000000000000000000000000000000000000000000000000000000081526001600160a01b03919091166004820152602490fd5b6040517f031731370000000000000000000000000000000000000000000000000000000081526001600160a01b03919091166004820152602490fd5b60008281526001820160205260409020546130f85780613ec68360019361263c565b80549260005201602052604060002055600190565b613ee481613bae565b613eec575050565b613db16000916001600160a01b039383604051958680958194631aed5a8560e21b83527f8a1c15a8799f71b547e08e2bcb2e85257e81b0a07eee2ce6712549eef1f009706004840152604060248401526044830190610410565b613f4f81613bae565b613f57575050565b613db16000916001600160a01b039383604051958680958194631aed5a8560e21b83527fb23eae7e6d1564b295b4c3e3be402d9a2f0776c57bdf365903496f6fa481ab006004840152604060248401526044830190610410565b602081519101519060208110613fc5575090565b6000199060200360031b1b1690565b8054908115613ffe5760001991820191613fee8383610aa2565b909182549160031b1b1916905555565b634e487b7160e01b600052603160045260246000fd5b60018101918060005282602052604060002054928315156000146140c057600019928484019085821161214d57805494850194851161214d57600095858361406894614077980361407d575b505050613fd4565b90600052602052604060002090565b55600190565b6140a76140a1916140916140b79487610aa2565b90549060031b1c92839187610aa2565b9061261e565b8590600052602052604060002090565b55388080614060565b5050505060009056fea2646970667358221220ea180421d1537565c74325b83b77e23b0b6ff7e8875e01b88e70956ea37d9f0c64736f6c63430008180033deba1e292f8ba88238e10ab3c7f88bd4be4fac56cad5194b6ecceaf653468af1e0261fa95db2eb3b5439bd033cda66d56b96f92f243a8228fd87550ed7bdfdb3eafec4d89fa9619884b60000a4d96624a38f7ac2d8d9a604ecf07c12c77e480cf675e9361af1c1664c1868cfa3eb97672d6b1a513aa5b81dec34c9ee330e818d2f0a68ab07768e01943a599e73362a0e17a63a72e94dd2e384d2c1d4db932756114bd03b3a46d48759680d81ebb2b414fda7d030a7105a851867accf1c2352e7ece574603820d07bc9b91f2a932baadf4628aabcb8afba49776529c14a6104b2",
  "linkReferences": {},
  "deployedLinkReferences": {}
}