{
  "_format": "hh-sol-artifact-1",
  "contractName": "BurntPixArchives",
  "sourceName": "contracts/BurntPixArchives.sol",
  "abi": [
    {
      "inputs": [
        {
          "internalType": "address",
          "name": "_codehub",
          "type": "address"
        },
        {
          "internalType": "address",
          "name": "_registry",
          "type": "address"
        },
        {
          "internalType": "address",
          "name": "_archiveHelpers",
          "type": "address"
        },
        {
          "internalType": "address",
          "name": "_creator",
          "type": "address"
        },
        {
          "internalType": "bytes32",
          "name": "_burntPicId",
          "type": "bytes32"
        },
        {
          "internalType": "uint256",
          "name": "_maxSupply",
          "type": "uint256"
        },
        {
          "internalType": "uint256",
          "name": "_winnerIters",
          "type": "uint256"
        }
      ],
      "stateMutability": "nonpayable",
      "type": "constructor"
    },
    {
      "inputs": [],
      "name": "ERC725Y_DataKeysValuesEmptyArray",
      "type": "error"
    },
    {
      "inputs": [],
      "name": "ERC725Y_DataKeysValuesLengthMismatch",
      "type": "error"
    },
    {
      "inputs": [],
      "name": "ERC725Y_MsgValueDisallowed",
      "type": "error"
    },
    {
      "inputs": [
        {
          "internalType": "bytes",
          "name": "storedData",
          "type": "bytes"
        }
      ],
      "name": "InvalidExtensionAddress",
      "type": "error"
    },
    {
      "inputs": [
        {
          "internalType": "bytes",
          "name": "data",
          "type": "bytes"
        }
      ],
      "name": "InvalidFunctionSelector",
      "type": "error"
    },
    {
      "inputs": [],
      "name": "LSP4TokenNameNotEditable",
      "type": "error"
    },
    {
      "inputs": [],
      "name": "LSP4TokenSymbolNotEditable",
      "type": "error"
    },
    {
      "inputs": [],
      "name": "LSP4TokenTypeNotEditable",
      "type": "error"
    },
    {
      "inputs": [
        {
          "internalType": "uint256",
          "name": "callIndex",
          "type": "uint256"
        }
      ],
      "name": "LSP8BatchCallFailed",
      "type": "error"
    },
    {
      "inputs": [],
      "name": "LSP8CannotSendToAddressZero",
      "type": "error"
    },
    {
      "inputs": [],
      "name": "LSP8CannotUseAddressZeroAsOperator",
      "type": "error"
    },
    {
      "inputs": [],
      "name": "LSP8CappedSupplyCannotMintOverCap",
      "type": "error"
    },
    {
      "inputs": [],
      "name": "LSP8CappedSupplyRequired",
      "type": "error"
    },
    {
      "inputs": [],
      "name": "LSP8InvalidTransferBatch",
      "type": "error"
    },
    {
      "inputs": [
        {
          "internalType": "bytes32",
          "name": "tokenId",
          "type": "bytes32"
        }
      ],
      "name": "LSP8NonExistentTokenId",
      "type": "error"
    },
    {
      "inputs": [
        {
          "internalType": "address",
          "name": "operator",
          "type": "address"
        },
        {
          "internalType": "bytes32",
          "name": "tokenId",
          "type": "bytes32"
        }
      ],
      "name": "LSP8NonExistingOperator",
      "type": "error"
    },
    {
      "inputs": [
        {
          "internalType": "bytes32",
          "name": "tokenId",
          "type": "bytes32"
        },
        {
          "internalType": "address",
          "name": "caller",
          "type": "address"
        }
      ],
      "name": "LSP8NotTokenOperator",
      "type": "error"
    },
    {
      "inputs": [
        {
          "internalType": "address",
          "name": "tokenOwner",
          "type": "address"
        },
        {
          "internalType": "bytes32",
          "name": "tokenId",
          "type": "bytes32"
        },
        {
          "internalType": "address",
          "name": "caller",
          "type": "address"
        }
      ],
      "name": "LSP8NotTokenOwner",
      "type": "error"
    },
    {
      "inputs": [
        {
          "internalType": "address",
          "name": "tokenReceiver",
          "type": "address"
        }
      ],
      "name": "LSP8NotifyTokenReceiverContractMissingLSP1Interface",
      "type": "error"
    },
    {
      "inputs": [
        {
          "internalType": "address",
          "name": "tokenReceiver",
          "type": "address"
        }
      ],
      "name": "LSP8NotifyTokenReceiverIsEOA",
      "type": "error"
    },
    {
      "inputs": [
        {
          "internalType": "address",
          "name": "operator",
          "type": "address"
        },
        {
          "internalType": "bytes32",
          "name": "tokenId",
          "type": "bytes32"
        }
      ],
      "name": "LSP8OperatorAlreadyAuthorized",
      "type": "error"
    },
    {
      "inputs": [
        {
          "internalType": "address",
          "name": "caller",
          "type": "address"
        },
        {
          "internalType": "address",
          "name": "tokenOwner",
          "type": "address"
        },
        {
          "internalType": "bytes32",
          "name": "tokenId",
          "type": "bytes32"
        }
      ],
      "name": "LSP8RevokeOperatorNotAuthorized",
      "type": "error"
    },
    {
      "inputs": [],
      "name": "LSP8TokenContractCannotHoldValue",
      "type": "error"
    },
    {
      "inputs": [
        {
          "internalType": "bytes32",
          "name": "tokenId",
          "type": "bytes32"
        }
      ],
      "name": "LSP8TokenIdAlreadyMinted",
      "type": "error"
    },
    {
      "inputs": [],
      "name": "LSP8TokenIdFormatNotEditable",
      "type": "error"
    },
    {
      "inputs": [],
      "name": "LSP8TokenIdsDataEmptyArray",
      "type": "error"
    },
    {
      "inputs": [],
      "name": "LSP8TokenIdsDataLengthMismatch",
      "type": "error"
    },
    {
      "inputs": [],
      "name": "LSP8TokenOwnerCannotBeOperator",
      "type": "error"
    },
    {
      "inputs": [
        {
          "internalType": "bytes32",
          "name": "tokenId",
          "type": "bytes32"
        },
        {
          "internalType": "address",
          "name": "oldOwner",
          "type": "address"
        },
        {
          "internalType": "address",
          "name": "newOwner",
          "type": "address"
        }
      ],
      "name": "LSP8TokenOwnerChanged",
      "type": "error"
    },
    {
      "inputs": [
        {
          "internalType": "bytes4",
          "name": "functionSelector",
          "type": "bytes4"
        }
      ],
      "name": "NoExtensionFoundForFunctionSelector",
      "type": "error"
    },
    {
      "inputs": [
        {
          "internalType": "address",
          "name": "callerAddress",
          "type": "address"
        }
      ],
      "name": "OwnableCallerNotTheOwner",
      "type": "error"
    },
    {
      "inputs": [],
      "name": "OwnableCannotSetZeroAddressAsOwner",
      "type": "error"
    },
    {
      "anonymous": false,
      "inputs": [
        {
          "indexed": true,
          "internalType": "bytes32",
          "name": "dataKey",
          "type": "bytes32"
        },
        {
          "indexed": false,
          "internalType": "bytes",
          "name": "dataValue",
          "type": "bytes"
        }
      ],
      "name": "DataChanged",
      "type": "event"
    },
    {
      "anonymous": false,
      "inputs": [
        {
          "indexed": true,
          "internalType": "address",
          "name": "operator",
          "type": "address"
        },
        {
          "indexed": true,
          "internalType": "address",
          "name": "tokenOwner",
          "type": "address"
        },
        {
          "indexed": true,
          "internalType": "bytes32",
          "name": "tokenId",
          "type": "bytes32"
        },
        {
          "indexed": false,
          "internalType": "bytes",
          "name": "operatorNotificationData",
          "type": "bytes"
        }
      ],
      "name": "OperatorAuthorizationChanged",
      "type": "event"
    },
    {
      "anonymous": false,
      "inputs": [
        {
          "indexed": true,
          "internalType": "address",
          "name": "operator",
          "type": "address"
        },
        {
          "indexed": true,
          "internalType": "address",
          "name": "tokenOwner",
          "type": "address"
        },
        {
          "indexed": true,
          "internalType": "bytes32",
          "name": "tokenId",
          "type": "bytes32"
        },
        {
          "indexed": false,
          "internalType": "bool",
          "name": "notified",
          "type": "bool"
        },
        {
          "indexed": false,
          "internalType": "bytes",
          "name": "operatorNotificationData",
          "type": "bytes"
        }
      ],
      "name": "OperatorRevoked",
      "type": "event"
    },
    {
      "anonymous": false,
      "inputs": [
        {
          "indexed": true,
          "internalType": "address",
          "name": "previousOwner",
          "type": "address"
        },
        {
          "indexed": true,
          "internalType": "address",
          "name": "newOwner",
          "type": "address"
        }
      ],
      "name": "OwnershipTransferred",
      "type": "event"
    },
    {
      "anonymous": false,
      "inputs": [
        {
          "indexed": true,
          "internalType": "bytes32",
          "name": "tokenId",
          "type": "bytes32"
        },
        {
          "indexed": true,
          "internalType": "bytes32",
          "name": "dataKey",
          "type": "bytes32"
        },
        {
          "indexed": false,
          "internalType": "bytes",
          "name": "dataValue",
          "type": "bytes"
        }
      ],
      "name": "TokenIdDataChanged",
      "type": "event"
    },
    {
      "anonymous": false,
      "inputs": [
        {
          "indexed": false,
          "internalType": "address",
          "name": "operator",
          "type": "address"
        },
        {
          "indexed": true,
          "internalType": "address",
          "name": "from",
          "type": "address"
        },
        {
          "indexed": true,
          "internalType": "address",
          "name": "to",
          "type": "address"
        },
        {
          "indexed": true,
          "internalType": "bytes32",
          "name": "tokenId",
          "type": "bytes32"
        },
        {
          "indexed": false,
          "internalType": "bool",
          "name": "force",
          "type": "bool"
        },
        {
          "indexed": false,
          "internalType": "bytes",
          "name": "data",
          "type": "bytes"
        }
      ],
      "name": "Transfer",
      "type": "event"
    },
    {
      "stateMutability": "payable",
      "type": "fallback"
    },
    {
      "inputs": [],
      "name": "archiveCount",
      "outputs": [
        {
          "internalType": "uint256",
          "name": "",
          "type": "uint256"
        }
      ],
      "stateMutability": "view",
      "type": "function"
    },
    {
      "inputs": [],
      "name": "archiveHelpers",
      "outputs": [
        {
          "internalType": "address",
          "name": "",
          "type": "address"
        }
      ],
      "stateMutability": "view",
      "type": "function"
    },
    {
      "inputs": [
        {
          "internalType": "address",
          "name": "operator",
          "type": "address"
        },
        {
          "internalType": "bytes32",
          "name": "tokenId",
          "type": "bytes32"
        },
        {
          "internalType": "bytes",
          "name": "operatorNotificationData",
          "type": "bytes"
        }
      ],
      "name": "authorizeOperator",
      "outputs": [],
      "stateMutability": "nonpayable",
      "type": "function"
    },
    {
      "inputs": [
        {
          "internalType": "address",
          "name": "tokenOwner",
          "type": "address"
        }
      ],
      "name": "balanceOf",
      "outputs": [
        {
          "internalType": "uint256",
          "name": "",
          "type": "uint256"
        }
      ],
      "stateMutability": "view",
      "type": "function"
    },
    {
      "inputs": [
        {
          "internalType": "bytes[]",
          "name": "data",
          "type": "bytes[]"
        }
      ],
      "name": "batchCalls",
      "outputs": [
        {
          "internalType": "bytes[]",
          "name": "results",
          "type": "bytes[]"
        }
      ],
      "stateMutability": "nonpayable",
      "type": "function"
    },
    {
      "inputs": [
        {
          "internalType": "bytes32",
          "name": "",
          "type": "bytes32"
        }
      ],
      "name": "burntArchives",
      "outputs": [
        {
          "internalType": "bytes",
          "name": "image",
          "type": "bytes"
        },
        {
          "internalType": "uint256",
          "name": "iterations",
          "type": "uint256"
        },
        {
          "internalType": "uint256",
          "name": "level",
          "type": "uint256"
        },
        {
          "internalType": "uint256",
          "name": "blockNumber",
          "type": "uint256"
        },
        {
          "internalType": "address",
          "name": "creator",
          "type": "address"
        }
      ],
      "stateMutability": "view",
      "type": "function"
    },
    {
      "inputs": [],
      "name": "burntPicId",
      "outputs": [
        {
          "internalType": "bytes32",
          "name": "",
          "type": "bytes32"
        }
      ],
      "stateMutability": "view",
      "type": "function"
    },
    {
      "inputs": [
        {
          "internalType": "address",
          "name": "",
          "type": "address"
        }
      ],
      "name": "contributions",
      "outputs": [
        {
          "internalType": "uint256",
          "name": "iterations",
          "type": "uint256"
        }
      ],
      "stateMutability": "view",
      "type": "function"
    },
    {
      "inputs": [],
      "name": "currentHighestLevel",
      "outputs": [
        {
          "internalType": "uint256",
          "name": "",
          "type": "uint256"
        }
      ],
      "stateMutability": "view",
      "type": "function"
    },
    {
      "inputs": [],
      "name": "fractalClone",
      "outputs": [
        {
          "internalType": "address",
          "name": "",
          "type": "address"
        }
      ],
      "stateMutability": "view",
      "type": "function"
    },
    {
      "inputs": [
        {
          "internalType": "address",
          "name": "contributor",
          "type": "address"
        }
      ],
      "name": "getArchives",
      "outputs": [
        {
          "internalType": "bytes32[]",
          "name": "",
          "type": "bytes32[]"
        }
      ],
      "stateMutability": "view",
      "type": "function"
    },
    {
      "inputs": [
        {
          "internalType": "bytes32",
          "name": "dataKey",
          "type": "bytes32"
        }
      ],
      "name": "getData",
      "outputs": [
        {
          "internalType": "bytes",
          "name": "dataValue",
          "type": "bytes"
        }
      ],
      "stateMutability": "view",
      "type": "function"
    },
    {
      "inputs": [
        {
          "internalType": "bytes32[]",
          "name": "dataKeys",
          "type": "bytes32[]"
        }
      ],
      "name": "getDataBatch",
      "outputs": [
        {
          "internalType": "bytes[]",
          "name": "dataValues",
          "type": "bytes[]"
        }
      ],
      "stateMutability": "view",
      "type": "function"
    },
    {
      "inputs": [
        {
          "internalType": "bytes32[]",
          "name": "tokenIds",
          "type": "bytes32[]"
        },
        {
          "internalType": "bytes32[]",
          "name": "dataKeys",
          "type": "bytes32[]"
        }
      ],
      "name": "getDataBatchForTokenIds",
      "outputs": [
        {
          "internalType": "bytes[]",
          "name": "dataValues",
          "type": "bytes[]"
        }
      ],
      "stateMutability": "view",
      "type": "function"
    },
    {
      "inputs": [
        {
          "internalType": "bytes32",
          "name": "tokenId",
          "type": "bytes32"
        },
        {
          "internalType": "bytes32",
          "name": "dataKey",
          "type": "bytes32"
        }
      ],
      "name": "getDataForTokenId",
      "outputs": [
        {
          "internalType": "bytes",
          "name": "dataValue",
          "type": "bytes"
        }
      ],
      "stateMutability": "view",
      "type": "function"
    },
    {
      "inputs": [
        {
          "internalType": "bytes32",
          "name": "tokenId",
          "type": "bytes32"
        }
      ],
      "name": "getOperatorsOf",
      "outputs": [
        {
          "internalType": "address[]",
          "name": "",
          "type": "address[]"
        }
      ],
      "stateMutability": "view",
      "type": "function"
    },
    {
      "inputs": [
        {
          "internalType": "address",
          "name": "operator",
          "type": "address"
        },
        {
          "internalType": "bytes32",
          "name": "tokenId",
          "type": "bytes32"
        }
      ],
      "name": "isOperatorFor",
      "outputs": [
        {
          "internalType": "bool",
          "name": "",
          "type": "bool"
        }
      ],
      "stateMutability": "view",
      "type": "function"
    },
    {
      "inputs": [],
      "name": "isOriginalLocked",
      "outputs": [
        {
          "internalType": "bool",
          "name": "",
          "type": "bool"
        }
      ],
      "stateMutability": "view",
      "type": "function"
    },
    {
      "inputs": [
        {
          "internalType": "bytes32",
          "name": "archiveId",
          "type": "bytes32"
        },
        {
          "internalType": "address",
          "name": "to",
          "type": "address"
        }
      ],
      "name": "mintArchive",
      "outputs": [],
      "stateMutability": "nonpayable",
      "type": "function"
    },
    {
      "inputs": [],
      "name": "owner",
      "outputs": [
        {
          "internalType": "address",
          "name": "",
          "type": "address"
        }
      ],
      "stateMutability": "view",
      "type": "function"
    },
    {
      "inputs": [
        {
          "internalType": "uint256",
          "name": "iters",
          "type": "uint256"
        }
      ],
      "name": "refineToArchive",
      "outputs": [],
      "stateMutability": "nonpayable",
      "type": "function"
    },
    {
      "inputs": [],
      "name": "registry",
      "outputs": [
        {
          "internalType": "address",
          "name": "",
          "type": "address"
        }
      ],
      "stateMutability": "view",
      "type": "function"
    },
    {
      "inputs": [],
      "name": "renounceOwnership",
      "outputs": [],
      "stateMutability": "nonpayable",
      "type": "function"
    },
    {
      "inputs": [
        {
          "internalType": "address",
          "name": "operator",
          "type": "address"
        },
        {
          "internalType": "bytes32",
          "name": "tokenId",
          "type": "bytes32"
        },
        {
          "internalType": "bool",
          "name": "notify",
          "type": "bool"
        },
        {
          "internalType": "bytes",
          "name": "operatorNotificationData",
          "type": "bytes"
        }
      ],
      "name": "revokeOperator",
      "outputs": [],
      "stateMutability": "nonpayable",
      "type": "function"
    },
    {
      "inputs": [
        {
          "internalType": "bytes32",
          "name": "dataKey",
          "type": "bytes32"
        },
        {
          "internalType": "bytes",
          "name": "dataValue",
          "type": "bytes"
        }
      ],
      "name": "setData",
      "outputs": [],
      "stateMutability": "payable",
      "type": "function"
    },
    {
      "inputs": [
        {
          "internalType": "bytes32[]",
          "name": "dataKeys",
          "type": "bytes32[]"
        },
        {
          "internalType": "bytes[]",
          "name": "dataValues",
          "type": "bytes[]"
        }
      ],
      "name": "setDataBatch",
      "outputs": [],
      "stateMutability": "payable",
      "type": "function"
    },
    {
      "inputs": [
        {
          "internalType": "bytes32[]",
          "name": "tokenIds",
          "type": "bytes32[]"
        },
        {
          "internalType": "bytes32[]",
          "name": "dataKeys",
          "type": "bytes32[]"
        },
        {
          "internalType": "bytes[]",
          "name": "dataValues",
          "type": "bytes[]"
        }
      ],
      "name": "setDataBatchForTokenIds",
      "outputs": [],
      "stateMutability": "nonpayable",
      "type": "function"
    },
    {
      "inputs": [
        {
          "internalType": "bytes32",
          "name": "tokenId",
          "type": "bytes32"
        },
        {
          "internalType": "bytes32",
          "name": "dataKey",
          "type": "bytes32"
        },
        {
          "internalType": "bytes",
          "name": "dataValue",
          "type": "bytes"
        }
      ],
      "name": "setDataForTokenId",
      "outputs": [],
      "stateMutability": "nonpayable",
      "type": "function"
    },
    {
      "inputs": [
        {
          "internalType": "bytes4",
          "name": "interfaceId",
          "type": "bytes4"
        }
      ],
      "name": "supportsInterface",
      "outputs": [
        {
          "internalType": "bool",
          "name": "",
          "type": "bool"
        }
      ],
      "stateMutability": "view",
      "type": "function"
    },
    {
      "inputs": [
        {
          "internalType": "address",
          "name": "tokenOwner",
          "type": "address"
        }
      ],
      "name": "tokenIdsOf",
      "outputs": [
        {
          "internalType": "bytes32[]",
          "name": "",
          "type": "bytes32[]"
        }
      ],
      "stateMutability": "view",
      "type": "function"
    },
    {
      "inputs": [
        {
          "internalType": "bytes32",
          "name": "tokenId",
          "type": "bytes32"
        }
      ],
      "name": "tokenOwnerOf",
      "outputs": [
        {
          "internalType": "address",
          "name": "",
          "type": "address"
        }
      ],
      "stateMutability": "view",
      "type": "function"
    },
    {
      "inputs": [],
      "name": "tokenSupplyCap",
      "outputs": [
        {
          "internalType": "uint256",
          "name": "",
          "type": "uint256"
        }
      ],
      "stateMutability": "view",
      "type": "function"
    },
    {
      "inputs": [],
      "name": "totalSupply",
      "outputs": [
        {
          "internalType": "uint256",
          "name": "",
          "type": "uint256"
        }
      ],
      "stateMutability": "view",
      "type": "function"
    },
    {
      "inputs": [
        {
          "internalType": "address",
          "name": "from",
          "type": "address"
        },
        {
          "internalType": "address",
          "name": "to",
          "type": "address"
        },
        {
          "internalType": "bytes32",
          "name": "tokenId",
          "type": "bytes32"
        },
        {
          "internalType": "bool",
          "name": "force",
          "type": "bool"
        },
        {
          "internalType": "bytes",
          "name": "data",
          "type": "bytes"
        }
      ],
      "name": "transfer",
      "outputs": [],
      "stateMutability": "nonpayable",
      "type": "function"
    },
    {
      "inputs": [
        {
          "internalType": "address[]",
          "name": "from",
          "type": "address[]"
        },
        {
          "internalType": "address[]",
          "name": "to",
          "type": "address[]"
        },
        {
          "internalType": "bytes32[]",
          "name": "tokenId",
          "type": "bytes32[]"
        },
        {
          "internalType": "bool[]",
          "name": "force",
          "type": "bool[]"
        },
        {
          "internalType": "bytes[]",
          "name": "data",
          "type": "bytes[]"
        }
      ],
      "name": "transferBatch",
      "outputs": [],
      "stateMutability": "nonpayable",
      "type": "function"
    },
    {
      "inputs": [
        {
          "internalType": "address",
          "name": "newOwner",
          "type": "address"
        }
      ],
      "name": "transferOwnership",
      "outputs": [],
      "stateMutability": "nonpayable",
      "type": "function"
    },
    {
      "inputs": [],
      "name": "winnerIters",
      "outputs": [
        {
          "internalType": "uint256",
          "name": "",
          "type": "uint256"
        }
      ],
      "stateMutability": "view",
      "type": "function"
    },
    {
      "stateMutability": "payable",
      "type": "receive"
    }
  ],
  "bytecode": "0x610140806040523462000d665760e08162004eeb80380380916200002482856200123e565b83398101031262000d66576200003a8162001262565b620000486020830162001262565b90620000576040840162001262565b620000656060850162001262565b93608081015160c060a0830151920151604051620000838162001222565b601c81527f4275726e74205069782041726368697665733a20536561736f6e203100000000602082015260405190620000bc8262001222565b60068252654255524e543160d01b6020830152331562001210576000546001600160a01b03811633819003620011d2575b5050604051620000fd8162001222565b60048152632936598960e21b60208083019190915260008051602062004e4b8339815191526000526001905280517f072b2e8bf50bc459a586397c8474185d5dad5ea3d82533658159d53147c7bb39906001600160401b03811162000b5b578154600181811c91168015620011c7575b602082101462000b3a57601f81116200117e575b506020601f821160011462001107579260008051602062004ecb8339815191529282620001e39360008051602062004e4b8339815191529660009162000a61575b508160011b916000199060031b1c19161790555b6040519182918262001277565b0390a260008051602062004e0b833981519152600052600160205280517f2a367ae1ac46d529739aa27ac74856f860e70af05d3642d18ba60fd5d32a069a906001600160401b03811162000b5b578154600181811c91168015620010fc575b602082101462000b3a57601f8111620010b3575b506020601f82116001146200103c579260008051602062004ecb8339815191529282620002b69360008051602062004e0b8339815191529660009162000a6157508160011b916000199060031b1c19161790556040519182918262001277565b0390a260008051602062004e8b833981519152600052600160205280517f83b322886c7b7e25779e5d38e06e005c9e7aba1e1267ce9210cf24e31833535a906001600160401b03811162000b5b578154600181811c9116801562001031575b602082101462000b3a57601f811162000fe8575b506020601f821160011462000f71579260008051602062004ecb8339815191529282620003899360008051602062004e8b8339815191529660009162000a6157508160011b916000199060031b1c19161790556040519182918262001277565b0390a26040516002602082015260208152620003a58162001222565b60008051602062004e2b833981519152600052600160205280517ff73b01b344a9bb3b96525b0cb731f6b14cde20ce6cecea8459266944490b411f906001600160401b03811162000b5b578154600181811c9116801562000f66575b602082101462000b3a57601f811162000f1d575b506020601f821160011462000ea6579260008051602062004ecb8339815191529282620004759360008051602062004e2b8339815191529660009162000a6157508160011b916000199060031b1c19161790556040519182918262001277565b0390a26040516000602082015260208152620004918162001222565b60008051602062004e6b833981519152600052600160205280517f01f5eb934e794ddcc86b89a579078013860f8fe92140885511742594f219ad0b906001600160401b03811162000b5b578154600181811c9116801562000e9b575b602082101462000b3a57601f811162000e52575b506020601f821160011462000ddb579260008051602062004ecb8339815191529282620005619360008051602062004e6b8339815191529660009162000a6157508160011b916000199060031b1c19161790556040519182918262001277565b0390a2821562000dc95760209260805260006007558360e05281610100528560a05261012052602460405180968193632468294560e11b835260018060a01b0316600483015260018060a01b03165afa92831562000d745760009362000d80575b5060405163319c665560e01b81523060048201526001600160a01b03928316602482015263ffffffff909316604484015260209183916064918391600091165af190811562000d745760009162000d2d575b5060c05260405190620006278262001222565b60108252600160801b60208084019190915260008051602062004eab833981519152600052600190528151917fde5f0adbf2cf136848982dd95860bdc3e6d8709a8a51ce1295c645c6da617db76001600160401b03841162000b5b578054600181811c9116801562000d22575b602082101462000b3a57601f811162000cd9575b50602093601f811160011462000c6257916200070a918360008051602062004ecb8339815191529460008051602062004eab833981519152969760009162000a6157508160011b916000199060031b1c19161790556040519182918262001277565b0390a2604051606082901b6001600160601b03191660208201526014815290620007348262001222565b6f0452f40ece91b521d65a03607aecad0560821b60005260016020528151917fadf994b8d5b80a46660e628eabff2156c328d301fe5ea8e44cf09dee1b43e5126001600160401b03841162000b5b578054600181811c9116801562000c57575b602082101462000b3a57601f811162000c0e575b50602093601f811160011462000ba257809192939460009162000b96575b508160011b916000199060031b1c19161790555b60008051602062004ecb833981519152604051806200080e6f0452f40ece91b521d65a03607aecad0560821b948262001277565b0390a260405169036f42f57aecc15a72ed60b51b60208083019182526000602a84015260609390931b6001600160601b031916602c830152918152620008548162001222565b519051906020811062000b83575b5060405190620008728262001222565b601482526324871b3d60e01b602083015260008051602062004e6b833981519152811462000b715760008051602062004e0b8339815191528103620008c3576040516385c169bd60e01b8152600490fd5b60008051602062004e8b8339815191528103620008ec57604051630eceab6760e31b8152600490fd5b60008051602062004e2b83398151915281036200091557604051634ef6d7fb60e01b8152600490fd5b6000818152600160205260409020825192906001600160401b03841162000b5b578054600181811c9116801562000b50575b602082101462000b3a57601f811162000aed575b50602093601f811160011462000a6d579081620009ad939260008051602062004ecb833981519152959660009162000a6157508160011b916000199060031b1c19161790556040519182918262001277565b0390a2604051613b489081620012c3823960805181818161130e0152612d17015260a0518181816108dd01528181610bf301528181610cd701528181610eec0152611488015260c05181818161083f015281816110cb0152613010015260e051818181610a110152818161190c01528181612cba015261306f0152610100518181816107cb01528181610f0f01528181611d9a01528181612c8d015261303701526101205181818161096101526118a20152f35b905083015138620001c2565b601f1981168260005260206000209060005b81811062000ad457509160019160008051602062004ecb833981519152969782620009ad9796951062000aba575b5050811b019055620001d6565b85015160001960f88460031b161c19169055388062000aad565b8588015183556020978801976001909301920162000a7f565b816000526020600020601f860160051c8101916020871062000b2f575b601f0160051c01905b81811062000b2257506200095b565b6000815560010162000b13565b909150819062000b0a565b634e487b7160e01b600052602260045260246000fd5b90607f169062000947565b634e487b7160e01b600052604160045260246000fd5b604051631b32400560e11b8152600490fd5b6000199060200360031b1b163862000862565b905083015138620007c6565b81600052602060002060005b601f198316811062000bf5575060019293949582601f1981161062000bdb575b5050811b019055620007da565b85015160001960f88460031b161c19169055388062000bce565b8487015182556020968701966001909201910162000bae565b816000526020600020601f860160051c81016020871062000c4f575b601f830160051c8201811062000c42575050620007a8565b6000815560010162000c2a565b508062000c2a565b90607f169062000794565b81600052602060002060005b601f198316811062000cc05750916001826200070a9460008051602062004eab833981519152979860008051602062004ecb8339815191529795601f1981161062000aba575050811b019055620001d6565b8487015182556020968701966001909201910162000c6e565b816000526020600020601f860160051c81016020871062000d1a575b601f830160051c8201811062000d0d575050620006a8565b6000815560010162000cf5565b508062000cf5565b90607f169062000694565b90506020813d60201162000d6b575b8162000d4b602093836200123e565b8101031262000d665762000d5f9062001262565b3862000614565b600080fd5b3d915062000d3c565b6040513d6000823e3d90fd5b9092506020813d60201162000dc0575b8162000d9f602093836200123e565b8101031262000d6657519163ffffffff8316830362000d66576064620005c2565b3d915062000d90565b60405163038d9fc360e41b8152600490fd5b8260005260206000209060005b601f198416811062000e3957509260018360008051602062004e6b833981519152969360008051602062004ecb833981519152966200056196601f1981161062000aba575050811b019055620001d6565b9091602060018192858901518155019301910162000de8565b826000526020600020601f830160051c81016020841062000e93575b601f830160051c8201811062000e8657505062000501565b6000815560010162000e6e565b508062000e6e565b90607f1690620004ed565b8260005260206000209060005b601f198416811062000f0457509260018360008051602062004e2b833981519152969360008051602062004ecb833981519152966200047596601f1981161062000aba575050811b019055620001d6565b9091602060018192858901518155019301910162000eb3565b826000526020600020601f830160051c81016020841062000f5e575b601f830160051c8201811062000f5157505062000415565b6000815560010162000f39565b508062000f39565b90607f169062000401565b8260005260206000209060005b601f198416811062000fcf57509260018360008051602062004e8b833981519152969360008051602062004ecb833981519152966200038996601f1981161062000aba575050811b019055620001d6565b9091602060018192858901518155019301910162000f7e565b826000526020600020601f830160051c81016020841062001029575b601f830160051c820181106200101c57505062000329565b6000815560010162001004565b508062001004565b90607f169062000315565b8260005260206000209060005b601f19841681106200109a57509260018360008051602062004e0b833981519152969360008051602062004ecb83398151915296620002b696601f1981161062000aba575050811b019055620001d6565b9091602060018192858901518155019301910162001049565b826000526020600020601f830160051c810160208410620010f4575b601f830160051c82018110620010e757505062000256565b60008155600101620010cf565b5080620010cf565b90607f169062000242565b8260005260206000209060005b601f19841681106200116557509260018360008051602062004e4b833981519152969360008051602062004ecb83398151915296620001e396601f1981161062000aba575050811b019055620001d6565b9091602060018192858901518155019301910162001114565b826000526020600020601f830160051c810160208410620011bf575b601f830160051c82018110620011b257505062000181565b600081556001016200119a565b50806200119a565b90607f16906200016d565b33907f8be0079c531659141344cd1fd0a4f28419497f9722a3daafe3b4186f6b6457e0600080a36001600160a01b03191633176000553880620000ed565b6040516306b620db60e21b8152600490fd5b604081019081106001600160401b0382111762000b5b57604052565b601f909101601f19168101906001600160401b0382119082101762000b5b57604052565b51906001600160a01b038216820362000d6657565b6020808252825181830181905290939260005b828110620012ad57505060409293506000838284010152601f8019910116010190565b8181018601518482016040015285016200128a56fe6080604052600436101561002a575b36156100255761001d36612a83565b602081519101f35b612a2d565b60003560e01c806301ffc9a71461027a57806316e023b31461027557806318160ddd146102705780631ba1e3ea1461026b5780631d26fce6146102665780631d2aeefc146102615780631ff5db4a1461025c578063217b2270146102575780632a3654a4146102525780633cf77e721461024d57806342e94c90146102485780634488623e1461024357806349a6078d1461023e5780634df8e7f614610239578063511b69521461023457806352058d8a1461022f57806354f6127f1461022a5780636963d4381461022557806370a0823114610220578063715018a61461021b5780637b103999146102165780637e87632c146102115780637f23690c1461020c57806386a10ddd146102075780638d24306e146102025780638da5cb5b146101fd57806390eb6bf0146101f857806397902421146101f3578063a3b261f2146101ee578063ac700938146101e9578063be9f0e6f146101e4578063d09f3473146101df578063d6c1407c146101da578063da16e454146101d5578063db8c9663146101d0578063dedff9c6146101cb5763f2fde38b0361000e57611f59565b611ed1565b611dbd565b611d82565b611d3b565b611cb8565b611ac4565b611aa6565b611a27565b611930565b6118ec565b6118c5565b61188a565b6116ef565b611699565b6115ff565b611468565b6113f4565b6113b6565b611350565b611331565b6112f6565b611293565b611203565b611134565b6110ab565b61106a565b610ece565b610e99565b610e6a565b610da7565b610785565b6106bc565b610485565b61041a565b6103d9565b34610378576020366003190112610378576004356001600160e01b03198116808203610378576102ea917f3a2717060000000000000000000000000000000000000000000000000000000082149182156102fe575b5081156102ee575b5060405190151581529081906020820190565b0390f35b6102f89150612acf565b386102d7565b9091507fa918fa6b000000000000000000000000000000000000000000000000000000008114908115610334575b5090386102cf565b7f629aa69400000000000000000000000000000000000000000000000000000000811491508115610367575b503861032c565b6301ffc9a760e01b91501438610360565b600080fd5b60005b8381106103905750506000910152565b8181015183820152602001610380565b906020916103b98151809281855285808601910161037d565b601f01601f1916010190565b9060206103d69281815201906103a0565b90565b34610378576040366003190112610378576102ea6103fb602435600435612b94565b6040519182916020835260208301906103a0565b600091031261037857565b34610378576000366003190112610378576020600254604051908152f35b6001600160a01b0381160361037857565b602090602060408183019282815285518094520193019160005b828110610471575050505090565b835185529381019392810192600101610463565b3461037857602080600319360112610378576001600160a01b036004356104ab81610438565b1660005260096020526040600020906040519081602084549182815201936000526020600020916000905b8282106104f9576102ea856104ed818903826105af565b60405191829182610449565b8354865294850194600193840193909101906104d6565b634e487b7160e01b600052604160045260246000fd5b67ffffffffffffffff811161053a57604052565b610510565b60a0810190811067ffffffffffffffff82111761053a57604052565b6020810190811067ffffffffffffffff82111761053a57604052565b6040810190811067ffffffffffffffff82111761053a57604052565b6060810190811067ffffffffffffffff82111761053a57604052565b90601f8019910116810190811067ffffffffffffffff82111761053a57604052565b604051906105de8261053f565b565b67ffffffffffffffff811161053a5760051b60200190565b9080601f83011215610378576020908235610612816105e0565b9361062060405195866105af565b81855260208086019260051b82010192831161037857602001905b828210610649575050505090565b8135815290830190830161063b565b6020808201906020835283518092526040830192602060408460051b8301019501936000915b84831061068e5750505050505090565b90919293949584806106ac600193603f198682030187528a516103a0565b980193019301919493929061067e565b346103785760403660031901126103785767ffffffffffffffff600435818111610378576106ee9036906004016105f8565b90602435908111610378576107079036906004016105f8565b9080518251036107745761071b8151612014565b9160005b8251811015610766578061074a61073860019386612074565b516107438386612074565b5190612b94565b6107548287612074565b5261075f8186612074565b500161071f565b604051806102ea8682610658565b60046040516317d38eff60e11b8152fd5b346103785760208060031936011261037857600480359160016107bb336001600160a01b03166000526009602052604060002090565b016107c78482546120b6565b90557f0000000000000000000000000000000000000000000000000000000000000000926001600160a01b03916040948551937f4358d2be0000000000000000000000000000000000000000000000000000000093848652838688818587165afa958615610ba357600096610d88575b5087518581527f000000000000000000000000000000000000000000000000000000000000000083169685828a818b5afa908115610ba35761088192600092610d69575b506120de565b863b156103785788517f4594229c000000000000000000000000000000000000000000000000000000008152600081806108c2868d83019190602083019252565b0381838c5af18015610ba357610d56575b5080610cc15750817f000000000000000000000000000000000000000000000000000000000000000016803b1561037857885163ea25558360e01b8152808901858152602081019390935291600091839182908490829060400103925af18015610ba357610cae575b505b600161095d336001600160a01b03166000526009602052604060002090565b01547f00000000000000000000000000000000000000000000000000000000000000001115610bf0575b610a0d91508260016109ac336001600160a01b03166000526009602052604060002090565b0154916109d56109cf336001600160a01b03166000526009602052604060002090565b546120a3565b90895180809681947fcd7782690000000000000000000000000000000000000000000000000000000083528c83019190602083019252565b03917f0000000000000000000000000000000000000000000000000000000000000000165afa918215610ba357600092610bd1575b501015610a4b57005b610a566006546120eb565b91610a6083600655565b610a8683610a81336001600160a01b03166000526009602052604060002090565b612130565b8551947f54f6127f00000000000000000000000000000000000000000000000000000000865260008680610ae0848201907f2abb082c1b23ea79fce2a9e934ecb19ce15738b1483c365d0125f47e8ccc7dfc602083019252565b0381885afa958615610ba357600096610ba8575b5090829187518096819382525afa948515610ba357610b6b95610b6694600091610b76575b503360009081526009602052604090205492610b336105d1565b9687528601528401908152436060850152336080850152516007548111610b6d575b506000526008602052604060002090565b6122f5565b005b60075538610b55565b610b969150833d8511610b9c575b610b8e81836105af565b8101906120c3565b38610b19565b503d610b84565b6120d2565b8392919650610bc9903d806000833e610bc181836105af565b81019061216e565b959091610af4565b610be9919250833d8511610b9c57610b8e81836105af565b9038610a42565b807f000000000000000000000000000000000000000000000000000000000000000016803b156103785787517f511b69520000000000000000000000000000000000000000000000000000000081523088820190815233602082015260408101949094526001606085015260a060808501819052600090850181905290939091849182908490829060c00103925af1918215610ba357610a0d92610c95575b50610987565b80610ca2610ca892610526565b8061040f565b38610c8f565b80610ca2610cbb92610526565b3861093c565b808211610cd0575b505061093e565b610cfd90837f000000000000000000000000000000000000000000000000000000000000000016926120de565b90803b1561037857885163ea25558360e01b8152808901858152602081019390935291600091839182908490829060400103925af18015610ba357610d43575b80610cc9565b80610ca2610d5092610526565b38610d3d565b80610ca2610d6392610526565b386108d3565b610d81919250873d8911610b9c57610b8e81836105af565b903861087b565b610da0919650843d8611610b9c57610b8e81836105af565b9438610837565b3461037857604036600319011261037857610b6b602435600435610dca82610438565b610dea8160005260036020526001600160a01b0360406000205416151590565b50806000526008602052610e5c608060406000206001600160a01b03600460405192610e158461053f565b604051610e2d81610e268185611c07565b03826105af565b845260018101546020850152600281015460408501526003810154606085015201541691829101523314612433565b610e646124be565b91612d03565b34610378576020366003190112610378576020610e886004356124d1565b6001600160a01b0360405191168152f35b34610378576040366003190112610378576020610ec4600435610ebb81610438565b60243590612e93565b6040519015158152f35b3461037857600080600319360112611067576001600160a01b0390817f000000000000000000000000000000000000000000000000000000000000000016917f0000000000000000000000000000000000000000000000000000000000000000916040517f49a6078d000000000000000000000000000000000000000000000000000000008152818180610f6a87600483019190602083019252565b0381885afa908115610ba3578291611045575b5051159283610fb3575b506102ea935082610fa7575b505060405190151581529081906020820190565b54161590503880610f93565b6020919350610ff59460405180809781947f217b2270000000000000000000000000000000000000000000000000000000008352600483019190602083019252565b03915afa8015610ba3576102ea938391611016575b50811630149138610f87565b611038915060203d60201161103e575b61103081836105af565b810190612578565b3861100a565b503d611026565b61106191503d8084833e61105981836105af565b8101906124f4565b38610f7d565b80fd5b34610378576020366003190112610378576001600160a01b0360043561108f81610438565b1660005260096020526020600160406000200154604051908152f35b346103785760003660031901126103785760206040516001600160a01b037f0000000000000000000000000000000000000000000000000000000000000000168152f35b602090602060408183019282815285518094520193019160005b828110611117575050505090565b83516001600160a01b031685529381019392810192600101611109565b3461037857602080600319360112610378576004356111698160005260036020526001600160a01b0360406000205416151590565b156111d25760005260056020526040600020906040519081602084549182815201936000526020600020916000905b8282106111bb576102ea856111af818903826105af565b604051918291826110ef565b835486529485019460019384019390910190611198565b602490604051907fae8f9a360000000000000000000000000000000000000000000000000000000082526004820152fd5b34610378576000366003190112610378576020600654604051908152f35b60443590811515820361037857565b67ffffffffffffffff811161053a57601f01601f191660200190565b81601f820112156103785780359061126382611230565b9261127160405194856105af565b8284526020838301011161037857816000926020809301838601378301015290565b346103785760a0366003190112610378576004356112b081610438565b6024356112bc81610438565b6064358015158103610378576084359267ffffffffffffffff8411610378576112ec610b6b94369060040161124c565b926044359161258d565b346103785760003660031901126103785760206040517f00000000000000000000000000000000000000000000000000000000000000008152f35b34610378576020366003190112610378576102ea6103fb600435612f99565b346103785760203660031901126103785767ffffffffffffffff6004358181116103785736602382011215610378578060040135918211610378573660248360051b83010111610378576102ea9160246113aa9201612836565b60405191829182610658565b34610378576020366003190112610378576001600160a01b036004356113db81610438565b1660005260046020526020604060002054604051908152f35b34610378576000806003193601126110675761140e6130a3565b80546001600160a01b0381169082826114245780f35b73ffffffffffffffffffffffffffffffffffffffff19927f8be0079c531659141344cd1fd0a4f28419497f9722a3daafe3b4186f6b6457e08280a316815538808280f35b346103785760003660031901126103785760206040516001600160a01b037f0000000000000000000000000000000000000000000000000000000000000000168152f35b9080601f830112156103785760209082356114c6816105e0565b936114d460405195866105af565b81855260208086019260051b82010192831161037857602001905b8282106114fd575050505090565b838091833561150b81610438565b8152019101906114ef565b9080601f83011215610378576020908235611530816105e0565b9361153e60405195866105af565b81855260208086019260051b82010192831161037857602001905b828210611567575050505090565b81358015158103610378578152908301908301611559565b81601f8201121561037857803591602091611599846105e0565b936115a760405195866105af565b808552838086019160051b8301019280841161037857848301915b8483106115d25750505050505090565b823567ffffffffffffffff81116103785786916115f48484809489010161124c565b8152019201916115c2565b346103785760a036600319011261037857600467ffffffffffffffff81358181116103785761163190369084016114ac565b906024358181116103785761164990369085016114ac565b6044358281116103785761166090369086016105f8565b90606435838111610378576116789036908701611516565b9260843590811161037857610b6b956116939136910161157f565b936128ed565b60403660031901126103785760243567ffffffffffffffff8111610378576116c590369060040161124c565b6116cd6130a3565b346116de57610b6b906004356130e7565b600460405163f36ba73760e01b8152fd5b3461037857606036600319011261037857600480359061170e82610438565b60243560443567ffffffffffffffff811161037857611730903690840161124c565b9161173a826124d1565b906001600160a01b038083169233840361185357508516908115611844578183146118355761178361177f8761177a876000526005602052604060002090565b61327f565b1590565b6117eb575091806117e692610b6b96947f1b1b58aa2ec0cec2228b2d37124556d41f5a1f7b12f089171f896cc236671215604051806117c28a826103c5565b0390a46117d860405194859233602085016129d5565b03601f1981018452836105af565b613924565b604080517fa7626b680000000000000000000000000000000000000000000000000000000081526001600160a01b03881692810192835260208301869052918291010390fd5b0390fd5b6040516344fed6b160e11b8152fd5b604051639577b8b360e01b8152fd5b60408051632d938f5160e11b81526001600160a01b0390921682850190815260208101879052339181019190915281906060010390fd5b346103785760003660031901126103785760206040517f00000000000000000000000000000000000000000000000000000000000000008152f35b346103785760003660031901126103785760206001600160a01b0360005416604051908152f35b346103785760003660031901126103785760206040516001600160a01b037f0000000000000000000000000000000000000000000000000000000000000000168152f35b604036600319011261037857600467ffffffffffffffff81358181116103785761195d90369084016105f8565b9060243590811161037857611975903690840161157f565b9161197e6130a3565b34611a185781518351036119f0578151156119c8575060005b8151811015610b6b57806119c26119b060019385612074565b516119bb8387612074565b51906130e7565b01611997565b6040517f97da5f95000000000000000000000000000000000000000000000000000000008152fd5b6040517f3bcc8979000000000000000000000000000000000000000000000000000000008152fd5b60405163f36ba73760e01b8152fd5b3461037857602080600319360112610378576001600160a01b03600435611a4d81610438565b1660005260046020526040600020906040519081602084549182815201936000526020600020916000905b828210611a8f576102ea856104ed818903826105af565b835486529485019460019384019390910190611a78565b34610378576000366003190112610378576020600754604051908152f35b3461037857606036600319011261037857600467ffffffffffffffff813581811161037857611af690369084016105f8565b60243582811161037857611b0d90369085016105f8565b9160443590811161037857611b25903690850161157f565b92611b2e6130a3565b8151835180911490811591611bc1575b50611bb257815115611b8a575060005b8151811015610b6b5780611b84611b6760019385612074565b51611b728387612074565b51611b7d8489612074565b5191613292565b01611b4e565b6040517f80c98305000000000000000000000000000000000000000000000000000000008152fd5b6040516317d38eff60e11b8152fd5b90508451141538611b3e565b90600182811c92168015611bfd575b6020831014611be757565b634e487b7160e01b600052602260045260246000fd5b91607f1691611bdc565b805460009392611c1682611bcd565b91828252602093600191600181169081600014611c7e5750600114611c3d575b5050505050565b90939495506000929192528360002092846000945b838610611c6a57505050500101903880808080611c36565b805485870183015294019385908201611c52565b60ff19168685015250505090151560051b010191503880808080611c36565b906105de611cb19260405193848092611c07565b03836105af565b34610378576020366003190112610378576004356000526008602052611d22604060002060405190611cee82611cb18184611c07565b6001810154906002810154906001600160a01b0360046003830154920154169160405195869560a0875260a08701906103a0565b9360208601526040850152606084015260808301520390f35b346103785760603660031901126103785760443567ffffffffffffffff811161037857611d6f610b6b91369060040161124c565b611d776130a3565b602435600435613292565b346103785760003660031901126103785760206040517f00000000000000000000000000000000000000000000000000000000000000008152f35b3461037857608036600319011261037857600435611dda81610438565b602435611de5611221565b9160643567ffffffffffffffff811161037857611e0690369060040161124c565b611e0f836124d1565b936001600160a01b0380861690813303611e81575b8416908115611e705714611e5f57611e3f82828688876133f8565b611e4557005b610b6b936117d86117e69260405195869360208501612a01565b60046040516344fed6b160e11b8152fd5b6004604051639577b8b360e01b8152fd5b8481163314611e24576040517f760b5acd0000000000000000000000000000000000000000000000000000000081523360048201526001600160a01b038816602482015260448101879052606490fd5b346103785760203660031901126103785760043567ffffffffffffffff811161037857611f029036906004016105f8565b611f0c8151612014565b9060005b8151811015611f4b5780611f2f611f2960019385612074565b51612f99565b611f398286612074565b52611f448185612074565b5001611f10565b604051806102ea8582610658565b3461037857602036600319011261037857600435611f7681610438565b611f7e6130a3565b6001600160a01b038091168015611fea57600091825490811690818303611fa3578380f35b8273ffffffffffffffffffffffffffffffffffffffff19927f8be0079c531659141344cd1fd0a4f28419497f9722a3daafe3b4186f6b6457e08680a3161781553880808380f35b60046040517f1ad8836c000000000000000000000000000000000000000000000000000000008152fd5b9061201e826105e0565b61202b60405191826105af565b828152809261203c601f19916105e0565b019060005b82811061204d57505050565b806060602080938501015201612041565b634e487b7160e01b600052603260045260246000fd5b80518210156120885760209160051b010190565b61205e565b634e487b7160e01b600052601160045260246000fd5b90600182018092116120b157565b61208d565b919082018092116120b157565b90816020910312610378575190565b6040513d6000823e3d90fd5b919082039182116120b157565b60001981146120b15760010190565b80548210156120885760005260206000200190600090565b9161212c9183549060031b91821b91600019901b19161790565b9055565b8054906801000000000000000082101561053a578161215791600161212c940181556120fa565b819391549060031b91821b91600019901b19161790565b6020818303126103785780519067ffffffffffffffff8211610378570181601f820112156103785780516121a181611230565b926121af60405194856105af565b81845260208284010111610378576103d6916020808501910161037d565b90601f81116121db57505050565b6000916000526020600020906020601f850160051c83019410612219575b601f0160051c01915b82811061220e57505050565b818155600101612202565b90925082906121f9565b919091825167ffffffffffffffff811161053a5761224b816122458454611bcd565b846121cd565b602080601f831160011461228a5750819061212c93949560009261227f575b50508160011b916000199060031b1c19161790565b01519050388061226a565b90601f198316956122a085600052602060002090565b926000905b8882106122dd575050836001959697106122c4575b505050811b019055565b015160001960f88460031b161c191690553880806122ba565b806001859682949686015181550195019301906122a5565b919091825192835167ffffffffffffffff811161053a576123208161231a8554611bcd565b856121cd565b602080601f83116001146123b7575060049261235e8361238d946080946105de999a60009261227f5750508160011b916000199060031b1c19161790565b85555b60208101516001860155604081015160028601556060810151600386015501516001600160a01b031690565b9101906001600160a01b031673ffffffffffffffffffffffffffffffffffffffff19825416179055565b90601f198316966123cd86600052602060002090565b926000905b89821061241b575050836080936004969360019361238d976105de9b9c10612402575b505050811b018555612361565b015160001960f88460031b161c191690553880806123f5565b806001859682949686015181550195019301906123d2565b1561243a57565b60846040517f08c379a000000000000000000000000000000000000000000000000000000000815260206004820152603760248201527f4275726e7450697841726368697665733a204f6e6c792074686520637265617460448201527f6f722063616e206d696e742074686520617263686976650000000000000000006064820152fd5b604051906124cb8261055b565b60008252565b8060005260036020526001600160a01b03604060002054169081156111d2575090565b60209081818403126103785780519067ffffffffffffffff821161037857019180601f8401121561037857825161252a816105e0565b9361253860405195866105af565b818552838086019260051b820101928311610378578301905b82821061255f575050505090565b838091835161256d81610438565b815201910190612551565b9081602091031261037857516103d681610438565b9092939161259b8133612e93565b1561277f576125a9816124d1565b6001600160a01b03818116918482169182840361274f57808816938415612725576125d3866124d1565b918216036126dc575050926126d283806105de9997946117d899976125fb6126d798876136a6565b6126218361261c886001600160a01b03166000526004602052604060002090565b613a5d565b50612648836126438b6001600160a01b03166000526004602052604060002090565b6138ed565b5061268989612661856000526003602052604060002090565b906001600160a01b031673ffffffffffffffffffffffffffffffffffffffff19825416179055565b6040517fb333c813a7426a7a11e2b190cad52c44119421594b47f6f32ace6d8c7207b2bf90806126bb8a8e3384612f05565b0390a4604051978894859288863360208701612f62565b61398f565b613827565b6040517f5a9c31d3000000000000000000000000000000000000000000000000000000008152600481018690526001600160a01b03928316602482015291166044820152606490fd5b60046040517f24ecef4d000000000000000000000000000000000000000000000000000000008152fd5b604051632d938f5160e11b81526001600160a01b0383811660048301526024820187905287166044820152606490fd5b604490604051907f1294d2a90000000000000000000000000000000000000000000000000000000082526004820152336024820152fd5b91908110156120885760051b81013590601e198136030182121561037857019081359167ffffffffffffffff8311610378576020018236038113610378579190565b908092918237016000815290565b3d15612831573d9061281782611230565b9161282560405193846105af565b82523d6000602084013e565b606090565b919061284181612014565b9260009160005b8181106128555750505050565b83806128628385876127b6565b604093916128748551809381936127f8565b0390305af490612882612806565b91156128a95750906001916128978289612074565b526128a28188612074565b5001612848565b8151919291156128bb57825160208401fd5b517f234eb819000000000000000000000000000000000000000000000000000000008152600481019190915260249150fd5b9493909192855193835185148015906129ca575b80156129bf575b80156129b4575b61298a5760005b858110612927575050505050509050565b8061298461294761293a6001948c612074565b516001600160a01b031690565b61295461293a848a612074565b61295e8487612074565b5161297261296c868a612074565b51151590565b9161297d868b612074565b519361258d565b01612916565b60046040517f93a83119000000000000000000000000000000000000000000000000000000008152fd5b50825185141561290f565b508151851415612908565b508051851415612901565b6103d693926001600160a01b0360809316825260208201526001604082015281606082015201906103a0565b6103d693926001600160a01b0360809316825260208201526000604082015281606082015201906103a0565b3415612a5d5760046040517f61f49442000000000000000000000000000000000000000000000000000000008152fd5b606460405163e5099ee360e01b8152602060048201526004602482015260006044820152fd5b60043610612a94576103d6906134c3565b6044604051809263e5099ee360e01b825260206004830152806024830152806000848401376000828201840152601f01601f19168101030190fd5b612b16612b11604051696773c5a04a6d4300884b60b11b60208201526000602a8201526301ffc9a760e01b602c82015260208152612b0c81610577565b6139fa565b613687565b805160148114159081612b8a575b50612b4c57612b32906135c0565b60601c908115612b45576103d691613654565b5050600090565b611831906040519182917f42bfe79f0000000000000000000000000000000000000000000000000000000083526020600484015260248301906103a0565b9050151538612b24565b612bb48160005260036020526001600160a01b0360406000205416151590565b15610378577f9afb95cacc9f95858ec44aa8c3b685511002e30ae54415823f406128b85b238e8214612bfd5750612bf86103d6916000526001602052604060002090565b611c9d565b60009081526008602052604081206001600160a01b039250916007549060405180809581947ffdaab8990000000000000000000000000000000000000000000000000000000083526060600484015260a06064840152846004612c64610104860185611c07565b9360018101546084870152600281015460a4870152600381015460c487015201541660e48401527f00000000000000000000000000000000000000000000000000000000000000006024840152604483015203917f0000000000000000000000000000000000000000000000000000000000000000165afa908115610ba357600091612cee575090565b6103d691503d806000833e610bc181836105af565b92919092600254600181018082116120b1577f000000000000000000000000000000000000000000000000000000000000000010612e69576001600160a01b03821690811561272557612d6c8660005260036020526001600160a01b0360406000205416151590565b612e3757612d908660005260036020526001600160a01b0360406000205416151590565b612e37579480612e3292612daf612daa6105de98996120eb565b600255565b612dd082612643876001600160a01b03166000526004602052604060002090565b50612de985612661846000526003602052604060002090565b60007fb333c813a7426a7a11e2b190cad52c44119421594b47f6f32ace6d8c7207b2bf60405180612e1b8a3383612ede565b0390a46117d8604051948592853360208601612f2c565b6137c0565b6040517f34c7b51100000000000000000000000000000000000000000000000000000000815260048101879052602490fd5b60046040517fe8ba2291000000000000000000000000000000000000000000000000000000008152fd5b6001600160a01b0380612ea5846124d1565b169116908114918215612eb757505090565b6103d692506000526005602052604060002060019160005201602052604060002054151590565b6060906001600160a01b036103d694931681526001602082015281604082015201906103a0565b6103d693926001600160a01b036060931682521515602082015281604082015201906103a0565b90926103d6949360a0936001600160a01b03809216845260006020850152166040830152606082015281608082015201906103a0565b9160a0936103d69695926001600160a01b0392838092168652166020850152166040830152606082015281608082015201906103a0565b7f9afb95cacc9f95858ec44aa8c3b685511002e30ae54415823f406128b85b238e8114612fdf576000526001602052610e266103d6604060002060405192838092611c07565b506040517ffa883c730000000000000000000000000000000000000000000000000000000081526001600160a01b037f00000000000000000000000000000000000000000000000000000000000000001660048201527f00000000000000000000000000000000000000000000000000000000000000006024820152600081806044810103816001600160a01b037f0000000000000000000000000000000000000000000000000000000000000000165afa908115610ba357600091612cee575090565b6001600160a01b036000541633036130b757565b60246040517fbf1169c5000000000000000000000000000000000000000000000000000000008152336004820152fd5b907ff675e9361af1c1664c1868cfa3eb97672d6b1a513aa5b81dec34c9ee330e818d8214613255577fdeba1e292f8ba88238e10ab3c7f88bd4be4fac56cad5194b6ecceaf653468af182036131605760046040517f85c169bd000000000000000000000000000000000000000000000000000000008152fd5b7f2f0a68ab07768e01943a599e73362a0e17a63a72e94dd2e384d2c1d4db93275682036131b15760046040517f76755b38000000000000000000000000000000000000000000000000000000008152fd5b7fe0261fa95db2eb3b5439bd033cda66d56b96f92f243a8228fd87550ed7bdfdb382036132025760046040517f4ef6d7fb000000000000000000000000000000000000000000000000000000008152fd5b613250816132447fece574603820d07bc9b91f2a932baadf4628aabcb8afba49776529c14a6104b29361323f866000526001602052604060002090565b612223565b604051918291826103c5565b0390a2565b60046040517f3664800a000000000000000000000000000000000000000000000000000000008152fd5b6001600160a01b036103d69216906138ed565b90916040516020906020810190848252856040820152604081526132b581610593565b51902060005260018060205260406000209183519167ffffffffffffffff831161053a576132ed836132e78654611bcd565b866121cd565b602091601f841160011461336357505091613345827fa6e4251f855f750545fe414f120db91c76b88def14d120969e5bb2d3f05debbb959361335395600091613358575b508160011b916000199060031b1c19161790565b9055604051918291826103c5565b0390a3565b905084015138613331565b9190601f1984169061337a86600052602060002090565b936000915b8383106133e157505050926133539492600192827fa6e4251f855f750545fe414f120db91c76b88def14d120969e5bb2d3f05debbb9896106133c8575b5050811b019055613244565b85015160001960f88460031b161c1916905538806133bc565b88850151865594850194938101939181019161337f565b9193928460005260056020526040600020926001600160a01b03906134208282168096613a5d565b1561346f57509061346a7fc78cd419d6136f9f1c1c6aec1d3fae098cffaf8bc86314a8f2685e32fe574e3c93926040519384931515845260406020850152169560408301906103a0565b0390a4565b6040516312a8c6a360e21b81526001600160a01b0391909116600482015260248101879052604490fd5b9060349391816000823701916bffffffffffffffffffffffff199060601b16825260148201520190565b6001600160e01b03196000351690613507612b11604051696773c5a04a6d4300884b60b11b60208201526000602a82015284602c82015260208152612b0c81610577565b8051601481141590816135b6575b50612b4c57613523906135c0565b60601c9182156135795750600091829160405161355a8161354c60208201943490339087613499565b03601f1981018352826105af565b519134905af1613568612806565b90156135715790565b602081519101fd5b6040517fbb370b2b0000000000000000000000000000000000000000000000000000000081526001600160e01b0319919091166004820152602490fd5b9050151538613515565b90602082519201516bffffffffffffffffffffffff199081811693601481106135e857505050565b60140360031b82901b16169150565b6000602091604051838101906301ffc9a760e01b8252631aed5a8560e21b60248201526024815261362781610593565b5191617530fa6000513d82613648575b5081613641575090565b9050151590565b60201115915038613637565b6000906020926040516001600160e01b0319858201926301ffc9a760e01b84521660248201526024815261362781610593565b6000526001602052610e266103d6604060002060405192838092611c07565b90600090808252600591602093600560205260409182812094855495825b8781106136d657505050505050505050565b815415612088578184526001600160a01b03808a86205416908751906136fb8261055b565b868252898752858c52613710838a8920613a5d565b1561376257600193927fc78cd419d6136f9f1c1c6aec1d3fae098cffaf8bc86314a8f2685e32fe574e3c8d896137598e968e968e888051968796875286015216968301906103a0565b0390a4016136c4565b88516312a8c6a360e21b81526001600160a01b0384166004820152602481018b9052604490fd5b9060406103d6927f0b084a55ebf70fd3c06fd755269dac2212c4d3f0f4d09079780bfa50c1b2984d815281602082015201906103a0565b6137c9816135f7565b15613823576137fa6000916001600160a01b039383604051958680958194631aed5a8560e21b835260048301613789565b0393165af18015610ba35761380c5750565b613820903d806000833e610bc181836105af565b50565b5050565b9190613832836135f7565b1561386457506137fa6001600160a01b039260009283604051958680958194631aed5a8560e21b835260048301613789565b90501561386e5750565b803b156138b1576040517f4349776d0000000000000000000000000000000000000000000000000000000081526001600160a01b03919091166004820152602490fd5b6040517f031731370000000000000000000000000000000000000000000000000000000081526001600160a01b03919091166004820152602490fd5b6000828152600182016020526040902054612b45578061390f83600193612130565b80549260005201602052604060002055600190565b61392d816135f7565b613935575050565b6137fa6000916001600160a01b039383604051958680958194631aed5a8560e21b83527f8a1c15a8799f71b547e08e2bcb2e85257e81b0a07eee2ce6712549eef1f0097060048401526040602484015260448301906103a0565b613998816135f7565b6139a0575050565b6137fa6000916001600160a01b039383604051958680958194631aed5a8560e21b83527fb23eae7e6d1564b295b4c3e3be402d9a2f0776c57bdf365903496f6fa481ab0060048401526040602484015260448301906103a0565b602081519101519060208110613a0e575090565b6000199060200360031b1b1690565b8054908115613a475760001991820191613a3783836120fa565b909182549160031b1b1916905555565b634e487b7160e01b600052603160045260246000fd5b6001810191806000528260205260406000205492831515600014613b095760001992848401908582116120b15780549485019485116120b1576000958583613ab194613ac09803613ac6575b505050613a1d565b90600052602052604060002090565b55600190565b613af0613aea91613ada613b0094876120fa565b90549060031b1c928391876120fa565b90612112565b8590600052602052604060002090565b55388080613aa9565b5050505060009056fea2646970667358221220ac85a2f815684e37f3d3ebfc3a8105050700cefd9921bc393e50c31ef385abc864736f6c63430008180033deba1e292f8ba88238e10ab3c7f88bd4be4fac56cad5194b6ecceaf653468af1e0261fa95db2eb3b5439bd033cda66d56b96f92f243a8228fd87550ed7bdfdb3eafec4d89fa9619884b60000a4d96624a38f7ac2d8d9a604ecf07c12c77e480cf675e9361af1c1664c1868cfa3eb97672d6b1a513aa5b81dec34c9ee330e818d2f0a68ab07768e01943a599e73362a0e17a63a72e94dd2e384d2c1d4db932756114bd03b3a46d48759680d81ebb2b414fda7d030a7105a851867accf1c2352e7ece574603820d07bc9b91f2a932baadf4628aabcb8afba49776529c14a6104b2",
  "linkReferences": {},
  "deployedLinkReferences": {}
}