{
  "_format": "hh-sol-artifact-1",
  "contractName": "BurntPixArchives",
  "sourceName": "contracts/BurntPixArchives.sol",
  "abi": [
    {
      "inputs": [
        {
          "internalType": "address",
          "name": "_codehub",
          "type": "address"
        },
        {
          "internalType": "address",
          "name": "_archiveHelpers",
          "type": "address"
        },
        {
          "internalType": "address",
          "name": "_creator",
          "type": "address"
        },
        {
          "internalType": "bytes32",
          "name": "_burntPicId",
          "type": "bytes32"
        },
        {
          "internalType": "uint256",
          "name": "_maxSupply",
          "type": "uint256"
        },
        {
          "internalType": "uint256",
          "name": "_winnerIters",
          "type": "uint256"
        }
      ],
      "stateMutability": "nonpayable",
      "type": "constructor"
    },
    {
      "inputs": [],
      "name": "ERC725Y_DataKeysValuesEmptyArray",
      "type": "error"
    },
    {
      "inputs": [],
      "name": "ERC725Y_DataKeysValuesLengthMismatch",
      "type": "error"
    },
    {
      "inputs": [],
      "name": "ERC725Y_MsgValueDisallowed",
      "type": "error"
    },
    {
      "inputs": [
        {
          "internalType": "bytes",
          "name": "storedData",
          "type": "bytes"
        }
      ],
      "name": "InvalidExtensionAddress",
      "type": "error"
    },
    {
      "inputs": [
        {
          "internalType": "bytes",
          "name": "data",
          "type": "bytes"
        }
      ],
      "name": "InvalidFunctionSelector",
      "type": "error"
    },
    {
      "inputs": [],
      "name": "LSP4TokenNameNotEditable",
      "type": "error"
    },
    {
      "inputs": [],
      "name": "LSP4TokenSymbolNotEditable",
      "type": "error"
    },
    {
      "inputs": [],
      "name": "LSP4TokenTypeNotEditable",
      "type": "error"
    },
    {
      "inputs": [
        {
          "internalType": "uint256",
          "name": "callIndex",
          "type": "uint256"
        }
      ],
      "name": "LSP8BatchCallFailed",
      "type": "error"
    },
    {
      "inputs": [],
      "name": "LSP8CannotSendToAddressZero",
      "type": "error"
    },
    {
      "inputs": [],
      "name": "LSP8CannotUseAddressZeroAsOperator",
      "type": "error"
    },
    {
      "inputs": [],
      "name": "LSP8CappedSupplyCannotMintOverCap",
      "type": "error"
    },
    {
      "inputs": [],
      "name": "LSP8CappedSupplyRequired",
      "type": "error"
    },
    {
      "inputs": [],
      "name": "LSP8InvalidTransferBatch",
      "type": "error"
    },
    {
      "inputs": [
        {
          "internalType": "bytes32",
          "name": "tokenId",
          "type": "bytes32"
        }
      ],
      "name": "LSP8NonExistentTokenId",
      "type": "error"
    },
    {
      "inputs": [
        {
          "internalType": "address",
          "name": "operator",
          "type": "address"
        },
        {
          "internalType": "bytes32",
          "name": "tokenId",
          "type": "bytes32"
        }
      ],
      "name": "LSP8NonExistingOperator",
      "type": "error"
    },
    {
      "inputs": [
        {
          "internalType": "bytes32",
          "name": "tokenId",
          "type": "bytes32"
        },
        {
          "internalType": "address",
          "name": "caller",
          "type": "address"
        }
      ],
      "name": "LSP8NotTokenOperator",
      "type": "error"
    },
    {
      "inputs": [
        {
          "internalType": "address",
          "name": "tokenOwner",
          "type": "address"
        },
        {
          "internalType": "bytes32",
          "name": "tokenId",
          "type": "bytes32"
        },
        {
          "internalType": "address",
          "name": "caller",
          "type": "address"
        }
      ],
      "name": "LSP8NotTokenOwner",
      "type": "error"
    },
    {
      "inputs": [
        {
          "internalType": "address",
          "name": "tokenReceiver",
          "type": "address"
        }
      ],
      "name": "LSP8NotifyTokenReceiverContractMissingLSP1Interface",
      "type": "error"
    },
    {
      "inputs": [
        {
          "internalType": "address",
          "name": "tokenReceiver",
          "type": "address"
        }
      ],
      "name": "LSP8NotifyTokenReceiverIsEOA",
      "type": "error"
    },
    {
      "inputs": [
        {
          "internalType": "address",
          "name": "operator",
          "type": "address"
        },
        {
          "internalType": "bytes32",
          "name": "tokenId",
          "type": "bytes32"
        }
      ],
      "name": "LSP8OperatorAlreadyAuthorized",
      "type": "error"
    },
    {
      "inputs": [
        {
          "internalType": "address",
          "name": "caller",
          "type": "address"
        },
        {
          "internalType": "address",
          "name": "tokenOwner",
          "type": "address"
        },
        {
          "internalType": "bytes32",
          "name": "tokenId",
          "type": "bytes32"
        }
      ],
      "name": "LSP8RevokeOperatorNotAuthorized",
      "type": "error"
    },
    {
      "inputs": [],
      "name": "LSP8TokenContractCannotHoldValue",
      "type": "error"
    },
    {
      "inputs": [
        {
          "internalType": "bytes32",
          "name": "tokenId",
          "type": "bytes32"
        }
      ],
      "name": "LSP8TokenIdAlreadyMinted",
      "type": "error"
    },
    {
      "inputs": [],
      "name": "LSP8TokenIdFormatNotEditable",
      "type": "error"
    },
    {
      "inputs": [],
      "name": "LSP8TokenIdsDataEmptyArray",
      "type": "error"
    },
    {
      "inputs": [],
      "name": "LSP8TokenIdsDataLengthMismatch",
      "type": "error"
    },
    {
      "inputs": [],
      "name": "LSP8TokenOwnerCannotBeOperator",
      "type": "error"
    },
    {
      "inputs": [
        {
          "internalType": "bytes32",
          "name": "tokenId",
          "type": "bytes32"
        },
        {
          "internalType": "address",
          "name": "oldOwner",
          "type": "address"
        },
        {
          "internalType": "address",
          "name": "newOwner",
          "type": "address"
        }
      ],
      "name": "LSP8TokenOwnerChanged",
      "type": "error"
    },
    {
      "inputs": [
        {
          "internalType": "bytes4",
          "name": "functionSelector",
          "type": "bytes4"
        }
      ],
      "name": "NoExtensionFoundForFunctionSelector",
      "type": "error"
    },
    {
      "inputs": [
        {
          "internalType": "address",
          "name": "callerAddress",
          "type": "address"
        }
      ],
      "name": "OwnableCallerNotTheOwner",
      "type": "error"
    },
    {
      "inputs": [],
      "name": "OwnableCannotSetZeroAddressAsOwner",
      "type": "error"
    },
    {
      "anonymous": false,
      "inputs": [
        {
          "indexed": true,
          "internalType": "bytes32",
          "name": "dataKey",
          "type": "bytes32"
        },
        {
          "indexed": false,
          "internalType": "bytes",
          "name": "dataValue",
          "type": "bytes"
        }
      ],
      "name": "DataChanged",
      "type": "event"
    },
    {
      "anonymous": false,
      "inputs": [
        {
          "indexed": true,
          "internalType": "address",
          "name": "operator",
          "type": "address"
        },
        {
          "indexed": true,
          "internalType": "address",
          "name": "tokenOwner",
          "type": "address"
        },
        {
          "indexed": true,
          "internalType": "bytes32",
          "name": "tokenId",
          "type": "bytes32"
        },
        {
          "indexed": false,
          "internalType": "bytes",
          "name": "operatorNotificationData",
          "type": "bytes"
        }
      ],
      "name": "OperatorAuthorizationChanged",
      "type": "event"
    },
    {
      "anonymous": false,
      "inputs": [
        {
          "indexed": true,
          "internalType": "address",
          "name": "operator",
          "type": "address"
        },
        {
          "indexed": true,
          "internalType": "address",
          "name": "tokenOwner",
          "type": "address"
        },
        {
          "indexed": true,
          "internalType": "bytes32",
          "name": "tokenId",
          "type": "bytes32"
        },
        {
          "indexed": false,
          "internalType": "bool",
          "name": "notified",
          "type": "bool"
        },
        {
          "indexed": false,
          "internalType": "bytes",
          "name": "operatorNotificationData",
          "type": "bytes"
        }
      ],
      "name": "OperatorRevoked",
      "type": "event"
    },
    {
      "anonymous": false,
      "inputs": [
        {
          "indexed": true,
          "internalType": "address",
          "name": "previousOwner",
          "type": "address"
        },
        {
          "indexed": true,
          "internalType": "address",
          "name": "newOwner",
          "type": "address"
        }
      ],
      "name": "OwnershipTransferred",
      "type": "event"
    },
    {
      "anonymous": false,
      "inputs": [
        {
          "indexed": true,
          "internalType": "bytes32",
          "name": "tokenId",
          "type": "bytes32"
        },
        {
          "indexed": true,
          "internalType": "bytes32",
          "name": "dataKey",
          "type": "bytes32"
        },
        {
          "indexed": false,
          "internalType": "bytes",
          "name": "dataValue",
          "type": "bytes"
        }
      ],
      "name": "TokenIdDataChanged",
      "type": "event"
    },
    {
      "anonymous": false,
      "inputs": [
        {
          "indexed": false,
          "internalType": "address",
          "name": "operator",
          "type": "address"
        },
        {
          "indexed": true,
          "internalType": "address",
          "name": "from",
          "type": "address"
        },
        {
          "indexed": true,
          "internalType": "address",
          "name": "to",
          "type": "address"
        },
        {
          "indexed": true,
          "internalType": "bytes32",
          "name": "tokenId",
          "type": "bytes32"
        },
        {
          "indexed": false,
          "internalType": "bool",
          "name": "force",
          "type": "bool"
        },
        {
          "indexed": false,
          "internalType": "bytes",
          "name": "data",
          "type": "bytes"
        }
      ],
      "name": "Transfer",
      "type": "event"
    },
    {
      "stateMutability": "payable",
      "type": "fallback"
    },
    {
      "inputs": [],
      "name": "archiveCount",
      "outputs": [
        {
          "internalType": "uint256",
          "name": "",
          "type": "uint256"
        }
      ],
      "stateMutability": "view",
      "type": "function"
    },
    {
      "inputs": [],
      "name": "archiveHelpers",
      "outputs": [
        {
          "internalType": "address",
          "name": "",
          "type": "address"
        }
      ],
      "stateMutability": "view",
      "type": "function"
    },
    {
      "inputs": [
        {
          "internalType": "address",
          "name": "operator",
          "type": "address"
        },
        {
          "internalType": "bytes32",
          "name": "tokenId",
          "type": "bytes32"
        },
        {
          "internalType": "bytes",
          "name": "operatorNotificationData",
          "type": "bytes"
        }
      ],
      "name": "authorizeOperator",
      "outputs": [],
      "stateMutability": "nonpayable",
      "type": "function"
    },
    {
      "inputs": [
        {
          "internalType": "address",
          "name": "tokenOwner",
          "type": "address"
        }
      ],
      "name": "balanceOf",
      "outputs": [
        {
          "internalType": "uint256",
          "name": "",
          "type": "uint256"
        }
      ],
      "stateMutability": "view",
      "type": "function"
    },
    {
      "inputs": [
        {
          "internalType": "bytes[]",
          "name": "data",
          "type": "bytes[]"
        }
      ],
      "name": "batchCalls",
      "outputs": [
        {
          "internalType": "bytes[]",
          "name": "results",
          "type": "bytes[]"
        }
      ],
      "stateMutability": "nonpayable",
      "type": "function"
    },
    {
      "inputs": [
        {
          "internalType": "bytes32",
          "name": "",
          "type": "bytes32"
        }
      ],
      "name": "burntArchives",
      "outputs": [
        {
          "internalType": "bytes",
          "name": "image",
          "type": "bytes"
        },
        {
          "internalType": "uint256",
          "name": "iterations",
          "type": "uint256"
        },
        {
          "internalType": "uint256",
          "name": "level",
          "type": "uint256"
        },
        {
          "internalType": "uint256",
          "name": "blockNumber",
          "type": "uint256"
        },
        {
          "internalType": "address",
          "name": "creator",
          "type": "address"
        }
      ],
      "stateMutability": "view",
      "type": "function"
    },
    {
      "inputs": [],
      "name": "burntPicId",
      "outputs": [
        {
          "internalType": "bytes32",
          "name": "",
          "type": "bytes32"
        }
      ],
      "stateMutability": "view",
      "type": "function"
    },
    {
      "inputs": [
        {
          "internalType": "address",
          "name": "",
          "type": "address"
        }
      ],
      "name": "contributions",
      "outputs": [
        {
          "internalType": "uint256",
          "name": "iterations",
          "type": "uint256"
        }
      ],
      "stateMutability": "view",
      "type": "function"
    },
    {
      "inputs": [
        {
          "internalType": "uint256",
          "name": "",
          "type": "uint256"
        }
      ],
      "name": "contributors",
      "outputs": [
        {
          "internalType": "address",
          "name": "",
          "type": "address"
        }
      ],
      "stateMutability": "view",
      "type": "function"
    },
    {
      "inputs": [],
      "name": "currentHighestLevel",
      "outputs": [
        {
          "internalType": "uint256",
          "name": "",
          "type": "uint256"
        }
      ],
      "stateMutability": "view",
      "type": "function"
    },
    {
      "inputs": [],
      "name": "fractalClone",
      "outputs": [
        {
          "internalType": "address",
          "name": "",
          "type": "address"
        }
      ],
      "stateMutability": "view",
      "type": "function"
    },
    {
      "inputs": [
        {
          "internalType": "address",
          "name": "contributor",
          "type": "address"
        }
      ],
      "name": "getArchives",
      "outputs": [
        {
          "internalType": "bytes32[]",
          "name": "",
          "type": "bytes32[]"
        }
      ],
      "stateMutability": "view",
      "type": "function"
    },
    {
      "inputs": [
        {
          "internalType": "address[]",
          "name": "targetContributors",
          "type": "address[]"
        }
      ],
      "name": "getContributions",
      "outputs": [
        {
          "internalType": "uint256[]",
          "name": "",
          "type": "uint256[]"
        }
      ],
      "stateMutability": "view",
      "type": "function"
    },
    {
      "inputs": [],
      "name": "getContributors",
      "outputs": [
        {
          "internalType": "address[]",
          "name": "",
          "type": "address[]"
        }
      ],
      "stateMutability": "view",
      "type": "function"
    },
    {
      "inputs": [
        {
          "internalType": "bytes32",
          "name": "dataKey",
          "type": "bytes32"
        }
      ],
      "name": "getData",
      "outputs": [
        {
          "internalType": "bytes",
          "name": "dataValue",
          "type": "bytes"
        }
      ],
      "stateMutability": "view",
      "type": "function"
    },
    {
      "inputs": [
        {
          "internalType": "bytes32[]",
          "name": "dataKeys",
          "type": "bytes32[]"
        }
      ],
      "name": "getDataBatch",
      "outputs": [
        {
          "internalType": "bytes[]",
          "name": "dataValues",
          "type": "bytes[]"
        }
      ],
      "stateMutability": "view",
      "type": "function"
    },
    {
      "inputs": [
        {
          "internalType": "bytes32[]",
          "name": "tokenIds",
          "type": "bytes32[]"
        },
        {
          "internalType": "bytes32[]",
          "name": "dataKeys",
          "type": "bytes32[]"
        }
      ],
      "name": "getDataBatchForTokenIds",
      "outputs": [
        {
          "internalType": "bytes[]",
          "name": "dataValues",
          "type": "bytes[]"
        }
      ],
      "stateMutability": "view",
      "type": "function"
    },
    {
      "inputs": [
        {
          "internalType": "bytes32",
          "name": "tokenId",
          "type": "bytes32"
        },
        {
          "internalType": "bytes32",
          "name": "dataKey",
          "type": "bytes32"
        }
      ],
      "name": "getDataForTokenId",
      "outputs": [
        {
          "internalType": "bytes",
          "name": "dataValue",
          "type": "bytes"
        }
      ],
      "stateMutability": "view",
      "type": "function"
    },
    {
      "inputs": [
        {
          "internalType": "bytes32",
          "name": "tokenId",
          "type": "bytes32"
        }
      ],
      "name": "getOperatorsOf",
      "outputs": [
        {
          "internalType": "address[]",
          "name": "",
          "type": "address[]"
        }
      ],
      "stateMutability": "view",
      "type": "function"
    },
    {
      "inputs": [],
      "name": "getTotalContributors",
      "outputs": [
        {
          "internalType": "uint256",
          "name": "",
          "type": "uint256"
        }
      ],
      "stateMutability": "view",
      "type": "function"
    },
    {
      "inputs": [
        {
          "internalType": "address",
          "name": "operator",
          "type": "address"
        },
        {
          "internalType": "bytes32",
          "name": "tokenId",
          "type": "bytes32"
        }
      ],
      "name": "isOperatorFor",
      "outputs": [
        {
          "internalType": "bool",
          "name": "",
          "type": "bool"
        }
      ],
      "stateMutability": "view",
      "type": "function"
    },
    {
      "inputs": [],
      "name": "isOriginalUnclaimed",
      "outputs": [
        {
          "internalType": "bool",
          "name": "",
          "type": "bool"
        }
      ],
      "stateMutability": "view",
      "type": "function"
    },
    {
      "inputs": [
        {
          "internalType": "bytes32",
          "name": "archiveId",
          "type": "bytes32"
        },
        {
          "internalType": "address",
          "name": "to",
          "type": "address"
        }
      ],
      "name": "mintArchive",
      "outputs": [],
      "stateMutability": "nonpayable",
      "type": "function"
    },
    {
      "inputs": [],
      "name": "owner",
      "outputs": [
        {
          "internalType": "address",
          "name": "",
          "type": "address"
        }
      ],
      "stateMutability": "view",
      "type": "function"
    },
    {
      "inputs": [
        {
          "internalType": "uint256",
          "name": "iters",
          "type": "uint256"
        }
      ],
      "name": "refineToArchive",
      "outputs": [],
      "stateMutability": "nonpayable",
      "type": "function"
    },
    {
      "inputs": [
        {
          "internalType": "uint256",
          "name": "iters",
          "type": "uint256"
        },
        {
          "internalType": "address",
          "name": "contributor",
          "type": "address"
        }
      ],
      "name": "refineToArchive",
      "outputs": [],
      "stateMutability": "nonpayable",
      "type": "function"
    },
    {
      "inputs": [],
      "name": "renounceOwnership",
      "outputs": [],
      "stateMutability": "nonpayable",
      "type": "function"
    },
    {
      "inputs": [
        {
          "internalType": "address",
          "name": "operator",
          "type": "address"
        },
        {
          "internalType": "bytes32",
          "name": "tokenId",
          "type": "bytes32"
        },
        {
          "internalType": "bool",
          "name": "notify",
          "type": "bool"
        },
        {
          "internalType": "bytes",
          "name": "operatorNotificationData",
          "type": "bytes"
        }
      ],
      "name": "revokeOperator",
      "outputs": [],
      "stateMutability": "nonpayable",
      "type": "function"
    },
    {
      "inputs": [
        {
          "internalType": "bytes32",
          "name": "dataKey",
          "type": "bytes32"
        },
        {
          "internalType": "bytes",
          "name": "dataValue",
          "type": "bytes"
        }
      ],
      "name": "setData",
      "outputs": [],
      "stateMutability": "payable",
      "type": "function"
    },
    {
      "inputs": [
        {
          "internalType": "bytes32[]",
          "name": "dataKeys",
          "type": "bytes32[]"
        },
        {
          "internalType": "bytes[]",
          "name": "dataValues",
          "type": "bytes[]"
        }
      ],
      "name": "setDataBatch",
      "outputs": [],
      "stateMutability": "payable",
      "type": "function"
    },
    {
      "inputs": [
        {
          "internalType": "bytes32[]",
          "name": "tokenIds",
          "type": "bytes32[]"
        },
        {
          "internalType": "bytes32[]",
          "name": "dataKeys",
          "type": "bytes32[]"
        },
        {
          "internalType": "bytes[]",
          "name": "dataValues",
          "type": "bytes[]"
        }
      ],
      "name": "setDataBatchForTokenIds",
      "outputs": [],
      "stateMutability": "nonpayable",
      "type": "function"
    },
    {
      "inputs": [
        {
          "internalType": "bytes32",
          "name": "tokenId",
          "type": "bytes32"
        },
        {
          "internalType": "bytes32",
          "name": "dataKey",
          "type": "bytes32"
        },
        {
          "internalType": "bytes",
          "name": "dataValue",
          "type": "bytes"
        }
      ],
      "name": "setDataForTokenId",
      "outputs": [],
      "stateMutability": "nonpayable",
      "type": "function"
    },
    {
      "inputs": [
        {
          "internalType": "bytes4",
          "name": "interfaceId",
          "type": "bytes4"
        }
      ],
      "name": "supportsInterface",
      "outputs": [
        {
          "internalType": "bool",
          "name": "",
          "type": "bool"
        }
      ],
      "stateMutability": "view",
      "type": "function"
    },
    {
      "inputs": [
        {
          "internalType": "address",
          "name": "tokenOwner",
          "type": "address"
        }
      ],
      "name": "tokenIdsOf",
      "outputs": [
        {
          "internalType": "bytes32[]",
          "name": "",
          "type": "bytes32[]"
        }
      ],
      "stateMutability": "view",
      "type": "function"
    },
    {
      "inputs": [
        {
          "internalType": "bytes32",
          "name": "tokenId",
          "type": "bytes32"
        }
      ],
      "name": "tokenOwnerOf",
      "outputs": [
        {
          "internalType": "address",
          "name": "",
          "type": "address"
        }
      ],
      "stateMutability": "view",
      "type": "function"
    },
    {
      "inputs": [],
      "name": "tokenSupplyCap",
      "outputs": [
        {
          "internalType": "uint256",
          "name": "",
          "type": "uint256"
        }
      ],
      "stateMutability": "view",
      "type": "function"
    },
    {
      "inputs": [],
      "name": "totalSupply",
      "outputs": [
        {
          "internalType": "uint256",
          "name": "",
          "type": "uint256"
        }
      ],
      "stateMutability": "view",
      "type": "function"
    },
    {
      "inputs": [
        {
          "internalType": "address",
          "name": "from",
          "type": "address"
        },
        {
          "internalType": "address",
          "name": "to",
          "type": "address"
        },
        {
          "internalType": "bytes32",
          "name": "tokenId",
          "type": "bytes32"
        },
        {
          "internalType": "bool",
          "name": "force",
          "type": "bool"
        },
        {
          "internalType": "bytes",
          "name": "data",
          "type": "bytes"
        }
      ],
      "name": "transfer",
      "outputs": [],
      "stateMutability": "nonpayable",
      "type": "function"
    },
    {
      "inputs": [
        {
          "internalType": "address[]",
          "name": "from",
          "type": "address[]"
        },
        {
          "internalType": "address[]",
          "name": "to",
          "type": "address[]"
        },
        {
          "internalType": "bytes32[]",
          "name": "tokenId",
          "type": "bytes32[]"
        },
        {
          "internalType": "bool[]",
          "name": "force",
          "type": "bool[]"
        },
        {
          "internalType": "bytes[]",
          "name": "data",
          "type": "bytes[]"
        }
      ],
      "name": "transferBatch",
      "outputs": [],
      "stateMutability": "nonpayable",
      "type": "function"
    },
    {
      "inputs": [
        {
          "internalType": "address",
          "name": "newOwner",
          "type": "address"
        }
      ],
      "name": "transferOwnership",
      "outputs": [],
      "stateMutability": "nonpayable",
      "type": "function"
    },
    {
      "inputs": [],
      "name": "winnerIters",
      "outputs": [
        {
          "internalType": "uint256",
          "name": "",
          "type": "uint256"
        }
      ],
      "stateMutability": "view",
      "type": "function"
    },
    {
      "stateMutability": "payable",
      "type": "receive"
    }
  ],
  "bytecode": "0x6101208060405234620010ee5760c081620054e080380380916200002482856200160e565b833981010312620010ee576200003a8162001632565b90620000496020820162001632565b91620000586040830162001632565b92606083015160a06080850151940151936040516200007781620015f2565b601c81527f4275726e74205069782041726368697665733a20536561736f6e203100000000602082015260405190620000b082620015f2565b60068252654255524e543160d01b60208301523315620015e0576000546001600160a01b03811633819003620015a2575b5050604051620000f181620015f2565b60048152632936598960e21b602080830191909152600080516020620054408339815191526000526001905280517f072b2e8bf50bc459a586397c8474185d5dad5ea3d82533658159d53147c7bb39906001600160401b03811162000d69578154600181811c9116801562001597575b602082101462000d4857601f81116200154e575b506020601f8211600114620014d75792600080516020620054c08339815191529282620001d793600080516020620054408339815191529660009162000c6f575b508160011b916000199060031b1c19161790555b6040519182918262001647565b0390a260008051602062005400833981519152600052600160205280517f2a367ae1ac46d529739aa27ac74856f860e70af05d3642d18ba60fd5d32a069a906001600160401b03811162000d69578154600181811c91168015620014cc575b602082101462000d4857601f811162001483575b506020601f82116001146200140c5792600080516020620054c08339815191529282620002aa93600080516020620054008339815191529660009162000c6f57508160011b916000199060031b1c19161790556040519182918262001647565b0390a260008051602062005480833981519152600052600160205280517f83b322886c7b7e25779e5d38e06e005c9e7aba1e1267ce9210cf24e31833535a906001600160401b03811162000d69578154600181811c9116801562001401575b602082101462000d4857601f8111620013b8575b506020601f8211600114620013415792600080516020620054c083398151915292826200037d93600080516020620054808339815191529660009162000c6f57508160011b916000199060031b1c19161790556040519182918262001647565b0390a260405160026020820152602081526200039981620015f2565b60008051602062005420833981519152600052600160205280517ff73b01b344a9bb3b96525b0cb731f6b14cde20ce6cecea8459266944490b411f906001600160401b03811162000d69578154600181811c9116801562001336575b602082101462000d4857601f8111620012ed575b506020601f8211600114620012765792600080516020620054c083398151915292826200046993600080516020620054208339815191529660009162000c6f57508160011b916000199060031b1c19161790556040519182918262001647565b0390a260405160006020820152602081526200048581620015f2565b60008051602062005460833981519152600052600160205280517f01f5eb934e794ddcc86b89a579078013860f8fe92140885511742594f219ad0b906001600160401b03811162000d69578154600181811c911680156200126b575b602082101462000d4857601f811162001222575b506020601f8211600114620011ab5792600080516020620054c083398151915292826200055593600080516020620054608339815191529660009162000c6f57508160011b916000199060031b1c19161790556040519182918262001647565b0390a2801562001199576080526001600855604051637b10399960e01b8152936020856004816001600160a01b0386165afa948515620010fc5760009562001151575b5060c083905260e082905261010052604051632468294560e11b81526001600160a01b0391821660048201529360209185916024918391165afa928315620010fc5760009362001108575b5060405163319c665560e01b81523060048201526001600160a01b03928316602482015263ffffffff909316604484015260209183916064918391600091165af1908115620010fc57600091620010b5575b5060a052604051906200064882620015f2565b60108252600160801b602080840191909152600080516020620054a0833981519152600052600190528151917fde5f0adbf2cf136848982dd95860bdc3e6d8709a8a51ce1295c645c6da617db76001600160401b03841162000d69578054600181811c91168015620010aa575b602082101462000d4857601f811162001061575b50602093601f811160011462000fea57916200072b9183600080516020620054c083398151915294600080516020620054a0833981519152969760009162000c6f57508160011b916000199060031b1c19161790556040519182918262001647565b0390a2604051606082901b6001600160601b031916602082015260148152906200075582620015f2565b6f0452f40ece91b521d65a03607aecad0560821b60005260016020528151917fadf994b8d5b80a46660e628eabff2156c328d301fe5ea8e44cf09dee1b43e5126001600160401b03841162000d69578054600181811c9116801562000fdf575b602082101462000d4857601f811162000f96575b50602093601f811160011462000f2a57809192939460009162000f1e575b508160011b916000199060031b1c19161790555b600080516020620054c0833981519152604051806200082f6f0452f40ece91b521d65a03607aecad0560821b948262001647565b0390a260405169036f42f57aecc15a72ed60b51b60208083019182526000602a840152606084901b6001600160601b031916602c8401528252906200087481620015f2565b519051906020811062000f0b575b5090604051916200089383620015f2565b601483526324871b3d60e01b602084018190529260008051602062005460833981519152821462000ef957600080516020620054008339815191528203620008e7576040516385c169bd60e01b8152600490fd5b6000805160206200548083398151915282036200091057604051630eceab6760e31b8152600490fd5b6000805160206200542083398151915282036200093957604051634ef6d7fb60e01b8152600490fd5b600082815260016020526040902081516001600160401b03811162000d69578154600181811c9116801562000eee575b602082101462000d4857601f811162000ea1575b506020601f821160011462000e3c579181600080516020620054c08339815191529492620009cd9460009162000c6f57508160011b916000199060031b1c19161790556040519182918262001647565b0390a26040516020810192909252606090811b6001600160601b0319166024830152611388603880840191909152825281016001600160401b0381118282101762000d69576040527fc0569ca6c9180acc2c3590f36330a36ae19015a19f4e85c28a7631e3317e6b9d600081905260016020528151917f715c60721fcb432a46c53ac3ceeefe86aa51a6c564859a02664da1de59a8cd606001600160401b03841162000d69578054600181811c9116801562000e31575b602082101462000d4857601f811162000de4575b50602093601f811160011462000d7f57908162000aea9392600080516020620054c0833981519152959660009162000c6f57508160011b916000199060031b1c19161790556040519182918262001647565b0390a260405162000afb81620015f2565b6001808252600160f81b6020808401919091527f580d62ad353782eca17b89e5900e7df3b13b6f4ca9bbc2f8af8bceb0c3d1ecc660008190529190528151917f5e76a7f64a9621e22ad92c14e6ce74c38bd120088a539660dc579eab8430b2f46001600160401b03841162000d69578054600181811c9116801562000d5e575b602082101462000d4857601f811162000cfb575b50602093601f811160011462000c7b57908162000be19392600080516020620054c0833981519152959660009162000c6f57508160011b916000199060031b1c19161790556040519182918262001647565b0390a2604051613d6d9081620016938239608051818181610d3a0152612f3c015260a051818181610af7015281816126cc0152613235015260c05181818161129b0152818161289901528181612edf0152613294015260e0518181816117d501528181611f790152818161262e01528181612eb2015261325c01526101005181818161123101526127e20152f35b905083015138620001b6565b601f1981168260005260206000209060005b81811062000ce2575091600191600080516020620054c083398151915296978262000be19796951062000cc8575b5050811b019055620001ca565b85015160001960f88460031b161c19169055388062000cbb565b8588015183556020978801976001909301920162000c8d565b816000526020600020601f860160051c8101916020871062000d3d575b601f0160051c01905b81811062000d30575062000b8f565b6000815560010162000d21565b909150819062000d18565b634e487b7160e01b600052602260045260246000fd5b90607f169062000b7b565b634e487b7160e01b600052604160045260246000fd5b601f1981168260005260206000209060005b81811062000dcb575091600191600080516020620054c083398151915296978262000aea9796951062000cc8575050811b019055620001ca565b8588015183556020978801976001909301920162000d91565b816000526020600020601f860160051c8101916020871062000e26575b601f0160051c01905b81811062000e19575062000a98565b6000815560010162000e0a565b909150819062000e01565b90607f169062000a84565b601f198216908360005260206000209160005b81811062000e88575092620009cd949260019282600080516020620054c083398151915298961062000cc8575050811b019055620001ca565b9192602060018192868a01518155019401920162000e4f565b826000526020600020601f830160051c8101916020841062000ee3575b601f0160051c01905b81811062000ed657506200097d565b6000815560010162000ec7565b909150819062000ebe565b90607f169062000969565b604051631b32400560e11b8152600490fd5b6000199060200360031b1b163862000882565b905083015138620007e7565b81600052602060002060005b601f198316811062000f7d575060019293949582601f1981161062000f63575b5050811b019055620007fb565b85015160001960f88460031b161c19169055388062000f56565b8487015182556020968701966001909201910162000f36565b816000526020600020601f860160051c81016020871062000fd7575b601f830160051c8201811062000fca575050620007c9565b6000815560010162000fb2565b508062000fb2565b90607f1690620007b5565b81600052602060002060005b601f1983168110620010485750916001826200072b94600080516020620054a08339815191529798600080516020620054c08339815191529795601f1981161062000cc8575050811b019055620001ca565b8487015182556020968701966001909201910162000ff6565b816000526020600020601f860160051c810160208710620010a2575b601f830160051c8201811062001095575050620006c9565b600081556001016200107d565b50806200107d565b90607f1690620006b5565b90506020813d602011620010f3575b81620010d3602093836200160e565b81010312620010ee57620010e79062001632565b3862000635565b600080fd5b3d9150620010c4565b6040513d6000823e3d90fd5b9092506020813d60201162001148575b8162001127602093836200160e565b81010312620010ee57519163ffffffff83168303620010ee576064620005e3565b3d915062001118565b919094506020823d60201162001190575b8162001171602093836200160e565b81010312620010ee576200118760209262001632565b94909162000598565b3d915062001162565b60405163038d9fc360e41b8152600490fd5b8260005260206000209060005b601f198416811062001209575092600183600080516020620054608339815191529693600080516020620054c0833981519152966200055596601f1981161062000cc8575050811b019055620001ca565b90916020600181928589015181550193019101620011b8565b826000526020600020601f830160051c81016020841062001263575b601f830160051c8201811062001256575050620004f5565b600081556001016200123e565b50806200123e565b90607f1690620004e1565b8260005260206000209060005b601f1984168110620012d4575092600183600080516020620054208339815191529693600080516020620054c0833981519152966200046996601f1981161062000cc8575050811b019055620001ca565b9091602060018192858901518155019301910162001283565b826000526020600020601f830160051c8101602084106200132e575b601f830160051c820181106200132157505062000409565b6000815560010162001309565b508062001309565b90607f1690620003f5565b8260005260206000209060005b601f19841681106200139f575092600183600080516020620054808339815191529693600080516020620054c0833981519152966200037d96601f1981161062000cc8575050811b019055620001ca565b909160206001819285890151815501930191016200134e565b826000526020600020601f830160051c810160208410620013f9575b601f830160051c82018110620013ec5750506200031d565b60008155600101620013d4565b5080620013d4565b90607f169062000309565b8260005260206000209060005b601f19841681106200146a575092600183600080516020620054008339815191529693600080516020620054c083398151915296620002aa96601f1981161062000cc8575050811b019055620001ca565b9091602060018192858901518155019301910162001419565b826000526020600020601f830160051c810160208410620014c4575b601f830160051c82018110620014b75750506200024a565b600081556001016200149f565b50806200149f565b90607f169062000236565b8260005260206000209060005b601f198416811062001535575092600183600080516020620054408339815191529693600080516020620054c083398151915296620001d796601f1981161062000cc8575050811b019055620001ca565b90916020600181928589015181550193019101620014e4565b826000526020600020601f830160051c8101602084106200158f575b601f830160051c820181106200158257505062000175565b600081556001016200156a565b50806200156a565b90607f169062000161565b33907f8be0079c531659141344cd1fd0a4f28419497f9722a3daafe3b4186f6b6457e0600080a36001600160a01b03191633176000553880620000e1565b6040516306b620db60e21b8152600490fd5b604081019081106001600160401b0382111762000d6957604052565b601f909101601f19168101906001600160401b0382119082101762000d6957604052565b51906001600160a01b0382168203620010ee57565b6020808252825181830181905290939260005b8281106200167d57505060409293506000838284010152601f8019910116010190565b8181018601518482016040015285016200165a56fe6080604052600436101561002a575b36156100255761001d36612ca8565b602081519101f35b612c52565b60003560e01c806301ffc9a7146102ba57806316e023b3146102b557806318160ddd146102b05780631ba1e3ea146102ab5780631d26fce6146102a65780631d2aeefc146102a15780631ff5db4a1461029c578063217b2270146102975780632a3654a4146102925780633aee53021461028d5780633cb5d1001461028857806342e94c90146102835780634488623e1461027e57806349a6078d146102795780634df8e7f614610274578063511b69521461026f57806352058d8a1461026a57806354f6127f146102655780636963d4381461026057806370a082311461025b578063715018a6146102565780637e0ab786146102515780637e87632c1461024c5780637f23690c1461024757806386a10ddd146102425780638d24306e1461023d5780638da5cb5b1461023857806390eb6bf014610233578063979024211461022e578063a3b261f214610229578063a47aa2d414610224578063ac7009381461021f578063af157c191461021a578063be9f0e6f14610215578063d09f347314610210578063d6c1407c1461020b578063da16e45414610206578063db8c966314610201578063dc58a56c146101fc578063dedff9c6146101f75763f2fde38b0361000e576119b2565b61192a565b61190c565b6117f8565b6117bd565b611776565b6116f3565b6114ff565b61147b565b61145d565b611435565b6113b6565b6112bf565b61127b565b611254565b611219565b61107e565b611028565b610f8e565b610e8a565b610e20565b610de2565b610d7c565b610d5d565b610d22565b610cbf565b610c2f565b610b60565b610ad7565b610a96565b610a3c565b610954565b6108b5565b610886565b6107e4565b6107c5565b6106fc565b6104c5565b61045a565b610419565b346103b85760203660031901126103b8576004356001600160e01b031981168082036103b85761032a917f3a27170600000000000000000000000000000000000000000000000000000000821491821561033e575b50811561032e575b5060405190151581529081906020820190565b0390f35b6103389150612cf4565b38610317565b9091507fa918fa6b000000000000000000000000000000000000000000000000000000008114908115610374575b50903861030f565b7f629aa694000000000000000000000000000000000000000000000000000000008114915081156103a7575b503861036c565b6301ffc9a760e01b915014386103a0565b600080fd5b60005b8381106103d05750506000910152565b81810151838201526020016103c0565b906020916103f9815180928185528580860191016103bd565b601f01601f1916010190565b9060206104169281815201906103e0565b90565b346103b85760403660031901126103b85761032a61043b602435600435612db9565b6040519182916020835260208301906103e0565b60009103126103b857565b346103b85760003660031901126103b8576020600254604051908152f35b6001600160a01b038116036103b857565b602090602060408183019282815285518094520193019160005b8281106104b1575050505090565b8351855293810193928101926001016104a3565b346103b8576020806003193601126103b8576001600160a01b036004356104eb81610478565b16600052600a6020526040600020906040519081602084549182815201936000526020600020916000905b8282106105395761032a8561052d818903826105ef565b60405191829182610489565b835486529485019460019384019390910190610516565b634e487b7160e01b600052604160045260246000fd5b60a0810190811067ffffffffffffffff82111761058257604052565b610550565b67ffffffffffffffff811161058257604052565b6020810190811067ffffffffffffffff82111761058257604052565b6040810190811067ffffffffffffffff82111761058257604052565b6060810190811067ffffffffffffffff82111761058257604052565b90601f8019910116810190811067ffffffffffffffff82111761058257604052565b6040519061061e82610566565b565b67ffffffffffffffff81116105825760051b60200190565b9080601f830112156103b857602090823561065281610620565b9361066060405195866105ef565b81855260208086019260051b8201019283116103b857602001905b828210610689575050505090565b8135815290830190830161067b565b6020808201906020835283518092526040830192602060408460051b8301019501936000915b8483106106ce5750505050505090565b90919293949584806106ec600193603f198682030187528a516103e0565b98019301930191949392906106be565b346103b85760403660031901126103b85767ffffffffffffffff6004358181116103b85761072e903690600401610638565b906024359081116103b857610747903690600401610638565b9080518251036107b45761075b8151611a60565b9160005b82518110156107a6578061078a61077860019386611aaa565b516107838386611aaa565b5190612db9565b6107948287611aaa565b5261079f8186611aaa565b500161075f565b6040518061032a8682610698565b60046040516317d38eff60e11b8152fd5b346103b85760203660031901126103b8576107e233600435612620565b005b346103b85760403660031901126103b8576107e260243560043561080782610478565b806000526009602052610878608060406000206001600160a01b0360046040519261083184610566565b604051610849816108428185611642565b03826105ef565b845260018101546020850152600281015460408501526003810154606085015201541691829101523314611abe565b610880611b49565b91612f28565b346103b85760203660031901126103b85760206108a4600435611b5c565b6001600160a01b0360405191168152f35b346103b85760403660031901126103b85760206108e06004356108d781610478565b602435906130b8565b6040519015158152f35b9080601f830112156103b857602090823561090481610620565b9361091260405195866105ef565b81855260208086019260051b8201019283116103b857602001905b82821061093b575050505090565b838091833561094981610478565b81520191019061092d565b346103b8576020806003193601126103b85760043567ffffffffffffffff81116103b8576109869036906004016108ea565b805161099181610620565b926040916109a260405195866105ef565b8085526109b1601f1991610620565b0136602086013760009060005b84518110156109fb57806001600160a01b036109dc60019388611aaa565b51168452600a83528185852001546109f48289611aaa565b52016109be565b6040518061032a8882610489565b634e487b7160e01b600052603260045260246000fd5b8054821015610a375760005260206000200190600090565b610a09565b346103b85760203660031901126103b8576004356006548110156103b8576001600160a01b0360209160066000527ff652222313e28459528d920b65115c16c04f3efc82aaedc97be59f3f377c0d3f015416604051908152f35b346103b85760203660031901126103b8576001600160a01b03600435610abb81610478565b16600052600a6020526020600160406000200154604051908152f35b346103b85760003660031901126103b85760206040516001600160a01b037f0000000000000000000000000000000000000000000000000000000000000000168152f35b602090602060408183019282815285518094520193019160005b828110610b43575050505090565b83516001600160a01b031685529381019392810192600101610b35565b346103b8576020806003193601126103b857600435610b958160005260036020526001600160a01b0360406000205416151590565b15610bfe5760005260056020526040600020906040519081602084549182815201936000526020600020916000905b828210610be75761032a85610bdb818903826105ef565b60405191829182610b1b565b835486529485019460019384019390910190610bc4565b602490604051907fae8f9a360000000000000000000000000000000000000000000000000000000082526004820152fd5b346103b85760003660031901126103b8576020600754604051908152f35b6044359081151582036103b857565b67ffffffffffffffff811161058257601f01601f191660200190565b81601f820112156103b857803590610c8f82610c5c565b92610c9d60405194856105ef565b828452602083830101116103b857816000926020809301838601378301015290565b346103b85760a03660031901126103b857600435610cdc81610478565b602435610ce881610478565b60643580151581036103b8576084359267ffffffffffffffff84116103b857610d186107e2943690600401610c78565b9260443591611b7f565b346103b85760003660031901126103b85760206040517f00000000000000000000000000000000000000000000000000000000000000008152f35b346103b85760203660031901126103b85761032a61043b6004356131be565b346103b85760203660031901126103b85767ffffffffffffffff6004358181116103b857366023820112156103b85780600401359182116103b8573660248360051b830101116103b85761032a916024610dd69201611e1b565b60405191829182610698565b346103b85760203660031901126103b8576001600160a01b03600435610e0781610478565b1660005260046020526020604060002054604051908152f35b346103b857600080600319360112610e8757610e3a6132c8565b80546001600160a01b038116908282610e505780f35b6001600160a01b0319927f8be0079c531659141344cd1fd0a4f28419497f9722a3daafe3b4186f6b6457e08280a316815538808280f35b80fd5b346103b85760003660031901126103b85760206108e0611f77565b9080601f830112156103b8576020908235610ebf81610620565b93610ecd60405195866105ef565b81855260208086019260051b8201019283116103b857602001905b828210610ef6575050505090565b813580151581036103b8578152908301908301610ee8565b81601f820112156103b857803591602091610f2884610620565b93610f3660405195866105ef565b808552838086019160051b830101928084116103b857848301915b848310610f615750505050505090565b823567ffffffffffffffff81116103b8578691610f8384848094890101610c78565b815201920191610f51565b346103b85760a03660031901126103b857600467ffffffffffffffff81358181116103b857610fc090369084016108ea565b906024358181116103b857610fd890369085016108ea565b6044358281116103b857610fef9036908601610638565b906064358381116103b8576110079036908701610ea5565b926084359081116103b8576107e29561102291369101610f0e565b936120fe565b60403660031901126103b85760243567ffffffffffffffff81116103b857611054903690600401610c78565b61105c6132c8565b3461106d576107e29060043561330c565b600460405163f36ba73760e01b8152fd5b346103b85760603660031901126103b857600480359061109d82610478565b60243560443567ffffffffffffffff81116103b8576110bf9036908401610c78565b916110c982611b5c565b906001600160a01b03808316923384036111e2575085169081156111d3578183146111c45761111261110e87611109876000526005602052604060002090565b6134a4565b1590565b61117a57509180611175926107e296947f1b1b58aa2ec0cec2228b2d37124556d41f5a1f7b12f089171f896cc236671215604051806111518a82610405565b0390a461116760405194859233602085016121e6565b03601f1981018452836105ef565b613b49565b604080517fa7626b680000000000000000000000000000000000000000000000000000000081526001600160a01b03881692810192835260208301869052918291010390fd5b0390fd5b6040516344fed6b160e11b8152fd5b604051639577b8b360e01b8152fd5b60408051632d938f5160e11b81526001600160a01b0390921682850190815260208101879052339181019190915281906060010390fd5b346103b85760003660031901126103b85760206040517f00000000000000000000000000000000000000000000000000000000000000008152f35b346103b85760003660031901126103b85760206001600160a01b0360005416604051908152f35b346103b85760003660031901126103b85760206040516001600160a01b037f0000000000000000000000000000000000000000000000000000000000000000168152f35b60403660031901126103b857600467ffffffffffffffff81358181116103b8576112ec9036908401610638565b906024359081116103b8576113049036908401610f0e565b9161130d6132c8565b346113a757815183510361137f57815115611357575060005b81518110156107e2578061135161133f60019385611aaa565b5161134a8387611aaa565b519061330c565b01611326565b6040517f97da5f95000000000000000000000000000000000000000000000000000000008152fd5b6040517f3bcc8979000000000000000000000000000000000000000000000000000000008152fd5b60405163f36ba73760e01b8152fd5b346103b8576020806003193601126103b8576001600160a01b036004356113dc81610478565b1660005260046020526040600020906040519081602084549182815201936000526020600020916000905b82821061141e5761032a8561052d818903826105ef565b835486529485019460019384019390910190611407565b346103b85760403660031901126103b8576107e260243561145581610478565b600435612620565b346103b85760003660031901126103b8576020600854604051908152f35b346103b85760003660031901126103b857604051806006549182815260208091019260066000527ff652222313e28459528d920b65115c16c04f3efc82aaedc97be59f3f377c0d3f916000905b8282106114df5761032a85610bdb818903826105ef565b83546001600160a01b0316865294850194600193840193909101906114c8565b346103b85760603660031901126103b857600467ffffffffffffffff81358181116103b8576115319036908401610638565b6024358281116103b8576115489036908501610638565b916044359081116103b8576115609036908501610f0e565b926115696132c8565b81518351809114908115916115fc575b506115ed578151156115c5575060005b81518110156107e257806115bf6115a260019385611aaa565b516115ad8387611aaa565b516115b88489611aaa565b51916134b7565b01611589565b6040517f80c98305000000000000000000000000000000000000000000000000000000008152fd5b6040516317d38eff60e11b8152fd5b90508451141538611579565b90600182811c92168015611638575b602083101461162257565b634e487b7160e01b600052602260045260246000fd5b91607f1691611617565b80546000939261165182611608565b918282526020936001916001811690816000146116b95750600114611678575b5050505050565b90939495506000929192528360002092846000945b8386106116a557505050500101903880808080611671565b80548587018301529401938590820161168d565b60ff19168685015250505090151560051b010191503880808080611671565b9061061e6116ec9260405193848092611642565b03836105ef565b346103b85760203660031901126103b857600435600052600960205261175d604060002060405190611729826116ec8184611642565b6001810154906002810154906001600160a01b0360046003830154920154169160405195869560a0875260a08701906103e0565b9360208601526040850152606084015260808301520390f35b346103b85760603660031901126103b85760443567ffffffffffffffff81116103b8576117aa6107e2913690600401610c78565b6117b26132c8565b6024356004356134b7565b346103b85760003660031901126103b85760206040517f00000000000000000000000000000000000000000000000000000000000000008152f35b346103b85760803660031901126103b85760043561181581610478565b602435611820610c4d565b9160643567ffffffffffffffff81116103b857611841903690600401610c78565b61184a83611b5c565b936001600160a01b03808616908133036118bc575b84169081156118ab571461189a5761187a828286888761361d565b61188057005b6107e2936111676111759260405195869360208501612212565b60046040516344fed6b160e11b8152fd5b6004604051639577b8b360e01b8152fd5b848116331461185f576040517f760b5acd0000000000000000000000000000000000000000000000000000000081523360048201526001600160a01b038816602482015260448101879052606490fd5b346103b85760003660031901126103b8576020600654604051908152f35b346103b85760203660031901126103b85760043567ffffffffffffffff81116103b85761195b903690600401610638565b6119658151611a60565b9060005b81518110156119a4578061198861198260019385611aaa565b516131be565b6119928286611aaa565b5261199d8185611aaa565b5001611969565b6040518061032a8582610698565b346103b85760203660031901126103b8576004356119cf81610478565b6119d76132c8565b6001600160a01b038091168015611a36576000918254908116908183036119fc578380f35b826001600160a01b0319927f8be0079c531659141344cd1fd0a4f28419497f9722a3daafe3b4186f6b6457e08680a3161781553880808380f35b60046040517f1ad8836c000000000000000000000000000000000000000000000000000000008152fd5b90611a6a82610620565b611a7760405191826105ef565b8281528092611a88601f1991610620565b019060005b828110611a9957505050565b806060602080938501015201611a8d565b8051821015610a375760209160051b010190565b15611ac557565b60846040517f08c379a000000000000000000000000000000000000000000000000000000000815260206004820152603f60248201527f4275726e7450697841726368697665733a204f6e6c792074686520617263686960448201527f76652063726561746f722063616e206d696e74207468652061726368697665006064820152fd5b60405190611b568261059b565b60008252565b8060005260036020526001600160a01b0360406000205416908115610bfe575090565b90929391611b8d81336130b8565b15611d6457611b9b81611b5c565b6001600160a01b038181169184821691828403611d3457808816938415611d0a57611bc586611b5c565b91821603611cc157505092611cb7838061061e9997946111679997611bed611cbc98876138cb565b611c1383611c0e886001600160a01b03166000526004602052604060002090565b613c82565b50611c3a83611c358b6001600160a01b03166000526004602052604060002090565b613b12565b50611c6e89611c53856000526003602052604060002090565b906001600160a01b03166001600160a01b0319825416179055565b6040517fb333c813a7426a7a11e2b190cad52c44119421594b47f6f32ace6d8c7207b2bf9080611ca08a8e338461312a565b0390a4604051978894859288863360208701613187565b613bb4565b613a4c565b6040517f5a9c31d3000000000000000000000000000000000000000000000000000000008152600481018690526001600160a01b03928316602482015291166044820152606490fd5b60046040517f24ecef4d000000000000000000000000000000000000000000000000000000008152fd5b604051632d938f5160e11b81526001600160a01b0383811660048301526024820187905287166044820152606490fd5b604490604051907f1294d2a90000000000000000000000000000000000000000000000000000000082526004820152336024820152fd5b9190811015610a375760051b81013590601e19813603018212156103b857019081359167ffffffffffffffff83116103b85760200182360381136103b8579190565b908092918237016000815290565b3d15611e16573d90611dfc82610c5c565b91611e0a60405193846105ef565b82523d6000602084013e565b606090565b9190611e2681611a60565b9260009160005b818110611e3a5750505050565b8380611e47838587611d9b565b60409391611e59855180938193611ddd565b0390305af490611e67611deb565b9115611e8e575090600191611e7c8289611aaa565b52611e878188611aaa565b5001611e2d565b815191929115611ea057825160208401fd5b517f234eb819000000000000000000000000000000000000000000000000000000008152600481019190915260249150fd5b908160209103126103b8575161041681610478565b6040513d6000823e3d90fd5b60209081818403126103b85780519067ffffffffffffffff82116103b857019180601f840112156103b8578251611f2981610620565b93611f3760405195866105ef565b818552838086019260051b8201019283116103b8578301905b828210611f5e575050505090565b8380918351611f6c81610478565b815201910190611f50565b7f00000000000000000000000000000000000000000000000000000000000000006001600160a01b0360405190637b10399960e01b825260209182816004818588165afa80156120b95782916000916120e1575b5016926040517f49a6078d0000000000000000000000000000000000000000000000000000000081526000818061200a85600483019190602083019252565b0381885afa9081156120b9576000916120be575b505115938461202f575b5050505090565b6040517f217b2270000000000000000000000000000000000000000000000000000000008152600481019290925292935090918390829060249082905afa9283156120b95760009361208a575b505016301438808080612028565b6120aa929350803d106120b2575b6120a281836105ef565b810190611ed2565b90388061207c565b503d612098565b611ee7565b6120db91503d806000833e6120d381836105ef565b810190611ef3565b3861201e565b6120f89150843d86116120b2576120a281836105ef565b38611fcb565b9493909192855193835185148015906121db575b80156121d0575b80156121c5575b61219b5760005b858110612138575050505050509050565b8061219561215861214b6001948c611aaa565b516001600160a01b031690565b61216561214b848a611aaa565b61216f8487611aaa565b5161218361217d868a611aaa565b51151590565b9161218e868b611aaa565b5193611b7f565b01612127565b60046040517f93a83119000000000000000000000000000000000000000000000000000000008152fd5b508251851415612120565b508151851415612119565b508051851415612112565b61041693926001600160a01b0360809316825260208201526001604082015281606082015201906103e0565b61041693926001600160a01b0360809316825260208201526000604082015281606082015201906103e0565b156103b857565b908160209103126103b8575190565b634e487b7160e01b600052601160045260246000fd5b9190820391821161227757565b612254565b60065468010000000000000000811015610582576001810180600655811015610a37576001600160a01b039060066000527ff652222313e28459528d920b65115c16c04f3efc82aaedc97be59f3f377c0d3f0191166001600160a01b0319825416179055565b906001820180921161227757565b9190820180921161227757565b60001981146122775760010190565b916123269183549060031b91821b91600019901b19161790565b9055565b80549068010000000000000000821015610582578161235191600161232694018155610a1f565b819391549060031b91821b91600019901b19161790565b6020818303126103b85780519067ffffffffffffffff82116103b8570181601f820112156103b857805161239b81610c5c565b926123a960405194856105ef565b818452602082840101116103b85761041691602080850191016103bd565b90601f81116123d557505050565b6000916000526020600020906020601f850160051c83019410612413575b601f0160051c01915b82811061240857505050565b8181556001016123fc565b90925082906123f3565b919091825167ffffffffffffffff8111610582576124458161243f8454611608565b846123c7565b602080601f831160011461248457508190612326939495600092612479575b50508160011b916000199060031b1c19161790565b015190503880612464565b90601f1983169561249a85600052602060002090565b926000905b8882106124d7575050836001959697106124be575b505050811b019055565b015160001960f88460031b161c191690553880806124b4565b8060018596829496860151815501950193019061249f565b919091825192835167ffffffffffffffff81116105825761251a816125148554611608565b856123c7565b602080601f83116001146125a45750600492612558836125879460809461061e999a6000926124795750508160011b916000199060031b1c19161790565b85555b60208101516001860155604081015160028601556060810151600386015501516001600160a01b031690565b9101906001600160a01b03166001600160a01b0319825416179055565b90601f198316966125ba86600052602060002090565b926000905b89821061260857505083608093600496936001936125879761061e9b9c106125ef575b505050811b01855561255b565b015160001960f88460031b161c191690553880806125e2565b806001859682949686015181550195019301906125bf565b9061262c82151561223e565b7f0000000000000000000000000000000000000000000000000000000000000000906001600160a01b0380831690604094855194637b10399960e01b865260209260049684818981895afa9081156120b957600091612c35575b5088519385858a817f4358d2be000000000000000000000000000000000000000000000000000000009a8b82525afa9485156120b957600095612c16575b5089518781527f000000000000000000000000000000000000000000000000000000000000000084169587828c818a5afa9081156120b95761270e92600092612bf7575b5061226a565b853b156103b8578a517f4594229c000000000000000000000000000000000000000000000000000000008152808b01838152600090829081906020010381838b5af180156120b957612be4575b5080158015612bdb575b612b62575b50600161278a896001600160a01b0316600052600a602052604060002090565b015415612b54575b6127bd60016127b48a6001600160a01b0316600052600a602052604060002090565b019182546122f0565b905560016127de886001600160a01b0316600052600a602052604060002090565b01547f0000000000000000000000000000000000000000000000000000000000000000111580612b46575b612a9f575b506128959150836001612834886001600160a01b0316600052600a602052604060002090565b01549161285d612857896001600160a01b0316600052600a602052604060002090565b546122e2565b908a5180809681947fcd7782690000000000000000000000000000000000000000000000000000000083528d83019190602083019252565b03917f0000000000000000000000000000000000000000000000000000000000000000165afa9182156120b957600092612a80575b5010156128da575b505050505050565b6128e56007546122fd565b926128ef84600755565b61291584612910876001600160a01b0316600052600a602052604060002090565b61232a565b8651957f54f6127f0000000000000000000000000000000000000000000000000000000087526000878061296f848201907f2abb082c1b23ea79fce2a9e934ecb19ce15738b1483c365d0125f47e8ccc7dfc602083019252565b0381865afa9687156120b957600097612a57575b5090839188518094819382525afa9384156120b957612a1696612a11956129f593600091612a2a575b506129ca836001600160a01b0316600052600a602052604060002090565b54946129d4610611565b98895288015286019283524360608701526001600160a01b03166080860152565b516008548111612a21575b506000526009602052604060002090565b6124ef565b3880808080806128d2565b60085538612a00565b612a4a9150853d8711612a50575b612a4281836105ef565b810190612245565b386129ac565b503d612a38565b8492919750612a78903d806000833e612a7081836105ef565b810190612368565b969091612983565b612a98919250843d8611612a5057612a4281836105ef565b90386128ca565b8116803b156103b857612b199260009188838b8d51978895869485937f511b695200000000000000000000000000000000000000000000000000000000855230908501919060c093916001600160a01b03809216845216602083015260408201526001606082015260a06080820152600060a08201520190565b03925af19182156120b957612895921561280e5780612b3a612b4092610587565b8061044f565b3861280e565b50612b4f611f77565b612809565b612b5d8861227c565b612792565b612b6f848416918361226a565b90803b156103b8578b517fea255583000000000000000000000000000000000000000000000000000000008152808c01878152602081019390935291600091839182908490829060400103925af180156120b9571561276a5780612b3a612bd592610587565b3861276a565b50808211612765565b80612b3a612bf192610587565b3861275b565b612c0f919250893d8b11612a5057612a4281836105ef565b9038612708565b612c2e919550863d8811612a5057612a4281836105ef565b93386126c4565b612c4c9150853d87116120b2576120a281836105ef565b38612686565b3415612c825760046040517f61f49442000000000000000000000000000000000000000000000000000000008152fd5b606460405163e5099ee360e01b8152602060048201526004602482015260006044820152fd5b60043610612cb957610416906136e8565b6044604051809263e5099ee360e01b825260206004830152806024830152806000848401376000828201840152601f01601f19168101030190fd5b612d3b612d36604051696773c5a04a6d4300884b60b11b60208201526000602a8201526301ffc9a760e01b602c82015260208152612d31816105b7565b613c1f565b6138ac565b805160148114159081612daf575b50612d7157612d57906137e5565b60601c908115612d6a5761041691613879565b5050600090565b6111c0906040519182917f42bfe79f0000000000000000000000000000000000000000000000000000000083526020600484015260248301906103e0565b9050151538612d49565b612dd98160005260036020526001600160a01b0360406000205416151590565b156103b8577f9afb95cacc9f95858ec44aa8c3b685511002e30ae54415823f406128b85b238e8214612e225750612e1d610416916000526001602052604060002090565b6116d8565b60009081526009602052604081206001600160a01b039250916008549060405180809581947ffdaab8990000000000000000000000000000000000000000000000000000000083526060600484015260a06064840152846004612e89610104860185611642565b9360018101546084870152600281015460a4870152600381015460c487015201541660e48401527f00000000000000000000000000000000000000000000000000000000000000006024840152604483015203917f0000000000000000000000000000000000000000000000000000000000000000165afa9081156120b957600091612f13575090565b61041691503d806000833e612a7081836105ef565b9291909260025460018101808211612277577f00000000000000000000000000000000000000000000000000000000000000001061308e576001600160a01b038216908115611d0a57612f918660005260036020526001600160a01b0360406000205416151590565b61305c57612fb58660005260036020526001600160a01b0360406000205416151590565b61305c57948061305792612fd4612fcf61061e98996122fd565b600255565b612ff582611c35876001600160a01b03166000526004602052604060002090565b5061300e85611c53846000526003602052604060002090565b60007fb333c813a7426a7a11e2b190cad52c44119421594b47f6f32ace6d8c7207b2bf604051806130408a3383613103565b0390a4611167604051948592853360208601613151565b6139e5565b6040517f34c7b51100000000000000000000000000000000000000000000000000000000815260048101879052602490fd5b60046040517fe8ba2291000000000000000000000000000000000000000000000000000000008152fd5b6001600160a01b03806130ca84611b5c565b1691169081149182156130dc57505090565b61041692506000526005602052604060002060019160005201602052604060002054151590565b6060906001600160a01b0361041694931681526001602082015281604082015201906103e0565b61041693926001600160a01b036060931682521515602082015281604082015201906103e0565b9092610416949360a0936001600160a01b03809216845260006020850152166040830152606082015281608082015201906103e0565b9160a0936104169695926001600160a01b0392838092168652166020850152166040830152606082015281608082015201906103e0565b7f9afb95cacc9f95858ec44aa8c3b685511002e30ae54415823f406128b85b238e8114613204576000526001602052610842610416604060002060405192838092611642565b506040517ffa883c730000000000000000000000000000000000000000000000000000000081526001600160a01b037f00000000000000000000000000000000000000000000000000000000000000001660048201527f00000000000000000000000000000000000000000000000000000000000000006024820152600081806044810103816001600160a01b037f0000000000000000000000000000000000000000000000000000000000000000165afa9081156120b957600091612f13575090565b6001600160a01b036000541633036132dc57565b60246040517fbf1169c5000000000000000000000000000000000000000000000000000000008152336004820152fd5b907ff675e9361af1c1664c1868cfa3eb97672d6b1a513aa5b81dec34c9ee330e818d821461347a577fdeba1e292f8ba88238e10ab3c7f88bd4be4fac56cad5194b6ecceaf653468af182036133855760046040517f85c169bd000000000000000000000000000000000000000000000000000000008152fd5b7f2f0a68ab07768e01943a599e73362a0e17a63a72e94dd2e384d2c1d4db93275682036133d65760046040517f76755b38000000000000000000000000000000000000000000000000000000008152fd5b7fe0261fa95db2eb3b5439bd033cda66d56b96f92f243a8228fd87550ed7bdfdb382036134275760046040517f4ef6d7fb000000000000000000000000000000000000000000000000000000008152fd5b613475816134697fece574603820d07bc9b91f2a932baadf4628aabcb8afba49776529c14a6104b293613464866000526001602052604060002090565b61241d565b60405191829182610405565b0390a2565b60046040517f3664800a000000000000000000000000000000000000000000000000000000008152fd5b6001600160a01b03610416921690613b12565b90916040516020906020810190848252856040820152604081526134da816105d3565b51902060005260018060205260406000209183519167ffffffffffffffff8311610582576135128361350c8654611608565b866123c7565b602091601f84116001146135885750509161356a827fa6e4251f855f750545fe414f120db91c76b88def14d120969e5bb2d3f05debbb95936135789560009161357d575b508160011b916000199060031b1c19161790565b905560405191829182610405565b0390a3565b905084015138613556565b9190601f1984169061359f86600052602060002090565b936000915b83831061360657505050926135789492600192827fa6e4251f855f750545fe414f120db91c76b88def14d120969e5bb2d3f05debbb9896106135ed575b5050811b019055613469565b85015160001960f88460031b161c1916905538806135e1565b8885015186559485019493810193918101916135a4565b9193928460005260056020526040600020926001600160a01b03906136458282168096613c82565b1561369457509061368f7fc78cd419d6136f9f1c1c6aec1d3fae098cffaf8bc86314a8f2685e32fe574e3c93926040519384931515845260406020850152169560408301906103e0565b0390a4565b6040516312a8c6a360e21b81526001600160a01b0391909116600482015260248101879052604490fd5b9060349391816000823701916bffffffffffffffffffffffff199060601b16825260148201520190565b6001600160e01b0319600035169061372c612d36604051696773c5a04a6d4300884b60b11b60208201526000602a82015284602c82015260208152612d31816105b7565b8051601481141590816137db575b50612d7157613748906137e5565b60601c91821561379e5750600091829160405161377f81613771602082019434903390876136be565b03601f1981018352826105ef565b519134905af161378d611deb565b90156137965790565b602081519101fd5b6040517fbb370b2b0000000000000000000000000000000000000000000000000000000081526001600160e01b0319919091166004820152602490fd5b905015153861373a565b90602082519201516bffffffffffffffffffffffff1990818116936014811061380d57505050565b60140360031b82901b16169150565b6000602091604051838101906301ffc9a760e01b8252631aed5a8560e21b60248201526024815261384c816105d3565b5191617530fa6000513d8261386d575b5081613866575090565b9050151590565b6020111591503861385c565b6000906020926040516001600160e01b0319858201926301ffc9a760e01b84521660248201526024815261384c816105d3565b6000526001602052610842610416604060002060405192838092611642565b90600090808252600591602093600560205260409182812094855495825b8781106138fb57505050505050505050565b815415610a37578184526001600160a01b03808a86205416908751906139208261059b565b868252898752858c52613935838a8920613c82565b1561398757600193927fc78cd419d6136f9f1c1c6aec1d3fae098cffaf8bc86314a8f2685e32fe574e3c8d8961397e8e968e968e888051968796875286015216968301906103e0565b0390a4016138e9565b88516312a8c6a360e21b81526001600160a01b0384166004820152602481018b9052604490fd5b906040610416927f0b084a55ebf70fd3c06fd755269dac2212c4d3f0f4d09079780bfa50c1b2984d815281602082015201906103e0565b6139ee8161381c565b15613a4857613a1f6000916001600160a01b039383604051958680958194631aed5a8560e21b8352600483016139ae565b0393165af180156120b957613a315750565b613a45903d806000833e612a7081836105ef565b50565b5050565b9190613a578361381c565b15613a895750613a1f6001600160a01b039260009283604051958680958194631aed5a8560e21b8352600483016139ae565b905015613a935750565b803b15613ad6576040517f4349776d0000000000000000000000000000000000000000000000000000000081526001600160a01b03919091166004820152602490fd5b6040517f031731370000000000000000000000000000000000000000000000000000000081526001600160a01b03919091166004820152602490fd5b6000828152600182016020526040902054612d6a5780613b348360019361232a565b80549260005201602052604060002055600190565b613b528161381c565b613b5a575050565b613a1f6000916001600160a01b039383604051958680958194631aed5a8560e21b83527f8a1c15a8799f71b547e08e2bcb2e85257e81b0a07eee2ce6712549eef1f0097060048401526040602484015260448301906103e0565b613bbd8161381c565b613bc5575050565b613a1f6000916001600160a01b039383604051958680958194631aed5a8560e21b83527fb23eae7e6d1564b295b4c3e3be402d9a2f0776c57bdf365903496f6fa481ab0060048401526040602484015260448301906103e0565b602081519101519060208110613c33575090565b6000199060200360031b1b1690565b8054908115613c6c5760001991820191613c5c8383610a1f565b909182549160031b1b1916905555565b634e487b7160e01b600052603160045260246000fd5b6001810191806000528260205260406000205492831515600014613d2e576000199284840190858211612277578054948501948511612277576000958583613cd694613ce59803613ceb575b505050613c42565b90600052602052604060002090565b55600190565b613d15613d0f91613cff613d259487610a1f565b90549060031b1c92839187610a1f565b9061230c565b8590600052602052604060002090565b55388080613cce565b5050505060009056fea26469706673582212204aaa68f369c91a600a127f678a76cbe67f94f94f40d3cd5b4751a27c5b727b5464736f6c63430008180033deba1e292f8ba88238e10ab3c7f88bd4be4fac56cad5194b6ecceaf653468af1e0261fa95db2eb3b5439bd033cda66d56b96f92f243a8228fd87550ed7bdfdb3eafec4d89fa9619884b60000a4d96624a38f7ac2d8d9a604ecf07c12c77e480cf675e9361af1c1664c1868cfa3eb97672d6b1a513aa5b81dec34c9ee330e818d2f0a68ab07768e01943a599e73362a0e17a63a72e94dd2e384d2c1d4db932756114bd03b3a46d48759680d81ebb2b414fda7d030a7105a851867accf1c2352e7ece574603820d07bc9b91f2a932baadf4628aabcb8afba49776529c14a6104b2",
  "linkReferences": {},
  "deployedLinkReferences": {}
}