{
  "_format": "hh-sol-artifact-1",
  "contractName": "BurntPixArchives",
  "sourceName": "contracts/BurntPixArchives.sol",
  "abi": [
    {
      "inputs": [
        {
          "internalType": "address",
          "name": "_codehub",
          "type": "address"
        },
        {
          "internalType": "address",
          "name": "_archiveHelpers",
          "type": "address"
        },
        {
          "internalType": "address",
          "name": "_creator",
          "type": "address"
        },
        {
          "internalType": "bytes32",
          "name": "_burntPicId",
          "type": "bytes32"
        },
        {
          "internalType": "uint256",
          "name": "_maxSupply",
          "type": "uint256"
        },
        {
          "internalType": "uint256",
          "name": "_winnerIters",
          "type": "uint256"
        }
      ],
      "stateMutability": "nonpayable",
      "type": "constructor"
    },
    {
      "inputs": [],
      "name": "ERC725Y_DataKeysValuesEmptyArray",
      "type": "error"
    },
    {
      "inputs": [],
      "name": "ERC725Y_DataKeysValuesLengthMismatch",
      "type": "error"
    },
    {
      "inputs": [],
      "name": "ERC725Y_MsgValueDisallowed",
      "type": "error"
    },
    {
      "inputs": [
        {
          "internalType": "bytes",
          "name": "storedData",
          "type": "bytes"
        }
      ],
      "name": "InvalidExtensionAddress",
      "type": "error"
    },
    {
      "inputs": [
        {
          "internalType": "bytes",
          "name": "data",
          "type": "bytes"
        }
      ],
      "name": "InvalidFunctionSelector",
      "type": "error"
    },
    {
      "inputs": [],
      "name": "LSP4TokenNameNotEditable",
      "type": "error"
    },
    {
      "inputs": [],
      "name": "LSP4TokenSymbolNotEditable",
      "type": "error"
    },
    {
      "inputs": [],
      "name": "LSP4TokenTypeNotEditable",
      "type": "error"
    },
    {
      "inputs": [
        {
          "internalType": "uint256",
          "name": "callIndex",
          "type": "uint256"
        }
      ],
      "name": "LSP8BatchCallFailed",
      "type": "error"
    },
    {
      "inputs": [],
      "name": "LSP8CannotSendToAddressZero",
      "type": "error"
    },
    {
      "inputs": [],
      "name": "LSP8CannotUseAddressZeroAsOperator",
      "type": "error"
    },
    {
      "inputs": [],
      "name": "LSP8CappedSupplyCannotMintOverCap",
      "type": "error"
    },
    {
      "inputs": [],
      "name": "LSP8CappedSupplyRequired",
      "type": "error"
    },
    {
      "inputs": [],
      "name": "LSP8InvalidTransferBatch",
      "type": "error"
    },
    {
      "inputs": [
        {
          "internalType": "bytes32",
          "name": "tokenId",
          "type": "bytes32"
        }
      ],
      "name": "LSP8NonExistentTokenId",
      "type": "error"
    },
    {
      "inputs": [
        {
          "internalType": "address",
          "name": "operator",
          "type": "address"
        },
        {
          "internalType": "bytes32",
          "name": "tokenId",
          "type": "bytes32"
        }
      ],
      "name": "LSP8NonExistingOperator",
      "type": "error"
    },
    {
      "inputs": [
        {
          "internalType": "bytes32",
          "name": "tokenId",
          "type": "bytes32"
        },
        {
          "internalType": "address",
          "name": "caller",
          "type": "address"
        }
      ],
      "name": "LSP8NotTokenOperator",
      "type": "error"
    },
    {
      "inputs": [
        {
          "internalType": "address",
          "name": "tokenOwner",
          "type": "address"
        },
        {
          "internalType": "bytes32",
          "name": "tokenId",
          "type": "bytes32"
        },
        {
          "internalType": "address",
          "name": "caller",
          "type": "address"
        }
      ],
      "name": "LSP8NotTokenOwner",
      "type": "error"
    },
    {
      "inputs": [
        {
          "internalType": "address",
          "name": "tokenReceiver",
          "type": "address"
        }
      ],
      "name": "LSP8NotifyTokenReceiverContractMissingLSP1Interface",
      "type": "error"
    },
    {
      "inputs": [
        {
          "internalType": "address",
          "name": "tokenReceiver",
          "type": "address"
        }
      ],
      "name": "LSP8NotifyTokenReceiverIsEOA",
      "type": "error"
    },
    {
      "inputs": [
        {
          "internalType": "address",
          "name": "operator",
          "type": "address"
        },
        {
          "internalType": "bytes32",
          "name": "tokenId",
          "type": "bytes32"
        }
      ],
      "name": "LSP8OperatorAlreadyAuthorized",
      "type": "error"
    },
    {
      "inputs": [
        {
          "internalType": "address",
          "name": "caller",
          "type": "address"
        },
        {
          "internalType": "address",
          "name": "tokenOwner",
          "type": "address"
        },
        {
          "internalType": "bytes32",
          "name": "tokenId",
          "type": "bytes32"
        }
      ],
      "name": "LSP8RevokeOperatorNotAuthorized",
      "type": "error"
    },
    {
      "inputs": [],
      "name": "LSP8TokenContractCannotHoldValue",
      "type": "error"
    },
    {
      "inputs": [
        {
          "internalType": "bytes32",
          "name": "tokenId",
          "type": "bytes32"
        }
      ],
      "name": "LSP8TokenIdAlreadyMinted",
      "type": "error"
    },
    {
      "inputs": [],
      "name": "LSP8TokenIdFormatNotEditable",
      "type": "error"
    },
    {
      "inputs": [],
      "name": "LSP8TokenIdsDataEmptyArray",
      "type": "error"
    },
    {
      "inputs": [],
      "name": "LSP8TokenIdsDataLengthMismatch",
      "type": "error"
    },
    {
      "inputs": [],
      "name": "LSP8TokenOwnerCannotBeOperator",
      "type": "error"
    },
    {
      "inputs": [
        {
          "internalType": "bytes32",
          "name": "tokenId",
          "type": "bytes32"
        },
        {
          "internalType": "address",
          "name": "oldOwner",
          "type": "address"
        },
        {
          "internalType": "address",
          "name": "newOwner",
          "type": "address"
        }
      ],
      "name": "LSP8TokenOwnerChanged",
      "type": "error"
    },
    {
      "inputs": [
        {
          "internalType": "bytes4",
          "name": "functionSelector",
          "type": "bytes4"
        }
      ],
      "name": "NoExtensionFoundForFunctionSelector",
      "type": "error"
    },
    {
      "inputs": [
        {
          "internalType": "address",
          "name": "callerAddress",
          "type": "address"
        }
      ],
      "name": "OwnableCallerNotTheOwner",
      "type": "error"
    },
    {
      "inputs": [],
      "name": "OwnableCannotSetZeroAddressAsOwner",
      "type": "error"
    },
    {
      "anonymous": false,
      "inputs": [
        {
          "indexed": true,
          "internalType": "bytes32",
          "name": "dataKey",
          "type": "bytes32"
        },
        {
          "indexed": false,
          "internalType": "bytes",
          "name": "dataValue",
          "type": "bytes"
        }
      ],
      "name": "DataChanged",
      "type": "event"
    },
    {
      "anonymous": false,
      "inputs": [
        {
          "indexed": true,
          "internalType": "address",
          "name": "operator",
          "type": "address"
        },
        {
          "indexed": true,
          "internalType": "address",
          "name": "tokenOwner",
          "type": "address"
        },
        {
          "indexed": true,
          "internalType": "bytes32",
          "name": "tokenId",
          "type": "bytes32"
        },
        {
          "indexed": false,
          "internalType": "bytes",
          "name": "operatorNotificationData",
          "type": "bytes"
        }
      ],
      "name": "OperatorAuthorizationChanged",
      "type": "event"
    },
    {
      "anonymous": false,
      "inputs": [
        {
          "indexed": true,
          "internalType": "address",
          "name": "operator",
          "type": "address"
        },
        {
          "indexed": true,
          "internalType": "address",
          "name": "tokenOwner",
          "type": "address"
        },
        {
          "indexed": true,
          "internalType": "bytes32",
          "name": "tokenId",
          "type": "bytes32"
        },
        {
          "indexed": false,
          "internalType": "bool",
          "name": "notified",
          "type": "bool"
        },
        {
          "indexed": false,
          "internalType": "bytes",
          "name": "operatorNotificationData",
          "type": "bytes"
        }
      ],
      "name": "OperatorRevoked",
      "type": "event"
    },
    {
      "anonymous": false,
      "inputs": [
        {
          "indexed": true,
          "internalType": "address",
          "name": "previousOwner",
          "type": "address"
        },
        {
          "indexed": true,
          "internalType": "address",
          "name": "newOwner",
          "type": "address"
        }
      ],
      "name": "OwnershipTransferred",
      "type": "event"
    },
    {
      "anonymous": false,
      "inputs": [
        {
          "indexed": true,
          "internalType": "bytes32",
          "name": "tokenId",
          "type": "bytes32"
        },
        {
          "indexed": true,
          "internalType": "bytes32",
          "name": "dataKey",
          "type": "bytes32"
        },
        {
          "indexed": false,
          "internalType": "bytes",
          "name": "dataValue",
          "type": "bytes"
        }
      ],
      "name": "TokenIdDataChanged",
      "type": "event"
    },
    {
      "anonymous": false,
      "inputs": [
        {
          "indexed": false,
          "internalType": "address",
          "name": "operator",
          "type": "address"
        },
        {
          "indexed": true,
          "internalType": "address",
          "name": "from",
          "type": "address"
        },
        {
          "indexed": true,
          "internalType": "address",
          "name": "to",
          "type": "address"
        },
        {
          "indexed": true,
          "internalType": "bytes32",
          "name": "tokenId",
          "type": "bytes32"
        },
        {
          "indexed": false,
          "internalType": "bool",
          "name": "force",
          "type": "bool"
        },
        {
          "indexed": false,
          "internalType": "bytes",
          "name": "data",
          "type": "bytes"
        }
      ],
      "name": "Transfer",
      "type": "event"
    },
    {
      "stateMutability": "payable",
      "type": "fallback"
    },
    {
      "inputs": [],
      "name": "archiveCount",
      "outputs": [
        {
          "internalType": "uint256",
          "name": "",
          "type": "uint256"
        }
      ],
      "stateMutability": "view",
      "type": "function"
    },
    {
      "inputs": [],
      "name": "archiveHelpers",
      "outputs": [
        {
          "internalType": "address",
          "name": "",
          "type": "address"
        }
      ],
      "stateMutability": "view",
      "type": "function"
    },
    {
      "inputs": [
        {
          "internalType": "address",
          "name": "operator",
          "type": "address"
        },
        {
          "internalType": "bytes32",
          "name": "tokenId",
          "type": "bytes32"
        },
        {
          "internalType": "bytes",
          "name": "operatorNotificationData",
          "type": "bytes"
        }
      ],
      "name": "authorizeOperator",
      "outputs": [],
      "stateMutability": "nonpayable",
      "type": "function"
    },
    {
      "inputs": [
        {
          "internalType": "address",
          "name": "tokenOwner",
          "type": "address"
        }
      ],
      "name": "balanceOf",
      "outputs": [
        {
          "internalType": "uint256",
          "name": "",
          "type": "uint256"
        }
      ],
      "stateMutability": "view",
      "type": "function"
    },
    {
      "inputs": [
        {
          "internalType": "bytes[]",
          "name": "data",
          "type": "bytes[]"
        }
      ],
      "name": "batchCalls",
      "outputs": [
        {
          "internalType": "bytes[]",
          "name": "results",
          "type": "bytes[]"
        }
      ],
      "stateMutability": "nonpayable",
      "type": "function"
    },
    {
      "inputs": [
        {
          "internalType": "bytes32",
          "name": "",
          "type": "bytes32"
        }
      ],
      "name": "burntArchives",
      "outputs": [
        {
          "internalType": "bytes",
          "name": "image",
          "type": "bytes"
        },
        {
          "internalType": "uint256",
          "name": "iterations",
          "type": "uint256"
        },
        {
          "internalType": "uint256",
          "name": "level",
          "type": "uint256"
        },
        {
          "internalType": "uint256",
          "name": "blockNumber",
          "type": "uint256"
        },
        {
          "internalType": "address",
          "name": "creator",
          "type": "address"
        }
      ],
      "stateMutability": "view",
      "type": "function"
    },
    {
      "inputs": [],
      "name": "burntPicId",
      "outputs": [
        {
          "internalType": "bytes32",
          "name": "",
          "type": "bytes32"
        }
      ],
      "stateMutability": "view",
      "type": "function"
    },
    {
      "inputs": [
        {
          "internalType": "address",
          "name": "",
          "type": "address"
        }
      ],
      "name": "contributions",
      "outputs": [
        {
          "internalType": "uint256",
          "name": "iterations",
          "type": "uint256"
        }
      ],
      "stateMutability": "view",
      "type": "function"
    },
    {
      "inputs": [
        {
          "internalType": "uint256",
          "name": "",
          "type": "uint256"
        }
      ],
      "name": "contributors",
      "outputs": [
        {
          "internalType": "address",
          "name": "",
          "type": "address"
        }
      ],
      "stateMutability": "view",
      "type": "function"
    },
    {
      "inputs": [],
      "name": "currentHighestLevel",
      "outputs": [
        {
          "internalType": "uint256",
          "name": "",
          "type": "uint256"
        }
      ],
      "stateMutability": "view",
      "type": "function"
    },
    {
      "inputs": [],
      "name": "fractalClone",
      "outputs": [
        {
          "internalType": "address",
          "name": "",
          "type": "address"
        }
      ],
      "stateMutability": "view",
      "type": "function"
    },
    {
      "inputs": [
        {
          "internalType": "address",
          "name": "contributor",
          "type": "address"
        }
      ],
      "name": "getArchives",
      "outputs": [
        {
          "internalType": "bytes32[]",
          "name": "",
          "type": "bytes32[]"
        }
      ],
      "stateMutability": "view",
      "type": "function"
    },
    {
      "inputs": [
        {
          "internalType": "address[]",
          "name": "targetContributors",
          "type": "address[]"
        }
      ],
      "name": "getContributions",
      "outputs": [
        {
          "internalType": "uint256[]",
          "name": "",
          "type": "uint256[]"
        }
      ],
      "stateMutability": "view",
      "type": "function"
    },
    {
      "inputs": [],
      "name": "getContributors",
      "outputs": [
        {
          "internalType": "address[]",
          "name": "",
          "type": "address[]"
        }
      ],
      "stateMutability": "view",
      "type": "function"
    },
    {
      "inputs": [
        {
          "internalType": "bytes32",
          "name": "dataKey",
          "type": "bytes32"
        }
      ],
      "name": "getData",
      "outputs": [
        {
          "internalType": "bytes",
          "name": "dataValue",
          "type": "bytes"
        }
      ],
      "stateMutability": "view",
      "type": "function"
    },
    {
      "inputs": [
        {
          "internalType": "bytes32[]",
          "name": "dataKeys",
          "type": "bytes32[]"
        }
      ],
      "name": "getDataBatch",
      "outputs": [
        {
          "internalType": "bytes[]",
          "name": "dataValues",
          "type": "bytes[]"
        }
      ],
      "stateMutability": "view",
      "type": "function"
    },
    {
      "inputs": [
        {
          "internalType": "bytes32[]",
          "name": "tokenIds",
          "type": "bytes32[]"
        },
        {
          "internalType": "bytes32[]",
          "name": "dataKeys",
          "type": "bytes32[]"
        }
      ],
      "name": "getDataBatchForTokenIds",
      "outputs": [
        {
          "internalType": "bytes[]",
          "name": "dataValues",
          "type": "bytes[]"
        }
      ],
      "stateMutability": "view",
      "type": "function"
    },
    {
      "inputs": [
        {
          "internalType": "bytes32",
          "name": "tokenId",
          "type": "bytes32"
        },
        {
          "internalType": "bytes32",
          "name": "dataKey",
          "type": "bytes32"
        }
      ],
      "name": "getDataForTokenId",
      "outputs": [
        {
          "internalType": "bytes",
          "name": "dataValue",
          "type": "bytes"
        }
      ],
      "stateMutability": "view",
      "type": "function"
    },
    {
      "inputs": [
        {
          "internalType": "bytes32",
          "name": "tokenId",
          "type": "bytes32"
        }
      ],
      "name": "getOperatorsOf",
      "outputs": [
        {
          "internalType": "address[]",
          "name": "",
          "type": "address[]"
        }
      ],
      "stateMutability": "view",
      "type": "function"
    },
    {
      "inputs": [],
      "name": "getTotalContributors",
      "outputs": [
        {
          "internalType": "uint256",
          "name": "",
          "type": "uint256"
        }
      ],
      "stateMutability": "view",
      "type": "function"
    },
    {
      "inputs": [],
      "name": "getTotalFeesBurnt",
      "outputs": [
        {
          "internalType": "uint256",
          "name": "",
          "type": "uint256"
        }
      ],
      "stateMutability": "view",
      "type": "function"
    },
    {
      "inputs": [],
      "name": "getTotalIterations",
      "outputs": [
        {
          "internalType": "uint256",
          "name": "",
          "type": "uint256"
        }
      ],
      "stateMutability": "view",
      "type": "function"
    },
    {
      "inputs": [
        {
          "internalType": "address",
          "name": "operator",
          "type": "address"
        },
        {
          "internalType": "bytes32",
          "name": "tokenId",
          "type": "bytes32"
        }
      ],
      "name": "isOperatorFor",
      "outputs": [
        {
          "internalType": "bool",
          "name": "",
          "type": "bool"
        }
      ],
      "stateMutability": "view",
      "type": "function"
    },
    {
      "inputs": [],
      "name": "isOriginalUnclaimed",
      "outputs": [
        {
          "internalType": "bool",
          "name": "",
          "type": "bool"
        }
      ],
      "stateMutability": "view",
      "type": "function"
    },
    {
      "inputs": [
        {
          "internalType": "bytes32",
          "name": "archiveId",
          "type": "bytes32"
        },
        {
          "internalType": "address",
          "name": "to",
          "type": "address"
        }
      ],
      "name": "mintArchive",
      "outputs": [],
      "stateMutability": "nonpayable",
      "type": "function"
    },
    {
      "inputs": [],
      "name": "owner",
      "outputs": [
        {
          "internalType": "address",
          "name": "",
          "type": "address"
        }
      ],
      "stateMutability": "view",
      "type": "function"
    },
    {
      "inputs": [
        {
          "internalType": "uint256",
          "name": "iters",
          "type": "uint256"
        }
      ],
      "name": "refineToArchive",
      "outputs": [],
      "stateMutability": "nonpayable",
      "type": "function"
    },
    {
      "inputs": [
        {
          "internalType": "uint256",
          "name": "iters",
          "type": "uint256"
        },
        {
          "internalType": "address",
          "name": "contributor",
          "type": "address"
        }
      ],
      "name": "refineToArchive",
      "outputs": [],
      "stateMutability": "nonpayable",
      "type": "function"
    },
    {
      "inputs": [],
      "name": "renounceOwnership",
      "outputs": [],
      "stateMutability": "nonpayable",
      "type": "function"
    },
    {
      "inputs": [
        {
          "internalType": "address",
          "name": "operator",
          "type": "address"
        },
        {
          "internalType": "bytes32",
          "name": "tokenId",
          "type": "bytes32"
        },
        {
          "internalType": "bool",
          "name": "notify",
          "type": "bool"
        },
        {
          "internalType": "bytes",
          "name": "operatorNotificationData",
          "type": "bytes"
        }
      ],
      "name": "revokeOperator",
      "outputs": [],
      "stateMutability": "nonpayable",
      "type": "function"
    },
    {
      "inputs": [
        {
          "internalType": "bytes32",
          "name": "dataKey",
          "type": "bytes32"
        },
        {
          "internalType": "bytes",
          "name": "dataValue",
          "type": "bytes"
        }
      ],
      "name": "setData",
      "outputs": [],
      "stateMutability": "payable",
      "type": "function"
    },
    {
      "inputs": [
        {
          "internalType": "bytes32[]",
          "name": "dataKeys",
          "type": "bytes32[]"
        },
        {
          "internalType": "bytes[]",
          "name": "dataValues",
          "type": "bytes[]"
        }
      ],
      "name": "setDataBatch",
      "outputs": [],
      "stateMutability": "payable",
      "type": "function"
    },
    {
      "inputs": [
        {
          "internalType": "bytes32[]",
          "name": "tokenIds",
          "type": "bytes32[]"
        },
        {
          "internalType": "bytes32[]",
          "name": "dataKeys",
          "type": "bytes32[]"
        },
        {
          "internalType": "bytes[]",
          "name": "dataValues",
          "type": "bytes[]"
        }
      ],
      "name": "setDataBatchForTokenIds",
      "outputs": [],
      "stateMutability": "nonpayable",
      "type": "function"
    },
    {
      "inputs": [
        {
          "internalType": "bytes32",
          "name": "tokenId",
          "type": "bytes32"
        },
        {
          "internalType": "bytes32",
          "name": "dataKey",
          "type": "bytes32"
        },
        {
          "internalType": "bytes",
          "name": "dataValue",
          "type": "bytes"
        }
      ],
      "name": "setDataForTokenId",
      "outputs": [],
      "stateMutability": "nonpayable",
      "type": "function"
    },
    {
      "inputs": [
        {
          "internalType": "bytes4",
          "name": "interfaceId",
          "type": "bytes4"
        }
      ],
      "name": "supportsInterface",
      "outputs": [
        {
          "internalType": "bool",
          "name": "",
          "type": "bool"
        }
      ],
      "stateMutability": "view",
      "type": "function"
    },
    {
      "inputs": [
        {
          "internalType": "address",
          "name": "tokenOwner",
          "type": "address"
        }
      ],
      "name": "tokenIdsOf",
      "outputs": [
        {
          "internalType": "bytes32[]",
          "name": "",
          "type": "bytes32[]"
        }
      ],
      "stateMutability": "view",
      "type": "function"
    },
    {
      "inputs": [
        {
          "internalType": "bytes32",
          "name": "tokenId",
          "type": "bytes32"
        }
      ],
      "name": "tokenOwnerOf",
      "outputs": [
        {
          "internalType": "address",
          "name": "",
          "type": "address"
        }
      ],
      "stateMutability": "view",
      "type": "function"
    },
    {
      "inputs": [],
      "name": "tokenSupplyCap",
      "outputs": [
        {
          "internalType": "uint256",
          "name": "",
          "type": "uint256"
        }
      ],
      "stateMutability": "view",
      "type": "function"
    },
    {
      "inputs": [],
      "name": "totalSupply",
      "outputs": [
        {
          "internalType": "uint256",
          "name": "",
          "type": "uint256"
        }
      ],
      "stateMutability": "view",
      "type": "function"
    },
    {
      "inputs": [
        {
          "internalType": "address",
          "name": "from",
          "type": "address"
        },
        {
          "internalType": "address",
          "name": "to",
          "type": "address"
        },
        {
          "internalType": "bytes32",
          "name": "tokenId",
          "type": "bytes32"
        },
        {
          "internalType": "bool",
          "name": "force",
          "type": "bool"
        },
        {
          "internalType": "bytes",
          "name": "data",
          "type": "bytes"
        }
      ],
      "name": "transfer",
      "outputs": [],
      "stateMutability": "nonpayable",
      "type": "function"
    },
    {
      "inputs": [
        {
          "internalType": "address[]",
          "name": "from",
          "type": "address[]"
        },
        {
          "internalType": "address[]",
          "name": "to",
          "type": "address[]"
        },
        {
          "internalType": "bytes32[]",
          "name": "tokenId",
          "type": "bytes32[]"
        },
        {
          "internalType": "bool[]",
          "name": "force",
          "type": "bool[]"
        },
        {
          "internalType": "bytes[]",
          "name": "data",
          "type": "bytes[]"
        }
      ],
      "name": "transferBatch",
      "outputs": [],
      "stateMutability": "nonpayable",
      "type": "function"
    },
    {
      "inputs": [
        {
          "internalType": "address",
          "name": "newOwner",
          "type": "address"
        }
      ],
      "name": "transferOwnership",
      "outputs": [],
      "stateMutability": "nonpayable",
      "type": "function"
    },
    {
      "inputs": [],
      "name": "winnerIters",
      "outputs": [
        {
          "internalType": "uint256",
          "name": "",
          "type": "uint256"
        }
      ],
      "stateMutability": "view",
      "type": "function"
    },
    {
      "stateMutability": "payable",
      "type": "receive"
    }
  ],
  "bytecode": "0x6101208060405234620010ff5760c081620056d780380380916200002482856200161f565b833981010312620010ff576200003a8162001643565b90620000496020820162001643565b91620000586040830162001643565b92606083015160a0608085015194015193604051620000778162001603565b601c81527f4275726e74205069782041726368697665733a20536561736f6e203100000000602082015260405190620000b08262001603565b60068252654255524e543160d01b60208301523315620015f1576000546001600160a01b03811633819003620015b3575b5050604051620000f18162001603565b60048152632936598960e21b602080830191909152600080516020620056378339815191526000526001905280517f072b2e8bf50bc459a586397c8474185d5dad5ea3d82533658159d53147c7bb39906001600160401b03811162000d7a578154600181811c91168015620015a8575b602082101462000d5957601f81116200155f575b506020601f8211600114620014e85792600080516020620056b78339815191529282620001d793600080516020620056378339815191529660009162000c80575b508160011b916000199060031b1c19161790555b6040519182918262001658565b0390a2600080516020620055f7833981519152600052600160205280517f2a367ae1ac46d529739aa27ac74856f860e70af05d3642d18ba60fd5d32a069a906001600160401b03811162000d7a578154600181811c91168015620014dd575b602082101462000d5957601f811162001494575b506020601f82116001146200141d5792600080516020620056b78339815191529282620002aa93600080516020620055f78339815191529660009162000c8057508160011b916000199060031b1c19161790556040519182918262001658565b0390a260008051602062005677833981519152600052600160205280517f83b322886c7b7e25779e5d38e06e005c9e7aba1e1267ce9210cf24e31833535a906001600160401b03811162000d7a578154600181811c9116801562001412575b602082101462000d5957601f8111620013c9575b506020601f8211600114620013525792600080516020620056b783398151915292826200037d93600080516020620056778339815191529660009162000c8057508160011b916000199060031b1c19161790556040519182918262001658565b0390a26040516002602082015260208152620003998162001603565b60008051602062005617833981519152600052600160205280517ff73b01b344a9bb3b96525b0cb731f6b14cde20ce6cecea8459266944490b411f906001600160401b03811162000d7a578154600181811c9116801562001347575b602082101462000d5957601f8111620012fe575b506020601f8211600114620012875792600080516020620056b783398151915292826200046993600080516020620056178339815191529660009162000c8057508160011b916000199060031b1c19161790556040519182918262001658565b0390a26040516000602082015260208152620004858162001603565b60008051602062005657833981519152600052600160205280517f01f5eb934e794ddcc86b89a579078013860f8fe92140885511742594f219ad0b906001600160401b03811162000d7a578154600181811c911680156200127c575b602082101462000d5957601f811162001233575b506020601f8211600114620011bc5792600080516020620056b783398151915292826200055593600080516020620056578339815191529660009162000c8057508160011b916000199060031b1c19161790556040519182918262001658565b0390a28015620011aa576080526001600855604051637b10399960e01b8152936020856004816001600160a01b0386165afa9485156200110d5760009562001162575b5060c083905260e082905261010052604051632468294560e11b81526001600160a01b0391821660048201529360209185916024918391165afa9283156200110d5760009362001119575b5060405163319c665560e01b81523060048201526001600160a01b03928316602482015263ffffffff909316604484015260209183916064918391600091165af19081156200110d57600091620010c6575b5060a05260405190620006488262001603565b60108252600160801b60208084019190915260008051602062005697833981519152600052600190528151917fde5f0adbf2cf136848982dd95860bdc3e6d8709a8a51ce1295c645c6da617db76001600160401b03841162000d7a578054600181811c91168015620010bb575b602082101462000d5957601f811162001072575b50602093601f811160011462000ffb57916200072b9183600080516020620056b78339815191529460008051602062005697833981519152969760009162000c8057508160011b916000199060031b1c19161790556040519182918262001658565b0390a2604051606082901b6001600160601b03191660208201526014815290620007558262001603565b6f0452f40ece91b521d65a03607aecad0560821b60005260016020528151917fadf994b8d5b80a46660e628eabff2156c328d301fe5ea8e44cf09dee1b43e5126001600160401b03841162000d7a578054600181811c9116801562000ff0575b602082101462000d5957601f811162000fa7575b50602093601f811160011462000f3b57809192939460009162000f2f575b508160011b916000199060031b1c19161790555b600080516020620056b7833981519152604051806200082f6f0452f40ece91b521d65a03607aecad0560821b948262001658565b0390a260405169036f42f57aecc15a72ed60b51b60208083019182526000602a840152606084901b6001600160601b031916602c840152825290620008748162001603565b519051906020811062000f1c575b509060405191620008938362001603565b601483526324871b3d60e01b602084018190529260008051602062005657833981519152821462000f0a57600080516020620055f78339815191528203620008e7576040516385c169bd60e01b8152600490fd5b6000805160206200567783398151915282036200091057604051630eceab6760e31b8152600490fd5b6000805160206200561783398151915282036200093957604051634ef6d7fb60e01b8152600490fd5b600082815260016020526040902081516001600160401b03811162000d7a578154600181811c9116801562000eff575b602082101462000d5957601f811162000eb2575b506020601f821160011462000e4d579181600080516020620056b78339815191529492620009cd9460009162000c8057508160011b916000199060031b1c19161790556040519182918262001658565b0390a2604051600760f21b6020820152602281019290925260601b6001600160601b031916602682015261027160e31b603a820152601e815262000a118162001603565b7fc0569ca6c9180acc2c3590f36330a36ae19015a19f4e85c28a7631e3317e6b9d600081905260016020528151917f715c60721fcb432a46c53ac3ceeefe86aa51a6c564859a02664da1de59a8cd606001600160401b03841162000d7a578054600181811c9116801562000e42575b602082101462000d5957601f811162000df5575b50602093601f811160011462000d9057908162000ae69392600080516020620056b7833981519152959660009162000c8057508160011b916000199060031b1c19161790556040519182918262001658565b0390a260405162000af78162001603565b6001808252600160f81b6020808401919091527f580d62ad353782eca17b89e5900e7df3b13b6f4ca9bbc2f8af8bceb0c3d1ecc660008190529190528151917f5e76a7f64a9621e22ad92c14e6ce74c38bd120088a539660dc579eab8430b2f46001600160401b03841162000d7a578054600181811c9116801562000d6f575b602082101462000d5957601f811162000d0c575b50602093601f811160011462000c8c57908162000bdd9392600080516020620056b7833981519152959660009162000c8057508160011b916000199060031b1c19161790556040519182918262001658565b0390a2604051613f539081620016a48239608051818181610e320152613122015260a0518181816104c601528181610bef01528181610fcd015281816128c0015261342b015260c0518181816114ad01528181612a8d015281816130c5015261347a015260e05181818161100e015281816119e7015281816121d00152818161283b01528181613097015261345301526101005181818161144301526129d60152f35b905083015138620001b6565b601f1981168260005260206000209060005b81811062000cf3575091600191600080516020620056b783398151915296978262000bdd9796951062000cd9575b5050811b019055620001ca565b85015160001960f88460031b161c19169055388062000ccc565b8588015183556020978801976001909301920162000c9e565b816000526020600020601f860160051c8101916020871062000d4e575b601f0160051c01905b81811062000d41575062000b8b565b6000815560010162000d32565b909150819062000d29565b634e487b7160e01b600052602260045260246000fd5b90607f169062000b77565b634e487b7160e01b600052604160045260246000fd5b601f1981168260005260206000209060005b81811062000ddc575091600191600080516020620056b783398151915296978262000ae69796951062000cd9575050811b019055620001ca565b8588015183556020978801976001909301920162000da2565b816000526020600020601f860160051c8101916020871062000e37575b601f0160051c01905b81811062000e2a575062000a94565b6000815560010162000e1b565b909150819062000e12565b90607f169062000a80565b601f198216908360005260206000209160005b81811062000e99575092620009cd949260019282600080516020620056b783398151915298961062000cd9575050811b019055620001ca565b9192602060018192868a01518155019401920162000e60565b826000526020600020601f830160051c8101916020841062000ef4575b601f0160051c01905b81811062000ee757506200097d565b6000815560010162000ed8565b909150819062000ecf565b90607f169062000969565b604051631b32400560e11b8152600490fd5b6000199060200360031b1b163862000882565b905083015138620007e7565b81600052602060002060005b601f198316811062000f8e575060019293949582601f1981161062000f74575b5050811b019055620007fb565b85015160001960f88460031b161c19169055388062000f67565b8487015182556020968701966001909201910162000f47565b816000526020600020601f860160051c81016020871062000fe8575b601f830160051c8201811062000fdb575050620007c9565b6000815560010162000fc3565b508062000fc3565b90607f1690620007b5565b81600052602060002060005b601f1983168110620010595750916001826200072b94600080516020620056978339815191529798600080516020620056b78339815191529795601f1981161062000cd9575050811b019055620001ca565b8487015182556020968701966001909201910162001007565b816000526020600020601f860160051c810160208710620010b3575b601f830160051c82018110620010a6575050620006c9565b600081556001016200108e565b50806200108e565b90607f1690620006b5565b90506020813d60201162001104575b81620010e4602093836200161f565b81010312620010ff57620010f89062001643565b3862000635565b600080fd5b3d9150620010d5565b6040513d6000823e3d90fd5b9092506020813d60201162001159575b8162001138602093836200161f565b81010312620010ff57519163ffffffff83168303620010ff576064620005e3565b3d915062001129565b919094506020823d602011620011a1575b8162001182602093836200161f565b81010312620010ff576200119860209262001643565b94909162000598565b3d915062001173565b60405163038d9fc360e41b8152600490fd5b8260005260206000209060005b601f19841681106200121a575092600183600080516020620056578339815191529693600080516020620056b7833981519152966200055596601f1981161062000cd9575050811b019055620001ca565b90916020600181928589015181550193019101620011c9565b826000526020600020601f830160051c81016020841062001274575b601f830160051c8201811062001267575050620004f5565b600081556001016200124f565b50806200124f565b90607f1690620004e1565b8260005260206000209060005b601f1984168110620012e5575092600183600080516020620056178339815191529693600080516020620056b7833981519152966200046996601f1981161062000cd9575050811b019055620001ca565b9091602060018192858901518155019301910162001294565b826000526020600020601f830160051c8101602084106200133f575b601f830160051c820181106200133257505062000409565b600081556001016200131a565b50806200131a565b90607f1690620003f5565b8260005260206000209060005b601f1984168110620013b0575092600183600080516020620056778339815191529693600080516020620056b7833981519152966200037d96601f1981161062000cd9575050811b019055620001ca565b909160206001819285890151815501930191016200135f565b826000526020600020601f830160051c8101602084106200140a575b601f830160051c82018110620013fd5750506200031d565b60008155600101620013e5565b5080620013e5565b90607f169062000309565b8260005260206000209060005b601f19841681106200147b575092600183600080516020620055f78339815191529693600080516020620056b783398151915296620002aa96601f1981161062000cd9575050811b019055620001ca565b909160206001819285890151815501930191016200142a565b826000526020600020601f830160051c810160208410620014d5575b601f830160051c82018110620014c85750506200024a565b60008155600101620014b0565b5080620014b0565b90607f169062000236565b8260005260206000209060005b601f198416811062001546575092600183600080516020620056378339815191529693600080516020620056b783398151915296620001d796601f1981161062000cd9575050811b019055620001ca565b90916020600181928589015181550193019101620014f5565b826000526020600020601f830160051c810160208410620015a0575b601f830160051c820181106200159357505062000175565b600081556001016200157b565b50806200157b565b90607f169062000161565b33907f8be0079c531659141344cd1fd0a4f28419497f9722a3daafe3b4186f6b6457e0600080a36001600160a01b03191633176000553880620000e1565b6040516306b620db60e21b8152600490fd5b604081019081106001600160401b0382111762000d7a57604052565b601f909101601f19168101906001600160401b0382119082101762000d7a57604052565b51906001600160a01b0382168203620010ff57565b6020808252825181830181905290939260005b8281106200168e57505060409293506000838284010152601f8019910116010190565b8181018601518482016040015285016200166b56fe6080604052600436101561002a575b36156100255761001d36612e8c565b602081519101f35b612e36565b60003560e01c806301ffc9a7146102da57806316e023b3146102d557806318160ddd146102d05780631971f4be146102cb5780631ba1e3ea146102c65780631d26fce6146102c15780631d2aeefc146102bc5780631ff5db4a146102b7578063217b2270146102b25780632a3654a4146102ad5780633aee5302146102a85780633cb5d100146102a357806342e94c901461029e5780634488623e1461029957806349a6078d146102945780634df8e7f61461028f578063511b69521461028a57806352058d8a1461028557806354f6127f146102805780636963d4381461027b57806370a0823114610276578063715018a61461027157806376d70ca71461026c5780637e0ab786146102675780637e87632c146102625780637f23690c1461025d57806386a10ddd146102585780638d24306e146102535780638da5cb5b1461024e57806390eb6bf0146102495780639790242114610244578063a3b261f21461023f578063a47aa2d41461023a578063ac70093814610235578063af157c1914610230578063be9f0e6f1461022b578063d09f347314610226578063d6c1407c14610221578063da16e4541461021c578063db8c966314610217578063dc58a56c14610212578063dedff9c61461020d5763f2fde38b0361000e57611bc4565b611b3c565b611b1e565b611a0a565b6119cf565b611988565b611905565b611711565b61168d565b61166f565b611647565b6115c8565b6114d1565b61148d565b611466565b61142b565b611290565b61123a565b6111a0565b61109c565b610f82565b610f18565b610eda565b610e74565b610e55565b610e1a565b610db7565b610d27565b610c58565b610bcf565b610b8e565b610b34565b610a4c565b610971565b610942565b6108a0565b610881565b6107b8565b610581565b610498565b61047a565b610439565b346103d85760203660031901126103d8576004356001600160e01b031981168082036103d85761034a917f3a27170600000000000000000000000000000000000000000000000000000000821491821561035e575b50811561034e575b5060405190151581529081906020820190565b0390f35b6103589150612ed8565b38610337565b9091507fa918fa6b000000000000000000000000000000000000000000000000000000008114908115610394575b50903861032f565b7f629aa694000000000000000000000000000000000000000000000000000000008114915081156103c7575b503861038c565b6301ffc9a760e01b915014386103c0565b600080fd5b60005b8381106103f05750506000910152565b81810151838201526020016103e0565b90602091610419815180928185528580860191016103dd565b601f01601f1916010190565b906020610436928181520190610400565b90565b346103d85760403660031901126103d85761034a61045b602435600435612f9d565b604051918291602083526020830190610400565b60009103126103d857565b346103d85760003660031901126103d8576020600254604051908152f35b346103d85760003660031901126103d8576040516321ac695f60e11b81526020816004816001600160a01b037f0000000000000000000000000000000000000000000000000000000000000000165afa801561052f57602091600091610502575b50604051908152f35b6105229150823d8411610528575b61051a81836106ab565b810190611c72565b386104f9565b503d610510565b611c81565b6001600160a01b038116036103d857565b602090602060408183019282815285518094520193019160005b82811061056d575050505090565b83518552938101939281019260010161055f565b346103d8576020806003193601126103d8576001600160a01b036004356105a781610534565b16600052600a6020526040600020906040519081602084549182815201936000526020600020916000905b8282106105f55761034a856105e9818903826106ab565b60405191829182610545565b8354865294850194600193840193909101906105d2565b634e487b7160e01b600052604160045260246000fd5b60a0810190811067ffffffffffffffff82111761063e57604052565b61060c565b67ffffffffffffffff811161063e57604052565b6020810190811067ffffffffffffffff82111761063e57604052565b6040810190811067ffffffffffffffff82111761063e57604052565b6060810190811067ffffffffffffffff82111761063e57604052565b90601f8019910116810190811067ffffffffffffffff82111761063e57604052565b604051906106da82610622565b565b67ffffffffffffffff811161063e5760051b60200190565b9080601f830112156103d857602090823561070e816106dc565b9361071c60405195866106ab565b81855260208086019260051b8201019283116103d857602001905b828210610745575050505090565b81358152908301908301610737565b6020808201906020835283518092526040830192602060408460051b8301019501936000915b84831061078a5750505050505090565b90919293949584806107a8600193603f198682030187528a51610400565b980193019301919493929061077a565b346103d85760403660031901126103d85767ffffffffffffffff6004358181116103d8576107ea9036906004016106f4565b906024359081116103d8576108039036906004016106f4565b908051825103610870576108178151611c8d565b9160005b8251811015610862578061084661083460019386611cd7565b5161083f8386611cd7565b5190612f9d565b6108508287611cd7565b5261085b8186611cd7565b500161081b565b6040518061034a8682610754565b60046040516317d38eff60e11b8152fd5b346103d85760203660031901126103d85761089e3360043561282d565b005b346103d85760403660031901126103d85761089e6024356004356108c382610534565b806000526009602052610934608060406000206001600160a01b036004604051926108ed84610622565b604051610905816108fe8185611854565b03826106ab565b845260018101546020850152600281015460408501526003810154606085015201541691829101523314611ceb565b61093c611d76565b9161310e565b346103d85760203660031901126103d8576020610960600435611d89565b6001600160a01b0360405191168152f35b346103d85760403660031901126103d857602061099c60043561099381610534565b6024359061329e565b6040519015158152f35b9080601f830112156103d85760209082356109c0816106dc565b936109ce60405195866106ab565b81855260208086019260051b8201019283116103d857602001905b8282106109f7575050505090565b8380918335610a0581610534565b8152019101906109e9565b602090602060408183019282815285518094520193019160005b828110610a38575050505090565b835185529381019392810192600101610a2a565b346103d8576020806003193601126103d85760043567ffffffffffffffff81116103d857610a7e9036906004016109a6565b8051610a89816106dc565b92604091610a9a60405195866106ab565b808552610aa9601f19916106dc565b0136602086013760009060005b8451811015610af357806001600160a01b03610ad460019388611cd7565b51168452600a8352818585200154610aec8289611cd7565b5201610ab6565b6040518061034a8882610a10565b634e487b7160e01b600052603260045260246000fd5b8054821015610b2f5760005260206000200190600090565b610b01565b346103d85760203660031901126103d8576004356006548110156103d8576001600160a01b0360209160066000527ff652222313e28459528d920b65115c16c04f3efc82aaedc97be59f3f377c0d3f015416604051908152f35b346103d85760203660031901126103d8576001600160a01b03600435610bb381610534565b16600052600a6020526020600160406000200154604051908152f35b346103d85760003660031901126103d85760206040516001600160a01b037f0000000000000000000000000000000000000000000000000000000000000000168152f35b602090602060408183019282815285518094520193019160005b828110610c3b575050505090565b83516001600160a01b031685529381019392810192600101610c2d565b346103d8576020806003193601126103d857600435610c8d8160005260036020526001600160a01b0360406000205416151590565b15610cf65760005260056020526040600020906040519081602084549182815201936000526020600020916000905b828210610cdf5761034a85610cd3818903826106ab565b60405191829182610c13565b835486529485019460019384019390910190610cbc565b602490604051907fae8f9a360000000000000000000000000000000000000000000000000000000082526004820152fd5b346103d85760003660031901126103d8576020600754604051908152f35b6044359081151582036103d857565b67ffffffffffffffff811161063e57601f01601f191660200190565b81601f820112156103d857803590610d8782610d54565b92610d9560405194856106ab565b828452602083830101116103d857816000926020809301838601378301015290565b346103d85760a03660031901126103d857600435610dd481610534565b602435610de081610534565b60643580151581036103d8576084359267ffffffffffffffff84116103d857610e1061089e943690600401610d70565b9260443591611dac565b346103d85760003660031901126103d85760206040517f00000000000000000000000000000000000000000000000000000000000000008152f35b346103d85760203660031901126103d85761034a61045b6004356133a4565b346103d85760203660031901126103d85767ffffffffffffffff6004358181116103d857366023820112156103d85780600401359182116103d8573660248360051b830101116103d85761034a916024610ece9201612048565b60405191829182610754565b346103d85760203660031901126103d8576001600160a01b03600435610eff81610534565b1660005260046020526020604060002054604051908152f35b346103d857600080600319360112610f7f57610f326134ae565b80546001600160a01b038116908282610f485780f35b6001600160a01b0319927f8be0079c531659141344cd1fd0a4f28419497f9722a3daafe3b4186f6b6457e08280a316815538808280f35b80fd5b346103d85760003660031901126103d8576001600160a01b036040517fe710563c000000000000000000000000000000000000000000000000000000008082526020918281600481877f0000000000000000000000000000000000000000000000000000000000000000165afa91821561052f57839160009361107d575b5060046040518096819382527f0000000000000000000000000000000000000000000000000000000000000000165afa90811561052f5761034a9361104e9360009361105e575b5050612128565b6040519081529081906020820190565b611075929350803d106105285761051a81836106ab565b903880611047565b611095919350823d84116105285761051a81836106ab565b9138611000565b346103d85760003660031901126103d857602061099c6121ce565b9080601f830112156103d85760209082356110d1816106dc565b936110df60405195866106ab565b81855260208086019260051b8201019283116103d857602001905b828210611108575050505090565b813580151581036103d85781529083019083016110fa565b81601f820112156103d85780359160209161113a846106dc565b9361114860405195866106ab565b808552838086019160051b830101928084116103d857848301915b8483106111735750505050505090565b823567ffffffffffffffff81116103d857869161119584848094890101610d70565b815201920191611163565b346103d85760a03660031901126103d857600467ffffffffffffffff81358181116103d8576111d290369084016109a6565b906024358181116103d8576111ea90369085016109a6565b6044358281116103d85761120190369086016106f4565b906064358381116103d85761121990369087016110b7565b926084359081116103d85761089e9561123491369101611120565b93612350565b60403660031901126103d85760243567ffffffffffffffff81116103d857611266903690600401610d70565b61126e6134ae565b3461127f5761089e906004356134f2565b600460405163f36ba73760e01b8152fd5b346103d85760603660031901126103d85760048035906112af82610534565b60243560443567ffffffffffffffff81116103d8576112d19036908401610d70565b916112db82611d89565b906001600160a01b03808316923384036113f4575085169081156113e5578183146113d6576113246113208761131b876000526005602052604060002090565b61368a565b1590565b61138c575091806113879261089e96947f1b1b58aa2ec0cec2228b2d37124556d41f5a1f7b12f089171f896cc236671215604051806113638a82610425565b0390a46113796040519485923360208501612438565b03601f1981018452836106ab565b613d2f565b604080517fa7626b680000000000000000000000000000000000000000000000000000000081526001600160a01b03881692810192835260208301869052918291010390fd5b0390fd5b6040516344fed6b160e11b8152fd5b604051639577b8b360e01b8152fd5b60408051632d938f5160e11b81526001600160a01b0390921682850190815260208101879052339181019190915281906060010390fd5b346103d85760003660031901126103d85760206040517f00000000000000000000000000000000000000000000000000000000000000008152f35b346103d85760003660031901126103d85760206001600160a01b0360005416604051908152f35b346103d85760003660031901126103d85760206040516001600160a01b037f0000000000000000000000000000000000000000000000000000000000000000168152f35b60403660031901126103d857600467ffffffffffffffff81358181116103d8576114fe90369084016106f4565b906024359081116103d8576115169036908401611120565b9161151f6134ae565b346115b957815183510361159157815115611569575060005b815181101561089e578061156361155160019385611cd7565b5161155c8387611cd7565b51906134f2565b01611538565b6040517f97da5f95000000000000000000000000000000000000000000000000000000008152fd5b6040517f3bcc8979000000000000000000000000000000000000000000000000000000008152fd5b60405163f36ba73760e01b8152fd5b346103d8576020806003193601126103d8576001600160a01b036004356115ee81610534565b1660005260046020526040600020906040519081602084549182815201936000526020600020916000905b8282106116305761034a856105e9818903826106ab565b835486529485019460019384019390910190611619565b346103d85760403660031901126103d85761089e60243561166781610534565b60043561282d565b346103d85760003660031901126103d8576020600854604051908152f35b346103d85760003660031901126103d857604051806006549182815260208091019260066000527ff652222313e28459528d920b65115c16c04f3efc82aaedc97be59f3f377c0d3f916000905b8282106116f15761034a85610cd3818903826106ab565b83546001600160a01b0316865294850194600193840193909101906116da565b346103d85760603660031901126103d857600467ffffffffffffffff81358181116103d85761174390369084016106f4565b6024358281116103d85761175a90369085016106f4565b916044359081116103d8576117729036908501611120565b9261177b6134ae565b815183518091149081159161180e575b506117ff578151156117d7575060005b815181101561089e57806117d16117b460019385611cd7565b516117bf8387611cd7565b516117ca8489611cd7565b519161369d565b0161179b565b6040517f80c98305000000000000000000000000000000000000000000000000000000008152fd5b6040516317d38eff60e11b8152fd5b9050845114153861178b565b90600182811c9216801561184a575b602083101461183457565b634e487b7160e01b600052602260045260246000fd5b91607f1691611829565b8054600093926118638261181a565b918282526020936001916001811690816000146118cb575060011461188a575b5050505050565b90939495506000929192528360002092846000945b8386106118b757505050500101903880808080611883565b80548587018301529401938590820161189f565b60ff19168685015250505090151560051b010191503880808080611883565b906106da6118fe9260405193848092611854565b03836106ab565b346103d85760203660031901126103d857600435600052600960205261196f60406000206040519061193b826118fe8184611854565b6001810154906002810154906001600160a01b0360046003830154920154169160405195869560a0875260a0870190610400565b9360208601526040850152606084015260808301520390f35b346103d85760603660031901126103d85760443567ffffffffffffffff81116103d8576119bc61089e913690600401610d70565b6119c46134ae565b60243560043561369d565b346103d85760003660031901126103d85760206040517f00000000000000000000000000000000000000000000000000000000000000008152f35b346103d85760803660031901126103d857600435611a2781610534565b602435611a32610d45565b9160643567ffffffffffffffff81116103d857611a53903690600401610d70565b611a5c83611d89565b936001600160a01b0380861690813303611ace575b8416908115611abd5714611aac57611a8c8282868887613803565b611a9257005b61089e936113796113879260405195869360208501612464565b60046040516344fed6b160e11b8152fd5b6004604051639577b8b360e01b8152fd5b8481163314611a71576040517f760b5acd0000000000000000000000000000000000000000000000000000000081523360048201526001600160a01b038816602482015260448101879052606490fd5b346103d85760003660031901126103d8576020600654604051908152f35b346103d85760203660031901126103d85760043567ffffffffffffffff81116103d857611b6d9036906004016106f4565b611b778151611c8d565b9060005b8151811015611bb65780611b9a611b9460019385611cd7565b516133a4565b611ba48286611cd7565b52611baf8185611cd7565b5001611b7b565b6040518061034a8582610754565b346103d85760203660031901126103d857600435611be181610534565b611be96134ae565b6001600160a01b038091168015611c4857600091825490811690818303611c0e578380f35b826001600160a01b0319927f8be0079c531659141344cd1fd0a4f28419497f9722a3daafe3b4186f6b6457e08680a3161781553880808380f35b60046040517f1ad8836c000000000000000000000000000000000000000000000000000000008152fd5b908160209103126103d8575190565b6040513d6000823e3d90fd5b90611c97826106dc565b611ca460405191826106ab565b8281528092611cb5601f19916106dc565b019060005b828110611cc657505050565b806060602080938501015201611cba565b8051821015610b2f5760209160051b010190565b15611cf257565b60846040517f08c379a000000000000000000000000000000000000000000000000000000000815260206004820152603f60248201527f4275726e7450697841726368697665733a204f6e6c792074686520617263686960448201527f76652063726561746f722063616e206d696e74207468652061726368697665006064820152fd5b60405190611d8382610657565b60008252565b8060005260036020526001600160a01b0360406000205416908115610cf6575090565b90929391611dba813361329e565b15611f9157611dc881611d89565b6001600160a01b038181169184821691828403611f6157808816938415611f3757611df286611d89565b91821603611eee57505092611ee483806106da9997946113799997611e1a611ee99887613ab1565b611e4083611e3b886001600160a01b03166000526004602052604060002090565b613e68565b50611e6783611e628b6001600160a01b03166000526004602052604060002090565b613cf8565b50611e9b89611e80856000526003602052604060002090565b906001600160a01b03166001600160a01b0319825416179055565b6040517fb333c813a7426a7a11e2b190cad52c44119421594b47f6f32ace6d8c7207b2bf9080611ecd8a8e3384613310565b0390a460405197889485928886336020870161336d565b613d9a565b613c32565b6040517f5a9c31d3000000000000000000000000000000000000000000000000000000008152600481018690526001600160a01b03928316602482015291166044820152606490fd5b60046040517f24ecef4d000000000000000000000000000000000000000000000000000000008152fd5b604051632d938f5160e11b81526001600160a01b0383811660048301526024820187905287166044820152606490fd5b604490604051907f1294d2a90000000000000000000000000000000000000000000000000000000082526004820152336024820152fd5b9190811015610b2f5760051b81013590601e19813603018212156103d857019081359167ffffffffffffffff83116103d85760200182360381136103d8579190565b908092918237016000815290565b3d15612043573d9061202982610d54565b9161203760405193846106ab565b82523d6000602084013e565b606090565b919061205381611c8d565b9260009160005b8181106120675750505050565b8380612074838587611fc8565b6040939161208685518093819361200a565b0390305af490612094612018565b91156120bb5750906001916120a98289611cd7565b526120b48188611cd7565b500161205a565b8151919291156120cd57825160208401fd5b517f234eb819000000000000000000000000000000000000000000000000000000008152600481019190915260249150fd5b634e487b7160e01b600052601160045260246000fd5b906001820180921161212357565b6120ff565b9190820180921161212357565b908160209103126103d8575161043681610534565b60209081818403126103d85780519067ffffffffffffffff82116103d857019180601f840112156103d8578251612180816106dc565b9361218e60405195866106ab565b818552838086019260051b8201019283116103d8578301905b8282106121b5575050505090565b83809183516121c381610534565b8152019101906121a7565b7f00000000000000000000000000000000000000000000000000000000000000006001600160a01b0360405190637b10399960e01b825260209182816004818588165afa801561052f578291600091612333575b5016926040517f49a6078d0000000000000000000000000000000000000000000000000000000081526000818061226185600483019190602083019252565b0381885afa90811561052f57600091612310575b5051159384612286575b5050505090565b6040517f217b2270000000000000000000000000000000000000000000000000000000008152600481019290925292935090918390829060249082905afa92831561052f576000936122e1575b50501630143880808061227f565b612301929350803d10612309575b6122f981836106ab565b810190612135565b9038806122d3565b503d6122ef565b61232d91503d806000833e61232581836106ab565b81019061214a565b38612275565b61234a9150843d8611612309576122f981836106ab565b38612222565b94939091928551938351851480159061242d575b8015612422575b8015612417575b6123ed5760005b85811061238a575050505050509050565b806123e76123aa61239d6001948c611cd7565b516001600160a01b031690565b6123b761239d848a611cd7565b6123c18487611cd7565b516123d56123cf868a611cd7565b51151590565b916123e0868b611cd7565b5193611dac565b01612379565b60046040517f93a83119000000000000000000000000000000000000000000000000000000008152fd5b508251851415612372565b50815185141561236b565b508051851415612364565b61043693926001600160a01b036080931682526020820152600160408201528160608201520190610400565b61043693926001600160a01b036080931682526020820152600060408201528160608201520190610400565b156103d857565b9190820391821161212357565b6006546801000000000000000081101561063e576001810180600655811015610b2f576001600160a01b039060066000527ff652222313e28459528d920b65115c16c04f3efc82aaedc97be59f3f377c0d3f0191166001600160a01b0319825416179055565b60001981146121235760010190565b916125339183549060031b91821b91600019901b19161790565b9055565b8054906801000000000000000082101561063e578161255e91600161253394018155610b17565b819391549060031b91821b91600019901b19161790565b6020818303126103d85780519067ffffffffffffffff82116103d8570181601f820112156103d85780516125a881610d54565b926125b660405194856106ab565b818452602082840101116103d85761043691602080850191016103dd565b90601f81116125e257505050565b6000916000526020600020906020601f850160051c83019410612620575b601f0160051c01915b82811061261557505050565b818155600101612609565b9092508290612600565b919091825167ffffffffffffffff811161063e576126528161264c845461181a565b846125d4565b602080601f831160011461269157508190612533939495600092612686575b50508160011b916000199060031b1c19161790565b015190503880612671565b90601f198316956126a785600052602060002090565b926000905b8882106126e4575050836001959697106126cb575b505050811b019055565b015160001960f88460031b161c191690553880806126c1565b806001859682949686015181550195019301906126ac565b919091825192835167ffffffffffffffff811161063e5761272781612721855461181a565b856125d4565b602080601f83116001146127b1575060049261276583612794946080946106da999a6000926126865750508160011b916000199060031b1c19161790565b85555b60208101516001860155604081015160028601556060810151600386015501516001600160a01b031690565b9101906001600160a01b03166001600160a01b0319825416179055565b90601f198316966127c786600052602060002090565b926000905b8982106128155750508360809360049693600193612794976106da9b9c106127fc575b505050811b018555612768565b015160001960f88460031b161c191690553880806127ef565b806001859682949686015181550195019301906127cc565b90612839821515612490565b7f0000000000000000000000000000000000000000000000000000000000000000906001600160a01b0380831690604094855194637b10399960e01b865260209260049684818981895afa90811561052f57600091612e19575b5088519385858a816321ac695f60e11b9a8b82525afa94851561052f57600095612dfa575b5089518781527f000000000000000000000000000000000000000000000000000000000000000084169587828c818a5afa90811561052f5761290292600092612ddb575b50612497565b853b156103d8578a517f4594229c000000000000000000000000000000000000000000000000000000008152808b01838152600090829081906020010381838b5af1801561052f57612dc8575b5080158015612dbf575b612d46575b50600161297e896001600160a01b0316600052600a602052604060002090565b015415612d38575b6129b160016129a88a6001600160a01b0316600052600a602052604060002090565b01918254612128565b905560016129d2886001600160a01b0316600052600a602052604060002090565b01547f0000000000000000000000000000000000000000000000000000000000000000111580612d2a575b612c83575b50612a899150836001612a28886001600160a01b0316600052600a602052604060002090565b015491612a51612a4b896001600160a01b0316600052600a602052604060002090565b54612115565b908a5180809681947fcd7782690000000000000000000000000000000000000000000000000000000083528d83019190602083019252565b03917f0000000000000000000000000000000000000000000000000000000000000000165afa91821561052f57600092612c64575b501015612ace575b505050505050565b612ad960075461250a565b92612ae384600755565b612b0984612b04876001600160a01b0316600052600a602052604060002090565b612537565b8651957f54f6127f00000000000000000000000000000000000000000000000000000000875260008780612b63848201907f2abb082c1b23ea79fce2a9e934ecb19ce15738b1483c365d0125f47e8ccc7dfc602083019252565b0381865afa96871561052f57600097612c3b575b5090839188518094819382525afa93841561052f57612c0a96612c0595612be993600091612c1e575b50612bbe836001600160a01b0316600052600a602052604060002090565b5494612bc86106cd565b98895288015286019283524360608701526001600160a01b03166080860152565b516008548111612c15575b506000526009602052604060002090565b6126fc565b388080808080612ac6565b60085538612bf4565b612c359150853d87116105285761051a81836106ab565b38612ba0565b8492919750612c5c903d806000833e612c5481836106ab565b810190612575565b969091612b77565b612c7c919250843d86116105285761051a81836106ab565b9038612abe565b8116803b156103d857612cfd9260009188838b8d51978895869485937f511b695200000000000000000000000000000000000000000000000000000000855230908501919060c093916001600160a01b03809216845216602083015260408201526001606082015260a06080820152600060a08201520190565b03925af191821561052f57612a899215612a025780612d1e612d2492610643565b8061046f565b38612a02565b50612d336121ce565b6129fd565b612d41886124a4565b612986565b612d538484169183612497565b90803b156103d8578b517fea255583000000000000000000000000000000000000000000000000000000008152808c01878152602081019390935291600091839182908490829060400103925af1801561052f571561295e5780612d1e612db992610643565b3861295e565b50808211612959565b80612d1e612dd592610643565b3861294f565b612df3919250893d8b116105285761051a81836106ab565b90386128fc565b612e12919550863d88116105285761051a81836106ab565b93386128b8565b612e309150853d8711612309576122f981836106ab565b38612893565b3415612e665760046040517f61f49442000000000000000000000000000000000000000000000000000000008152fd5b606460405163e5099ee360e01b8152602060048201526004602482015260006044820152fd5b60043610612e9d57610436906138ce565b6044604051809263e5099ee360e01b825260206004830152806024830152806000848401376000828201840152601f01601f19168101030190fd5b612f1f612f1a604051696773c5a04a6d4300884b60b11b60208201526000602a8201526301ffc9a760e01b602c82015260208152612f1581610673565b613e05565b613a92565b805160148114159081612f93575b50612f5557612f3b906139cb565b60601c908115612f4e5761043691613a5f565b5050600090565b6113d2906040519182917f42bfe79f000000000000000000000000000000000000000000000000000000008352602060048401526024830190610400565b9050151538612f2d565b612fbd8160005260036020526001600160a01b0360406000205416151590565b156103d8577f9afb95cacc9f95858ec44aa8c3b685511002e30ae54415823f406128b85b238e82146130065750613001610436916000526001602052604060002090565b6118ea565b60009081526009602052604081206001600160a01b039250916008549060405180809581947fb4a9d9af0000000000000000000000000000000000000000000000000000000083526060600484015260a0606484015284600461306d610104860185611854565b9360018101546084870152600281015460a4870152600381015460c487015201541660e4840152847f0000000000000000000000000000000000000000000000000000000000000000166024840152604483015203917f0000000000000000000000000000000000000000000000000000000000000000165afa90811561052f576000916130f9575090565b61043691503d806000833e612c5481836106ab565b9291909260025460018101808211612123577f000000000000000000000000000000000000000000000000000000000000000010613274576001600160a01b038216908115611f37576131778660005260036020526001600160a01b0360406000205416151590565b6132425761319b8660005260036020526001600160a01b0360406000205416151590565b61324257948061323d926131ba6131b56106da989961250a565b600255565b6131db82611e62876001600160a01b03166000526004602052604060002090565b506131f485611e80846000526003602052604060002090565b60007fb333c813a7426a7a11e2b190cad52c44119421594b47f6f32ace6d8c7207b2bf604051806132268a33836132e9565b0390a4611379604051948592853360208601613337565b613bcb565b6040517f34c7b51100000000000000000000000000000000000000000000000000000000815260048101879052602490fd5b60046040517fe8ba2291000000000000000000000000000000000000000000000000000000008152fd5b6001600160a01b03806132b084611d89565b1691169081149182156132c257505090565b61043692506000526005602052604060002060019160005201602052604060002054151590565b6060906001600160a01b036104369493168152600160208201528160408201520190610400565b61043693926001600160a01b03606093168252151560208201528160408201520190610400565b9092610436949360a0936001600160a01b0380921684526000602085015216604083015260608201528160808201520190610400565b9160a0936104369695926001600160a01b039283809216865216602085015216604083015260608201528160808201520190610400565b7f9afb95cacc9f95858ec44aa8c3b685511002e30ae54415823f406128b85b238e81146133f1576104366133e56108fe926000526001602052604060002090565b60405192838092611854565b50604460006001600160a01b03604051928380927f292f01f0000000000000000000000000000000000000000000000000000000008252807f0000000000000000000000000000000000000000000000000000000000000000166004830152807f00000000000000000000000000000000000000000000000000000000000000001660248301527f0000000000000000000000000000000000000000000000000000000000000000165afa90811561052f576000916130f9575090565b6001600160a01b036000541633036134c257565b60246040517fbf1169c5000000000000000000000000000000000000000000000000000000008152336004820152fd5b907ff675e9361af1c1664c1868cfa3eb97672d6b1a513aa5b81dec34c9ee330e818d8214613660577fdeba1e292f8ba88238e10ab3c7f88bd4be4fac56cad5194b6ecceaf653468af1820361356b5760046040517f85c169bd000000000000000000000000000000000000000000000000000000008152fd5b7f2f0a68ab07768e01943a599e73362a0e17a63a72e94dd2e384d2c1d4db93275682036135bc5760046040517f76755b38000000000000000000000000000000000000000000000000000000008152fd5b7fe0261fa95db2eb3b5439bd033cda66d56b96f92f243a8228fd87550ed7bdfdb3820361360d5760046040517f4ef6d7fb000000000000000000000000000000000000000000000000000000008152fd5b61365b8161364f7fece574603820d07bc9b91f2a932baadf4628aabcb8afba49776529c14a6104b29361364a866000526001602052604060002090565b61262a565b60405191829182610425565b0390a2565b60046040517f3664800a000000000000000000000000000000000000000000000000000000008152fd5b6001600160a01b03610436921690613cf8565b90916040516020906020810190848252856040820152604081526136c08161068f565b51902060005260018060205260406000209183519167ffffffffffffffff831161063e576136f8836136f2865461181a565b866125d4565b602091601f841160011461376e57505091613750827fa6e4251f855f750545fe414f120db91c76b88def14d120969e5bb2d3f05debbb959361375e95600091613763575b508160011b916000199060031b1c19161790565b905560405191829182610425565b0390a3565b90508401513861373c565b9190601f1984169061378586600052602060002090565b936000915b8383106137ec575050509261375e9492600192827fa6e4251f855f750545fe414f120db91c76b88def14d120969e5bb2d3f05debbb9896106137d3575b5050811b01905561364f565b85015160001960f88460031b161c1916905538806137c7565b88850151865594850194938101939181019161378a565b9193928460005260056020526040600020926001600160a01b039061382b8282168096613e68565b1561387a5750906138757fc78cd419d6136f9f1c1c6aec1d3fae098cffaf8bc86314a8f2685e32fe574e3c9392604051938493151584526040602085015216956040830190610400565b0390a4565b6040516312a8c6a360e21b81526001600160a01b0391909116600482015260248101879052604490fd5b9060349391816000823701916bffffffffffffffffffffffff199060601b16825260148201520190565b6001600160e01b03196000351690613912612f1a604051696773c5a04a6d4300884b60b11b60208201526000602a82015284602c82015260208152612f1581610673565b8051601481141590816139c1575b50612f555761392e906139cb565b60601c9182156139845750600091829160405161396581613957602082019434903390876138a4565b03601f1981018352826106ab565b519134905af1613973612018565b901561397c5790565b602081519101fd5b6040517fbb370b2b0000000000000000000000000000000000000000000000000000000081526001600160e01b0319919091166004820152602490fd5b9050151538613920565b90602082519201516bffffffffffffffffffffffff199081811693601481106139f357505050565b60140360031b82901b16169150565b6000602091604051838101906301ffc9a760e01b8252631aed5a8560e21b602482015260248152613a328161068f565b5191617530fa6000513d82613a53575b5081613a4c575090565b9050151590565b60201115915038613a42565b6000906020926040516001600160e01b0319858201926301ffc9a760e01b845216602482015260248152613a328161068f565b60005260016020526108fe610436604060002060405192838092611854565b90600090808252600591602093600560205260409182812094855495825b878110613ae157505050505050505050565b815415610b2f578184526001600160a01b03808a8620541690875190613b0682610657565b868252898752858c52613b1b838a8920613e68565b15613b6d57600193927fc78cd419d6136f9f1c1c6aec1d3fae098cffaf8bc86314a8f2685e32fe574e3c8d89613b648e968e968e88805196879687528601521696830190610400565b0390a401613acf565b88516312a8c6a360e21b81526001600160a01b0384166004820152602481018b9052604490fd5b906040610436927f0b084a55ebf70fd3c06fd755269dac2212c4d3f0f4d09079780bfa50c1b2984d81528160208201520190610400565b613bd481613a02565b15613c2e57613c056000916001600160a01b039383604051958680958194631aed5a8560e21b835260048301613b94565b0393165af1801561052f57613c175750565b613c2b903d806000833e612c5481836106ab565b50565b5050565b9190613c3d83613a02565b15613c6f5750613c056001600160a01b039260009283604051958680958194631aed5a8560e21b835260048301613b94565b905015613c795750565b803b15613cbc576040517f4349776d0000000000000000000000000000000000000000000000000000000081526001600160a01b03919091166004820152602490fd5b6040517f031731370000000000000000000000000000000000000000000000000000000081526001600160a01b03919091166004820152602490fd5b6000828152600182016020526040902054612f4e5780613d1a83600193612537565b80549260005201602052604060002055600190565b613d3881613a02565b613d40575050565b613c056000916001600160a01b039383604051958680958194631aed5a8560e21b83527f8a1c15a8799f71b547e08e2bcb2e85257e81b0a07eee2ce6712549eef1f009706004840152604060248401526044830190610400565b613da381613a02565b613dab575050565b613c056000916001600160a01b039383604051958680958194631aed5a8560e21b83527fb23eae7e6d1564b295b4c3e3be402d9a2f0776c57bdf365903496f6fa481ab006004840152604060248401526044830190610400565b602081519101519060208110613e19575090565b6000199060200360031b1b1690565b8054908115613e525760001991820191613e428383610b17565b909182549160031b1b1916905555565b634e487b7160e01b600052603160045260246000fd5b6001810191806000528260205260406000205492831515600014613f14576000199284840190858211612123578054948501948511612123576000958583613ebc94613ecb9803613ed1575b505050613e28565b90600052602052604060002090565b55600190565b613efb613ef591613ee5613f0b9487610b17565b90549060031b1c92839187610b17565b90612519565b8590600052602052604060002090565b55388080613eb4565b5050505060009056fea26469706673582212209fa7cc01fb639e3027dedb7b1051f4143d9eee9e1f17b7673007a2d54cc227b664736f6c63430008180033deba1e292f8ba88238e10ab3c7f88bd4be4fac56cad5194b6ecceaf653468af1e0261fa95db2eb3b5439bd033cda66d56b96f92f243a8228fd87550ed7bdfdb3eafec4d89fa9619884b60000a4d96624a38f7ac2d8d9a604ecf07c12c77e480cf675e9361af1c1664c1868cfa3eb97672d6b1a513aa5b81dec34c9ee330e818d2f0a68ab07768e01943a599e73362a0e17a63a72e94dd2e384d2c1d4db932756114bd03b3a46d48759680d81ebb2b414fda7d030a7105a851867accf1c2352e7ece574603820d07bc9b91f2a932baadf4628aabcb8afba49776529c14a6104b2",
  "linkReferences": {},
  "deployedLinkReferences": {}
}