{
  "_format": "hh-sol-artifact-1",
  "contractName": "BurntPixArchives",
  "sourceName": "contracts/BurntPixArchives.sol",
  "abi": [
    {
      "inputs": [
        {
          "internalType": "address",
          "name": "_codehub",
          "type": "address"
        },
        {
          "internalType": "address",
          "name": "_archiveHelpers",
          "type": "address"
        },
        {
          "internalType": "address",
          "name": "_creator",
          "type": "address"
        },
        {
          "internalType": "address",
          "name": "_royaltyRecipient",
          "type": "address"
        },
        {
          "internalType": "bytes32",
          "name": "_burntPicId",
          "type": "bytes32"
        },
        {
          "internalType": "uint256",
          "name": "_maxSupply",
          "type": "uint256"
        },
        {
          "internalType": "uint256",
          "name": "_multiplier",
          "type": "uint256"
        },
        {
          "internalType": "uint256",
          "name": "_winnerIters",
          "type": "uint256"
        }
      ],
      "stateMutability": "nonpayable",
      "type": "constructor"
    },
    {
      "inputs": [],
      "name": "ERC725Y_DataKeysValuesEmptyArray",
      "type": "error"
    },
    {
      "inputs": [],
      "name": "ERC725Y_DataKeysValuesLengthMismatch",
      "type": "error"
    },
    {
      "inputs": [],
      "name": "ERC725Y_MsgValueDisallowed",
      "type": "error"
    },
    {
      "inputs": [
        {
          "internalType": "bytes",
          "name": "storedData",
          "type": "bytes"
        }
      ],
      "name": "InvalidExtensionAddress",
      "type": "error"
    },
    {
      "inputs": [
        {
          "internalType": "bytes",
          "name": "data",
          "type": "bytes"
        }
      ],
      "name": "InvalidFunctionSelector",
      "type": "error"
    },
    {
      "inputs": [],
      "name": "LSP4TokenNameNotEditable",
      "type": "error"
    },
    {
      "inputs": [],
      "name": "LSP4TokenSymbolNotEditable",
      "type": "error"
    },
    {
      "inputs": [],
      "name": "LSP4TokenTypeNotEditable",
      "type": "error"
    },
    {
      "inputs": [
        {
          "internalType": "uint256",
          "name": "callIndex",
          "type": "uint256"
        }
      ],
      "name": "LSP8BatchCallFailed",
      "type": "error"
    },
    {
      "inputs": [],
      "name": "LSP8CannotSendToAddressZero",
      "type": "error"
    },
    {
      "inputs": [],
      "name": "LSP8CannotUseAddressZeroAsOperator",
      "type": "error"
    },
    {
      "inputs": [],
      "name": "LSP8CappedSupplyCannotMintOverCap",
      "type": "error"
    },
    {
      "inputs": [],
      "name": "LSP8CappedSupplyRequired",
      "type": "error"
    },
    {
      "inputs": [],
      "name": "LSP8InvalidTransferBatch",
      "type": "error"
    },
    {
      "inputs": [
        {
          "internalType": "bytes32",
          "name": "tokenId",
          "type": "bytes32"
        }
      ],
      "name": "LSP8NonExistentTokenId",
      "type": "error"
    },
    {
      "inputs": [
        {
          "internalType": "address",
          "name": "operator",
          "type": "address"
        },
        {
          "internalType": "bytes32",
          "name": "tokenId",
          "type": "bytes32"
        }
      ],
      "name": "LSP8NonExistingOperator",
      "type": "error"
    },
    {
      "inputs": [
        {
          "internalType": "bytes32",
          "name": "tokenId",
          "type": "bytes32"
        },
        {
          "internalType": "address",
          "name": "caller",
          "type": "address"
        }
      ],
      "name": "LSP8NotTokenOperator",
      "type": "error"
    },
    {
      "inputs": [
        {
          "internalType": "address",
          "name": "tokenOwner",
          "type": "address"
        },
        {
          "internalType": "bytes32",
          "name": "tokenId",
          "type": "bytes32"
        },
        {
          "internalType": "address",
          "name": "caller",
          "type": "address"
        }
      ],
      "name": "LSP8NotTokenOwner",
      "type": "error"
    },
    {
      "inputs": [
        {
          "internalType": "address",
          "name": "tokenReceiver",
          "type": "address"
        }
      ],
      "name": "LSP8NotifyTokenReceiverContractMissingLSP1Interface",
      "type": "error"
    },
    {
      "inputs": [
        {
          "internalType": "address",
          "name": "tokenReceiver",
          "type": "address"
        }
      ],
      "name": "LSP8NotifyTokenReceiverIsEOA",
      "type": "error"
    },
    {
      "inputs": [
        {
          "internalType": "address",
          "name": "operator",
          "type": "address"
        },
        {
          "internalType": "bytes32",
          "name": "tokenId",
          "type": "bytes32"
        }
      ],
      "name": "LSP8OperatorAlreadyAuthorized",
      "type": "error"
    },
    {
      "inputs": [
        {
          "internalType": "address",
          "name": "caller",
          "type": "address"
        },
        {
          "internalType": "address",
          "name": "tokenOwner",
          "type": "address"
        },
        {
          "internalType": "bytes32",
          "name": "tokenId",
          "type": "bytes32"
        }
      ],
      "name": "LSP8RevokeOperatorNotAuthorized",
      "type": "error"
    },
    {
      "inputs": [],
      "name": "LSP8TokenContractCannotHoldValue",
      "type": "error"
    },
    {
      "inputs": [
        {
          "internalType": "bytes32",
          "name": "tokenId",
          "type": "bytes32"
        }
      ],
      "name": "LSP8TokenIdAlreadyMinted",
      "type": "error"
    },
    {
      "inputs": [],
      "name": "LSP8TokenIdFormatNotEditable",
      "type": "error"
    },
    {
      "inputs": [],
      "name": "LSP8TokenIdsDataEmptyArray",
      "type": "error"
    },
    {
      "inputs": [],
      "name": "LSP8TokenIdsDataLengthMismatch",
      "type": "error"
    },
    {
      "inputs": [],
      "name": "LSP8TokenOwnerCannotBeOperator",
      "type": "error"
    },
    {
      "inputs": [
        {
          "internalType": "bytes32",
          "name": "tokenId",
          "type": "bytes32"
        },
        {
          "internalType": "address",
          "name": "oldOwner",
          "type": "address"
        },
        {
          "internalType": "address",
          "name": "newOwner",
          "type": "address"
        }
      ],
      "name": "LSP8TokenOwnerChanged",
      "type": "error"
    },
    {
      "inputs": [
        {
          "internalType": "bytes4",
          "name": "functionSelector",
          "type": "bytes4"
        }
      ],
      "name": "NoExtensionFoundForFunctionSelector",
      "type": "error"
    },
    {
      "inputs": [
        {
          "internalType": "address",
          "name": "callerAddress",
          "type": "address"
        }
      ],
      "name": "OwnableCallerNotTheOwner",
      "type": "error"
    },
    {
      "inputs": [],
      "name": "OwnableCannotSetZeroAddressAsOwner",
      "type": "error"
    },
    {
      "anonymous": false,
      "inputs": [
        {
          "indexed": true,
          "internalType": "bytes32",
          "name": "dataKey",
          "type": "bytes32"
        },
        {
          "indexed": false,
          "internalType": "bytes",
          "name": "dataValue",
          "type": "bytes"
        }
      ],
      "name": "DataChanged",
      "type": "event"
    },
    {
      "anonymous": false,
      "inputs": [
        {
          "indexed": true,
          "internalType": "address",
          "name": "operator",
          "type": "address"
        },
        {
          "indexed": true,
          "internalType": "address",
          "name": "tokenOwner",
          "type": "address"
        },
        {
          "indexed": true,
          "internalType": "bytes32",
          "name": "tokenId",
          "type": "bytes32"
        },
        {
          "indexed": false,
          "internalType": "bytes",
          "name": "operatorNotificationData",
          "type": "bytes"
        }
      ],
      "name": "OperatorAuthorizationChanged",
      "type": "event"
    },
    {
      "anonymous": false,
      "inputs": [
        {
          "indexed": true,
          "internalType": "address",
          "name": "operator",
          "type": "address"
        },
        {
          "indexed": true,
          "internalType": "address",
          "name": "tokenOwner",
          "type": "address"
        },
        {
          "indexed": true,
          "internalType": "bytes32",
          "name": "tokenId",
          "type": "bytes32"
        },
        {
          "indexed": false,
          "internalType": "bool",
          "name": "notified",
          "type": "bool"
        },
        {
          "indexed": false,
          "internalType": "bytes",
          "name": "operatorNotificationData",
          "type": "bytes"
        }
      ],
      "name": "OperatorRevoked",
      "type": "event"
    },
    {
      "anonymous": false,
      "inputs": [
        {
          "indexed": true,
          "internalType": "address",
          "name": "previousOwner",
          "type": "address"
        },
        {
          "indexed": true,
          "internalType": "address",
          "name": "newOwner",
          "type": "address"
        }
      ],
      "name": "OwnershipTransferred",
      "type": "event"
    },
    {
      "anonymous": false,
      "inputs": [
        {
          "indexed": true,
          "internalType": "address",
          "name": "contributor",
          "type": "address"
        },
        {
          "indexed": false,
          "internalType": "uint256",
          "name": "iters",
          "type": "uint256"
        }
      ],
      "name": "RefineToArchive",
      "type": "event"
    },
    {
      "anonymous": false,
      "inputs": [
        {
          "indexed": true,
          "internalType": "bytes32",
          "name": "tokenId",
          "type": "bytes32"
        },
        {
          "indexed": true,
          "internalType": "bytes32",
          "name": "dataKey",
          "type": "bytes32"
        },
        {
          "indexed": false,
          "internalType": "bytes",
          "name": "dataValue",
          "type": "bytes"
        }
      ],
      "name": "TokenIdDataChanged",
      "type": "event"
    },
    {
      "anonymous": false,
      "inputs": [
        {
          "indexed": false,
          "internalType": "address",
          "name": "operator",
          "type": "address"
        },
        {
          "indexed": true,
          "internalType": "address",
          "name": "from",
          "type": "address"
        },
        {
          "indexed": true,
          "internalType": "address",
          "name": "to",
          "type": "address"
        },
        {
          "indexed": true,
          "internalType": "bytes32",
          "name": "tokenId",
          "type": "bytes32"
        },
        {
          "indexed": false,
          "internalType": "bool",
          "name": "force",
          "type": "bool"
        },
        {
          "indexed": false,
          "internalType": "bytes",
          "name": "data",
          "type": "bytes"
        }
      ],
      "name": "Transfer",
      "type": "event"
    },
    {
      "stateMutability": "payable",
      "type": "fallback"
    },
    {
      "inputs": [],
      "name": "archiveCount",
      "outputs": [
        {
          "internalType": "uint256",
          "name": "",
          "type": "uint256"
        }
      ],
      "stateMutability": "view",
      "type": "function"
    },
    {
      "inputs": [],
      "name": "archiveHelpers",
      "outputs": [
        {
          "internalType": "address",
          "name": "",
          "type": "address"
        }
      ],
      "stateMutability": "view",
      "type": "function"
    },
    {
      "inputs": [
        {
          "internalType": "address",
          "name": "operator",
          "type": "address"
        },
        {
          "internalType": "bytes32",
          "name": "tokenId",
          "type": "bytes32"
        },
        {
          "internalType": "bytes",
          "name": "operatorNotificationData",
          "type": "bytes"
        }
      ],
      "name": "authorizeOperator",
      "outputs": [],
      "stateMutability": "nonpayable",
      "type": "function"
    },
    {
      "inputs": [
        {
          "internalType": "address",
          "name": "tokenOwner",
          "type": "address"
        }
      ],
      "name": "balanceOf",
      "outputs": [
        {
          "internalType": "uint256",
          "name": "",
          "type": "uint256"
        }
      ],
      "stateMutability": "view",
      "type": "function"
    },
    {
      "inputs": [
        {
          "internalType": "bytes[]",
          "name": "data",
          "type": "bytes[]"
        }
      ],
      "name": "batchCalls",
      "outputs": [
        {
          "internalType": "bytes[]",
          "name": "results",
          "type": "bytes[]"
        }
      ],
      "stateMutability": "nonpayable",
      "type": "function"
    },
    {
      "inputs": [
        {
          "internalType": "bytes32",
          "name": "",
          "type": "bytes32"
        }
      ],
      "name": "burntArchives",
      "outputs": [
        {
          "internalType": "bytes",
          "name": "image",
          "type": "bytes"
        },
        {
          "internalType": "uint256",
          "name": "iterations",
          "type": "uint256"
        },
        {
          "internalType": "uint256",
          "name": "level",
          "type": "uint256"
        },
        {
          "internalType": "uint256",
          "name": "blockNumber",
          "type": "uint256"
        },
        {
          "internalType": "address",
          "name": "creator",
          "type": "address"
        }
      ],
      "stateMutability": "view",
      "type": "function"
    },
    {
      "inputs": [],
      "name": "burntPicId",
      "outputs": [
        {
          "internalType": "bytes32",
          "name": "",
          "type": "bytes32"
        }
      ],
      "stateMutability": "view",
      "type": "function"
    },
    {
      "inputs": [
        {
          "internalType": "address",
          "name": "",
          "type": "address"
        }
      ],
      "name": "contributions",
      "outputs": [
        {
          "internalType": "uint256",
          "name": "iterations",
          "type": "uint256"
        }
      ],
      "stateMutability": "view",
      "type": "function"
    },
    {
      "inputs": [
        {
          "internalType": "uint256",
          "name": "",
          "type": "uint256"
        }
      ],
      "name": "contributors",
      "outputs": [
        {
          "internalType": "address",
          "name": "",
          "type": "address"
        }
      ],
      "stateMutability": "view",
      "type": "function"
    },
    {
      "inputs": [],
      "name": "currentHighestLevel",
      "outputs": [
        {
          "internalType": "uint256",
          "name": "",
          "type": "uint256"
        }
      ],
      "stateMutability": "view",
      "type": "function"
    },
    {
      "inputs": [],
      "name": "fractalClone",
      "outputs": [
        {
          "internalType": "address",
          "name": "",
          "type": "address"
        }
      ],
      "stateMutability": "view",
      "type": "function"
    },
    {
      "inputs": [
        {
          "internalType": "address",
          "name": "contributor",
          "type": "address"
        }
      ],
      "name": "getArchives",
      "outputs": [
        {
          "internalType": "bytes32[]",
          "name": "",
          "type": "bytes32[]"
        }
      ],
      "stateMutability": "view",
      "type": "function"
    },
    {
      "inputs": [
        {
          "internalType": "address[]",
          "name": "targetContributors",
          "type": "address[]"
        }
      ],
      "name": "getContributions",
      "outputs": [
        {
          "internalType": "uint256[]",
          "name": "",
          "type": "uint256[]"
        }
      ],
      "stateMutability": "view",
      "type": "function"
    },
    {
      "inputs": [],
      "name": "getContributors",
      "outputs": [
        {
          "internalType": "address[]",
          "name": "",
          "type": "address[]"
        }
      ],
      "stateMutability": "view",
      "type": "function"
    },
    {
      "inputs": [
        {
          "internalType": "bytes32",
          "name": "dataKey",
          "type": "bytes32"
        }
      ],
      "name": "getData",
      "outputs": [
        {
          "internalType": "bytes",
          "name": "dataValue",
          "type": "bytes"
        }
      ],
      "stateMutability": "view",
      "type": "function"
    },
    {
      "inputs": [
        {
          "internalType": "bytes32[]",
          "name": "dataKeys",
          "type": "bytes32[]"
        }
      ],
      "name": "getDataBatch",
      "outputs": [
        {
          "internalType": "bytes[]",
          "name": "dataValues",
          "type": "bytes[]"
        }
      ],
      "stateMutability": "view",
      "type": "function"
    },
    {
      "inputs": [
        {
          "internalType": "bytes32[]",
          "name": "tokenIds",
          "type": "bytes32[]"
        },
        {
          "internalType": "bytes32[]",
          "name": "dataKeys",
          "type": "bytes32[]"
        }
      ],
      "name": "getDataBatchForTokenIds",
      "outputs": [
        {
          "internalType": "bytes[]",
          "name": "dataValues",
          "type": "bytes[]"
        }
      ],
      "stateMutability": "view",
      "type": "function"
    },
    {
      "inputs": [
        {
          "internalType": "bytes32",
          "name": "tokenId",
          "type": "bytes32"
        },
        {
          "internalType": "bytes32",
          "name": "dataKey",
          "type": "bytes32"
        }
      ],
      "name": "getDataForTokenId",
      "outputs": [
        {
          "internalType": "bytes",
          "name": "dataValue",
          "type": "bytes"
        }
      ],
      "stateMutability": "view",
      "type": "function"
    },
    {
      "inputs": [
        {
          "internalType": "bytes32",
          "name": "tokenId",
          "type": "bytes32"
        }
      ],
      "name": "getOperatorsOf",
      "outputs": [
        {
          "internalType": "address[]",
          "name": "",
          "type": "address[]"
        }
      ],
      "stateMutability": "view",
      "type": "function"
    },
    {
      "inputs": [],
      "name": "getTopTenContributors",
      "outputs": [
        {
          "internalType": "address[10]",
          "name": "",
          "type": "address[10]"
        },
        {
          "internalType": "uint256[10]",
          "name": "",
          "type": "uint256[10]"
        }
      ],
      "stateMutability": "view",
      "type": "function"
    },
    {
      "inputs": [],
      "name": "getTotalContributors",
      "outputs": [
        {
          "internalType": "uint256",
          "name": "",
          "type": "uint256"
        }
      ],
      "stateMutability": "view",
      "type": "function"
    },
    {
      "inputs": [],
      "name": "getTotalFeesBurnt",
      "outputs": [
        {
          "internalType": "uint256",
          "name": "",
          "type": "uint256"
        }
      ],
      "stateMutability": "view",
      "type": "function"
    },
    {
      "inputs": [],
      "name": "getTotalIterations",
      "outputs": [
        {
          "internalType": "uint256",
          "name": "",
          "type": "uint256"
        }
      ],
      "stateMutability": "view",
      "type": "function"
    },
    {
      "inputs": [
        {
          "internalType": "address",
          "name": "operator",
          "type": "address"
        },
        {
          "internalType": "bytes32",
          "name": "tokenId",
          "type": "bytes32"
        }
      ],
      "name": "isOperatorFor",
      "outputs": [
        {
          "internalType": "bool",
          "name": "",
          "type": "bool"
        }
      ],
      "stateMutability": "view",
      "type": "function"
    },
    {
      "inputs": [],
      "name": "isOriginalUnclaimed",
      "outputs": [
        {
          "internalType": "bool",
          "name": "",
          "type": "bool"
        }
      ],
      "stateMutability": "view",
      "type": "function"
    },
    {
      "inputs": [
        {
          "internalType": "bytes32",
          "name": "archiveId",
          "type": "bytes32"
        },
        {
          "internalType": "address",
          "name": "to",
          "type": "address"
        }
      ],
      "name": "mintArchive",
      "outputs": [],
      "stateMutability": "nonpayable",
      "type": "function"
    },
    {
      "inputs": [
        {
          "internalType": "bytes32",
          "name": "archiveId",
          "type": "bytes32"
        }
      ],
      "name": "mintArchive",
      "outputs": [],
      "stateMutability": "nonpayable",
      "type": "function"
    },
    {
      "inputs": [],
      "name": "multiplier",
      "outputs": [
        {
          "internalType": "uint256",
          "name": "",
          "type": "uint256"
        }
      ],
      "stateMutability": "view",
      "type": "function"
    },
    {
      "inputs": [],
      "name": "owner",
      "outputs": [
        {
          "internalType": "address",
          "name": "",
          "type": "address"
        }
      ],
      "stateMutability": "view",
      "type": "function"
    },
    {
      "inputs": [
        {
          "internalType": "uint256",
          "name": "iters",
          "type": "uint256"
        }
      ],
      "name": "refineToArchive",
      "outputs": [],
      "stateMutability": "nonpayable",
      "type": "function"
    },
    {
      "inputs": [
        {
          "internalType": "uint256",
          "name": "iters",
          "type": "uint256"
        },
        {
          "internalType": "address",
          "name": "contributor",
          "type": "address"
        }
      ],
      "name": "refineToArchive",
      "outputs": [],
      "stateMutability": "nonpayable",
      "type": "function"
    },
    {
      "inputs": [],
      "name": "renounceOwnership",
      "outputs": [],
      "stateMutability": "nonpayable",
      "type": "function"
    },
    {
      "inputs": [
        {
          "internalType": "address",
          "name": "operator",
          "type": "address"
        },
        {
          "internalType": "bytes32",
          "name": "tokenId",
          "type": "bytes32"
        },
        {
          "internalType": "bool",
          "name": "notify",
          "type": "bool"
        },
        {
          "internalType": "bytes",
          "name": "operatorNotificationData",
          "type": "bytes"
        }
      ],
      "name": "revokeOperator",
      "outputs": [],
      "stateMutability": "nonpayable",
      "type": "function"
    },
    {
      "inputs": [
        {
          "internalType": "bytes32",
          "name": "dataKey",
          "type": "bytes32"
        },
        {
          "internalType": "bytes",
          "name": "dataValue",
          "type": "bytes"
        }
      ],
      "name": "setData",
      "outputs": [],
      "stateMutability": "payable",
      "type": "function"
    },
    {
      "inputs": [
        {
          "internalType": "bytes32[]",
          "name": "dataKeys",
          "type": "bytes32[]"
        },
        {
          "internalType": "bytes[]",
          "name": "dataValues",
          "type": "bytes[]"
        }
      ],
      "name": "setDataBatch",
      "outputs": [],
      "stateMutability": "payable",
      "type": "function"
    },
    {
      "inputs": [
        {
          "internalType": "bytes32[]",
          "name": "tokenIds",
          "type": "bytes32[]"
        },
        {
          "internalType": "bytes32[]",
          "name": "dataKeys",
          "type": "bytes32[]"
        },
        {
          "internalType": "bytes[]",
          "name": "dataValues",
          "type": "bytes[]"
        }
      ],
      "name": "setDataBatchForTokenIds",
      "outputs": [],
      "stateMutability": "nonpayable",
      "type": "function"
    },
    {
      "inputs": [
        {
          "internalType": "bytes32",
          "name": "tokenId",
          "type": "bytes32"
        },
        {
          "internalType": "bytes32",
          "name": "dataKey",
          "type": "bytes32"
        },
        {
          "internalType": "bytes",
          "name": "dataValue",
          "type": "bytes"
        }
      ],
      "name": "setDataForTokenId",
      "outputs": [],
      "stateMutability": "nonpayable",
      "type": "function"
    },
    {
      "inputs": [
        {
          "internalType": "bytes4",
          "name": "interfaceId",
          "type": "bytes4"
        }
      ],
      "name": "supportsInterface",
      "outputs": [
        {
          "internalType": "bool",
          "name": "",
          "type": "bool"
        }
      ],
      "stateMutability": "view",
      "type": "function"
    },
    {
      "inputs": [
        {
          "internalType": "address",
          "name": "tokenOwner",
          "type": "address"
        }
      ],
      "name": "tokenIdsOf",
      "outputs": [
        {
          "internalType": "bytes32[]",
          "name": "",
          "type": "bytes32[]"
        }
      ],
      "stateMutability": "view",
      "type": "function"
    },
    {
      "inputs": [
        {
          "internalType": "bytes32",
          "name": "tokenId",
          "type": "bytes32"
        }
      ],
      "name": "tokenOwnerOf",
      "outputs": [
        {
          "internalType": "address",
          "name": "",
          "type": "address"
        }
      ],
      "stateMutability": "view",
      "type": "function"
    },
    {
      "inputs": [],
      "name": "tokenSupplyCap",
      "outputs": [
        {
          "internalType": "uint256",
          "name": "",
          "type": "uint256"
        }
      ],
      "stateMutability": "view",
      "type": "function"
    },
    {
      "inputs": [],
      "name": "totalSupply",
      "outputs": [
        {
          "internalType": "uint256",
          "name": "",
          "type": "uint256"
        }
      ],
      "stateMutability": "view",
      "type": "function"
    },
    {
      "inputs": [
        {
          "internalType": "address",
          "name": "from",
          "type": "address"
        },
        {
          "internalType": "address",
          "name": "to",
          "type": "address"
        },
        {
          "internalType": "bytes32",
          "name": "tokenId",
          "type": "bytes32"
        },
        {
          "internalType": "bool",
          "name": "force",
          "type": "bool"
        },
        {
          "internalType": "bytes",
          "name": "data",
          "type": "bytes"
        }
      ],
      "name": "transfer",
      "outputs": [],
      "stateMutability": "nonpayable",
      "type": "function"
    },
    {
      "inputs": [
        {
          "internalType": "address[]",
          "name": "from",
          "type": "address[]"
        },
        {
          "internalType": "address[]",
          "name": "to",
          "type": "address[]"
        },
        {
          "internalType": "bytes32[]",
          "name": "tokenId",
          "type": "bytes32[]"
        },
        {
          "internalType": "bool[]",
          "name": "force",
          "type": "bool[]"
        },
        {
          "internalType": "bytes[]",
          "name": "data",
          "type": "bytes[]"
        }
      ],
      "name": "transferBatch",
      "outputs": [],
      "stateMutability": "nonpayable",
      "type": "function"
    },
    {
      "inputs": [
        {
          "internalType": "address",
          "name": "newOwner",
          "type": "address"
        }
      ],
      "name": "transferOwnership",
      "outputs": [],
      "stateMutability": "nonpayable",
      "type": "function"
    },
    {
      "inputs": [],
      "name": "winnerIters",
      "outputs": [
        {
          "internalType": "uint256",
          "name": "",
          "type": "uint256"
        }
      ],
      "stateMutability": "view",
      "type": "function"
    },
    {
      "stateMutability": "payable",
      "type": "receive"
    }
  ],
  "bytecode": "0x610140806040523462001132576101008162005c18803803809162000025828562001654565b83398101031262001132576200003b8162001678565b620000496020830162001678565b91620000586040820162001678565b91620000676060830162001678565b93608083015160a084015160e060c0860151950151906040516200008b8162001638565b601c81527f4275726e74205069782041726368697665733a20536561736f6e203100000000602082015260405190620000c48262001638565b60068252654255524e543160d01b60208301526001600160a01b038916801562001626576000546001600160a01b038116808303620015e8575b5050506040516200010f8162001638565b60048152632936598960e21b60208083019190915260008051602062005b788339815191526000526001905280517f072b2e8bf50bc459a586397c8474185d5dad5ea3d82533658159d53147c7bb39906001600160401b03811162000daf578154600181811c91168015620015dd575b602082101462000d8e57601f811162001594575b506020601f82116001146200151d579260008051602062005bf88339815191529282620001f59360008051602062005b788339815191529660009162000cb5575b508160011b916000199060031b1c19161790555b604051918291826200168d565b0390a260008051602062005b38833981519152600052600160205280517f2a367ae1ac46d529739aa27ac74856f860e70af05d3642d18ba60fd5d32a069a906001600160401b03811162000daf578154600181811c9116801562001512575b602082101462000d8e57601f8111620014c9575b506020601f821160011462001452579260008051602062005bf88339815191529282620002c89360008051602062005b388339815191529660009162000cb557508160011b916000199060031b1c1916179055604051918291826200168d565b0390a260008051602062005bb8833981519152600052600160205280517f83b322886c7b7e25779e5d38e06e005c9e7aba1e1267ce9210cf24e31833535a906001600160401b03811162000daf578154600181811c9116801562001447575b602082101462000d8e57601f8111620013fe575b506020601f821160011462001387579260008051602062005bf883398151915292826200039b9360008051602062005bb88339815191529660009162000cb557508160011b916000199060031b1c1916179055604051918291826200168d565b0390a26040516002602082015260208152620003b78162001638565b60008051602062005b58833981519152600052600160205280517ff73b01b344a9bb3b96525b0cb731f6b14cde20ce6cecea8459266944490b411f906001600160401b03811162000daf578154600181811c911680156200137c575b602082101462000d8e57601f811162001333575b506020601f8211600114620012bc579260008051602062005bf88339815191529282620004879360008051602062005b588339815191529660009162000cb557508160011b916000199060031b1c1916179055604051918291826200168d565b0390a26040516000602082015260208152620004a38162001638565b60008051602062005b98833981519152600052600160205280517f01f5eb934e794ddcc86b89a579078013860f8fe92140885511742594f219ad0b906001600160401b03811162000daf578154600181811c91168015620012b1575b602082101462000d8e57601f811162001268575b506020601f8211600114620011f1579260008051602062005bf88339815191529282620005739360008051602062005b988339815191529660009162000cb557508160011b916000199060031b1c1916179055604051918291826200168d565b0390a28015620011df576080526001600955604051637b10399960e01b8152946020866004816001600160a01b0387165afa958615620011405760009662001195575b5060c084905260e08390526101205261010052604051632468294560e11b81526001600160a01b0391821660048201529360209185916024918391165afa92831562001140576000936200114c575b5060405163319c665560e01b81523060048201526001600160a01b03928316602482015263ffffffff909316604484015260209183916064918391600091165af19081156200114057600091620010f9575b5060a052604051620006698162001638565b60108152600160801b60208083019190915260008051602062005bd88339815191526000526001905280517fde5f0adbf2cf136848982dd95860bdc3e6d8709a8a51ce1295c645c6da617db7906001600160401b03811162000daf578154600181811c91168015620010ee575b602082101462000d8e57601f8111620010a5575b506020601f82116001146200102e579260008051602062005bf883398151915292826200074a9360008051602062005bd88339815191529660009162000cb557508160011b916000199060031b1c1916179055604051918291826200168d565b0390a2604051606082901b6001600160601b031916602082015260148152620007738162001638565b6f0452f40ece91b521d65a03607aecad0560821b600052600160205280517fadf994b8d5b80a46660e628eabff2156c328d301fe5ea8e44cf09dee1b43e512906001600160401b03811162000daf578154600181811c9116801562001023575b602082101462000d8e57601f811162000fda575b50806020601f821160011462000f6e5760009162000f62575b508160011b916000199060031b1c19161790555b60008051602062005bf883398151915260405180620008486f0452f40ece91b521d65a03607aecad0560821b94826200168d565b0390a260405169036f42f57aecc15a72ed60b51b60208083019182526000602a84015260609390931b6001600160601b031916602c8301529181526200088e8162001638565b519051906020811062000f4f575b50604051620008ab8162001638565b601481526324871b3d60e01b602082015260008051602062005b98833981519152821462000f3d5760008051602062005b388339815191528203620008fc576040516385c169bd60e01b8152600490fd5b60008051602062005bb883398151915282036200092557604051630eceab6760e31b8152600490fd5b60008051602062005b5883398151915282036200094e57604051634ef6d7fb60e01b8152600490fd5b600082815260016020526040902081516001600160401b03811162000daf578154600181811c9116801562000f32575b602082101462000d8e57601f811162000ee9575b506020601f821160011462000e8257918160008051602062005bf88339815191529492620009e29460009162000cb557508160011b916000199060031b1c1916179055604051918291826200168d565b0390a2604051600760f21b60208201526324871b3d60e01b602282015260609190911b6001600160601b031916602682015261027160e31b603a820152601e815262000a2e8162001638565b7fc0569ca6c9180acc2c3590f36330a36ae19015a19f4e85c28a7631e3317e6b9d600081905260016020528151917f715c60721fcb432a46c53ac3ceeefe86aa51a6c564859a02664da1de59a8cd606001600160401b03841162000daf578054600181811c9116801562000e77575b602082101462000d8e57601f811162000e2a575b50602093601f811160011462000dc557908162000b03939260008051602062005bf8833981519152959660009162000cb557508160011b916000199060031b1c1916179055604051918291826200168d565b0390a260405162000b148162001638565b6001808252600160f81b6020808401919091527f580d62ad353782eca17b89e5900e7df3b13b6f4ca9bbc2f8af8bceb0c3d1ecc660008190529190528151917f5e76a7f64a9621e22ad92c14e6ce74c38bd120088a539660dc579eab8430b2f46001600160401b03841162000daf578054600181811c9116801562000da4575b602082101462000d8e57601f811162000d41575b50602093601f811160011462000cc157908162000bfa939260008051602062005bf8833981519152959660009162000cb557508160011b916000199060031b1c1916179055604051918291826200168d565b0390a260405161445f9081620016d98239608051818181610e4f01528181612bf80152613646015260a0518181816104f601528181610c0c01528181610fea01528181612cb20152613956015260c0518181816114ca01528181612eb10152818161357f01526139a5015260e05181818161102b01528181611be40152818161246a01528181612c2c01528181613551015261397e0152610100518181816114600152612dd401526101205181818161057c0152612e7b0152f35b905083015138620001d4565b601f1981168260005260206000209060005b81811062000d2857509160019160008051602062005bf883398151915296978262000bfa9796951062000d0e575b5050811b019055620001e8565b85015160001960f88460031b161c19169055388062000d01565b8588015183556020978801976001909301920162000cd3565b816000526020600020601f860160051c8101916020871062000d83575b601f0160051c01905b81811062000d76575062000ba8565b6000815560010162000d67565b909150819062000d5e565b634e487b7160e01b600052602260045260246000fd5b90607f169062000b94565b634e487b7160e01b600052604160045260246000fd5b601f1981168260005260206000209060005b81811062000e1157509160019160008051602062005bf883398151915296978262000b039796951062000d0e575050811b019055620001e8565b8588015183556020978801976001909301920162000dd7565b816000526020600020601f860160051c8101916020871062000e6c575b601f0160051c01905b81811062000e5f575062000ab1565b6000815560010162000e50565b909150819062000e47565b90607f169062000a9d565b8260005260206000209060005b601f198416811062000ed0575082620009e2949260019260008051602062005bf88339815191529795601f1981161062000d0e575050811b019055620001e8565b9091602060018192858901518155019301910162000e8f565b826000526020600020601f830160051c81016020841062000f2a575b601f830160051c8201811062000f1d57505062000992565b6000815560010162000f05565b508062000f05565b90607f16906200097e565b604051631b32400560e11b8152600490fd5b6000199060200360031b1b16386200089c565b90508301513862000800565b91508260005260206000206000925b601f198316841062000fc1576001935082601f1981161062000fa7575b5050811b01905562000814565b85015160001960f88460031b161c19169055388062000f9a565b8581015182556020938401936001909201910162000f7d565b826000526020600020601f830160051c8101602084106200101b575b601f830160051c820181106200100e575050620007e7565b6000815560010162000ff6565b508062000ff6565b90607f1690620007d3565b8260005260206000209060005b601f19841681106200108c57509260018360008051602062005bd8833981519152969360008051602062005bf8833981519152966200074a96601f1981161062000d0e575050811b019055620001e8565b909160206001819285890151815501930191016200103b565b826000526020600020601f830160051c810160208410620010e6575b601f830160051c82018110620010d9575050620006ea565b60008155600101620010c1565b5080620010c1565b90607f1690620006d6565b90506020813d60201162001137575b81620011176020938362001654565b8101031262001132576200112b9062001678565b3862000657565b600080fd5b3d915062001108565b6040513d6000823e3d90fd5b9092506020813d6020116200118c575b816200116b6020938362001654565b810103126200113257519163ffffffff831683036200113257606462000605565b3d91506200115c565b92919095506020833d602011620011d6575b81620011b66020938362001654565b810103126200113257620011cc60209362001678565b95909192620005b6565b3d9150620011a7565b60405163038d9fc360e41b8152600490fd5b8260005260206000209060005b601f19841681106200124f57509260018360008051602062005b98833981519152969360008051602062005bf8833981519152966200057396601f1981161062000d0e575050811b019055620001e8565b90916020600181928589015181550193019101620011fe565b826000526020600020601f830160051c810160208410620012a9575b601f830160051c820181106200129c57505062000513565b6000815560010162001284565b508062001284565b90607f1690620004ff565b8260005260206000209060005b601f19841681106200131a57509260018360008051602062005b58833981519152969360008051602062005bf8833981519152966200048796601f1981161062000d0e575050811b019055620001e8565b90916020600181928589015181550193019101620012c9565b826000526020600020601f830160051c81016020841062001374575b601f830160051c820181106200136757505062000427565b600081556001016200134f565b50806200134f565b90607f169062000413565b8260005260206000209060005b601f1984168110620013e557509260018360008051602062005bb8833981519152969360008051602062005bf8833981519152966200039b96601f1981161062000d0e575050811b019055620001e8565b9091602060018192858901518155019301910162001394565b826000526020600020601f830160051c8101602084106200143f575b601f830160051c82018110620014325750506200033b565b600081556001016200141a565b50806200141a565b90607f169062000327565b8260005260206000209060005b601f1984168110620014b057509260018360008051602062005b38833981519152969360008051602062005bf883398151915296620002c896601f1981161062000d0e575050811b019055620001e8565b909160206001819285890151815501930191016200145f565b826000526020600020601f830160051c8101602084106200150a575b601f830160051c82018110620014fd57505062000268565b60008155600101620014e5565b5080620014e5565b90607f169062000254565b8260005260206000209060005b601f19841681106200157b57509260018360008051602062005b78833981519152969360008051602062005bf883398151915296620001f596601f1981161062000d0e575050811b019055620001e8565b909160206001819285890151815501930191016200152a565b826000526020600020601f830160051c810160208410620015d5575b601f830160051c82018110620015c857505062000193565b60008155600101620015b0565b5080620015b0565b90607f16906200017f565b82907f8be0079c531659141344cd1fd0a4f28419497f9722a3daafe3b4186f6b6457e0600080a36001600160a01b03191617600055388080620000fe565b6040516306b620db60e21b8152600490fd5b604081019081106001600160401b0382111762000daf57604052565b601f909101601f19168101906001600160401b0382119082101762000daf57604052565b51906001600160a01b03821682036200113257565b6020808252825181830181905290939260005b828110620016c357505060409293506000838284010152601f8019910116010190565b818101860151848201604001528501620016a056fe6080604052600436101561002a575b36156100255761001d3661332a565b602081519101f35b6132d4565b60003560e01c806301ffc9a71461030a57806316e023b31461030557806318160ddd146103005780631971f4be146102fb5780631b3ed722146102f65780631ba1e3ea146102f15780631d26fce6146102ec5780631d2aeefc146102e75780631ff5db4a146102e2578063217b2270146102dd5780632a3654a4146102d85780633aee5302146102d35780633cb5d100146102ce57806342e94c90146102c95780634488623e146102c457806349a6078d146102bf5780634df8e7f6146102ba578063511b6952146102b557806352058d8a146102b057806354f6127f146102ab5780636963d438146102a657806370a08231146102a1578063715018a61461029c57806376d70ca7146102975780637e0ab786146102925780637e87632c1461028d5780637f23690c1461028857806386a10ddd146102835780638d24306e1461027e5780638da5cb5b1461027957806390eb6bf01461027457806394ec85061461026f578063979024211461026a578063a3b261f214610265578063a47aa2d414610260578063ac7009381461025b578063af157c1914610256578063be9f0e6f14610251578063d09f34731461024c578063d6c1407c14610247578063da16e45414610242578063db8c96631461023d578063dc58a56c14610238578063dedff9c614610233578063f2fde38b1461022e5763f925c7be0361000e57611e6f565b611dc1565b611d39565b611d1b565b611c07565b611bcc565b611b85565b611b02565b61190c565b611888565b61186a565b611842565b6117c3565b6116cc565b611553565b6114aa565b611483565b611448565b6112ad565b611257565b6111bd565b6110b9565b610f9f565b610f35565b610ef7565b610e91565b610e72565b610e37565b610dd4565b610d44565b610c75565b610bec565b610bab565b610b51565b610a32565b610957565b610928565b610900565b6108e1565b610818565b6105ec565b610564565b6104c8565b6104aa565b610469565b34610408576020366003190112610408576004356001600160e01b031981168082036104085761037a917f3a27170600000000000000000000000000000000000000000000000000000000821491821561038e575b50811561037e575b5060405190151581529081906020820190565b0390f35b6103889150613376565b38610367565b9091507fa918fa6b0000000000000000000000000000000000000000000000000000000081149081156103c4575b50903861035f565b7f629aa694000000000000000000000000000000000000000000000000000000008114915081156103f7575b50386103bc565b6301ffc9a760e01b915014386103f0565b600080fd5b60005b8381106104205750506000910152565b8181015183820152602001610410565b906020916104498151809281855285808601910161040d565b601f01601f1916010190565b906020610466928181520190610430565b90565b346104085760403660031901126104085761037a61048b60243560043561349a565b604051918291602083526020830190610430565b600091031261040857565b34610408576000366003190112610408576020600254604051908152f35b34610408576000366003190112610408576040516321ac695f60e11b81526020816004816001600160a01b037f0000000000000000000000000000000000000000000000000000000000000000165afa801561055f57602091600091610532575b50604051908152f35b6105529150823d8411610558575b61054a81836106fa565b810190611e8c565b38610529565b503d610540565b611e9b565b346104085760003660031901126104085760206040517f00000000000000000000000000000000000000000000000000000000000000008152f35b6001600160a01b0381160361040857565b602090602060408183019282815285518094520193019160005b8281106105d8575050505090565b8351855293810193928101926001016105ca565b3461040857602080600319360112610408576001600160a01b036004356106128161059f565b16600052600b6020526040600020906040519081602084549182815201936000526020600020916000905b8282106106605761037a85610654818903826106fa565b604051918291826105b0565b83548652948501946001938401939091019061063d565b634e487b7160e01b600052604160045260246000fd5b67ffffffffffffffff81116106a157604052565b610677565b6020810190811067ffffffffffffffff8211176106a157604052565b6040810190811067ffffffffffffffff8211176106a157604052565b6060810190811067ffffffffffffffff8211176106a157604052565b90601f8019910116810190811067ffffffffffffffff8211176106a157604052565b6040519060a0820182811067ffffffffffffffff8211176106a157604052565b67ffffffffffffffff81116106a15760051b60200190565b9080601f8301121561040857602090823561076e8161073c565b9361077c60405195866106fa565b81855260208086019260051b82010192831161040857602001905b8282106107a5575050505090565b81358152908301908301610797565b6020808201906020835283518092526040830192602060408460051b8301019501936000915b8483106107ea5750505050505090565b9091929394958480610808600193603f198682030187528a51610430565b98019301930191949392906107da565b346104085760403660031901126104085767ffffffffffffffff6004358181116104085761084a903690600401610754565b9060243590811161040857610863903690600401610754565b9080518251036108d0576108778151611ea7565b9160005b82518110156108c257806108a661089460019386611ef1565b5161089f8386611ef1565b519061349a565b6108b08287611ef1565b526108bb8186611ef1565b500161087b565b6040518061037a86826107b4565b60046040516317d38eff60e11b8152fd5b34610408576020366003190112610408576108fe33600435612be7565b005b34610408576040366003190112610408576108fe6024356109208161059f565b600435611f89565b34610408576020366003190112610408576020610946600435612023565b6001600160a01b0360405191168152f35b346104085760403660031901126104085760206109826004356109798161059f565b602435906137c2565b6040519015158152f35b9080601f830112156104085760209082356109a68161073c565b936109b460405195866106fa565b81855260208086019260051b82010192831161040857602001905b8282106109dd575050505090565b83809183356109eb8161059f565b8152019101906109cf565b602090602060408183019282815285518094520193019160005b828110610a1e575050505090565b835185529381019392810192600101610a10565b34610408576020806003193601126104085760043567ffffffffffffffff811161040857610a6490369060040161098c565b8051610a6f8161073c565b92604091610a8060405195866106fa565b808552610a8f601f199161073c565b0136602086013760009060005b8451811015610ad957806001600160a01b03610aba60019388611ef1565b51168452600b8352818585200154610ad28289611ef1565b5201610a9c565b6040518061037a88826109f6565b634e487b7160e01b600052603260045260246000fd5b600754811015610b345760076000527fa66cc928b5edb82af9bd49922954155ab7b0942694bea4ce44661d9a8736c6880190600090565b610ae7565b8054821015610b345760005260206000200190600090565b3461040857602036600319011261040857600435600754811015610408576001600160a01b0360209160076000527fa66cc928b5edb82af9bd49922954155ab7b0942694bea4ce44661d9a8736c688015416604051908152f35b34610408576020366003190112610408576001600160a01b03600435610bd08161059f565b16600052600b6020526020600160406000200154604051908152f35b346104085760003660031901126104085760206040516001600160a01b037f0000000000000000000000000000000000000000000000000000000000000000168152f35b602090602060408183019282815285518094520193019160005b828110610c58575050505090565b83516001600160a01b031685529381019392810192600101610c4a565b346104085760208060031936011261040857600435610caa8160005260036020526001600160a01b0360406000205416151590565b15610d135760005260056020526040600020906040519081602084549182815201936000526020600020916000905b828210610cfc5761037a85610cf0818903826106fa565b60405191829182610c30565b835486529485019460019384019390910190610cd9565b602490604051907fae8f9a360000000000000000000000000000000000000000000000000000000082526004820152fd5b34610408576000366003190112610408576020600854604051908152f35b60443590811515820361040857565b67ffffffffffffffff81116106a157601f01601f191660200190565b81601f8201121561040857803590610da482610d71565b92610db260405194856106fa565b8284526020838301011161040857816000926020809301838601378301015290565b346104085760a036600319011261040857600435610df18161059f565b602435610dfd8161059f565b6064358015158103610408576084359267ffffffffffffffff841161040857610e2d6108fe943690600401610d8d565b9260443591612046565b346104085760003660031901126104085760206040517f00000000000000000000000000000000000000000000000000000000000000008152f35b346104085760203660031901126104085761037a61048b6004356138c8565b346104085760203660031901126104085767ffffffffffffffff6004358181116104085736602382011215610408578060040135918211610408573660248360051b830101116104085761037a916024610eeb92016122e2565b604051918291826107b4565b34610408576020366003190112610408576001600160a01b03600435610f1c8161059f565b1660005260046020526020604060002054604051908152f35b3461040857600080600319360112610f9c57610f4f6139d9565b80546001600160a01b038116908282610f655780f35b6001600160a01b0319927f8be0079c531659141344cd1fd0a4f28419497f9722a3daafe3b4186f6b6457e08280a316815538808280f35b80fd5b34610408576000366003190112610408576001600160a01b036040517fe710563c000000000000000000000000000000000000000000000000000000008082526020918281600481877f0000000000000000000000000000000000000000000000000000000000000000165afa91821561055f57839160009361109a575b5060046040518096819382527f0000000000000000000000000000000000000000000000000000000000000000165afa90811561055f5761037a9361106b9360009361107b575b50506123c2565b6040519081529081906020820190565b611092929350803d106105585761054a81836106fa565b903880611064565b6110b2919350823d84116105585761054a81836106fa565b913861101d565b34610408576000366003190112610408576020610982612468565b9080601f830112156104085760209082356110ee8161073c565b936110fc60405195866106fa565b81855260208086019260051b82010192831161040857602001905b828210611125575050505090565b81358015158103610408578152908301908301611117565b81601f82011215610408578035916020916111578461073c565b9361116560405195866106fa565b808552838086019160051b8301019280841161040857848301915b8483106111905750505050505090565b823567ffffffffffffffff81116104085786916111b284848094890101610d8d565b815201920191611180565b346104085760a036600319011261040857600467ffffffffffffffff8135818111610408576111ef903690840161098c565b9060243581811161040857611207903690850161098c565b6044358281116104085761121e9036908601610754565b906064358381116104085761123690369087016110d4565b92608435908111610408576108fe956112519136910161113d565b936125ea565b60403660031901126104085760243567ffffffffffffffff811161040857611283903690600401610d8d565b61128b6139d9565b3461129c576108fe90600435613a1d565b600460405163f36ba73760e01b8152fd5b346104085760603660031901126104085760048035906112cc8261059f565b60243560443567ffffffffffffffff8111610408576112ee9036908401610d8d565b916112f882612023565b906001600160a01b038083169233840361141157508516908115611402578183146113f35761134161133d87611338876000526005602052604060002090565b613bb0565b1590565b6113a9575091806113a4926108fe96947f1b1b58aa2ec0cec2228b2d37124556d41f5a1f7b12f089171f896cc236671215604051806113808a82610455565b0390a461139660405194859233602085016126c5565b03601f1981018452836106fa565b61423b565b604080517fa7626b680000000000000000000000000000000000000000000000000000000081526001600160a01b03881692810192835260208301869052918291010390fd5b0390fd5b6040516344fed6b160e11b8152fd5b604051639577b8b360e01b8152fd5b60408051632d938f5160e11b81526001600160a01b0390921682850190815260208101879052339181019190915281906060010390fd5b346104085760003660031901126104085760206040517f00000000000000000000000000000000000000000000000000000000000000008152f35b346104085760003660031901126104085760206001600160a01b0360005416604051908152f35b346104085760003660031901126104085760206040516001600160a01b037f0000000000000000000000000000000000000000000000000000000000000000168152f35b6102808101939291600090825b600a83106115335750505061014001906000915b600a831061151c57505050565b60019082518152602080910192019201919061150f565b6001906001600160a01b03835116815260208091019201920191906114fb565b34610408576000806003193601126104085761156d61271d565b5061157661271d565b5061157f61271d565b61158761271d565b600754909260005b8281106115a85750505061037a604051928392836114ee565b6115b181610afd565b905460019182916115e29160031b1c6001600160a01b03166001600160a01b0316600052600b602052604060002090565b0154835b600a81106115fa575b50505060010161158f565b6116048189612742565b5182116116125782016115e6565b915060095b82811161167157508161166991611631600195948a612742565b5261165b61165461164185610afd565b90546001600160a01b039160031b1c1690565b9188612742565b906001600160a01b03169052565b9038806115ef565b806116876116816116c793612753565b8a612742565b51611692828b612742565b526116c26116b86116ab6116a584612753565b8b612742565b516001600160a01b031690565b61165b838b612742565b61276f565b611617565b604036600319011261040857600467ffffffffffffffff8135818111610408576116f99036908401610754565b9060243590811161040857611711903690840161113d565b9161171a6139d9565b346117b457815183510361178c57815115611764575060005b81518110156108fe578061175e61174c60019385611ef1565b516117578387611ef1565b5190613a1d565b01611733565b6040517f97da5f95000000000000000000000000000000000000000000000000000000008152fd5b6040517f3bcc8979000000000000000000000000000000000000000000000000000000008152fd5b60405163f36ba73760e01b8152fd5b3461040857602080600319360112610408576001600160a01b036004356117e98161059f565b1660005260046020526040600020906040519081602084549182815201936000526020600020916000905b82821061182b5761037a85610654818903826106fa565b835486529485019460019384019390910190611814565b34610408576040366003190112610408576108fe6024356118628161059f565b600435612be7565b34610408576000366003190112610408576020600954604051908152f35b3461040857600036600319011261040857604051806007549182815260208091019260076000527fa66cc928b5edb82af9bd49922954155ab7b0942694bea4ce44661d9a8736c688916000905b8282106118ec5761037a85610cf0818903826106fa565b83546001600160a01b0316865294850194600193840193909101906118d5565b3461040857606036600319011261040857600467ffffffffffffffff81358181116104085761193e9036908401610754565b602435828111610408576119559036908501610754565b916044359081116104085761196d903690850161113d565b926119766139d9565b8151835180911490811591611a09575b506119fa578151156119d2575060005b81518110156108fe57806119cc6119af60019385611ef1565b516119ba8387611ef1565b516119c58489611ef1565b5191613bc3565b01611996565b6040517f80c98305000000000000000000000000000000000000000000000000000000008152fd5b6040516317d38eff60e11b8152fd5b90508451141538611986565b90600182811c92168015611a45575b6020831014611a2f57565b634e487b7160e01b600052602260045260246000fd5b91607f1691611a24565b805460009392611a5e82611a15565b91828252602093600191600181169081600014611ac65750600114611a85575b5050505050565b90939495506000929192528360002092846000945b838610611ab257505050500101903880808080611a7e565b805485870183015294019385908201611a9a565b60ff19168685015250505090151560051b010191503880808080611a7e565b90611b00611af99260405193848092611a4f565b03836106fa565b565b3461040857602036600319011261040857600435600052600a602052611b6c604060002060405190611b3882611af98184611a4f565b6001810154906002810154906001600160a01b0360046003830154920154169160405195869560a0875260a0870190610430565b9360208601526040850152606084015260808301520390f35b346104085760603660031901126104085760443567ffffffffffffffff811161040857611bb96108fe913690600401610d8d565b611bc16139d9565b602435600435613bc3565b346104085760003660031901126104085760206040517f00000000000000000000000000000000000000000000000000000000000000008152f35b3461040857608036600319011261040857600435611c248161059f565b602435611c2f610d62565b9160643567ffffffffffffffff811161040857611c50903690600401610d8d565b611c5983612023565b936001600160a01b0380861690813303611ccb575b8416908115611cba5714611ca957611c898282868887613d0f565b611c8f57005b6108fe936113966113a492604051958693602085016126f1565b60046040516344fed6b160e11b8152fd5b6004604051639577b8b360e01b8152fd5b8481163314611c6e576040517f760b5acd0000000000000000000000000000000000000000000000000000000081523360048201526001600160a01b038816602482015260448101879052606490fd5b34610408576000366003190112610408576020600754604051908152f35b346104085760203660031901126104085760043567ffffffffffffffff811161040857611d6a903690600401610754565b611d748151611ea7565b9060005b8151811015611db35780611d97611d9160019385611ef1565b516138c8565b611da18286611ef1565b52611dac8185611ef1565b5001611d78565b6040518061037a85826107b4565b3461040857602036600319011261040857600435611dde8161059f565b611de66139d9565b6001600160a01b038091168015611e4557600091825490811690818303611e0b578380f35b826001600160a01b0319927f8be0079c531659141344cd1fd0a4f28419497f9722a3daafe3b4186f6b6457e08680a3161781553880808380f35b60046040517f1ad8836c000000000000000000000000000000000000000000000000000000008152fd5b34610408576020366003190112610408576108fe33600435611f89565b90816020910312610408575190565b6040513d6000823e3d90fd5b90611eb18261073c565b611ebe60405191826106fa565b8281528092611ecf601f199161073c565b019060005b828110611ee057505050565b806060602080938501015201611ed4565b8051821015610b345760209160051b010190565b15611f0c57565b608460405162461bcd60e51b815260206004820152603f60248201527f4275726e7450697841726368697665733a204f6e6c792074686520617263686960448201527f76652063726561746f722063616e206d696e74207468652061726368697665006064820152fd5b60405190611f83826106a6565b60008252565b9081600052600a6020526040600020916040519260a0840184811067ffffffffffffffff8211176106a157611b00946001600160a01b0360046120159484608095604052611fe6609f1986611fde8486611a4f565b0301826106fa565b845260018101546020850152600281015460408501526003810154606085015201541691829101523314611f05565b61201d611f76565b91613632565b8060005260036020526001600160a01b0360406000205416908115610d13575090565b9092939161205481336137c2565b1561222b5761206281612023565b6001600160a01b0381811691848216918284036121fb578088169384156121d15761208c86612023565b918216036121885750509261217e8380611b0099979461139699976120b46121839887613fbd565b6120da836120d5886001600160a01b03166000526004602052604060002090565b614374565b50612101836120fc8b6001600160a01b03166000526004602052604060002090565b614204565b506121358961211a856000526003602052604060002090565b906001600160a01b03166001600160a01b0319825416179055565b6040517fb333c813a7426a7a11e2b190cad52c44119421594b47f6f32ace6d8c7207b2bf90806121678a8e3384613834565b0390a4604051978894859288863360208701613891565b6142a6565b61413e565b6040517f5a9c31d3000000000000000000000000000000000000000000000000000000008152600481018690526001600160a01b03928316602482015291166044820152606490fd5b60046040517f24ecef4d000000000000000000000000000000000000000000000000000000008152fd5b604051632d938f5160e11b81526001600160a01b0383811660048301526024820187905287166044820152606490fd5b604490604051907f1294d2a90000000000000000000000000000000000000000000000000000000082526004820152336024820152fd5b9190811015610b345760051b81013590601e198136030182121561040857019081359167ffffffffffffffff8311610408576020018236038113610408579190565b908092918237016000815290565b3d156122dd573d906122c382610d71565b916122d160405193846106fa565b82523d6000602084013e565b606090565b91906122ed81611ea7565b9260009160005b8181106123015750505050565b838061230e838587612262565b604093916123208551809381936122a4565b0390305af49061232e6122b2565b91156123555750906001916123438289611ef1565b5261234e8188611ef1565b50016122f4565b81519192911561236757825160208401fd5b517f234eb819000000000000000000000000000000000000000000000000000000008152600481019190915260249150fd5b634e487b7160e01b600052601160045260246000fd5b90600182018092116123bd57565b612399565b919082018092116123bd57565b9081602091031261040857516104668161059f565b60209081818403126104085780519067ffffffffffffffff821161040857019180601f8401121561040857825161241a8161073c565b9361242860405195866106fa565b818552838086019260051b820101928311610408578301905b82821061244f575050505090565b838091835161245d8161059f565b815201910190612441565b7f00000000000000000000000000000000000000000000000000000000000000006001600160a01b0360405190637b10399960e01b825260209182816004818588165afa801561055f5782916000916125cd575b5016926040517f49a6078d000000000000000000000000000000000000000000000000000000008152600081806124fb85600483019190602083019252565b0381885afa90811561055f576000916125aa575b5051159384612520575b5050505090565b6040517f217b2270000000000000000000000000000000000000000000000000000000008152600481019290925292935090918390829060249082905afa92831561055f5760009361257b575b505016301438808080612519565b61259b929350803d106125a3575b61259381836106fa565b8101906123cf565b90388061256d565b503d612589565b6125c791503d806000833e6125bf81836106fa565b8101906123e4565b3861250f565b6125e49150843d86116125a35761259381836106fa565b386124bc565b9493909192855193835185148015906126ba575b80156126af575b80156126a4575b61267a5760005b858110612624575050505050509050565b806126746126376116ab6001948c611ef1565b6126446116ab848a611ef1565b61264e8487611ef1565b5161266261265c868a611ef1565b51151590565b9161266d868b611ef1565b5193612046565b01612613565b60046040517f93a83119000000000000000000000000000000000000000000000000000000008152fd5b50825185141561260c565b508151851415612605565b5080518514156125fe565b61046693926001600160a01b036080931682526020820152600160408201528160608201520190610430565b61046693926001600160a01b036080931682526020820152600060408201528160608201520190610430565b6040519061014080830183811067ffffffffffffffff8211176106a157604052368337565b90600a811015610b345760051b0190565b6000198101919082116123bd57565b919082039182116123bd57565b80156123bd576000190190565b1561278357565b608460405162461bcd60e51b815260206004820152603360248201527f4275726e7450697841726368697665733a20497465726174696f6e73206d757360448201527f742062652067726561746572207468616e2030000000000000000000000000006064820152fd5b156127f457565b608460405162461bcd60e51b815260206004820152602d60248201527f67673a204275726e742050697820417263686976657320536561736f6e20312060448201527f68617320636f6e636c75646564000000000000000000000000000000000000006064820152fd5b600754680100000000000000008110156106a1576001810180600755811015610b34576001600160a01b039060076000527fa66cc928b5edb82af9bd49922954155ab7b0942694bea4ce44661d9a8736c6880191166001600160a01b0319825416179055565b60001981146123bd5760010190565b916128ed9183549060031b91821b91600019901b19161790565b9055565b805490680100000000000000008210156106a157816129189160016128ed94018155610b39565b819391549060031b91821b91600019901b19161790565b6020818303126104085780519067ffffffffffffffff8211610408570181601f8201121561040857805161296281610d71565b9261297060405194856106fa565b8184526020828401011161040857610466916020808501910161040d565b90601f811161299c57505050565b6000916000526020600020906020601f850160051c830194106129da575b601f0160051c01915b8281106129cf57505050565b8181556001016129c3565b90925082906129ba565b919091825167ffffffffffffffff81116106a157612a0c81612a068454611a15565b8461298e565b602080601f8311600114612a4b575081906128ed939495600092612a40575b50508160011b916000199060031b1c19161790565b015190503880612a2b565b90601f19831695612a6185600052602060002090565b926000905b888210612a9e57505083600195969710612a85575b505050811b019055565b015160001960f88460031b161c19169055388080612a7b565b80600185968294968601518155019501930190612a66565b919091825192835167ffffffffffffffff81116106a157612ae181612adb8554611a15565b8561298e565b602080601f8311600114612b6b5750600492612b1f83612b4e94608094611b00999a600092612a405750508160011b916000199060031b1c19161790565b85555b60208101516001860155604081015160028601556060810151600386015501516001600160a01b031690565b9101906001600160a01b03166001600160a01b0319825416179055565b90601f19831696612b8186600052602060002090565b926000905b898210612bcf5750508360809360049693600193612b4e97611b009b9c10612bb6575b505050811b018555612b22565b015160001960f88460031b161c19169055388080612ba9565b80600185968294968601518155019501930190612b86565b90612bf382151561277c565b6002547f000000000000000000000000000000000000000000000000000000000000000080911080156132c1575b612c2a906127ed565b7f0000000000000000000000000000000000000000000000000000000000000000916001600160a01b039182841690604094855190637b10399960e01b825260209260049184848481895afa93841561055f576000946132a2575b50885193858585816321ac695f60e11b9a8b82525afa94851561055f57600095613283575b5089518781527f00000000000000000000000000000000000000000000000000000000000000008a1695878287818a5afa90811561055f57612cf492600092613264575b50612762565b90853b1561040857612d399160008d8d51809581927f4594229c0000000000000000000000000000000000000000000000000000000083528a83019190602083019252565b0381838b5af192831561055f578b93613251575b5080158015613248575b6131cb575b506001612d7c8a6001600160a01b0316600052600b602052604060002090565b0154156131bd575b6001612da38a6001600160a01b0316600052600b602052604060002090565b01612daf8d82546123c2565b90556001612dd08a6001600160a01b0316600052600b602052604060002090565b01547f00000000000000000000000000000000000000000000000000000000000000001115806131af575b613109575b505050612eac6001612e25886001600160a01b0316600052600b602052604060002090565b015485612e4e612e488a6001600160a01b0316600052600b602052604060002090565b546123af565b8b517f2148dd610000000000000000000000000000000000000000000000000000000081528681019182527f000000000000000000000000000000000000000000000000000000000000000060208301529384918291604090910190565b03818c7f0000000000000000000000000000000000000000000000000000000000000000165afa91821561055f576000926130ea575b50101590816130de575b50612f2a575b505093519485525016917f114ec287c9923ae9467a3045ca9dca773ee5b7d0e311a972027132f0f80f9aed915080602081015b0390a2565b612f39600897939497546128c4565b96612f4388600855565b612f6988612f64886001600160a01b0316600052600b602052604060002090565b6128f1565b8351907f54f6127f00000000000000000000000000000000000000000000000000000000825260008280612fc3868201907f2abb082c1b23ea79fce2a9e934ecb19ce15738b1483c365d0125f47e8ccc7dfc602083019252565b0381875afa92831561055f5786926000946130b9575b5085518095819382525afa91821561055f577f114ec287c9923ae9467a3045ca9dca773ee5b7d0e311a972027132f0f80f9aed97612f259561308b946130869360009161309c575b5061303f896001600160a01b0316600052600b602052604060002090565b549161304961071c565b9586528501528584019081524360608501526001600160a01b0388166080850152516009548111613093575b50600052600a602052604060002090565b612ab6565b933880612ef2565b60095538613075565b6130b39150823d84116105585761054a81836106fa565b38613021565b6130d79194503d806000833e6130cf81836106fa565b81019061292f565b9238612fd9565b90506002541038612eec565b613102919250863d88116105585761054a81836106fa565b9038612ee2565b16803b15610408576131809160009189838d518096819582947f511b6952000000000000000000000000000000000000000000000000000000008452308c8501919060c093916001600160a01b03809216845216602083015260408201526001606082015260a06080820152600060a08201520190565b03925af1801561055f57613196575b8781612e00565b806131a36131a99261068d565b8061049f565b3861318f565b506131b8612468565b612dfb565b6131c68961285e565b612d84565b916131d9908216928d612762565b91803b15610408578b517fea255583000000000000000000000000000000000000000000000000000000008152868101858152602081019490945292600091849182908490829060400103925af191821561055f578a9215612d5c57806131a36132429261068d565b38612d5c565b50808d11612d57565b806131a361325e9261068d565b38612d4d565b61327c919250893d8b116105585761054a81836106fa565b9038612cee565b61329b919550863d88116105585761054a81836106fa565b9338612caa565b6132ba919450853d87116125a35761259381836106fa565b9238612c85565b50612c2a6132cd612468565b9050612c21565b34156133045760046040517f61f49442000000000000000000000000000000000000000000000000000000008152fd5b606460405163e5099ee360e01b8152602060048201526004602482015260006044820152fd5b6004361061333b5761046690613dda565b6044604051809263e5099ee360e01b825260206004830152806024830152806000848401376000828201840152601f01601f19168101030190fd5b6133bd6133b8604051696773c5a04a6d4300884b60b11b60208201526000602a8201526301ffc9a760e01b602c820152602081526133b3816106c2565b614311565b613f9e565b805160148114159081613431575b506133f3576133d990613ed7565b60601c9081156133ec5761046691613f6b565b5050600090565b6113ef906040519182917f42bfe79f000000000000000000000000000000000000000000000000000000008352602060048401526024830190610430565b90501515386133cb565b6004604092959493956060835260a0606084015261345d610100840182611a4f565b9060018101546080850152600281015460a0850152600381015460c08501526001600160a01b0392839101541660e0840152951660208201520152565b6134ba8160005260036020526001600160a01b0360406000205416151590565b156135c8577f9afb95cacc9f95858ec44aa8c3b685511002e30ae54415823f406128b85b238e821461350357506134fe610466916000526001602052604060002090565b611ae5565b6000908152600a6020526040812061357b92506001600160a01b03600954916040518095819482937fb4a9d9af000000000000000000000000000000000000000000000000000000008452857f000000000000000000000000000000000000000000000000000000000000000016906004850161343b565b03917f0000000000000000000000000000000000000000000000000000000000000000165afa90811561055f576000916135b3575090565b61046691503d806000833e6130cf81836106fa565b608460405162461bcd60e51b815260206004820152602660248201527f4275726e7450697841726368697665733a20546f6b656e20646f6573206e6f7460448201527f20657869737400000000000000000000000000000000000000000000000000006064820152fd5b92919092600254600181018082116123bd577f000000000000000000000000000000000000000000000000000000000000000010613798576001600160a01b0382169081156121d15761369b8660005260036020526001600160a01b0360406000205416151590565b613766576136bf8660005260036020526001600160a01b0360406000205416151590565b613766579480613761926136de6136d9611b0098996128c4565b600255565b6136ff826120fc876001600160a01b03166000526004602052604060002090565b506137188561211a846000526003602052604060002090565b60007fb333c813a7426a7a11e2b190cad52c44119421594b47f6f32ace6d8c7207b2bf6040518061374a8a338361380d565b0390a461139660405194859285336020860161385b565b6140d7565b6040517f34c7b51100000000000000000000000000000000000000000000000000000000815260048101879052602490fd5b60046040517fe8ba2291000000000000000000000000000000000000000000000000000000008152fd5b6001600160a01b03806137d484612023565b1691169081149182156137e657505090565b61046692506000526005602052604060002060019160005201602052604060002054151590565b6060906001600160a01b036104669493168152600160208201528160408201520190610430565b61046693926001600160a01b03606093168252151560208201528160408201520190610430565b9092610466949360a0936001600160a01b0380921684526000602085015216604083015260608201528160808201520190610430565b9160a0936104669695926001600160a01b039283809216865216602085015216604083015260608201528160808201520190610430565b7f9afb95cacc9f95858ec44aa8c3b685511002e30ae54415823f406128b85b238e811461391c57610466613909613915926000526001602052604060002090565b60405192838092611a4f565b03826106fa565b50604460006001600160a01b03604051928380927f292f01f0000000000000000000000000000000000000000000000000000000008252807f0000000000000000000000000000000000000000000000000000000000000000166004830152807f00000000000000000000000000000000000000000000000000000000000000001660248301527f0000000000000000000000000000000000000000000000000000000000000000165afa90811561055f576000916135b3575090565b6001600160a01b036000541633036139ed57565b60246040517fbf1169c5000000000000000000000000000000000000000000000000000000008152336004820152fd5b907ff675e9361af1c1664c1868cfa3eb97672d6b1a513aa5b81dec34c9ee330e818d8214613b86577fdeba1e292f8ba88238e10ab3c7f88bd4be4fac56cad5194b6ecceaf653468af18203613a965760046040517f85c169bd000000000000000000000000000000000000000000000000000000008152fd5b7f2f0a68ab07768e01943a599e73362a0e17a63a72e94dd2e384d2c1d4db9327568203613ae75760046040517f76755b38000000000000000000000000000000000000000000000000000000008152fd5b7fe0261fa95db2eb3b5439bd033cda66d56b96f92f243a8228fd87550ed7bdfdb38203613b385760046040517f4ef6d7fb000000000000000000000000000000000000000000000000000000008152fd5b612f2581613b7a7fece574603820d07bc9b91f2a932baadf4628aabcb8afba49776529c14a6104b293613b75866000526001602052604060002090565b6129e4565b60405191829182610455565b60046040517f3664800a000000000000000000000000000000000000000000000000000000008152fd5b6001600160a01b03610466921690614204565b90916000828152602090600660205260408120858252602052604081209183519167ffffffffffffffff83116106a157613c0783613c018654611a15565b8661298e565b602091601f8411600114613c7b5750827fa6e4251f855f750545fe414f120db91c76b88def14d120969e5bb2d3f05debbb9593613c6b9593613c5d9391613c70575b508160011b916000199060031b1c19161790565b905560405191829182610455565b0390a3565b905084015138613c49565b601f92919219841690613c9386600052602060002090565b93905b828210613cf757505092613c6b9492600192827fa6e4251f855f750545fe414f120db91c76b88def14d120969e5bb2d3f05debbb989610613cde575b5050811b019055613b7a565b85015160001960f88460031b161c191690553880613cd2565b80600185968294968b01518155019501930190613c96565b9193928460005260056020526040600020926001600160a01b0390613d378282168096614374565b15613d86575090613d817fc78cd419d6136f9f1c1c6aec1d3fae098cffaf8bc86314a8f2685e32fe574e3c9392604051938493151584526040602085015216956040830190610430565b0390a4565b6040516312a8c6a360e21b81526001600160a01b0391909116600482015260248101879052604490fd5b9060349391816000823701916bffffffffffffffffffffffff199060601b16825260148201520190565b6001600160e01b03196000351690613e1e6133b8604051696773c5a04a6d4300884b60b11b60208201526000602a82015284602c820152602081526133b3816106c2565b805160148114159081613ecd575b506133f357613e3a90613ed7565b60601c918215613e9057506000918291604051613e7181613e6360208201943490339087613db0565b03601f1981018352826106fa565b519134905af1613e7f6122b2565b9015613e885790565b602081519101fd5b6040517fbb370b2b0000000000000000000000000000000000000000000000000000000081526001600160e01b0319919091166004820152602490fd5b9050151538613e2c565b90602082519201516bffffffffffffffffffffffff19908181169360148110613eff57505050565b60140360031b82901b16169150565b6000602091604051838101906301ffc9a760e01b8252631aed5a8560e21b602482015260248152613f3e816106de565b5191617530fa6000513d82613f5f575b5081613f58575090565b9050151590565b60201115915038613f4e565b6000906020926040516001600160e01b0319858201926301ffc9a760e01b845216602482015260248152613f3e816106de565b6000526001602052613915610466604060002060405192838092611a4f565b90600090808252600591602093600560205260409182812094855495825b878110613fed57505050505050505050565b815415610b34578184526001600160a01b03808a8620541690875190614012826106a6565b868252898752858c52614027838a8920614374565b1561407957600193927fc78cd419d6136f9f1c1c6aec1d3fae098cffaf8bc86314a8f2685e32fe574e3c8d896140708e968e968e88805196879687528601521696830190610430565b0390a401613fdb565b88516312a8c6a360e21b81526001600160a01b0384166004820152602481018b9052604490fd5b906040610466927f0b084a55ebf70fd3c06fd755269dac2212c4d3f0f4d09079780bfa50c1b2984d81528160208201520190610430565b6140e081613f0e565b1561413a576141116000916001600160a01b039383604051958680958194631aed5a8560e21b8352600483016140a0565b0393165af1801561055f576141235750565b614137903d806000833e6130cf81836106fa565b50565b5050565b919061414983613f0e565b1561417b57506141116001600160a01b039260009283604051958680958194631aed5a8560e21b8352600483016140a0565b9050156141855750565b803b156141c8576040517f4349776d0000000000000000000000000000000000000000000000000000000081526001600160a01b03919091166004820152602490fd5b6040517f031731370000000000000000000000000000000000000000000000000000000081526001600160a01b03919091166004820152602490fd5b60008281526001820160205260409020546133ec5780614226836001936128f1565b80549260005201602052604060002055600190565b61424481613f0e565b61424c575050565b6141116000916001600160a01b039383604051958680958194631aed5a8560e21b83527f8a1c15a8799f71b547e08e2bcb2e85257e81b0a07eee2ce6712549eef1f009706004840152604060248401526044830190610430565b6142af81613f0e565b6142b7575050565b6141116000916001600160a01b039383604051958680958194631aed5a8560e21b83527fb23eae7e6d1564b295b4c3e3be402d9a2f0776c57bdf365903496f6fa481ab006004840152604060248401526044830190610430565b602081519101519060208110614325575090565b6000199060200360031b1b1690565b805490811561435e576000199182019161434e8383610b39565b909182549160031b1b1916905555565b634e487b7160e01b600052603160045260246000fd5b60018101918060005282602052604060002054928315156000146144205760001992848401908582116123bd5780549485019485116123bd5760009585836143c8946143d798036143dd575b505050614334565b90600052602052604060002090565b55600190565b614407614401916143f16144179487610b39565b90549060031b1c92839187610b39565b906128d3565b8590600052602052604060002090565b553880806143c0565b5050505060009056fea26469706673582212203db3cc73ba3aa371ab298f3f0dc3b6a08564342369de1cf354d3d0090e3ec5d064736f6c63430008180033deba1e292f8ba88238e10ab3c7f88bd4be4fac56cad5194b6ecceaf653468af1e0261fa95db2eb3b5439bd033cda66d56b96f92f243a8228fd87550ed7bdfdb3eafec4d89fa9619884b60000a4d96624a38f7ac2d8d9a604ecf07c12c77e480cf675e9361af1c1664c1868cfa3eb97672d6b1a513aa5b81dec34c9ee330e818d2f0a68ab07768e01943a599e73362a0e17a63a72e94dd2e384d2c1d4db932756114bd03b3a46d48759680d81ebb2b414fda7d030a7105a851867accf1c2352e7ece574603820d07bc9b91f2a932baadf4628aabcb8afba49776529c14a6104b2",
  "linkReferences": {},
  "deployedLinkReferences": {}
}