{
  "_format": "hh-sol-artifact-1",
  "contractName": "HouseOfBurntPix",
  "sourceName": "contracts/HouseOfBurntPix.sol",
  "abi": [
    {
      "inputs": [
        {
          "internalType": "string",
          "name": "nftCollectionName",
          "type": "string"
        },
        {
          "internalType": "string",
          "name": "nftCollectionSymbol",
          "type": "string"
        },
        {
          "internalType": "address",
          "name": "contractOwner",
          "type": "address"
        },
        {
          "internalType": "uint256",
          "name": "_maxArchiveSupply",
          "type": "uint256"
        },
        {
          "internalType": "address",
          "name": "_burntPixContract",
          "type": "address"
        },
        {
          "internalType": "bytes32",
          "name": "_burntPicId",
          "type": "bytes32"
        }
      ],
      "stateMutability": "nonpayable",
      "type": "constructor"
    },
    {
      "inputs": [],
      "name": "ERC725Y_DataKeysValuesEmptyArray",
      "type": "error"
    },
    {
      "inputs": [],
      "name": "ERC725Y_DataKeysValuesLengthMismatch",
      "type": "error"
    },
    {
      "inputs": [],
      "name": "ERC725Y_MsgValueDisallowed",
      "type": "error"
    },
    {
      "inputs": [],
      "name": "HouseOfBurntPixMintedOut",
      "type": "error"
    },
    {
      "inputs": [
        {
          "internalType": "bytes",
          "name": "storedData",
          "type": "bytes"
        }
      ],
      "name": "InvalidExtensionAddress",
      "type": "error"
    },
    {
      "inputs": [
        {
          "internalType": "bytes",
          "name": "data",
          "type": "bytes"
        }
      ],
      "name": "InvalidFunctionSelector",
      "type": "error"
    },
    {
      "inputs": [],
      "name": "LSP4TokenNameNotEditable",
      "type": "error"
    },
    {
      "inputs": [],
      "name": "LSP4TokenSymbolNotEditable",
      "type": "error"
    },
    {
      "inputs": [],
      "name": "LSP4TokenTypeNotEditable",
      "type": "error"
    },
    {
      "inputs": [
        {
          "internalType": "uint256",
          "name": "callIndex",
          "type": "uint256"
        }
      ],
      "name": "LSP8BatchCallFailed",
      "type": "error"
    },
    {
      "inputs": [],
      "name": "LSP8CannotSendToAddressZero",
      "type": "error"
    },
    {
      "inputs": [],
      "name": "LSP8CannotSendToSelf",
      "type": "error"
    },
    {
      "inputs": [],
      "name": "LSP8CannotUseAddressZeroAsOperator",
      "type": "error"
    },
    {
      "inputs": [],
      "name": "LSP8InvalidTransferBatch",
      "type": "error"
    },
    {
      "inputs": [
        {
          "internalType": "bytes32",
          "name": "tokenId",
          "type": "bytes32"
        }
      ],
      "name": "LSP8NonExistentTokenId",
      "type": "error"
    },
    {
      "inputs": [
        {
          "internalType": "address",
          "name": "operator",
          "type": "address"
        },
        {
          "internalType": "bytes32",
          "name": "tokenId",
          "type": "bytes32"
        }
      ],
      "name": "LSP8NonExistingOperator",
      "type": "error"
    },
    {
      "inputs": [
        {
          "internalType": "bytes32",
          "name": "tokenId",
          "type": "bytes32"
        },
        {
          "internalType": "address",
          "name": "caller",
          "type": "address"
        }
      ],
      "name": "LSP8NotTokenOperator",
      "type": "error"
    },
    {
      "inputs": [
        {
          "internalType": "address",
          "name": "tokenOwner",
          "type": "address"
        },
        {
          "internalType": "bytes32",
          "name": "tokenId",
          "type": "bytes32"
        },
        {
          "internalType": "address",
          "name": "caller",
          "type": "address"
        }
      ],
      "name": "LSP8NotTokenOwner",
      "type": "error"
    },
    {
      "inputs": [
        {
          "internalType": "address",
          "name": "tokenReceiver",
          "type": "address"
        }
      ],
      "name": "LSP8NotifyTokenReceiverContractMissingLSP1Interface",
      "type": "error"
    },
    {
      "inputs": [
        {
          "internalType": "address",
          "name": "tokenReceiver",
          "type": "address"
        }
      ],
      "name": "LSP8NotifyTokenReceiverIsEOA",
      "type": "error"
    },
    {
      "inputs": [
        {
          "internalType": "address",
          "name": "operator",
          "type": "address"
        },
        {
          "internalType": "bytes32",
          "name": "tokenId",
          "type": "bytes32"
        }
      ],
      "name": "LSP8OperatorAlreadyAuthorized",
      "type": "error"
    },
    {
      "inputs": [],
      "name": "LSP8TokenContractCannotHoldValue",
      "type": "error"
    },
    {
      "inputs": [],
      "name": "LSP8TokenIdFormatNotEditable",
      "type": "error"
    },
    {
      "inputs": [],
      "name": "LSP8TokenIdsDataEmptyArray",
      "type": "error"
    },
    {
      "inputs": [],
      "name": "LSP8TokenIdsDataLengthMismatch",
      "type": "error"
    },
    {
      "inputs": [],
      "name": "LSP8TokenOwnerCannotBeOperator",
      "type": "error"
    },
    {
      "inputs": [
        {
          "internalType": "bytes4",
          "name": "functionSelector",
          "type": "bytes4"
        }
      ],
      "name": "NoExtensionFoundForFunctionSelector",
      "type": "error"
    },
    {
      "inputs": [
        {
          "internalType": "address",
          "name": "callerAddress",
          "type": "address"
        }
      ],
      "name": "OwnableCallerNotTheOwner",
      "type": "error"
    },
    {
      "inputs": [],
      "name": "OwnableCannotSetZeroAddressAsOwner",
      "type": "error"
    },
    {
      "anonymous": false,
      "inputs": [
        {
          "indexed": true,
          "internalType": "bytes32",
          "name": "dataKey",
          "type": "bytes32"
        },
        {
          "indexed": false,
          "internalType": "bytes",
          "name": "dataValue",
          "type": "bytes"
        }
      ],
      "name": "DataChanged",
      "type": "event"
    },
    {
      "anonymous": false,
      "inputs": [
        {
          "indexed": false,
          "internalType": "string",
          "name": "image",
          "type": "string"
        }
      ],
      "name": "ImageUpdated",
      "type": "event"
    },
    {
      "anonymous": false,
      "inputs": [
        {
          "indexed": true,
          "internalType": "address",
          "name": "operator",
          "type": "address"
        },
        {
          "indexed": true,
          "internalType": "address",
          "name": "tokenOwner",
          "type": "address"
        },
        {
          "indexed": true,
          "internalType": "bytes32",
          "name": "tokenId",
          "type": "bytes32"
        },
        {
          "indexed": false,
          "internalType": "bytes",
          "name": "operatorNotificationData",
          "type": "bytes"
        }
      ],
      "name": "OperatorAuthorizationChanged",
      "type": "event"
    },
    {
      "anonymous": false,
      "inputs": [
        {
          "indexed": true,
          "internalType": "address",
          "name": "operator",
          "type": "address"
        },
        {
          "indexed": true,
          "internalType": "address",
          "name": "tokenOwner",
          "type": "address"
        },
        {
          "indexed": true,
          "internalType": "bytes32",
          "name": "tokenId",
          "type": "bytes32"
        },
        {
          "indexed": false,
          "internalType": "bool",
          "name": "notified",
          "type": "bool"
        },
        {
          "indexed": false,
          "internalType": "bytes",
          "name": "operatorNotificationData",
          "type": "bytes"
        }
      ],
      "name": "OperatorRevoked",
      "type": "event"
    },
    {
      "anonymous": false,
      "inputs": [
        {
          "indexed": true,
          "internalType": "address",
          "name": "previousOwner",
          "type": "address"
        },
        {
          "indexed": true,
          "internalType": "address",
          "name": "newOwner",
          "type": "address"
        }
      ],
      "name": "OwnershipTransferred",
      "type": "event"
    },
    {
      "anonymous": false,
      "inputs": [
        {
          "indexed": true,
          "internalType": "bytes32",
          "name": "tokenId",
          "type": "bytes32"
        },
        {
          "indexed": true,
          "internalType": "bytes32",
          "name": "dataKey",
          "type": "bytes32"
        },
        {
          "indexed": false,
          "internalType": "bytes",
          "name": "dataValue",
          "type": "bytes"
        }
      ],
      "name": "TokenIdDataChanged",
      "type": "event"
    },
    {
      "anonymous": false,
      "inputs": [
        {
          "indexed": false,
          "internalType": "address",
          "name": "operator",
          "type": "address"
        },
        {
          "indexed": true,
          "internalType": "address",
          "name": "from",
          "type": "address"
        },
        {
          "indexed": true,
          "internalType": "address",
          "name": "to",
          "type": "address"
        },
        {
          "indexed": true,
          "internalType": "bytes32",
          "name": "tokenId",
          "type": "bytes32"
        },
        {
          "indexed": false,
          "internalType": "bool",
          "name": "force",
          "type": "bool"
        },
        {
          "indexed": false,
          "internalType": "bytes",
          "name": "data",
          "type": "bytes"
        }
      ],
      "name": "Transfer",
      "type": "event"
    },
    {
      "stateMutability": "payable",
      "type": "fallback"
    },
    {
      "inputs": [
        {
          "internalType": "address",
          "name": "operator",
          "type": "address"
        },
        {
          "internalType": "bytes32",
          "name": "tokenId",
          "type": "bytes32"
        },
        {
          "internalType": "bytes",
          "name": "operatorNotificationData",
          "type": "bytes"
        }
      ],
      "name": "authorizeOperator",
      "outputs": [],
      "stateMutability": "nonpayable",
      "type": "function"
    },
    {
      "inputs": [
        {
          "internalType": "address",
          "name": "tokenOwner",
          "type": "address"
        }
      ],
      "name": "balanceOf",
      "outputs": [
        {
          "internalType": "uint256",
          "name": "",
          "type": "uint256"
        }
      ],
      "stateMutability": "view",
      "type": "function"
    },
    {
      "inputs": [
        {
          "internalType": "bytes[]",
          "name": "data",
          "type": "bytes[]"
        }
      ],
      "name": "batchCalls",
      "outputs": [
        {
          "internalType": "bytes[]",
          "name": "results",
          "type": "bytes[]"
        }
      ],
      "stateMutability": "nonpayable",
      "type": "function"
    },
    {
      "inputs": [],
      "name": "burntPicId",
      "outputs": [
        {
          "internalType": "bytes32",
          "name": "",
          "type": "bytes32"
        }
      ],
      "stateMutability": "view",
      "type": "function"
    },
    {
      "inputs": [],
      "name": "burntPicIdString",
      "outputs": [
        {
          "internalType": "string",
          "name": "",
          "type": "string"
        }
      ],
      "stateMutability": "view",
      "type": "function"
    },
    {
      "inputs": [],
      "name": "burntPixContract",
      "outputs": [
        {
          "internalType": "address",
          "name": "",
          "type": "address"
        }
      ],
      "stateMutability": "view",
      "type": "function"
    },
    {
      "inputs": [
        {
          "internalType": "bytes32",
          "name": "_bytes",
          "type": "bytes32"
        }
      ],
      "name": "bytes32ToString",
      "outputs": [
        {
          "internalType": "string",
          "name": "",
          "type": "string"
        }
      ],
      "stateMutability": "pure",
      "type": "function"
    },
    {
      "inputs": [
        {
          "internalType": "address",
          "name": "",
          "type": "address"
        }
      ],
      "name": "contributedIterations",
      "outputs": [
        {
          "internalType": "uint256",
          "name": "",
          "type": "uint256"
        }
      ],
      "stateMutability": "view",
      "type": "function"
    },
    {
      "inputs": [
        {
          "internalType": "bytes32",
          "name": "dataKey",
          "type": "bytes32"
        }
      ],
      "name": "getData",
      "outputs": [
        {
          "internalType": "bytes",
          "name": "dataValue",
          "type": "bytes"
        }
      ],
      "stateMutability": "view",
      "type": "function"
    },
    {
      "inputs": [
        {
          "internalType": "bytes32[]",
          "name": "dataKeys",
          "type": "bytes32[]"
        }
      ],
      "name": "getDataBatch",
      "outputs": [
        {
          "internalType": "bytes[]",
          "name": "dataValues",
          "type": "bytes[]"
        }
      ],
      "stateMutability": "view",
      "type": "function"
    },
    {
      "inputs": [
        {
          "internalType": "bytes32[]",
          "name": "tokenIds",
          "type": "bytes32[]"
        },
        {
          "internalType": "bytes32[]",
          "name": "dataKeys",
          "type": "bytes32[]"
        }
      ],
      "name": "getDataBatchForTokenIds",
      "outputs": [
        {
          "internalType": "bytes[]",
          "name": "dataValues",
          "type": "bytes[]"
        }
      ],
      "stateMutability": "view",
      "type": "function"
    },
    {
      "inputs": [
        {
          "internalType": "bytes32",
          "name": "tokenId",
          "type": "bytes32"
        },
        {
          "internalType": "bytes32",
          "name": "dataKey",
          "type": "bytes32"
        }
      ],
      "name": "getDataForTokenId",
      "outputs": [
        {
          "internalType": "bytes",
          "name": "dataValue",
          "type": "bytes"
        }
      ],
      "stateMutability": "view",
      "type": "function"
    },
    {
      "inputs": [],
      "name": "getLatestImage",
      "outputs": [
        {
          "internalType": "string",
          "name": "",
          "type": "string"
        }
      ],
      "stateMutability": "view",
      "type": "function"
    },
    {
      "inputs": [
        {
          "internalType": "bytes32",
          "name": "tokenId",
          "type": "bytes32"
        }
      ],
      "name": "getOperatorsOf",
      "outputs": [
        {
          "internalType": "address[]",
          "name": "",
          "type": "address[]"
        }
      ],
      "stateMutability": "view",
      "type": "function"
    },
    {
      "inputs": [
        {
          "internalType": "address",
          "name": "operator",
          "type": "address"
        },
        {
          "internalType": "bytes32",
          "name": "tokenId",
          "type": "bytes32"
        }
      ],
      "name": "isOperatorFor",
      "outputs": [
        {
          "internalType": "bool",
          "name": "",
          "type": "bool"
        }
      ],
      "stateMutability": "view",
      "type": "function"
    },
    {
      "inputs": [],
      "name": "maxArchiveSupply",
      "outputs": [
        {
          "internalType": "uint256",
          "name": "",
          "type": "uint256"
        }
      ],
      "stateMutability": "view",
      "type": "function"
    },
    {
      "inputs": [
        {
          "internalType": "address",
          "name": "",
          "type": "address"
        },
        {
          "internalType": "bytes32",
          "name": "",
          "type": "bytes32"
        },
        {
          "internalType": "bool",
          "name": "",
          "type": "bool"
        },
        {
          "internalType": "bytes",
          "name": "",
          "type": "bytes"
        }
      ],
      "name": "mint",
      "outputs": [],
      "stateMutability": "nonpayable",
      "type": "function"
    },
    {
      "inputs": [],
      "name": "owner",
      "outputs": [
        {
          "internalType": "address",
          "name": "",
          "type": "address"
        }
      ],
      "stateMutability": "view",
      "type": "function"
    },
    {
      "inputs": [
        {
          "internalType": "uint256",
          "name": "iters",
          "type": "uint256"
        },
        {
          "internalType": "address",
          "name": "refiner",
          "type": "address"
        }
      ],
      "name": "refineToMint",
      "outputs": [
        {
          "internalType": "string",
          "name": "",
          "type": "string"
        }
      ],
      "stateMutability": "nonpayable",
      "type": "function"
    },
    {
      "inputs": [],
      "name": "renounceOwnership",
      "outputs": [],
      "stateMutability": "nonpayable",
      "type": "function"
    },
    {
      "inputs": [
        {
          "internalType": "address",
          "name": "operator",
          "type": "address"
        },
        {
          "internalType": "bytes32",
          "name": "tokenId",
          "type": "bytes32"
        },
        {
          "internalType": "bool",
          "name": "notify",
          "type": "bool"
        },
        {
          "internalType": "bytes",
          "name": "operatorNotificationData",
          "type": "bytes"
        }
      ],
      "name": "revokeOperator",
      "outputs": [],
      "stateMutability": "nonpayable",
      "type": "function"
    },
    {
      "inputs": [
        {
          "internalType": "bytes32",
          "name": "dataKey",
          "type": "bytes32"
        },
        {
          "internalType": "bytes",
          "name": "dataValue",
          "type": "bytes"
        }
      ],
      "name": "setData",
      "outputs": [],
      "stateMutability": "payable",
      "type": "function"
    },
    {
      "inputs": [
        {
          "internalType": "bytes32[]",
          "name": "dataKeys",
          "type": "bytes32[]"
        },
        {
          "internalType": "bytes[]",
          "name": "dataValues",
          "type": "bytes[]"
        }
      ],
      "name": "setDataBatch",
      "outputs": [],
      "stateMutability": "payable",
      "type": "function"
    },
    {
      "inputs": [
        {
          "internalType": "bytes32[]",
          "name": "tokenIds",
          "type": "bytes32[]"
        },
        {
          "internalType": "bytes32[]",
          "name": "dataKeys",
          "type": "bytes32[]"
        },
        {
          "internalType": "bytes[]",
          "name": "dataValues",
          "type": "bytes[]"
        }
      ],
      "name": "setDataBatchForTokenIds",
      "outputs": [],
      "stateMutability": "nonpayable",
      "type": "function"
    },
    {
      "inputs": [
        {
          "internalType": "bytes32",
          "name": "tokenId",
          "type": "bytes32"
        },
        {
          "internalType": "bytes32",
          "name": "dataKey",
          "type": "bytes32"
        },
        {
          "internalType": "bytes",
          "name": "dataValue",
          "type": "bytes"
        }
      ],
      "name": "setDataForTokenId",
      "outputs": [],
      "stateMutability": "nonpayable",
      "type": "function"
    },
    {
      "inputs": [
        {
          "internalType": "string",
          "name": "_image",
          "type": "string"
        }
      ],
      "name": "setImage",
      "outputs": [
        {
          "internalType": "string",
          "name": "",
          "type": "string"
        }
      ],
      "stateMutability": "nonpayable",
      "type": "function"
    },
    {
      "inputs": [
        {
          "internalType": "bytes4",
          "name": "interfaceId",
          "type": "bytes4"
        }
      ],
      "name": "supportsInterface",
      "outputs": [
        {
          "internalType": "bool",
          "name": "",
          "type": "bool"
        }
      ],
      "stateMutability": "view",
      "type": "function"
    },
    {
      "inputs": [
        {
          "internalType": "address",
          "name": "tokenOwner",
          "type": "address"
        }
      ],
      "name": "tokenIdsOf",
      "outputs": [
        {
          "internalType": "bytes32[]",
          "name": "",
          "type": "bytes32[]"
        }
      ],
      "stateMutability": "view",
      "type": "function"
    },
    {
      "inputs": [
        {
          "internalType": "bytes32",
          "name": "tokenId",
          "type": "bytes32"
        }
      ],
      "name": "tokenOwnerOf",
      "outputs": [
        {
          "internalType": "address",
          "name": "",
          "type": "address"
        }
      ],
      "stateMutability": "view",
      "type": "function"
    },
    {
      "inputs": [],
      "name": "totalSupply",
      "outputs": [
        {
          "internalType": "uint256",
          "name": "",
          "type": "uint256"
        }
      ],
      "stateMutability": "view",
      "type": "function"
    },
    {
      "inputs": [
        {
          "internalType": "address",
          "name": "from",
          "type": "address"
        },
        {
          "internalType": "address",
          "name": "to",
          "type": "address"
        },
        {
          "internalType": "bytes32",
          "name": "tokenId",
          "type": "bytes32"
        },
        {
          "internalType": "bool",
          "name": "force",
          "type": "bool"
        },
        {
          "internalType": "bytes",
          "name": "data",
          "type": "bytes"
        }
      ],
      "name": "transfer",
      "outputs": [],
      "stateMutability": "nonpayable",
      "type": "function"
    },
    {
      "inputs": [
        {
          "internalType": "address[]",
          "name": "from",
          "type": "address[]"
        },
        {
          "internalType": "address[]",
          "name": "to",
          "type": "address[]"
        },
        {
          "internalType": "bytes32[]",
          "name": "tokenId",
          "type": "bytes32[]"
        },
        {
          "internalType": "bool[]",
          "name": "force",
          "type": "bool[]"
        },
        {
          "internalType": "bytes[]",
          "name": "data",
          "type": "bytes[]"
        }
      ],
      "name": "transferBatch",
      "outputs": [],
      "stateMutability": "nonpayable",
      "type": "function"
    },
    {
      "inputs": [
        {
          "internalType": "address",
          "name": "newOwner",
          "type": "address"
        }
      ],
      "name": "transferOwnership",
      "outputs": [],
      "stateMutability": "nonpayable",
      "type": "function"
    },
    {
      "stateMutability": "payable",
      "type": "receive"
    }
  ],
  "bytecode": "0x60806040523480156200001157600080fd5b5060405162006a2b38038062006a2b833981810160405281019062000037919062000bf7565b8585856002600084848484848484848481600073ffffffffffffffffffffffffffffffffffffffff168173ffffffffffffffffffffffffffffffffffffffff1603620000af576040517f1ad8836c00000000000000000000000000000000000000000000000000000000815260040160405180910390fd5b620000c581620003a460201b6200209e1760201c565b50620001357feafec4d89fa9619884b60000a4d96624a38f7ac2d8d9a604ecf07c12c77e480c60001b6040518060400160405280600481526020017fa4d9662400000000000000000000000000000000000000000000000000000000815250620004a560201b620021961760201c565b6200016f7fdeba1e292f8ba88238e10ab3c7f88bd4be4fac56cad5194b6ecceaf653468af160001b85620004a560201b620021961760201c565b620001a97f2f0a68ab07768e01943a599e73362a0e17a63a72e94dd2e384d2c1d4db93275660001b84620004a560201b620021961760201c565b620002047fe0261fa95db2eb3b5439bd033cda66d56b96f92f243a8228fd87550ed7bdfdb360001b82604051602001620001e4919062000ce2565b604051602081830303815290604052620004a560201b620021961760201c565b50505050620002637ff675e9361af1c1664c1868cfa3eb97672d6b1a513aa5b81dec34c9ee330e818d60001b8260405160200162000243919062000ce2565b6040516020818303038152906040526200050660201b620021f31760201c565b50505050505050505050600073ffffffffffffffffffffffffffffffffffffffff168273ffffffffffffffffffffffffffffffffffffffff1603620002df576040517f08c379a0000000000000000000000000000000000000000000000000000000008152600401620002d69062000d60565b60405180910390fd5b6000801b810362000327576040517f08c379a00000000000000000000000000000000000000000000000000000000081526004016200031e9062000dd2565b60405180910390fd5b81600760006101000a81548173ffffffffffffffffffffffffffffffffffffffff021916908373ffffffffffffffffffffffffffffffffffffffff1602179055508060088190555062000380816200052160201b60201c565b6009908162000390919062001035565b5082600a819055505050505050506200141a565b620003b4620007e860201b60201c565b73ffffffffffffffffffffffffffffffffffffffff168173ffffffffffffffffffffffffffffffffffffffff1614620004a2578073ffffffffffffffffffffffffffffffffffffffff1660008054906101000a900473ffffffffffffffffffffffffffffffffffffffff1673ffffffffffffffffffffffffffffffffffffffff167f8be0079c531659141344cd1fd0a4f28419497f9722a3daafe3b4186f6b6457e060405160405180910390a3806000806101000a81548173ffffffffffffffffffffffffffffffffffffffff021916908373ffffffffffffffffffffffffffffffffffffffff1602179055505b50565b80600160008481526020019081526020016000209081620004c791906200118c565b50817fece574603820d07bc9b91f2a932baadf4628aabcb8afba49776529c14a6104b282604051620004fa9190620012c5565b60405180910390a25050565b6200051d82826200081160201b620022011760201c565b5050565b606060006040518060400160405280601081526020017f303132333435363738396162636465660000000000000000000000000000000081525090506000604267ffffffffffffffff8111156200057d576200057c620009b8565b5b6040519080825280601f01601f191660200182016040528015620005b05781602001600182028036833780820191505090505b5090507f300000000000000000000000000000000000000000000000000000000000000081600081518110620005eb57620005ea620012e9565b5b60200101907effffffffffffffffffffffffffffffffffffffffffffffffffffffffffffff1916908160001a9053507f780000000000000000000000000000000000000000000000000000000000000081600181518110620006525762000651620012e9565b5b60200101907effffffffffffffffffffffffffffffffffffffffffffffffffffffffffffff1916908160001a90535060005b6020811015620007dd576000858260208110620006a657620006a5620012e9565b5b1a60f81b90508360048260f81c60ff16901c60ff1681518110620006cf57620006ce620012e9565b5b602001015160f81c60f81b83600284620006ea919062001347565b6002620006f8919062001392565b815181106200070c576200070b620012e9565b5b60200101907effffffffffffffffffffffffffffffffffffffffffffffffffffffffffffff1916908160001a90535083600f8260f81c1660ff16815181106200075a5762000759620012e9565b5b602001015160f81c60f81b8360028462000775919062001347565b600362000783919062001392565b81518110620007975762000796620012e9565b5b60200101907effffffffffffffffffffffffffffffffffffffffffffffffffffffffffffff1916908160001a905350508080620007d490620013cd565b91505062000684565b508092505050919050565b60008060009054906101000a900473ffffffffffffffffffffffffffffffffffffffff16905090565b7fdeba1e292f8ba88238e10ab3c7f88bd4be4fac56cad5194b6ecceaf653468af160001b82036200086e576040517f85c169bd00000000000000000000000000000000000000000000000000000000815260040160405180910390fd5b7f2f0a68ab07768e01943a599e73362a0e17a63a72e94dd2e384d2c1d4db93275660001b8203620008cb576040517f76755b3800000000000000000000000000000000000000000000000000000000815260040160405180910390fd5b7fe0261fa95db2eb3b5439bd033cda66d56b96f92f243a8228fd87550ed7bdfdb360001b820362000928576040517f4ef6d7fb00000000000000000000000000000000000000000000000000000000815260040160405180910390fd5b806001600084815260200190815260200160002090816200094a91906200118c565b50817fece574603820d07bc9b91f2a932baadf4628aabcb8afba49776529c14a6104b2826040516200097d9190620012c5565b60405180910390a25050565b6000604051905090565b600080fd5b600080fd5b600080fd5b600080fd5b6000601f19601f8301169050919050565b7f4e487b7100000000000000000000000000000000000000000000000000000000600052604160045260246000fd5b620009f282620009a7565b810181811067ffffffffffffffff8211171562000a145762000a13620009b8565b5b80604052505050565b600062000a2962000989565b905062000a378282620009e7565b919050565b600067ffffffffffffffff82111562000a5a5762000a59620009b8565b5b62000a6582620009a7565b9050602081019050919050565b60005b8381101562000a9257808201518184015260208101905062000a75565b60008484015250505050565b600062000ab562000aaf8462000a3c565b62000a1d565b90508281526020810184848401111562000ad45762000ad3620009a2565b5b62000ae184828562000a72565b509392505050565b600082601f83011262000b015762000b006200099d565b5b815162000b1384826020860162000a9e565b91505092915050565b600073ffffffffffffffffffffffffffffffffffffffff82169050919050565b600062000b498262000b1c565b9050919050565b62000b5b8162000b3c565b811462000b6757600080fd5b50565b60008151905062000b7b8162000b50565b92915050565b6000819050919050565b62000b968162000b81565b811462000ba257600080fd5b50565b60008151905062000bb68162000b8b565b92915050565b6000819050919050565b62000bd18162000bbc565b811462000bdd57600080fd5b50565b60008151905062000bf18162000bc6565b92915050565b60008060008060008060c0878903121562000c175762000c1662000993565b5b600087015167ffffffffffffffff81111562000c385762000c3762000998565b5b62000c4689828a0162000ae9565b965050602087015167ffffffffffffffff81111562000c6a5762000c6962000998565b5b62000c7889828a0162000ae9565b955050604062000c8b89828a0162000b6a565b945050606062000c9e89828a0162000ba5565b935050608062000cb189828a0162000b6a565b92505060a062000cc489828a0162000be0565b9150509295509295509295565b62000cdc8162000b81565b82525050565b600060208201905062000cf9600083018462000cd1565b92915050565b600082825260208201905092915050565b7f496e76616c69642074617267657420636f6e7472616374206164647265737300600082015250565b600062000d48601f8362000cff565b915062000d558262000d10565b602082019050919050565b6000602082019050818103600083015262000d7b8162000d39565b9050919050565b7f496e76616c69642074617267657420746f6b656e204944000000000000000000600082015250565b600062000dba60178362000cff565b915062000dc78262000d82565b602082019050919050565b6000602082019050818103600083015262000ded8162000dab565b9050919050565b600081519050919050565b7f4e487b7100000000000000000000000000000000000000000000000000000000600052602260045260246000fd5b6000600282049050600182168062000e4757607f821691505b60208210810362000e5d5762000e5c62000dff565b5b50919050565b60008190508160005260206000209050919050565b60006020601f8301049050919050565b600082821b905092915050565b60006008830262000ec77fffffffffffffffffffffffffffffffffffffffffffffffffffffffffffffffff8262000e88565b62000ed3868362000e88565b95508019841693508086168417925050509392505050565b6000819050919050565b600062000f1662000f1062000f0a8462000b81565b62000eeb565b62000b81565b9050919050565b6000819050919050565b62000f328362000ef5565b62000f4a62000f418262000f1d565b84845462000e95565b825550505050565b600090565b62000f6162000f52565b62000f6e81848462000f27565b505050565b5b8181101562000f965762000f8a60008262000f57565b60018101905062000f74565b5050565b601f82111562000fe55762000faf8162000e63565b62000fba8462000e78565b8101602085101562000fca578190505b62000fe262000fd98562000e78565b83018262000f73565b50505b505050565b600082821c905092915050565b60006200100a6000198460080262000fea565b1980831691505092915050565b600062001025838362000ff7565b9150826002028217905092915050565b620010408262000df4565b67ffffffffffffffff8111156200105c576200105b620009b8565b5b62001068825462000e2e565b6200107582828562000f9a565b600060209050601f831160018114620010ad576000841562001098578287015190505b620010a4858262001017565b86555062001114565b601f198416620010bd8662000e63565b60005b82811015620010e757848901518255600182019150602085019450602081019050620010c0565b8683101562001107578489015162001103601f89168262000ff7565b8355505b6001600288020188555050505b505050505050565b600081519050919050565b60008190508160005260206000209050919050565b601f8211156200118757620011518162001127565b6200115c8462000e78565b810160208510156200116c578190505b620011846200117b8562000e78565b83018262000f73565b50505b505050565b62001197826200111c565b67ffffffffffffffff811115620011b357620011b2620009b8565b5b620011bf825462000e2e565b620011cc8282856200113c565b600060209050601f831160018114620012045760008415620011ef578287015190505b620011fb858262001017565b8655506200126b565b601f198416620012148662001127565b60005b828110156200123e5784890151825560018201915060208501945060208101905062001217565b868310156200125e57848901516200125a601f89168262000ff7565b8355505b6001600288020188555050505b505050505050565b600082825260208201905092915050565b600062001291826200111c565b6200129d818562001273565b9350620012af81856020860162000a72565b620012ba81620009a7565b840191505092915050565b60006020820190508181036000830152620012e1818462001284565b905092915050565b7f4e487b7100000000000000000000000000000000000000000000000000000000600052603260045260246000fd5b7f4e487b7100000000000000000000000000000000000000000000000000000000600052601160045260246000fd5b6000620013548262000b81565b9150620013618362000b81565b9250828202620013718162000b81565b915082820484148315176200138b576200138a62001318565b5b5092915050565b60006200139f8262000b81565b9150620013ac8362000b81565b9250828201905080821115620013c757620013c662001318565b5b92915050565b6000620013da8262000b81565b91507fffffffffffffffffffffffffffffffffffffffffffffffffffffffffffffffff82036200140f576200140e62001318565b5b600182019050919050565b615601806200142a6000396000f3fe6080604052600436106101f25760003560e01c80637e6c62021161010d578063aa4d9767116100a0578063d6c1407c1161006f578063d6c1407c14610848578063da16e45414610871578063db8c96631461089c578063dedff9c6146108c5578063f2fde38b146109025761026c565b8063aa4d9767146107a0578063af255b61146107cb578063b60a044c146107f4578063be9f0e6f1461081f5761026c565b80638da5cb5b116100dc5780638da5cb5b146106df5780639201de551461070a5780639790242114610747578063a3b261f2146107635761026c565b80637e6c6202146106465780637e87632c146106715780637f23690c1461069a57806386a10ddd146106b65761026c565b806334fd1551116101855780636963d438116101545780636963d4381461057857806370a08231146105b5578063715018a6146105f257806371adb5e6146106095761026c565b806334fd15511461049857806349a6078d146104d5578063511b69521461051257806354f6127f1461053b5761026c565b806318160ddd116101c157806318160ddd146103b65780631d26fce6146103e1578063217b22701461041e5780632a3654a41461045b5761026c565b806301ffc9a7146102d45780630fb239ef1461031157806316e023b31461033c5780631794cad4146103795761026c565b3661026c576000340361023a576040517fe5099ee30000000000000000000000000000000000000000000000000000000081526004016102319061358c565b60405180910390fd5b6040517f61f4944200000000000000000000000000000000000000000000000000000000815260040160405180910390fd5b60003660606004600036905010156102bd5782826040517fe5099ee30000000000000000000000000000000000000000000000000000000081526004016102b49291906135f9565b60405180910390fd5b6102c7838361092b565b9050915050805190602001f35b3480156102e057600080fd5b506102fb60048036038101906102f69190613689565b610aa9565b60405161030891906136d1565b60405180910390f35b34801561031d57600080fd5b50610326610b1a565b6040516103339190613705565b60405180910390f35b34801561034857600080fd5b50610363600480360381019061035e9190613756565b610b20565b6040516103709190613804565b60405180910390f35b34801561038557600080fd5b506103a0600480360381019061039b9190613884565b610b34565b6040516103ad9190613705565b60405180910390f35b3480156103c257600080fd5b506103cb610b4c565b6040516103d89190613705565b60405180910390f35b3480156103ed57600080fd5b50610408600480360381019061040391906139f9565b610b56565b6040516104159190613b7d565b60405180910390f35b34801561042a57600080fd5b5061044560048036038101906104409190613b9f565b610c23565b6040516104529190613bdb565b60405180910390f35b34801561046757600080fd5b50610482600480360381019061047d9190613bf6565b610cd6565b60405161048f91906136d1565b60405180910390f35b3480156104a457600080fd5b506104bf60048036038101906104ba9190613c62565b610cf3565b6040516104cc9190613cf7565b60405180910390f35b3480156104e157600080fd5b506104fc60048036038101906104f79190613b9f565b610fea565b6040516105099190613dd7565b60405180910390f35b34801561051e57600080fd5b5061053960048036038101906105349190613ecb565b611017565b005b34801561054757600080fd5b50610562600480360381019061055d9190613b9f565b611078565b60405161056f9190613804565b60405180910390f35b34801561058457600080fd5b5061059f600480360381019061059a9190613fbd565b61108a565b6040516105ac9190613b7d565b60405180910390f35b3480156105c157600080fd5b506105dc60048036038101906105d79190613884565b611206565b6040516105e99190613705565b60405180910390f35b3480156105fe57600080fd5b50610607611256565b005b34801561061557600080fd5b50610630600480360381019061062b91906140ab565b61126a565b60405161063d9190613cf7565b60405180910390f35b34801561065257600080fd5b5061065b611344565b6040516106689190613cf7565b60405180910390f35b34801561067d57600080fd5b506106986004803603810190610693919061435b565b6113d2565b005b6106b460048036038101906106af9190614462565b6114e6565b005b3480156106c257600080fd5b506106dd60048036038101906106d891906144be565b611536565b005b3480156106eb57600080fd5b506106f4611792565b6040516107019190613bdb565b60405180910390f35b34801561071657600080fd5b50610731600480360381019061072c9190613b9f565b6117bb565b60405161073e9190613cf7565b60405180910390f35b610761600480360381019061075c919061452d565b611a5d565b005b34801561076f57600080fd5b5061078a60048036038101906107859190613884565b611b6f565b6040516107979190614663565b60405180910390f35b3480156107ac57600080fd5b506107b5611bbf565b6040516107c29190613bdb565b60405180910390f35b3480156107d757600080fd5b506107f260048036038101906107ed9190614685565b611be5565b005b34801561080057600080fd5b50610809611c20565b6040516108169190613cf7565b60405180910390f35b34801561082b57600080fd5b5061084660048036038101906108419190614708565b611cb5565b005b34801561085457600080fd5b5061086f600480360381019061086a91906147af565b611db8565b005b34801561087d57600080fd5b50610886611dd0565b604051610893919061482d565b60405180910390f35b3480156108a857600080fd5b506108c360048036038101906108be9190614685565b611dd6565b005b3480156108d157600080fd5b506108ec60048036038101906108e79190614848565b611f73565b6040516108f99190613b7d565b60405180910390f35b34801561090e57600080fd5b5061092960048036038101906109249190613884565b612024565b005b6060600061095c6000357fffffffff0000000000000000000000000000000000000000000000000000000016612372565b509050600073ffffffffffffffffffffffffffffffffffffffff168173ffffffffffffffffffffffffffffffffffffffff16036109f4576000357fffffffff00000000000000000000000000000000000000000000000000000000166040517fbb370b2b0000000000000000000000000000000000000000000000000000000081526004016109eb91906148a0565b60405180910390fd5b6000808273ffffffffffffffffffffffffffffffffffffffff163487873334604051602001610a269493929190614954565b604051602081830303815290604052604051610a4291906149c0565b60006040518083038185875af1925050503d8060008114610a7f576040519150601f19603f3d011682016040523d82523d6000602084013e610a84565b606091505b50915091508115610a9a57809350505050610aa3565b80518060208301fd5b92915050565b6000633a27170660e01b7bffffffffffffffffffffffffffffffffffffffffffffffffffffffff1916827bffffffffffffffffffffffffffffffffffffffffffffffffffffffff19161480610b035750610b028261242c565b5b80610b135750610b128261248d565b5b9050919050565b600a5481565b6060610b2c83836124f4565b905092915050565b600b6020528060005260406000206000915090505481565b6000600254905090565b6060825167ffffffffffffffff811115610b7357610b726138b6565b5b604051908082528060200260200182016040528015610ba657816020015b6060815260200190600190039081610b915790505b50905060005b8351811015610c1c57610bf3848281518110610bcb57610bca6149d7565b5b6020026020010151848381518110610be657610be56149d7565b5b60200260200101516124f4565b828281518110610c0657610c056149d7565b5b6020026020010181905250806001019050610bac565b5092915050565b6000806003600084815260200190815260200160002060009054906101000a900473ffffffffffffffffffffffffffffffffffffffff169050600073ffffffffffffffffffffffffffffffffffffffff168173ffffffffffffffffffffffffffffffffffffffff1603610ccd57826040517fae8f9a36000000000000000000000000000000000000000000000000000000008152600401610cc4919061482d565b60405180910390fd5b80915050919050565b6000610ce1826125c2565b610ceb838361260f565b905092915050565b6060600a546001610d02610b4c565b610d0c9190614a35565b1115610d44576040517f1886b7dc00000000000000000000000000000000000000000000000000000000815260040160405180910390fd5b82600b60008473ffffffffffffffffffffffffffffffffffffffff1673ffffffffffffffffffffffffffffffffffffffff16815260200190815260200160002054610d8f9190614a35565b600b60008473ffffffffffffffffffffffffffffffffffffffff1673ffffffffffffffffffffffffffffffffffffffff168152602001908152602001600020819055506000600760009054906101000a900473ffffffffffffffffffffffffffffffffffffffff1690506000734e8ba475570385e3cc35a0e40293035cd45b9be990508173ffffffffffffffffffffffffffffffffffffffff1663ea255583600854876040518363ffffffff1660e01b8152600401610e4f929190614a69565b600060405180830381600087803b158015610e6957600080fd5b505af1158015610e7d573d6000803e3d6000fd5b505050506000734e8ba475570385e3cc35a0e40293035cd45b9be990506000808273ffffffffffffffffffffffffffffffffffffffff166040516024016040516020818303038152906040527ff3ccaac0000000000000000000000000000000000000000000000000000000007bffffffffffffffffffffffffffffffffffffffffffffffffffffffff19166020820180517bffffffffffffffffffffffffffffffffffffffffffffffffffffffff8381831617835250505050604051610f4491906149c0565b600060405180830381855af49150503d8060008114610f7f576040519150601f19603f3d011682016040523d82523d6000602084013e610f84565b606091505b509150915081610fc9576040517f08c379a0000000000000000000000000000000000000000000000000000000008152600401610fc090614ade565b60405180910390fd5b80806020019051810190610fdd9190614b6e565b9550505050505092915050565b6060610ff5826125c2565b6110106005600084815260200190815260200160002061267c565b9050919050565b611021338461260f565b6110645782336040517f1294d2a900000000000000000000000000000000000000000000000000000000815260040161105b929190614bb7565b60405180910390fd5b611071858585858561269d565b5050505050565b6060611083826129c0565b9050919050565b60608282905067ffffffffffffffff8111156110a9576110a86138b6565b5b6040519080825280602002602001820160405280156110dc57816020015b60608152602001906001900390816110c75790505b50905060005b838390508110156111ff576000803073ffffffffffffffffffffffffffffffffffffffff1686868581811061111a576111196149d7565b5b905060200281019061112c9190614bef565b60405161113a929190614c52565b600060405180830381855af49150503d8060008114611175576040519150601f19603f3d011682016040523d82523d6000602084013e61117a565b606091505b5091509150816111d35760008151146111965780518082602001fd5b826040517f234eb8190000000000000000000000000000000000000000000000000000000081526004016111ca9190613705565b60405180910390fd5b808484815181106111e7576111e66149d7565b5b602002602001018190525082600101925050506110e2565b5092915050565b600061124f600460008473ffffffffffffffffffffffffffffffffffffffff1673ffffffffffffffffffffffffffffffffffffffff168152602001908152602001600020612a65565b9050919050565b61125e612a7a565b611268600061209e565b565b60606000734e8ba475570385e3cc35a0e40293035cd45b9be990508073ffffffffffffffffffffffffffffffffffffffff16637f23690c7f2abb082c1b23ea79fce2a9e934ecb19ce15738b1483c365d0125f47e8ccc7dfc60001b856040516020016112d69190614ca7565b6040516020818303038152906040526040518363ffffffff1660e01b8152600401611302929190614cbe565b600060405180830381600087803b15801561131c57600080fd5b505af1158015611330573d6000803e3d6000fd5b5050505061133c611c20565b915050919050565b6009805461135190614d1d565b80601f016020809104026020016040519081016040528092919081815260200182805461137d90614d1d565b80156113ca5780601f1061139f576101008083540402835291602001916113ca565b820191906000526020600020905b8154815290600101906020018083116113ad57829003601f168201915b505050505081565b6000855190508451811415806113e9575083518114155b806113f5575082518114155b80611401575081518114155b15611438576040517f93a8311900000000000000000000000000000000000000000000000000000000815260040160405180910390fd5b60005b818110156114dd576114d2878281518110611459576114586149d7565b5b6020026020010151878381518110611474576114736149d7565b5b602002602001015187848151811061148f5761148e6149d7565b5b60200260200101518785815181106114aa576114a96149d7565b5b60200260200101518786815181106114c5576114c46149d7565b5b6020026020010151611017565b80600101905061143b565b50505050505050565b6114ee612a7a565b60003414611528576040517ff36ba73700000000000000000000000000000000000000000000000000000000815260040160405180910390fd5b6115328282612af3565b5050565b600061154183610c23565b90503373ffffffffffffffffffffffffffffffffffffffff168173ffffffffffffffffffffffffffffffffffffffff16146115b7578083336040517f5b271ea20000000000000000000000000000000000000000000000000000000081526004016115ae93929190614d4e565b60405180910390fd5b600073ffffffffffffffffffffffffffffffffffffffff168473ffffffffffffffffffffffffffffffffffffffff160361161d576040517f9577b8b300000000000000000000000000000000000000000000000000000000815260040160405180910390fd5b8373ffffffffffffffffffffffffffffffffffffffff168173ffffffffffffffffffffffffffffffffffffffff1603611682576040517f89fdad6200000000000000000000000000000000000000000000000000000000815260040160405180910390fd5b60006116a98560056000878152602001908152602001600020612b5d90919063ffffffff16565b9050806116ef5784846040517fa7626b680000000000000000000000000000000000000000000000000000000081526004016116e6929190614d85565b60405180910390fd5b838273ffffffffffffffffffffffffffffffffffffffff168673ffffffffffffffffffffffffffffffffffffffff167f1b1b58aa2ec0cec2228b2d37124556d41f5a1f7b12f089171f896cc2366712158660405161174d9190613804565b60405180910390a46000338560018660405160200161176f9493929190614dae565b604051602081830303815290604052905061178a8682612b8d565b505050505050565b60008060009054906101000a900473ffffffffffffffffffffffffffffffffffffffff16905090565b606060006040518060400160405280601081526020017f303132333435363738396162636465660000000000000000000000000000000081525090506000604267ffffffffffffffff811115611814576118136138b6565b5b6040519080825280601f01601f1916602001820160405280156118465781602001600182028036833780820191505090505b5090507f30000000000000000000000000000000000000000000000000000000000000008160008151811061187e5761187d6149d7565b5b60200101907effffffffffffffffffffffffffffffffffffffffffffffffffffffffffffff1916908160001a9053507f7800000000000000000000000000000000000000000000000000000000000000816001815181106118e2576118e16149d7565b5b60200101907effffffffffffffffffffffffffffffffffffffffffffffffffffffffffffff1916908160001a90535060005b6020811015611a52576000858260208110611932576119316149d7565b5b1a60f81b90508360048260f81c60ff16901c60ff1681518110611958576119576149d7565b5b602001015160f81c60f81b836002846119719190614dfa565b600261197d9190614a35565b8151811061198e5761198d6149d7565b5b60200101907effffffffffffffffffffffffffffffffffffffffffffffffffffffffffffff1916908160001a90535083600f8260f81c1660ff16815181106119d9576119d86149d7565b5b602001015160f81c60f81b836002846119f29190614dfa565b60036119fe9190614a35565b81518110611a0f57611a0e6149d7565b5b60200101907effffffffffffffffffffffffffffffffffffffffffffffffffffffffffffff1916908160001a905350508080611a4a90614e3c565b915050611914565b508092505050919050565b611a65612a7a565b60003414611a9f576040517ff36ba73700000000000000000000000000000000000000000000000000000000815260040160405180910390fd5b8051825114611ada576040517f3bcc897900000000000000000000000000000000000000000000000000000000815260040160405180910390fd5b6000825103611b15576040517f97da5f9500000000000000000000000000000000000000000000000000000000815260040160405180910390fd5b60005b8251811015611b6a57611b5f838281518110611b3757611b366149d7565b5b6020026020010151838381518110611b5257611b516149d7565b5b6020026020010151612af3565b806001019050611b18565b505050565b6060611bb8600460008473ffffffffffffffffffffffffffffffffffffffff1673ffffffffffffffffffffffffffffffffffffffff168152602001908152602001600020612bbf565b9050919050565b600760009054906101000a900473ffffffffffffffffffffffffffffffffffffffff1681565b6040517f08c379a0000000000000000000000000000000000000000000000000000000008152600401611c1790614ed0565b60405180910390fd5b60606000734e8ba475570385e3cc35a0e40293035cd45b9be990508073ffffffffffffffffffffffffffffffffffffffff1663f3ccaac06040518163ffffffff1660e01b8152600401600060405180830381865afa158015611c86573d6000803e3d6000fd5b505050506040513d6000823e3d601f19601f82011682018060405250810190611caf9190614b6e565b91505090565b611cbd612a7a565b81518351141580611cd057508051825114155b15611d07576040517f2fa71dfe00000000000000000000000000000000000000000000000000000000815260040160405180910390fd5b6000835103611d42576040517f80c9830500000000000000000000000000000000000000000000000000000000815260040160405180910390fd5b60005b8351811015611db257611da7848281518110611d6457611d636149d7565b5b6020026020010151848381518110611d7f57611d7e6149d7565b5b6020026020010151848481518110611d9a57611d996149d7565b5b6020026020010151612be0565b806001019050611d45565b50505050565b611dc0612a7a565b611dcb838383612be0565b505050565b60085481565b6000611de184610c23565b90503373ffffffffffffffffffffffffffffffffffffffff168173ffffffffffffffffffffffffffffffffffffffff1614611e57578084336040517f5b271ea2000000000000000000000000000000000000000000000000000000008152600401611e4e93929190614d4e565b60405180910390fd5b600073ffffffffffffffffffffffffffffffffffffffff168573ffffffffffffffffffffffffffffffffffffffff1603611ebd576040517f9577b8b300000000000000000000000000000000000000000000000000000000815260040160405180910390fd5b8473ffffffffffffffffffffffffffffffffffffffff168173ffffffffffffffffffffffffffffffffffffffff1603611f22576040517f89fdad6200000000000000000000000000000000000000000000000000000000815260040160405180910390fd5b611f2f8582868686612c67565b8215611f6c5760003385600085604051602001611f4f9493929190614dae565b6040516020818303038152906040529050611f6a8682612b8d565b505b5050505050565b6060815167ffffffffffffffff811115611f9057611f8f6138b6565b5b604051908082528060200260200182016040528015611fc357816020015b6060815260200190600190039081611fae5790505b50905060005b825181101561201e57611ff5838281518110611fe857611fe76149d7565b5b60200260200101516129c0565b828281518110612008576120076149d7565b5b6020026020010181905250806001019050611fc9565b50919050565b61202c612a7a565b600073ffffffffffffffffffffffffffffffffffffffff168173ffffffffffffffffffffffffffffffffffffffff1603612092576040517f1ad8836c00000000000000000000000000000000000000000000000000000000815260040160405180910390fd5b61209b8161209e565b50565b6120a6611792565b73ffffffffffffffffffffffffffffffffffffffff168173ffffffffffffffffffffffffffffffffffffffff1614612193578073ffffffffffffffffffffffffffffffffffffffff1660008054906101000a900473ffffffffffffffffffffffffffffffffffffffff1673ffffffffffffffffffffffffffffffffffffffff167f8be0079c531659141344cd1fd0a4f28419497f9722a3daafe3b4186f6b6457e060405160405180910390a3806000806101000a81548173ffffffffffffffffffffffffffffffffffffffff021916908373ffffffffffffffffffffffffffffffffffffffff1602179055505b50565b806001600084815260200190815260200160002090816121b6919061509c565b50817fece574603820d07bc9b91f2a932baadf4628aabcb8afba49776529c14a6104b2826040516121e79190613804565b60405180910390a25050565b6121fd8282612201565b5050565b7fdeba1e292f8ba88238e10ab3c7f88bd4be4fac56cad5194b6ecceaf653468af160001b820361225d576040517f85c169bd00000000000000000000000000000000000000000000000000000000815260040160405180910390fd5b7f2f0a68ab07768e01943a599e73362a0e17a63a72e94dd2e384d2c1d4db93275660001b82036122b9576040517f76755b3800000000000000000000000000000000000000000000000000000000815260040160405180910390fd5b7fe0261fa95db2eb3b5439bd033cda66d56b96f92f243a8228fd87550ed7bdfdb360001b8203612315576040517f4ef6d7fb00000000000000000000000000000000000000000000000000000000815260040160405180910390fd5b80600160008481526020019081526020016000209081612335919061509c565b50817fece574603820d07bc9b91f2a932baadf4628aabcb8afba49776529c14a6104b2826040516123669190613804565b60405180910390a25050565b60008060006123ad69cee78b4094da8601109660b01b857bffffffffffffffffffffffffffffffffffffffffffffffffffffffff1916612d44565b905060006123ba826129c0565b905060148151141580156123d057506000815114155b1561241257806040517f42bfe79f0000000000000000000000000000000000000000000000000000000081526004016124099190613804565b60405180910390fd5b8061241c906151bf565b60601c6001935093505050915091565b600063a918fa6b60e01b7bffffffffffffffffffffffffffffffffffffffffffffffffffffffff1916827bffffffffffffffffffffffffffffffffffffffffffffffffffffffff19161480612486575061248582612d84565b5b9050919050565b6000806124a06301ffc9a760e01b612372565b509050600073ffffffffffffffffffffffffffffffffffffffff168173ffffffffffffffffffffffffffffffffffffffff16036124e15760009150506124ef565b6124eb8184612de5565b9150505b919050565b606060016000848460405160200161250d929190615247565b604051602081830303815290604052805190602001208152602001908152602001600020805461253c90614d1d565b80601f016020809104026020016040519081016040528092919081815260200182805461256890614d1d565b80156125b55780601f1061258a576101008083540402835291602001916125b5565b820191906000526020600020905b81548152906001019060200180831161259857829003601f168201915b5050505050905092915050565b6125cb81612ea4565b61260c57806040517fae8f9a36000000000000000000000000000000000000000000000000000000008152600401612603919061482d565b60405180910390fd5b50565b600061261a82610c23565b73ffffffffffffffffffffffffffffffffffffffff168373ffffffffffffffffffffffffffffffffffffffff16148061267457506126738360056000858152602001908152602001600020612f1090919063ffffffff16565b5b905092915050565b6060600061268c83600001612f40565b905060608190508092505050919050565b8373ffffffffffffffffffffffffffffffffffffffff168573ffffffffffffffffffffffffffffffffffffffff1603612702576040517f5d67d6c100000000000000000000000000000000000000000000000000000000815260040160405180910390fd5b600061270d84610c23565b90508573ffffffffffffffffffffffffffffffffffffffff168173ffffffffffffffffffffffffffffffffffffffff1614612783578084876040517f5b271ea200000000000000000000000000000000000000000000000000000000815260040161277a93929190614d4e565b60405180910390fd5b600073ffffffffffffffffffffffffffffffffffffffff168573ffffffffffffffffffffffffffffffffffffffff16036127e9576040517f24ecef4d00000000000000000000000000000000000000000000000000000000815260040160405180910390fd5b6127f586868685612f9c565b6127fe84610c23565b905061280a8685612fa2565b61285b84600460008973ffffffffffffffffffffffffffffffffffffffff1673ffffffffffffffffffffffffffffffffffffffff16815260200190815260200160002061301890919063ffffffff16565b506128ad84600460008873ffffffffffffffffffffffffffffffffffffffff1673ffffffffffffffffffffffffffffffffffffffff16815260200190815260200160002061302f90919063ffffffff16565b50846003600086815260200190815260200160002060006101000a81548173ffffffffffffffffffffffffffffffffffffffff021916908373ffffffffffffffffffffffffffffffffffffffff160217905550838573ffffffffffffffffffffffffffffffffffffffff168773ffffffffffffffffffffffffffffffffffffffff167fb333c813a7426a7a11e2b190cad52c44119421594b47f6f32ace6d8c7207b2bf33878760405161296293929190615273565b60405180910390a461297686868685613046565b600033878787866040516020016129919594939291906152b1565b60405160208183030381529060405290506129ac878261304c565b6129b786858361307e565b50505050505050565b60606001600083815260200190815260200160002080546129e090614d1d565b80601f0160208091040260200160405190810160405280929190818152602001828054612a0c90614d1d565b8015612a595780601f10612a2e57610100808354040283529160200191612a59565b820191906000526020600020905b815481529060010190602001808311612a3c57829003601f168201915b50505050509050919050565b6000612a73826000016131e4565b9050919050565b3373ffffffffffffffffffffffffffffffffffffffff16612a99611792565b73ffffffffffffffffffffffffffffffffffffffff1614612af157336040517fbf1169c5000000000000000000000000000000000000000000000000000000008152600401612ae89190613bdb565b60405180910390fd5b565b7ff675e9361af1c1664c1868cfa3eb97672d6b1a513aa5b81dec34c9ee330e818d60001b8203612b4f576040517f3664800a00000000000000000000000000000000000000000000000000000000815260040160405180910390fd5b612b5982826121f3565b5050565b6000612b85836000018373ffffffffffffffffffffffffffffffffffffffff1660001b6131f5565b905092915050565b612bbb827f8a1c15a8799f71b547e08e2bcb2e85257e81b0a07eee2ce6712549eef1f0097060001b83613265565b5050565b60606000612bcf83600001612f40565b905060608190508092505050919050565b80600160008585604051602001612bf8929190615247565b6040516020818303038152906040528051906020012081526020019081526020016000209081612c28919061509c565b5081837fa6e4251f855f750545fe414f120db91c76b88def14d120969e5bb2d3f05debbb83604051612c5a9190613804565b60405180910390a3505050565b6000612c8e866005600087815260200190815260200160002061332490919063ffffffff16565b905080612cd45785846040517f4aa31a8c000000000000000000000000000000000000000000000000000000008152600401612ccb929190614d85565b60405180910390fd5b838573ffffffffffffffffffffffffffffffffffffffff168773ffffffffffffffffffffffffffffffffffffffff167fc78cd419d6136f9f1c1c6aec1d3fae098cffaf8bc86314a8f2685e32fe574e3c8686604051612d3492919061530b565b60405180910390a4505050505050565b60008083600060f01b84604051602001612d60939291906153f6565b604051602081830303815290604052905080612d7b90615448565b91505092915050565b600063629aa69460e01b7bffffffffffffffffffffffffffffffffffffffffffffffffffffffff1916827bffffffffffffffffffffffffffffffffffffffffffffffffffffffff19161480612dde5750612ddd82613354565b5b9050919050565b6000806301ffc9a760e01b83604051602401612e0191906148a0565b604051602081830303815290604052907bffffffffffffffffffffffffffffffffffffffffffffffffffffffff19166020820180517bffffffffffffffffffffffffffffffffffffffffffffffffffffffff838183161783525050505090506000806000602060008551602087018a617530fa92503d91506000519050828015612e8c575060208210155b8015612e985750600081115b94505050505092915050565b60008073ffffffffffffffffffffffffffffffffffffffff166003600084815260200190815260200160002060009054906101000a900473ffffffffffffffffffffffffffffffffffffffff1673ffffffffffffffffffffffffffffffffffffffff1614159050919050565b6000612f38836000018373ffffffffffffffffffffffffffffffffffffffff1660001b6133be565b905092915050565b606081600001805480602002602001604051908101604052809291908181526020018280548015612f9057602002820191906000526020600020905b815481526020019060010190808311612f7c575b50505050509050919050565b50505050565b60006005600083815260200190815260200160002090506000612fc4826133e1565b90506000805b8281101561301057612fe66000856133f690919063ffffffff16565b9150613005828787600060405180602001604052806000815250612c67565b806001019050612fca565b505050505050565b60006130278360000183613410565b905092915050565b600061303e83600001836131f5565b905092915050565b50505050565b61307a827fb23eae7e6d1564b295b4c3e3be402d9a2f0776c57bdf365903496f6fa481ab0060001b83613265565b5050565b61308f83636bb56a1460e01b612de5565b15613140578273ffffffffffffffffffffffffffffffffffffffff16636bb56a147f0b084a55ebf70fd3c06fd755269dac2212c4d3f0f4d09079780bfa50c1b2984d60001b836040518363ffffffff1660e01b81526004016130f2929190614cbe565b6000604051808303816000875af1158015613111573d6000803e3d6000fd5b505050506040513d6000823e3d601f19601f8201168201806040525081019061313a919061551f565b506131df565b816131de5760008373ffffffffffffffffffffffffffffffffffffffff163b146131a157826040517f4349776d0000000000000000000000000000000000000000000000000000000081526004016131989190613bdb565b60405180910390fd5b826040517f031731370000000000000000000000000000000000000000000000000000000081526004016131d59190613bdb565b60405180910390fd5b5b505050565b600081600001805490509050919050565b600061320183836133be565b61325a57826000018290806001815401808255809150506001900390600052602060002001600090919091909150558260000180549050836001016000848152602001908152602001600020819055506001905061325f565b600090505b92915050565b613295636bb56a1460e01b8473ffffffffffffffffffffffffffffffffffffffff16612de590919063ffffffff16565b1561331f578273ffffffffffffffffffffffffffffffffffffffff16636bb56a1483836040518363ffffffff1660e01b81526004016132d5929190614cbe565b6000604051808303816000875af11580156132f4573d6000803e3d6000fd5b505050506040513d6000823e3d601f19601f8201168201806040525081019061331d919061551f565b505b505050565b600061334c836000018373ffffffffffffffffffffffffffffffffffffffff1660001b613410565b905092915050565b60007f01ffc9a7000000000000000000000000000000000000000000000000000000007bffffffffffffffffffffffffffffffffffffffffffffffffffffffff1916827bffffffffffffffffffffffffffffffffffffffffffffffffffffffff1916149050919050565b600080836001016000848152602001908152602001600020541415905092915050565b60006133ef826000016131e4565b9050919050565b60006134058360000183613524565b60001c905092915050565b600080836001016000848152602001908152602001600020549050600081146135185760006001826134429190615568565b905060006001866000018054905061345a9190615568565b90508181146134c957600086600001828154811061347b5761347a6149d7565b5b906000526020600020015490508087600001848154811061349f5761349e6149d7565b5b90600052602060002001819055508387600101600083815260200190815260200160002081905550505b856000018054806134dd576134dc61559c565b5b60019003818190600052602060002001600090559055856001016000868152602001908152602001600020600090556001935050505061351e565b60009150505b92915050565b600082600001828154811061353c5761353b6149d7565b5b9060005260206000200154905092915050565b600082825260208201905092915050565b60008082015250565b600061357660048361354f565b915061358182613560565b602082019050919050565b600060208201905081810360008301526135a581613569565b9050919050565b82818337600083830152505050565b6000601f19601f8301169050919050565b60006135d8838561354f565b93506135e58385846135ac565b6135ee836135bb565b840190509392505050565b600060208201905081810360008301526136148184866135cc565b90509392505050565b6000604051905090565b600080fd5b600080fd5b60007fffffffff0000000000000000000000000000000000000000000000000000000082169050919050565b61366681613631565b811461367157600080fd5b50565b6000813590506136838161365d565b92915050565b60006020828403121561369f5761369e613627565b5b60006136ad84828501613674565b91505092915050565b60008115159050919050565b6136cb816136b6565b82525050565b60006020820190506136e660008301846136c2565b92915050565b6000819050919050565b6136ff816136ec565b82525050565b600060208201905061371a60008301846136f6565b92915050565b6000819050919050565b61373381613720565b811461373e57600080fd5b50565b6000813590506137508161372a565b92915050565b6000806040838503121561376d5761376c613627565b5b600061377b85828601613741565b925050602061378c85828601613741565b9150509250929050565b600081519050919050565b60005b838110156137bf5780820151818401526020810190506137a4565b60008484015250505050565b60006137d682613796565b6137e0818561354f565b93506137f08185602086016137a1565b6137f9816135bb565b840191505092915050565b6000602082019050818103600083015261381e81846137cb565b905092915050565b600073ffffffffffffffffffffffffffffffffffffffff82169050919050565b600061385182613826565b9050919050565b61386181613846565b811461386c57600080fd5b50565b60008135905061387e81613858565b92915050565b60006020828403121561389a57613899613627565b5b60006138a88482850161386f565b91505092915050565b600080fd5b7f4e487b7100000000000000000000000000000000000000000000000000000000600052604160045260246000fd5b6138ee826135bb565b810181811067ffffffffffffffff8211171561390d5761390c6138b6565b5b80604052505050565b600061392061361d565b905061392c82826138e5565b919050565b600067ffffffffffffffff82111561394c5761394b6138b6565b5b602082029050602081019050919050565b600080fd5b600061397561397084613931565b613916565b905080838252602082019050602084028301858111156139985761399761395d565b5b835b818110156139c157806139ad8882613741565b84526020840193505060208101905061399a565b5050509392505050565b600082601f8301126139e0576139df6138b1565b5b81356139f0848260208601613962565b91505092915050565b60008060408385031215613a1057613a0f613627565b5b600083013567ffffffffffffffff811115613a2e57613a2d61362c565b5b613a3a858286016139cb565b925050602083013567ffffffffffffffff811115613a5b57613a5a61362c565b5b613a67858286016139cb565b9150509250929050565b600081519050919050565b600082825260208201905092915050565b6000819050602082019050919050565b600082825260208201905092915050565b6000613ab982613796565b613ac38185613a9d565b9350613ad38185602086016137a1565b613adc816135bb565b840191505092915050565b6000613af38383613aae565b905092915050565b6000602082019050919050565b6000613b1382613a71565b613b1d8185613a7c565b935083602082028501613b2f85613a8d565b8060005b85811015613b6b5784840389528151613b4c8582613ae7565b9450613b5783613afb565b925060208a01995050600181019050613b33565b50829750879550505050505092915050565b60006020820190508181036000830152613b978184613b08565b905092915050565b600060208284031215613bb557613bb4613627565b5b6000613bc384828501613741565b91505092915050565b613bd581613846565b82525050565b6000602082019050613bf06000830184613bcc565b92915050565b60008060408385031215613c0d57613c0c613627565b5b6000613c1b8582860161386f565b9250506020613c2c85828601613741565b9150509250929050565b613c3f816136ec565b8114613c4a57600080fd5b50565b600081359050613c5c81613c36565b92915050565b60008060408385031215613c7957613c78613627565b5b6000613c8785828601613c4d565b9250506020613c988582860161386f565b9150509250929050565b600081519050919050565b600082825260208201905092915050565b6000613cc982613ca2565b613cd38185613cad565b9350613ce38185602086016137a1565b613cec816135bb565b840191505092915050565b60006020820190508181036000830152613d118184613cbe565b905092915050565b600081519050919050565b600082825260208201905092915050565b6000819050602082019050919050565b613d4e81613846565b82525050565b6000613d608383613d45565b60208301905092915050565b6000602082019050919050565b6000613d8482613d19565b613d8e8185613d24565b9350613d9983613d35565b8060005b83811015613dca578151613db18882613d54565b9750613dbc83613d6c565b925050600181019050613d9d565b5085935050505092915050565b60006020820190508181036000830152613df18184613d79565b905092915050565b613e02816136b6565b8114613e0d57600080fd5b50565b600081359050613e1f81613df9565b92915050565b600080fd5b600067ffffffffffffffff821115613e4557613e446138b6565b5b613e4e826135bb565b9050602081019050919050565b6000613e6e613e6984613e2a565b613916565b905082815260208101848484011115613e8a57613e89613e25565b5b613e958482856135ac565b509392505050565b600082601f830112613eb257613eb16138b1565b5b8135613ec2848260208601613e5b565b91505092915050565b600080600080600060a08688031215613ee757613ee6613627565b5b6000613ef58882890161386f565b9550506020613f068882890161386f565b9450506040613f1788828901613741565b9350506060613f2888828901613e10565b925050608086013567ffffffffffffffff811115613f4957613f4861362c565b5b613f5588828901613e9d565b9150509295509295909350565b600080fd5b60008083601f840112613f7d57613f7c6138b1565b5b8235905067ffffffffffffffff811115613f9a57613f99613f62565b5b602083019150836020820283011115613fb657613fb561395d565b5b9250929050565b60008060208385031215613fd457613fd3613627565b5b600083013567ffffffffffffffff811115613ff257613ff161362c565b5b613ffe85828601613f67565b92509250509250929050565b600067ffffffffffffffff821115614025576140246138b6565b5b61402e826135bb565b9050602081019050919050565b600061404e6140498461400a565b613916565b90508281526020810184848401111561406a57614069613e25565b5b6140758482856135ac565b509392505050565b600082601f830112614092576140916138b1565b5b81356140a284826020860161403b565b91505092915050565b6000602082840312156140c1576140c0613627565b5b600082013567ffffffffffffffff8111156140df576140de61362c565b5b6140eb8482850161407d565b91505092915050565b600067ffffffffffffffff82111561410f5761410e6138b6565b5b602082029050602081019050919050565b600061413361412e846140f4565b613916565b905080838252602082019050602084028301858111156141565761415561395d565b5b835b8181101561417f578061416b888261386f565b845260208401935050602081019050614158565b5050509392505050565b600082601f83011261419e5761419d6138b1565b5b81356141ae848260208601614120565b91505092915050565b600067ffffffffffffffff8211156141d2576141d16138b6565b5b602082029050602081019050919050565b60006141f66141f1846141b7565b613916565b905080838252602082019050602084028301858111156142195761421861395d565b5b835b81811015614242578061422e8882613e10565b84526020840193505060208101905061421b565b5050509392505050565b600082601f830112614261576142606138b1565b5b81356142718482602086016141e3565b91505092915050565b600067ffffffffffffffff821115614295576142946138b6565b5b602082029050602081019050919050565b60006142b96142b48461427a565b613916565b905080838252602082019050602084028301858111156142dc576142db61395d565b5b835b8181101561432357803567ffffffffffffffff811115614301576143006138b1565b5b80860161430e8982613e9d565b855260208501945050506020810190506142de565b5050509392505050565b600082601f830112614342576143416138b1565b5b81356143528482602086016142a6565b91505092915050565b600080600080600060a0868803121561437757614376613627565b5b600086013567ffffffffffffffff8111156143955761439461362c565b5b6143a188828901614189565b955050602086013567ffffffffffffffff8111156143c2576143c161362c565b5b6143ce88828901614189565b945050604086013567ffffffffffffffff8111156143ef576143ee61362c565b5b6143fb888289016139cb565b935050606086013567ffffffffffffffff81111561441c5761441b61362c565b5b6144288882890161424c565b925050608086013567ffffffffffffffff8111156144495761444861362c565b5b6144558882890161432d565b9150509295509295909350565b6000806040838503121561447957614478613627565b5b600061448785828601613741565b925050602083013567ffffffffffffffff8111156144a8576144a761362c565b5b6144b485828601613e9d565b9150509250929050565b6000806000606084860312156144d7576144d6613627565b5b60006144e58682870161386f565b93505060206144f686828701613741565b925050604084013567ffffffffffffffff8111156145175761451661362c565b5b61452386828701613e9d565b9150509250925092565b6000806040838503121561454457614543613627565b5b600083013567ffffffffffffffff8111156145625761456161362c565b5b61456e858286016139cb565b925050602083013567ffffffffffffffff81111561458f5761458e61362c565b5b61459b8582860161432d565b9150509250929050565b600081519050919050565b600082825260208201905092915050565b6000819050602082019050919050565b6145da81613720565b82525050565b60006145ec83836145d1565b60208301905092915050565b6000602082019050919050565b6000614610826145a5565b61461a81856145b0565b9350614625836145c1565b8060005b8381101561465657815161463d88826145e0565b9750614648836145f8565b925050600181019050614629565b5085935050505092915050565b6000602082019050818103600083015261467d8184614605565b905092915050565b6000806000806080858703121561469f5761469e613627565b5b60006146ad8782880161386f565b94505060206146be87828801613741565b93505060406146cf87828801613e10565b925050606085013567ffffffffffffffff8111156146f0576146ef61362c565b5b6146fc87828801613e9d565b91505092959194509250565b60008060006060848603121561472157614720613627565b5b600084013567ffffffffffffffff81111561473f5761473e61362c565b5b61474b868287016139cb565b935050602084013567ffffffffffffffff81111561476c5761476b61362c565b5b614778868287016139cb565b925050604084013567ffffffffffffffff8111156147995761479861362c565b5b6147a58682870161432d565b9150509250925092565b6000806000606084860312156147c8576147c7613627565b5b60006147d686828701613741565b93505060206147e786828701613741565b925050604084013567ffffffffffffffff8111156148085761480761362c565b5b61481486828701613e9d565b9150509250925092565b61482781613720565b82525050565b6000602082019050614842600083018461481e565b92915050565b60006020828403121561485e5761485d613627565b5b600082013567ffffffffffffffff81111561487c5761487b61362c565b5b614888848285016139cb565b91505092915050565b61489a81613631565b82525050565b60006020820190506148b56000830184614891565b92915050565b600081905092915050565b60006148d283856148bb565b93506148df8385846135ac565b82840190509392505050565b60008160601b9050919050565b6000614903826148eb565b9050919050565b6000614915826148f8565b9050919050565b61492d61492882613846565b61490a565b82525050565b6000819050919050565b61494e614949826136ec565b614933565b82525050565b60006149618286886148c6565b915061496d828561491c565b60148201915061497d828461493d565b60208201915081905095945050505050565b600061499a82613796565b6149a481856148bb565b93506149b48185602086016137a1565b80840191505092915050565b60006149cc828461498f565b915081905092915050565b7f4e487b7100000000000000000000000000000000000000000000000000000000600052603260045260246000fd5b7f4e487b7100000000000000000000000000000000000000000000000000000000600052601160045260246000fd5b6000614a40826136ec565b9150614a4b836136ec565b9250828201905080821115614a6357614a62614a06565b5b92915050565b6000604082019050614a7e600083018561481e565b614a8b60208301846136f6565b9392505050565b7f44656c656761746563616c6c206661696c65642e000000000000000000000000600082015250565b6000614ac8601483613cad565b9150614ad382614a92565b602082019050919050565b60006020820190508181036000830152614af781614abb565b9050919050565b6000614b11614b0c8461400a565b613916565b905082815260208101848484011115614b2d57614b2c613e25565b5b614b388482856137a1565b509392505050565b600082601f830112614b5557614b546138b1565b5b8151614b65848260208601614afe565b91505092915050565b600060208284031215614b8457614b83613627565b5b600082015167ffffffffffffffff811115614ba257614ba161362c565b5b614bae84828501614b40565b91505092915050565b6000604082019050614bcc600083018561481e565b614bd96020830184613bcc565b9392505050565b600080fd5b600080fd5b600080fd5b60008083356001602003843603038112614c0c57614c0b614be0565b5b80840192508235915067ffffffffffffffff821115614c2e57614c2d614be5565b5b602083019250600182023603831315614c4a57614c49614bea565b5b509250929050565b6000614c5f8284866148c6565b91508190509392505050565b600081905092915050565b6000614c8182613ca2565b614c8b8185614c6b565b9350614c9b8185602086016137a1565b80840191505092915050565b6000614cb38284614c76565b915081905092915050565b6000604082019050614cd3600083018561481e565b8181036020830152614ce581846137cb565b90509392505050565b7f4e487b7100000000000000000000000000000000000000000000000000000000600052602260045260246000fd5b60006002820490506001821680614d3557607f821691505b602082108103614d4857614d47614cee565b5b50919050565b6000606082019050614d636000830186613bcc565b614d70602083018561481e565b614d7d6040830184613bcc565b949350505050565b6000604082019050614d9a6000830185613bcc565b614da7602083018461481e565b9392505050565b6000608082019050614dc36000830187613bcc565b614dd0602083018661481e565b614ddd60408301856136c2565b8181036060830152614def81846137cb565b905095945050505050565b6000614e05826136ec565b9150614e10836136ec565b9250828202614e1e816136ec565b91508282048414831517614e3557614e34614a06565b5b5092915050565b6000614e47826136ec565b91507fffffffffffffffffffffffffffffffffffffffffffffffffffffffffffffffff8203614e7957614e78614a06565b5b600182019050919050565b7f546869732066756e6374696f6e2069732064697361626c65642e000000000000600082015250565b6000614eba601a83613cad565b9150614ec582614e84565b602082019050919050565b60006020820190508181036000830152614ee981614ead565b9050919050565b60008190508160005260206000209050919050565b60006020601f8301049050919050565b600082821b905092915050565b600060088302614f527fffffffffffffffffffffffffffffffffffffffffffffffffffffffffffffffff82614f15565b614f5c8683614f15565b95508019841693508086168417925050509392505050565b6000819050919050565b6000614f99614f94614f8f846136ec565b614f74565b6136ec565b9050919050565b6000819050919050565b614fb383614f7e565b614fc7614fbf82614fa0565b848454614f22565b825550505050565b600090565b614fdc614fcf565b614fe7818484614faa565b505050565b5b8181101561500b57615000600082614fd4565b600181019050614fed565b5050565b601f8211156150505761502181614ef0565b61502a84614f05565b81016020851015615039578190505b61504d61504585614f05565b830182614fec565b50505b505050565b600082821c905092915050565b600061507360001984600802615055565b1980831691505092915050565b600061508c8383615062565b9150826002028217905092915050565b6150a582613796565b67ffffffffffffffff8111156150be576150bd6138b6565b5b6150c88254614d1d565b6150d382828561500f565b600060209050601f83116001811461510657600084156150f4578287015190505b6150fe8582615080565b865550615166565b601f19841661511486614ef0565b60005b8281101561513c57848901518255600182019150602085019450602081019050615117565b868310156151595784890151615155601f891682615062565b8355505b6001600288020188555050505b505050505050565b6000819050602082019050919050565b60007fffffffffffffffffffffffffffffffffffffffff00000000000000000000000082169050919050565b60006151b6825161517e565b80915050919050565b60006151ca82613796565b826151d48461516e565b90506151df816151aa565b9250601482101561521f5761521a7fffffffffffffffffffffffffffffffffffffffff00000000000000000000000083601403600802614f15565b831692505b5050919050565b6000819050919050565b61524161523c82613720565b615226565b82525050565b60006152538285615230565b6020820191506152638284615230565b6020820191508190509392505050565b60006060820190506152886000830186613bcc565b61529560208301856136c2565b81810360408301526152a781846137cb565b9050949350505050565b600060a0820190506152c66000830188613bcc565b6152d36020830187613bcc565b6152e06040830186613bcc565b6152ed606083018561481e565b81810360808301526152ff81846137cb565b90509695505050505050565b600060408201905061532060008301856136c2565b818103602083015261533281846137cb565b90509392505050565b60007fffffffffffffffffffff0000000000000000000000000000000000000000000082169050919050565b6000819050919050565b61538261537d8261533b565b615367565b82525050565b60007fffff00000000000000000000000000000000000000000000000000000000000082169050919050565b6000819050919050565b6153cf6153ca82615388565b6153b4565b82525050565b6000819050919050565b6153f06153eb8261517e565b6153d5565b82525050565b60006154028286615371565b600a8201915061541282856153be565b60028201915061542282846153df565b601482019150819050949350505050565b600061543f8251613720565b80915050919050565b600061545382613796565b8261545d8461516e565b905061546881615433565b925060208210156154a8576154a37fffffffffffffffffffffffffffffffffffffffffffffffffffffffffffffffff83602003600802614f15565b831692505b5050919050565b60006154c26154bd84613e2a565b613916565b9050828152602081018484840111156154de576154dd613e25565b5b6154e98482856137a1565b509392505050565b600082601f830112615506576155056138b1565b5b81516155168482602086016154af565b91505092915050565b60006020828403121561553557615534613627565b5b600082015167ffffffffffffffff8111156155535761555261362c565b5b61555f848285016154f1565b91505092915050565b6000615573826136ec565b915061557e836136ec565b925082820390508181111561559657615595614a06565b5b92915050565b7f4e487b7100000000000000000000000000000000000000000000000000000000600052603160045260246000fdfea2646970667358221220e73cc34f4093ba253d94f1488b20642efc9b2dac7f0771176f482dc77d09b53564736f6c63430008110033",
  "linkReferences": {},
  "deployedLinkReferences": {}
}